{
  "_format": "hh-sol-artifact-1",
  "contractName": "Main",
  "sourceName": "src/Main.sol",
  "abi": [
    {
      "inputs": [
        {
          "internalType": "bytes32",
          "name": "initLeaf",
          "type": "bytes32"
        },
        {
          "internalType": "address",
          "name": "_verifier",
          "type": "address"
        }
      ],
      "stateMutability": "nonpayable",
      "type": "constructor"
    },
    {
      "inputs": [
        {
          "internalType": "uint256",
          "name": "ethSent",
          "type": "uint256"
        },
        {
          "internalType": "uint256",
          "name": "deposit",
          "type": "uint256"
        }
      ],
      "name": "ETHSentLessThanDeposit",
      "type": "error"
    },
    {
      "inputs": [
        {
          "internalType": "bytes32",
          "name": "leaf",
          "type": "bytes32"
        }
      ],
      "name": "KeyAlreadyUsed",
      "type": "error"
    },
    {
      "inputs": [
        {
          "internalType": "uint256",
          "name": "nullifier",
          "type": "uint256"
        }
      ],
      "name": "NullifierUsed",
      "type": "error"
    },
    {
      "inputs": [],
      "name": "ProofNotVerified",
      "type": "error"
    },
    {
      "inputs": [],
      "name": "ReentrancyGuardReentrantCall",
      "type": "error"
    },
    {
      "inputs": [
        {
          "internalType": "bytes32",
          "name": "root",
          "type": "bytes32"
        }
      ],
      "name": "RootNotInHistory",
      "type": "error"
    },
    {
      "inputs": [
        {
          "internalType": "address",
          "name": "token",
          "type": "address"
        }
      ],
      "name": "SafeERC20FailedOperation",
      "type": "error"
    },
    {
      "inputs": [
        {
          "internalType": "uint256",
          "name": "withdrawal",
          "type": "uint256"
        }
      ],
      "name": "WithdrawalExceedsMax",
      "type": "error"
    },
    {
      "anonymous": false,
      "inputs": [
        {
          "indexed": true,
          "internalType": "bytes32",
          "name": "leaf",
          "type": "bytes32"
        }
      ],
      "name": "DepositAdded",
      "type": "event"
    },
    {
      "inputs": [
        {
          "internalType": "bytes32",
          "name": "commitment",
          "type": "bytes32"
        },
        {
          "internalType": "address",
          "name": "asset",
          "type": "address"
        },
        {
          "internalType": "uint256",
          "name": "amount",
          "type": "uint256"
        }
      ],
      "name": "deposit",
      "outputs": [],
      "stateMutability": "payable",
      "type": "function"
    },
    {
      "inputs": [
        {
          "internalType": "bytes32",
          "name": "standardizedKey",
          "type": "bytes32"
        }
      ],
      "name": "getDepositDelta",
      "outputs": [
        {
          "components": [
            {
              "components": [
                {
                  "internalType": "address",
                  "name": "depositor",
                  "type": "address"
                },
                {
                  "internalType": "address",
                  "name": "asset",
                  "type": "address"
                },
                {
                  "internalType": "uint256",
                  "name": "amountAfterDeposit",
                  "type": "uint256"
                }
              ],
              "internalType": "struct Recorder.UserInfo",
              "name": "info",
              "type": "tuple"
            },
            {
              "internalType": "uint256",
              "name": "uniqueDeposits",
              "type": "uint256"
            },
            {
              "internalType": "uint256",
              "name": "currentDeposit",
              "type": "uint256"
            }
          ],
          "internalType": "struct Recorder.DepositInfo",
          "name": "",
          "type": "tuple"
        }
      ],
      "stateMutability": "view",
      "type": "function"
    },
    {
      "inputs": [],
      "name": "getLast64Roots",
      "outputs": [
        {
          "internalType": "bytes32[64]",
          "name": "",
          "type": "bytes32[64]"
        }
      ],
      "stateMutability": "view",
      "type": "function"
    },
    {
      "inputs": [],
      "name": "length",
      "outputs": [
        {
          "internalType": "uint40",
          "name": "",
          "type": "uint40"
        }
      ],
      "stateMutability": "view",
      "type": "function"
    },
    {
      "inputs": [],
      "name": "root",
      "outputs": [
        {
          "internalType": "bytes32",
          "name": "",
          "type": "bytes32"
        }
      ],
      "stateMutability": "view",
      "type": "function"
    },
    {
      "inputs": [
        {
          "internalType": "address",
          "name": "user",
          "type": "address"
        },
        {
          "internalType": "address",
          "name": "asset",
          "type": "address"
        }
      ],
      "name": "userHasDeposited",
      "outputs": [
        {
          "internalType": "bool",
          "name": "",
          "type": "bool"
        }
      ],
      "stateMutability": "view",
      "type": "function"
    },
    {
      "inputs": [
        {
          "internalType": "bytes32",
          "name": "root",
          "type": "bytes32"
        },
        {
          "internalType": "bytes",
          "name": "withdrawalKey",
          "type": "bytes"
        },
        {
          "internalType": "uint256[2]",
          "name": "pA",
          "type": "uint256[2]"
        },
        {
          "internalType": "uint256[2][2]",
          "name": "pB",
          "type": "uint256[2][2]"
        },
        {
          "internalType": "uint256[2]",
          "name": "pC",
          "type": "uint256[2]"
        },
        {
          "internalType": "uint256",
          "name": "nullifier",
          "type": "uint256"
        },
        {
          "internalType": "address",
          "name": "recipient",
          "type": "address"
        },
        {
          "internalType": "uint256",
          "name": "amount",
          "type": "uint256"
        }
      ],
      "name": "withdraw",
      "outputs": [],
      "stateMutability": "nonpayable",
      "type": "function"
    },
    {
      "inputs": [
        {
          "internalType": "bytes",
          "name": "withdrawalKeyHash",
          "type": "bytes"
        }
      ],
      "name": "withdrawals",
      "outputs": [
        {
          "internalType": "uint256",
          "name": "amountWithdrawn",
          "type": "uint256"
        }
      ],
      "stateMutability": "view",
      "type": "function"
    },
    {
      "stateMutability": "payable",
      "type": "receive"
    }
  ],
  "bytecode": "0x60a060405264010000000060805234801561001957600080fd5b50604051611aaa380380611aaa83398101604081905261003891610180565b604080516020810182528381529051639d036e7160e01b81528391829173__$cf4de68ffd19b0b1d2943d989c0c37e50a$__91639d036e719161007e91906004016101bd565b602060405180830381865af415801561009b573d6000803e3d6000fd5b505050506040513d601f19601f820116820180604052508101906100bf91906101ee565b60485560478054600164ffffffffff19918216811790925560008080527f9a0ca60aea446f0de2b73532837f00f56d3ae047e136f7838a520755c00b6e7680549092168317909155604a6020527f5260d36d21f8359821a072aff7b4be49946e72f371a0eaed97092c5b641059e292909255604b55604c80546001600160a01b0319166001600160a01b0385161790556040518492507fb7880b10329262ba73b895beb1cc9ddfc6a99af8811c65a0d997b43fe365d4649190a25050610207565b6000806040838503121561019357600080fd5b825160208401519092506001600160a01b03811681146101b257600080fd5b809150509250929050565b60208101818360005b60018110156101e55781518352602092830192909101906001016101c6565b50505092915050565b60006020828403121561020057600080fd5b5051919050565b608051611888610222600039600061085501526118886000f3fe60806040526004361061006f5760003560e01c806317933afa1461007b5780631f7b6d32146100e25780636f16f44614610116578063d954863c1461015c578063dc25879f14610171578063ebf0c717146101a1578063f057d3e1146101b7578063fdd4f025146101d757600080fd5b3661007657005b600080fd5b34801561008757600080fd5b5061009b610096366004611266565b6101f9565b60408051825180516001600160a01b0390811683526020808301519091168184015290830151828401528301516060820152910151608082015260a0015b60405180910390f35b3480156100ee57600080fd5b506047546101009064ffffffffff1681565b60405164ffffffffff90911681526020016100d9565b34801561012257600080fd5b5061014e610131366004611295565b805160208183018101805160058252928201919093012091525481565b6040519081526020016100d9565b61016f61016a366004611367565b6102fe565b005b34801561017d57600080fd5b5061019161018c36600461139d565b6104dc565b60405190151581526020016100d9565b3480156101ad57600080fd5b5061014e60485481565b3480156101c357600080fd5b5061016f6101d23660046113f2565b61050c565b3480156101e357600080fd5b506101ec610792565b6040516100d991906114ce565b6102016111f5565b600082815260016020819052604090912001546001600160a01b03166102256111f5565b6000848152600160208181526040808420815160608101835281546001600160a01b0390811682529482015485168185015260029091015481830152855291851680845260038252919092205491830191909152156102f0576040516370a0823160e01b81526001600160a01b038316906370a08231906102aa903090600401611500565b602060405180830381865afa1580156102c7573d6000803e3d6000fd5b505050506040513d601f19601f820116820180604052508101906102eb9190611514565b6102f2565b475b60408201529392505050565b604080516060810182528481526001600160a01b038416602082015280820183905290516320cf0a3760e01b815260009173__$b3d815f66fdc3fd247e96d393eea3510b4$__916320cf0a37916103579160040161152d565b602060405180830381865af4158015610374573d6000803e3d6000fd5b505050506040513d601f19601f820116820180604052508101906103989190611514565b60008181526020819052604090205490915060ff16156103d35760405163284fe6b360e11b8152600481018290526024015b60405180910390fd5b60006001600160a01b03841661041e578234101561040d5760405163f231e15b60e01b8152346004820152602481018490526044016103ca565b610417833461156b565b9050610436565b6104336001600160a01b0385163330866107cb565b50345b604051600090339083908381818185875af1925050503d8060008114610478576040519150601f19603f3d011682016040523d82523d6000602084013e61047d565b606091505b505090508061048b57600080fd5b6104958585610838565b61049e8361084e565b506104a9838661099f565b60405183907fb7880b10329262ba73b895beb1cc9ddfc6a99af8811c65a0d997b43fe365d46490600090a2505050505050565b6001600160a01b0380821660009081526002602090815260408083209386168352929052205460ff165b92915050565b610514610b0a565b61051d89610b34565b61053d5760405163046fa7d760e41b8152600481018a90526024016103ca565b60008381526004602052604090205460ff16156105705760405163093b5a1d60e31b8152600481018490526024016103ca565b6000838152600460205260408120805460ff1916600117905580806105958b8b610b7c565b92509250925060006105a682610bac565b9050600060058d8d6040516105bc92919061157e565b908152604051908190036020019020549050816105d9878361158e565b11156105fb5760405163f71c8e2760e01b8152600481018790526024016103ca565b8560058e8e60405161060e92919061157e565b9081526020016040518091039020600082825461062b919061158e565b909155506106399050611229565b8e8152602081018690526001600160a01b0385811660408084019190915260608301869052608083018b9052604c5490516334baeab960e01b81529116906334baeab990610691908f908f908f9087906004016115b7565b602060405180830381865afa1580156106ae573d6000803e3d6000fd5b505050506040513d601f19601f820116820180604052508101906106d29190611629565b6106ef5760405163186a529960e11b815260040160405180910390fd5b6001600160a01b038516610763576000886001600160a01b03168860405160006040518083038185875af1925050503d806000811461074a576040519150601f19603f3d011682016040523d82523d6000602084013e61074f565b606091505b505090508061075d57600080fd5b50610777565b6107776001600160a01b0386168989610bcb565b5050505050506107876001604b55565b505050505050505050565b61079a611247565b604080516108008101808352909160079182845b8154815260200190600101908083116107ae575050505050905090565b6040516001600160a01b0384811660248301528381166044830152606482018390526108329186918216906323b872dd906084015b604051602081830303815290604052915060e01b6020820180516001600160e01b038381831617835250505050610bfc565b50505050565b61084a8261084583610c64565b610c71565b5050565b600061087b7f0000000000000000000000000000000000000000000000000000000000000000600161164b565b6047805464ffffffffff928316921690600061089683611668565b91906101000a81548164ffffffffff021916908364ffffffffff16021790555064ffffffffff16036108f75760405162461bcd60e51b815260206004820152600a602482015269547265652046756c6c2160b01b60448201526064016103ca565b604754600080805260496020527f9a0ca60aea446f0de2b73532837f00f56d3ae047e136f7838a520755c00b6e76805464ffffffffff191664ffffffffff9093169283179055835b60028364ffffffffff161061098657610959838383610dd1565b9050600261096884600161164b565b61097291906116a5565b92508161097e816116cf565b92505061093f565b80935061099284611127565b5050506048819055919050565b6000828152602081905260408120805460ff191660011790556001600160a01b03821615610a39576040516370a0823160e01b81526001600160a01b038316906370a08231906109f3903090600401611500565b602060405180830381865afa158015610a10573d6000803e3d6000fd5b505050506040513d601f19601f82011682018060405250810190610a349190611514565b610a3b565b475b60408051606081018252338082526001600160a01b03868116602080850182815285870188815260008c81526001808552898220985189549088166001600160a01b0319918216178a55935190890180549190971693169290921790945592516002958601559082529283528381209181529152205490915060ff16610b05576001600160a01b03821660008181526002602090815260408083203384528252808320805460ff1916600117905592825260039052908120805491610aff836116e5565b91905055505b505050565b6002604b5403610b2d57604051633ee5aeb560e01b815260040160405180910390fd5b6002604b55565b6000805b604060ff82161015610b73578260078260ff1660408110610b5b57610b5b6115a1565b015403610b6b5750600192915050565b600101610b38565b50600092915050565b6000806000610b8b858561118c565b9250610b9785856111a4565b9150610ba385856111c7565b90509250925092565b600080610bb883610c64565b9050610bc4818461156b565b9392505050565b6040516001600160a01b03838116602483015260448201839052610b0591859182169063a9059cbb90606401610800565b600080602060008451602086016000885af180610c1f576040513d6000823e3d81fd5b50506000513d91508115610c37578060011415610c44565b6001600160a01b0384163b155b156108325783604051635274afe760e01b81526004016103ca9190611500565b60006105066064836116fe565b60006064610c8083605a611712565b610c8a91906116fe565b90506000610c98828461156b565b90506001600160a01b038416610d8157604051600090731181a7ea6e0a4350b067b0bacdf71440e70ef2199084908381818185875af1925050503d8060008114610cfe576040519150601f19603f3d011682016040523d82523d6000602084013e610d03565b606091505b5050604051909150600090735f6ef81421e331f65aa3d841247927acb00df77a9084908381818185875af1925050503d8060008114610d5e576040519150601f19603f3d011682016040523d82523d6000602084013e610d63565b606091505b50509050818015610d715750805b610d7a57600080fd5b5050610832565b610da96001600160a01b038516731181a7ea6e0a4350b067b0bacdf71440e70ef21984610bcb565b6108326001600160a01b038516735f6ef81421e331f65aa3d841247927acb00df77a83610bcb565b60008060008564ffffffffff16600203610f4c5760ff85166000908152604a6020526040902054610e0290856111d6565b604080518082018252838152602081018390529051632b0aac7f60e11b815292945090925073__$67367400603f1be6402167f5b17acfebb8$__9163561558fe91610e4f91600401611729565b602060405180830381865af4158015610e6c573d6000803e3d6000fd5b505050506040513d601f19601f82011682018060405250810190610e909190611514565b925082604a6000610ea2886001611751565b60ff1660ff1681526020019081526020016000208190555060496000866001610ecb9190611751565b60ff168152602081019190915260400160009081205464ffffffffff169003610f475760496000610efd876001611751565b60ff16815260208101919091526040016000908120805464ffffffffff1691610f2583611668565b91906101000a81548164ffffffffff021916908364ffffffffff160217905550505b61101b565b610f5760028761176a565b64ffffffffff16600103610f6d5783925061101b565b60ff85166000908152604a6020526040902054610f8a90856111d6565b604080518082018252838152602081018390529051632b0aac7f60e11b815292945090925073__$67367400603f1be6402167f5b17acfebb8$__9163561558fe91610fd791600401611729565b602060405180830381865af4158015610ff4573d6000803e3d6000fd5b505050506040513d601f19601f820116820180604052508101906110189190611514565b92505b8460ff166000036110405760ff85166000908152604a6020526040902084905561111e565b60ff8516600090815260496020819052604082205464ffffffffff1691908161106a60018a611794565b60ff16815260208101919091526040016000205464ffffffffff1690508061109383600161164b565b61109e9060026117ad565b64ffffffffff160361111b5760ff87166000908152604960205260408120805464ffffffffff16916110cf83611668565b91906101000a81548164ffffffffff021916908364ffffffffff160217905550508764ffffffffff166002146111055784611107565b855b60ff88166000908152604a60205260409020555b50505b50509392505050565b60065460ff16603f1901611140576006805460ff191690555b600654819060079060ff166040811061115b5761115b6115a1565b01556006805460ff16906000611170836116cf565b91906101000a81548160ff021916908360ff1602179055505050565b600061119b60208284866117d4565b610bc4916117fe565b60006111b46034602084866117d4565b6111bd9161181c565b60601c9392505050565b600061119b82603481866117d4565b6000808284106111e75782846111ea565b83835b915091509250929050565b6040805160c0810182526000606082018181526080830182905260a083018290528252602082018190529181019190915290565b6040518060a001604052806005906020820280368337509192915050565b6040518061080001604052806040906020820280368337509192915050565b60006020828403121561127857600080fd5b5035919050565b634e487b7160e01b600052604160045260246000fd5b6000602082840312156112a757600080fd5b81356001600160401b038111156112bd57600080fd5b8201601f810184136112ce57600080fd5b80356001600160401b038111156112e7576112e761127f565b604051601f8201601f19908116603f011681016001600160401b03811182821017156113155761131561127f565b60405281815282820160200186101561132d57600080fd5b81602084016020830137600091810160200191909152949350505050565b80356001600160a01b038116811461136257600080fd5b919050565b60008060006060848603121561137c57600080fd5b8335925061138c6020850161134b565b929592945050506040919091013590565b600080604083850312156113b057600080fd5b6113b98361134b565b91506113c76020840161134b565b90509250929050565b806040810183101561050657600080fd5b806080810183101561050657600080fd5b60008060008060008060008060006101a08a8c03121561141157600080fd5b8935985060208a01356001600160401b0381111561142e57600080fd5b8a01601f81018c1361143f57600080fd5b80356001600160401b0381111561145557600080fd5b8c602082840101111561146757600080fd5b6020919091019850965061147e8b60408c016113d0565b955061148d8b60808c016113e1565b945061149d8b6101008c016113d0565b93506101408a013592506114b46101608b0161134b565b989b979a5095989497939692955090936101800135919050565b6108008101818360005b60408110156114f75781518352602092830192909101906001016114d8565b50505092915050565b6001600160a01b0391909116815260200190565b60006020828403121561152657600080fd5b5051919050565b60608101818360005b60038110156114f7578151835260209283019290910190600101611536565b634e487b7160e01b600052601160045260246000fd5b8181038181111561050657610506611555565b8183823760009101908152919050565b8082018082111561050657610506611555565b634e487b7160e01b600052603260045260246000fd5b6101a081016040868337604082018560005b60028110156115ea57604082843760409283019291909101906001016115c9565b50505060408460c084013761010082018360005b600581101561161d5781518352602092830192909101906001016115fe565b50505095945050505050565b60006020828403121561163b57600080fd5b81518015158114610bc457600080fd5b64ffffffffff818116838216019081111561050657610506611555565b600064ffffffffff821664ffffffffff810361168657611686611555565b60010192915050565b634e487b7160e01b600052601260045260246000fd5b600064ffffffffff8316806116bc576116bc61168f565b8064ffffffffff84160491505092915050565b600060ff821660ff810361168657611686611555565b6000600182016116f7576116f7611555565b5060010190565b60008261170d5761170d61168f565b500490565b808202811582820484141761050657610506611555565b60408101818360005b60028110156114f7578151835260209283019290910190600101611732565b60ff818116838216019081111561050657610506611555565b600064ffffffffff8316806117815761178161168f565b8064ffffffffff84160691505092915050565b60ff828116828216039081111561050657610506611555565b64ffffffffff81811683821602908116908181146117cd576117cd611555565b5092915050565b600080858511156117e457600080fd5b838611156117f157600080fd5b5050820193919092039150565b8035602083101561050657600019602084900360031b1b1692915050565b80356001600160601b031981169060148410156117cd576001600160601b031960149490940360031b84901b169092169291505056fea2646970667358221220c4784ef04c18e9b54c8fa3b0087daec12c58b2fc19d166d4d093d2df8159531564736f6c634300081c0033",
  "linkReferences": {
    "@fifteenfigures/lib/PoseidonHash.sol": {
      "PoseidonT2": [
        {
          "length": 20,
          "start": 87
        }
      ],
      "PoseidonT3": [
        {
          "length": 20,
          "start": 4171
        },
        {
          "length": 20,
          "start": 4563
        }
      ]
    },
    "src/lib/PoseidonT4.sol": {
      "PoseidonT4": [
        {
          "length": 20,
          "start": 1363
        }
      ]
    }
  },
  "deployedLinkReferences": {
    "@fifteenfigures/lib/PoseidonHash.sol": {
      "PoseidonT3": [
        {
          "length": 20,
          "start": 3625
        },
        {
          "length": 20,
          "start": 4017
        }
      ]
    },
    "src/lib/PoseidonT4.sol": {
      "PoseidonT4": [
        {
          "length": 20,
          "start": 817
        }
      ]
    }
  }
}