{
  "_format": "hh-sol-artifact-1",
  "contractName": "Main",
  "sourceName": "src/Main.sol",
  "abi": [
    {
      "inputs": [
        {
          "internalType": "bytes32",
          "name": "initLeaf",
          "type": "bytes32"
        }
      ],
      "stateMutability": "nonpayable",
      "type": "constructor"
    },
    {
      "inputs": [
        {
          "internalType": "bytes32",
          "name": "leaf",
          "type": "bytes32"
        }
      ],
      "name": "KeyAlreadyUsed",
      "type": "error"
    },
    {
      "inputs": [
        {
          "internalType": "uint256",
          "name": "nullifier",
          "type": "uint256"
        }
      ],
      "name": "NullifierUsed",
      "type": "error"
    },
    {
      "inputs": [],
      "name": "ProofNotVerified",
      "type": "error"
    },
    {
      "inputs": [],
      "name": "ReentrancyGuardReentrantCall",
      "type": "error"
    },
    {
      "inputs": [
        {
          "internalType": "bytes32",
          "name": "root",
          "type": "bytes32"
        }
      ],
      "name": "RootNotInHistory",
      "type": "error"
    },
    {
      "inputs": [
        {
          "internalType": "address",
          "name": "token",
          "type": "address"
        }
      ],
      "name": "SafeERC20FailedOperation",
      "type": "error"
    },
    {
      "inputs": [
        {
          "internalType": "uint256",
          "name": "withdrawal",
          "type": "uint256"
        }
      ],
      "name": "WithdrawalExceedsMax",
      "type": "error"
    },
    {
      "anonymous": false,
      "inputs": [
        {
          "indexed": true,
          "internalType": "bytes32",
          "name": "leaf",
          "type": "bytes32"
        }
      ],
      "name": "DepositAdded",
      "type": "event"
    },
    {
      "inputs": [
        {
          "internalType": "bytes",
          "name": "depositKey",
          "type": "bytes"
        },
        {
          "internalType": "bytes32",
          "name": "standardizedKey",
          "type": "bytes32"
        }
      ],
      "name": "deposit",
      "outputs": [],
      "stateMutability": "payable",
      "type": "function"
    },
    {
      "inputs": [
        {
          "internalType": "bytes32",
          "name": "standardizedKey",
          "type": "bytes32"
        }
      ],
      "name": "getDepositDelta",
      "outputs": [
        {
          "components": [
            {
              "components": [
                {
                  "internalType": "address",
                  "name": "depositor",
                  "type": "address"
                },
                {
                  "internalType": "address",
                  "name": "asset",
                  "type": "address"
                },
                {
                  "internalType": "uint256",
                  "name": "amountAfterDeposit",
                  "type": "uint256"
                }
              ],
              "internalType": "struct Recorder.UserInfo",
              "name": "info",
              "type": "tuple"
            },
            {
              "internalType": "uint256",
              "name": "uniqueDeposits",
              "type": "uint256"
            },
            {
              "internalType": "uint256",
              "name": "currentDeposit",
              "type": "uint256"
            }
          ],
          "internalType": "struct Recorder.DepositInfo",
          "name": "",
          "type": "tuple"
        }
      ],
      "stateMutability": "view",
      "type": "function"
    },
    {
      "inputs": [
        {
          "internalType": "bytes32",
          "name": "root",
          "type": "bytes32"
        },
        {
          "internalType": "bytes",
          "name": "withdrawalKey",
          "type": "bytes"
        },
        {
          "internalType": "uint256",
          "name": "nullifier",
          "type": "uint256"
        }
      ],
      "name": "getPublicSignals",
      "outputs": [
        {
          "internalType": "uint256[929]",
          "name": "",
          "type": "uint256[929]"
        }
      ],
      "stateMutability": "view",
      "type": "function"
    },
    {
      "inputs": [],
      "name": "root",
      "outputs": [
        {
          "internalType": "bytes32",
          "name": "",
          "type": "bytes32"
        }
      ],
      "stateMutability": "view",
      "type": "function"
    },
    {
      "inputs": [
        {
          "internalType": "address",
          "name": "user",
          "type": "address"
        },
        {
          "internalType": "address",
          "name": "asset",
          "type": "address"
        }
      ],
      "name": "userHasDeposited",
      "outputs": [
        {
          "internalType": "bool",
          "name": "",
          "type": "bool"
        }
      ],
      "stateMutability": "view",
      "type": "function"
    },
    {
      "inputs": [
        {
          "internalType": "uint256[2]",
          "name": "_pA",
          "type": "uint256[2]"
        },
        {
          "internalType": "uint256[2][2]",
          "name": "_pB",
          "type": "uint256[2][2]"
        },
        {
          "internalType": "uint256[2]",
          "name": "_pC",
          "type": "uint256[2]"
        },
        {
          "internalType": "uint256[929]",
          "name": "_pubSignals",
          "type": "uint256[929]"
        }
      ],
      "name": "verifyProof",
      "outputs": [
        {
          "internalType": "bool",
          "name": "",
          "type": "bool"
        }
      ],
      "stateMutability": "view",
      "type": "function"
    },
    {
      "inputs": [
        {
          "internalType": "bytes32",
          "name": "root",
          "type": "bytes32"
        },
        {
          "internalType": "bytes",
          "name": "withdrawalKey",
          "type": "bytes"
        },
        {
          "internalType": "uint256[2]",
          "name": "pA",
          "type": "uint256[2]"
        },
        {
          "internalType": "uint256[2][2]",
          "name": "pB",
          "type": "uint256[2][2]"
        },
        {
          "internalType": "uint256[2]",
          "name": "pC",
          "type": "uint256[2]"
        },
        {
          "internalType": "uint256",
          "name": "nullifier",
          "type": "uint256"
        },
        {
          "internalType": "address",
          "name": "recipient",
          "type": "address"
        },
        {
          "internalType": "uint256",
          "name": "amount",
          "type": "uint256"
        }
      ],
      "name": "withdraw",
      "outputs": [],
      "stateMutability": "nonpayable",
      "type": "function"
    },
    {
      "inputs": [
        {
          "internalType": "bytes",
          "name": "withdrawalKeyHash",
          "type": "bytes"
        }
      ],
      "name": "withdrawals",
      "outputs": [
        {
          "internalType": "uint256",
          "name": "amountWithdrawn",
          "type": "uint256"
        }
      ],
      "stateMutability": "view",
      "type": "function"
    },
    {
      "stateMutability": "payable",
      "type": "receive"
    }
  ],
  "bytecode": "0x60a060405264010000000060805234801561001957600080fd5b50604051620189643803806201896483398101604081905261003a91610166565b604080516020810182528281529051639d036e7160e01b81528291829173__$cf4de68ffd19b0b1d2943d989c0c37e50a$__91639d036e7191610080919060040161017f565b602060405180830381865af415801561009d573d6000803e3d6000fd5b505050506040513d601f19601f820116820180604052508101906100c19190610166565b60285560278054600164ffffffffff19918216811790925560008080527fbc72c27881d499e9ea29f42d0975d4e269d866b929e1b555435cbfe829a9d20080549092168317909155602a6020527f25a1a901705ed15d5376e82511cff743d9474883c82d145cebcc7811e0424a9c92909255602b556040518392507fb7880b10329262ba73b895beb1cc9ddfc6a99af8811c65a0d997b43fe365d4649190a2506101b0565b60006020828403121561017857600080fd5b5051919050565b60208101818360005b60018110156101a7578151835260209283019290910190600101610188565b50505092915050565b60805162018795620001cf6000396000620173290152620187956000f3fe608060405260043610620000785760003560e01c806317933afa14620000855780633489c15114620000f15780636a712fb0146200010a5780636f16f446146200014057806391e8ab56146200018b578063dc25879f14620001bf578063ebf0c71714620001e4578063f057d3e114620001fc57600080fd5b366200008057005b600080fd5b3480156200009257600080fd5b50620000aa620000a436600462017fcf565b62000221565b60408051825180516001600160a01b0390811683526020808301519091168184015290830151828401528301516060820152910151608082015260a0015b60405180910390f35b62000108620001023660046201802d565b62000331565b005b3480156200011757600080fd5b506200012f62000129366004620180a0565b62000456565b6040519015158152602001620000e8565b3480156200014d57600080fd5b506200017c6200015f366004620181b4565b805160208183018101805160058252928201919093012091525481565b604051908152602001620000e8565b3480156200019857600080fd5b50620001b0620001aa366004620181f4565b62016f47565b604051620000e891906201826e565b348015620001cc57600080fd5b506200012f620001de3660046201829c565b62016f71565b348015620001f157600080fd5b506200017c60285481565b3480156200020957600080fd5b50620001086200021b366004620182d4565b62016fa1565b6200022b62017f5c565b600082815260016020819052604090912001546001600160a01b03166200025162017f5c565b6000848152600160208181526040808420815160608101835281546001600160a01b03908116825294820154851681850152600290910154818301528552918516808452600382529190922054918301919091521562000323576040516370a0823160e01b81526001600160a01b038316906370a0823190620002d99030906004016201838c565b602060405180830381865afa158015620002f7573d6000803e3d6000fd5b505050506040513d601f19601f820116820180604052508101906200031d9190620183a0565b62000325565b475b60408201529392505050565b60008181526020819052604090205460ff16156200036a5760405163284fe6b360e11b8152600481018290526024015b60405180910390fd5b60008062000379858562017262565b9093509150506001600160a01b038216156200040057620003a66001600160a01b03831633308462017298565b604051600090339034908381818185875af1925050503d8060008114620003ea576040519150601f19603f3d011682016040523d82523d6000602084013e620003ef565b606091505b5050905080620003fe57600080fd5b505b6200040c828262017307565b620004178362017321565b5062000424838362017484565b60405183907fb7880b10329262ba73b895beb1cc9ddfc6a99af8811c65a0d997b43fe365d46490600090a25050505050565b600062013519565b7f30644e72e131a029b85045b68181585d2833e84879b9709143e1f593f0000001811062000490576000805260206000f35b50565b600060405183815284602082015285604082015260408160608360076107d05a03fa915081620004c7576000805260206000f35b825160408201526020830151606082015260408360808360066107d05a03fa91505080620004f9576000805260206000f35b5050505050565b7f2e9595fe747cd093f6f36b24646dc1aa73b8e6e31d54ec221b24de6a01d83c5785527f2c80feee0db295482794eb72eb5da051e3843a728b3fb89da3a8153e9bec0f2c6020860152600060808601866200059f87357f1363c802c15a00939687a4671d96d819a08a89132746164b668da6a6fdf25a837f111f3a84ce32d7e1ad15744f064f421084259f29d88d3dd2215f3f86ae01aeaa8462000493565b620005f160208801357f18ca00600f1fa11a6d59d870bed5dce295318eee99f462043049cc85b37be68c7f102bd130db11050f772f48efdd06ef3cee074225d3ba0ed8dae4dc85ac6f70a18462000493565b6200064360408801357f0e2c3ab87b6564afd9c37a5177dc298817f42424bd22bde82acf6ee7b76900ce7f191ae8200f4820fd48b44e8e772ee840cdd96beab299d1f3c12e835c383287768462000493565b6200069560608801357f253183bc0b9703b0459547cc3c413ec582928cfe537b3bef8bc0f26a6ab22ae47f2383d5fbfc47ad76fa9071a2ec6e6cb492a8b1c7ad6318b02451d5650702345f8462000493565b620006e760808801357f25b9d6791cbc2c47f88b81efcd3c19d5657b00b34becaff85cec9a8841e679fd7f27819d2419e62283db650dca80c97b840d299c805c9ff766b0f8ec57eb9eba768462000493565b6200073960a08801357f249aef85a383d0d77a0323ad4d59de87055c527fd62f737ad0ef4e5a13a80ccd7f2c91d941c1f170f89cc2b5bd66c9ca311111366b1e167ff554ac5a1b6c1fea708462000493565b6200078b60c08801357f190bec9df8e546a40990dbcfc79e3e89a682d7d7dac0c59e98ec667e507cbe847f141a67c199f223ac4cb1e5dbebdf68e331dd230d441c825b316e5e3333234d5e8462000493565b620007dd60e08801357f12a171b83ffa39a5f9d6fb8a1e13efcca0691d4325780a1194401132984775a67f1c0dad8f8791fdd037db61a99095d2c0a5b1477c3c458777f6871df29e05b0e08462000493565b620008306101008801357f04f6c3784f07b2ba13bd84f8064b8f8d4d2aedb87047bfb5057d1d8e356089c17f1a25b9647cc664294ca11a9a41bdcd02751336d79a9a441a613a1720758476228462000493565b620008826101208801357f1cdf7b342fad049b69400cbdd9f2740bd5e1ca48cabbe29bb328953317357ac57ebc51907419d30b7ae4786313bb65f8eb05d25a224003fdbb1aca908426e8898462000493565b620008d56101408801357f0ae77408a86fab285f493ad0d966e3646a9809a9713eac7912131cf1ae877a727f2d3fe91d30afaa17fa136df6e12b2da6fe6c69e4630cd61e5fa732c6c0072a0e8462000493565b620009286101608801357f2dd567727969e9fbcf362ab95068c5b01d1a5637df1c91ff1f96dd52644f0aca7f284281fa6f65859e52e1229bee84546547041fa0e717cf523547381f4e8fdbc08462000493565b6200097b6101808801357f10b1cc195249c8340d77a189d1bfe8382d6be19ac1e5c385ba6e98b0e99c9ee87f229f2a20b1a8b3673200cd38b2957208e964121f8692ef45410bef30f74186b28462000493565b620009ce6101a08801357f1e0abf9488fd0ef7490e6b312a9d2d6202a47ba81eb6e2c2e8b4bb84e8baf72b7f17d4a2a28a45a77d600f29ccff30feb1c1340729668c5e0fae8800296c1c0dce8462000493565b62000a216101c08801357f08844994f6e9be74e5d476365186acffe81463d6e1c4a7c99b4096a0d0e11a377f0393d925bba87dabf97d8d39a088aa5903bd6617302d4472f5159dae4e6d2fe98462000493565b62000a746101e08801357f152899f8a798b0f1e1091d84ff6ad8905f4dc631a694f99db5baccdf6d6c81fc7f24f3afd30c95c425e76e2295e509e5ce381541e2b14afc6859ebdcf97adc41128462000493565b62000ac76102008801357f08c0be1627910b3cb0b35bdc53b413406e2fa02a8619568b4b2adc59359fa5cb7f2f450a3f5efea5aebcf289cb2d1a1033d1407dcbc4659c09fe2440f5930f2bd98462000493565b62000b1a6102208801357f28ccafc56fbe8c965abb804bb0ff90d65e247d5a95a36fae4383f7f7d0cebdf27f1cc60e85db1563411d86d57e5fa74083ec763d34dc1d1df295c8a1dbe506af678462000493565b62000b6d6102408801357f066d16d9ae1eb4edf5162a3ec7ef1c17a62981390472777753f5eabda9f2268f7f3014b0160d7bdbefe1f5e38b034de8b6b8f59c12e6f2d7fd39c5043a058f86638462000493565b62000bc06102608801357f2ebdbc8fdaef30a5337cd8122df4f3b936e8c1b8b242b1ac4ee6121761519b777f2dca47ef4974cfb0803360597a6ec74b407290646ee2bb009417d32d3352de328462000493565b62000c136102808801357f305f40323b24445f915fdf3ef641ffc870313f0399679302c35becc1b846f1967f2e75c5c22c4af45f8b26186293e5abc3e966c705f6adadba6cfe7bebb784793e8462000493565b62000c666102a08801357f284baa4584fa1f5fcd4d20b508ce98181a234069905db00498e508e8c6a766c67f04207e46d7ad2c49f617b8eb5142109418ef5a4c1bcaaf0b675c7bf43810ea598462000493565b62000cb96102c08801357f1506dec56f61c30797245cc82854037c1801043e72c7dd3a37d711800d2958127f015b7c6d35087c09879541603e35befee5b98fae3b6ec32833bf97ec1cf0fe3f8462000493565b62000d0c6102e08801357f2a7d5d98328a2ddaf3bf9e6660ae004f2d80aef1c6f1847c48decfb2bb2e45ad7f10752bd491e3ebfb1d089b6302e32a9f55c31410a56a838080762e195c3e300a8462000493565b62000d5f6103008801357f10eb11ac33b8bd85ac8fb9d1bb72643d0583c8ea0e59e2a2fff1200be03850567f293d0d0777547a62840e21697e9e28ceabd1082b6d4dbd6f1cc5846d2d9b15c38462000493565b62000db26103208801357f014b9cf07b2be89b8b981d770b76054f1d702ee07eb0d7627dafdf84a7ec64697f2fb1085c14d5d0f920138cd906b025dc652dd2c13b64c4d12ee21b5fb71bc8b38462000493565b62000e056103408801357f13a5cbfb3b238b23c85e82ab2d060629107f4c251887df854b3058688ca313b77f2acbc945f7b8bb1b2d40aa914c7312d9a479b9abc2bbeb9764f6f575adb7c6668462000493565b62000e586103608801357f0a5d039871eaea1548a3891a87672d8068cf145cb9a03190fa0b9c34addac0a37f040753223746160562ceecaf38e70bbbb6a91c0f2adcc2ded296fbf8fc23bc9c8462000493565b62000eab6103808801357f17783a1cb2111294e464b09277013f24f4f0b1796d638563804ebbba6c3309ce7f103dad4d87d9b49b554a911399d8c2a22e666ece677c80c3e445f04e510297c58462000493565b62000efe6103a08801357f0dea7ac524759fb3f422350d0d1c7e6037fff832c9f7ab0f44501b6ddcd33d827f04e0891d9914834e805e936d9f0d73c1b378c41d0d46e42468a220f88e9dd94d8462000493565b62000f516103c08801357f1090ceb9282a5b89bc7f36ff5764f7f0fc86bf07656f9c6dc19c2cce5567af467f0ce4318b9aa3c29dd2b667e2c94da3aa47c36e462f99dae2362e5d5fa38e65bb8462000493565b62000fa46103e08801357f15fa90cf9b7110327f2fc76d6226948c4ac568965860d0a6266c9389207d33b97f03da5b9ea8f44b028f3a794179496144ab0fb8d199d2ddf319199a4f59764da58462000493565b62000ff76104008801357f117a498dc044ccbb86fd0c3e1a5d161a9a7c22e374cbe57c7e1392dd99bb69ea7f17ad5368273841665256b64729ed743a163bc1a38963ee8393216a16498a96858462000493565b6200104a6104208801357f166b30c5123837dae1250f72a9f95078cfae9618a716d16e1b028816a47da5897f2350cd2c332c7cada814fae7a3bbc744b4f30cea9eac10c8cdfa5f98aa7143f48462000493565b6200109c6104408801357f1da574786e732856cf062b85e6df1038565ed230f529c2879fe84280b3708a357e206939e13df273f4a04086d6ba0eddfab8d8bf8bf3ff1c8c9c0dfde4fa941e8462000493565b620010ef6104608801357f1c2f1a555cf43e364419c9260698bd23f4bd47a694226faa585c62a4897ec9397f268de6dc9283c247d29e6fe255d4d337bac19fcc33c7feaef899be1148b0fb488462000493565b620011426104808801357f16b02d66a2056161e1c40d5afc160e15d03db53e354d892dc6dd775858c9dc727f037f9d1818179ca56d3779a3caf2aea586e4480a0ce4e4d5e7d9dcc7d35d14908462000493565b620011956104a08801357f08ffc3e11ca183fe0587e1880cd9ee49728da05f6438e16877f86d705e0be6427f1beefc5f933d043080a61fc2658d011cde7444c0c11c34f5b837b0510664813f8462000493565b620011e86104c08801357f268b451c2618d3f178468fde35b0babe0770bec2633d5a89c6a76b2f9727a97b7f27c6ed9e0a670d309c6764b973fa905f6e5c71dd4f0c7f282df0ad107154adaa8462000493565b6200123b6104e08801357f15a9a4b92d0766b44173bf81cf962517af24b83d4bc5e2223d4e766d0fc3d6897f23c97aa684c61899b64119ab614745044209a92130c50a7a3f3e2a65496b808f8462000493565b6200128e6105008801357f11f0f5c29c7272e4eb1b2509602fd4fa4c4ef3ea399289890600ffe5c2529ee57f1848fc6abd94eb954d412d85e108ee19c9c8ab24c670326378e0847c15cfddd28462000493565b620012e16105208801357f07176a5fa71e6937f9d8e684307b24ab11b7454cd7da5fff04dbb0a5b4c1dc867f2dc767e882e61981766b0a8b78042146336170dc96bcf228cd3db65908bc1a298462000493565b620013346105408801357f2a8d3ed7bb01b47049a62d374116de3537b2be814dbd12ee6e6edb7519d00bf97f2ca7f20301314ca580ea96508332988e2cba01c7e58d76d2601caadb618b65b98462000493565b620013876105608801357f19f14de4d344c7cf54357b1f2f1919bf9a528afa566086ae4fda4a37643786d77f29045f2f940e81a065fe299fc51fb5b291220d156908d379e743a49899af15f08462000493565b620013da6105808801357f19d8eef7c375628fcf8cf23eb0c5d7a477b8dcfc9ac94b587d2f325efc6cce0f7f213cbb12ef0d766af21c1c228f88562d6253ccf19737135c8d8bb9d337ee01878462000493565b6200142d6105a08801357f1311a967caa6b5f2dc5b4e144794e8313e1ca2ca45159d014e9d402fb9bb4ddf7f14c6c8e30d35485ac3e7cbd02d0d63fe477224589c78ef532f9ffa698f95b2de8462000493565b620014806105c08801357f2ffb7d5876798835fe8929a72db049bfcea51bccf95cf3ec22c17908ae7327257f0d73b4126d3c7d5478539069ebbb104307c02d11848e1c5a23cba9187d9263568462000493565b620014d36105e08801357f1bfb24ac86e28039459e4aa3cec17f75119f844939761426add726beedd688ac7f212d885e24fbed7552a202635ab703a64562e2f548bce746e1914f2bbf1614308462000493565b620015266106008801357f2248a0afe914c465e0535d01de1d5065bf18a0241b1e4d3faf5aa1511112d7a07f0e95fd97904d0df290b6b0c4450140d58ad378d507c9c212d8e1ac9407b26de68462000493565b620015796106208801357f02328d31efa2790e488403d6625e217973a3565b4d8c2c5c55e013708d7a4d597f177e5c5e171eccfff12d3c7b95414bfefb0dd1f84226d582b398a33543c5d6e98462000493565b620015cc6106408801357f22abc95a5d2aa841bdaa7974d7acb0ffe96b535997ccbfd683c2b61956db81e87f1f5dac38ecd80569ce2c8006e84d391f5d7630d4e2c8f6810b200dd0fbff3a738462000493565b6200161f6106608801357f08c7daa4cbe70c4749695f9041d8abe593b6559448b5931e1e451cf8096518287f285d47884510fd2bfdf615c05611fc33beaf50a633e01da8d675ca37a895c33b8462000493565b620016726106808801357f0b67e7352be36ea24aaafbdc8c0fe66e2cf90dc964e9ddde9720028148b6f3857f24a186d851355650b3c29aa3e97ca5f6228e7d5c6965977a29c41970058ffe5a8462000493565b620016c56106a08801357f155ef1040b0a6f200f3320d681ab992525b059f3510167a9334c45bb93caba807f1ab33bc526321b73e5cadb7a9a5b2db06d70f99b624dca3a6cf5b223999529358462000493565b620017186106c08801357f2b6e1251e0995f1159cd1a06c1ba2946a23e1d10be4c38e5425cc4b1c6d2ce427f13399c56c553d4a40bcbc62c326052a65c242d8037c1ee07a87555f82b0913ad8462000493565b6200176b6106e08801357f0cf748ddcb4a244832a605a1e8b00e189144304d0353c973381bc8c0cd98a5887f2672fd881060ecc794dfcea4386992b539bd1422e2daefa2e2989e875089ad6d8462000493565b620017be6107008801357f23a0aa5573b6ab0317c28d7e442ba32cbc133c34168e280e4dca125cf34e78207f035844d1a3d671bb85b7434d2c569ae2ba8074794663956afb685ee35b0edcab8462000493565b620018116107208801357f144e76d0f52b4b319116724d2f1aae0825b9caea934ee8933a216b6cf73626607f22f980b8b311b168eb1053c20568a0949e6c614d0b02630d7da04d0a9fb3555b8462000493565b620018646107408801357f1a88e2f6b82273d1ac5ce11927773780c4f525a7134314e382cb018f1b80e9697f275ae7756a9fd6400fbc895b8c820059ea90a73e6b7de55660a7aa6b1ed60e298462000493565b620018b76107608801357f2e8abfef2bf18fb85c0802596bdada7bf7d9c24616d5bb4818cef38016dd29f87f0fb2feed321a0ee5c1d19f4280c9cce446257216bef1e72c4bfd9d119d591c8f8462000493565b6200190a6107808801357f119690661906edf35f4ad8971abfe19961f5cadd91c509a0019b3b7ceab9b5227f13b99467d3961b411479b20b8798679f3a40818795c272986575e847fe1538da8462000493565b6200195d6107a08801357f22e058b1a49fb5d509d61d6adda21edd1b875bec5fdf4e606a7c5b821106e49f7f0f9193d877f5d1910f989ea2e89faaf8745de635997764f6c138ba90e4dea5898462000493565b620019b06107c08801357f2c79e6d910d5799c8808eb21ceede66eb81f781150b18f7bfc2a7d5aecf6e86d7f1a9ffc0f144ec2aff818224d3b7b3f15efb3c45444008c40001ff07fbc6cbc448462000493565b62001a036107e08801357f020cb8d86ec5d45a261828f2326e4765f9003b648b91ce80b93d840862ced34c7f2a866f04ba12c5141ece73c277f858d401096cb26eae34f94534cd12635464408462000493565b62001a566108008801357f1bbd6742fa6343b2892d54094e165bd23ac8e667146505fb11b024311267e8cd7f02113ae5490581819985c9fc95b77513aa5af74b9cc86161e8748b08b3f5d3978462000493565b62001aa96108208801357f044f88f04646bc07e85d09d65d75ddd8df010313e885e0125eb1addb38e4ef5c7f022d218d5b982936b04ae35b8dbfdeb27c3dee849be6d8f4bc73d38e7cfc0e008462000493565b62001afc6108408801357f1ccf0f914725fb39b389f9f9d62e03f37d2641eed793c724ef7ed86078c252b37f08076021557527662ac3cc7d4dfe2e0ca55a404da914093c2184e865498e281e8462000493565b62001b4f6108608801357f222185129b552bc2086d88a38d77c13c336e71efbf47e3317866b86a673dab667f24ad196e4efb378517a0605ce6c39aea47ef245ef49421bb364a1b52fad42ef18462000493565b62001ba26108808801357f190469cfe6307a51ddd725c80c4ae732c56689ffb061bbf6c7c8d20332434ff87f2a69c99fd53345b6445e7b317363194f356e936b4382ab2e8eda696bf1c748aa8462000493565b62001bf56108a08801357f1e98d6891eb6337b445ee66fb45430f337553d40c4de2dbc5ad992b3b4fe27147f017911a6d0ad8bbeaf18768ab696738d48a3417b897bc019e5edf83bbbd4343c8462000493565b62001c486108c08801357f02fef291a3898fd0f9fe02ecb82a11be0f1280e8dfbd930701285f1bb144005c7f251b446330a39db30dbcee671737b80f56ae1a9a1d9822f084584aab34823ec78462000493565b62001c9b6108e08801357f12fe04e6d54fb813af032bce0ee3e1faa77abd954a05ea803c454e065c261a9f7f10a0b259075e9474454d746e4c85eaefba9c2d29380eed6fbaa632d924d1ea768462000493565b62001cee6109008801357f097b8ac20229c15e510ebdd20fb8918dbc842b38ffd6c93de6a1c3d6d21485e27f22b5dc51b2083f32026c9f83482be1ecc43cda844362bcaca905e878ef5af4538462000493565b62001d416109208801357f1f7192313429cdd4c4c5287de95b07bb43c1bbccebce57ccf72fd49185dd072b7f230a9d682f5396372d9eade5e73bb760380fd94749f0f2912bdd683315f944338462000493565b62001d946109408801357f05801c6192344622e0218d2925b8f3e4438ed9244146ee438662e28957a9dd317f2ada6aa6e0ad271a8a4700a42e8ab30d7c578f80a7bc72fe935bf5e6cac462a48462000493565b62001de76109608801357f02d0413ff9fcad1f7c30a81e62559061beeccde085ed8b581b8e96d3ce219f7b7f1fef70725631c494357cf67487a1d94e80bb7462e3b9b951f7f5c240bc9e9e198462000493565b62001e3a6109808801357f04aa28252b21b16e26ac226f16bb8db7aea4dcac440e2306ee60703213cd1b6f7f295b054ce18469137451afff653c4bad8d65cb85eba79f4a326471be353086d38462000493565b62001e8d6109a08801357f242bba4eb815fba30a924322057440b414a6edf865eebb8f5c305647d685080b7f0c6c21f61ff4145d58cd283e959220166e5e0162fd2bd6c2b5ed3af88bffb32c8462000493565b62001ee06109c08801357f05f029628c3f4f4021cb90bf7c988d07bdb4ebd644593c7554553f57c25c7bd57f240f5f78cb502ec513f76e86a63a8353c6659260c49ccfd9ddf5d59cb91f3c038462000493565b62001f336109e08801357f24a7640feb62f6f382c2f87393afe1384b32ad75305e71ab5ee996d1856b9ca97f0366da162a383ebcc2f366c88ec16b6d2ef05812774d563eccaa8cdead9a5ae78462000493565b62001f86610a008801357f0b314453e8de58e26d7b513f2e6b9cbd565909f11b5c1e7c99b6d1ad0a4b201d7f190518aaad572a2a81105ddec9731cb96697300e12f50ba75c19e2c2e4dda5228462000493565b62001fd9610a208801357f021f74845265e120ac85535b92b80411b957655d2f8264e6b81d593341e3e95f7f17edc8a7329604d32574be2ef16578986b98aca5c030a660f25b08d58f8ed76d8462000493565b6200202c610a408801357f2477ab3c4ec4a2fe4e962bfce6f16a5a4c96952e543e38d5747790b94f351ffb7f177df5ab7f68aff468b50fd47a7f2b3e3150098d306640d88e183f23ea3bd7758462000493565b6200207f610a608801357f1706342c5857f2bcdfdd1a830bb3235cc746aa7c96b7c6e7ee4f2e7efb70ca3e7f24ee7af91faa37b8a88eada0c447807235d93a028eda59cf395183c3ab8d339b8462000493565b620020d2610a808801357f0b3cba7acdf3f8d04e3e0a321af66c03c0987357ae4b8a37b92df8e262dd69c77f06907299ee3165613676bbfbeb04eedb3894271086b073cf15477b148a3a3dc08462000493565b62002125610aa08801357f26a4dd6c9e12cf6b0939fc4df58a33d7a1c204065e7bf5e778297323cff601ff7f01daf723a19c84a4a62b75f8dec1b865d814d326b29dc88d8b4bc604285c2d698462000493565b62002178610ac08801357f2f554424ba6a86d4d0d8c09f400cc731a3e5303e47a6010aa8d016809b926aa57f2712aab78999b326c6ab96be8f7ccc29cb782d623a3e145c49bdaedb6d0d8e258462000493565b620021cb610ae08801357f247d5f9b6dbcaf67d90efb63d1e0f041111c36a9fb8b52f5732cae3673f58e837f2f7b80930c0effb865417dc5f464ed1797366c07199226f3d47cfb2d97da4c9c8462000493565b6200221e610b008801357f2c0b07ce77e0207c2b59074b510e9cdecd92f075633b4836e67cfd81bcf9567e7f1dc6a0dcf54b693855b7e3447dae8c6ab126c1399a8f71b140ec1ef8ecbd1e5f8462000493565b62002271610b208801357f2124289545161f9deb88f2b68ae01aaa42b6d0f974e3230e8a78a2240408ac587f2ce6249c8aa78af99752ec5745c81e4254e6d02e46c080019112f75bdcda2d2a8462000493565b620022c4610b408801357f08819671300f4436e9510cabc5cfc9d5025c9e98dfe7094703341f29c2d6175f7f15903cb30b48260cf05666494aef24783c67207658233d33e2ed818e048a40b78462000493565b62002317610b608801357f111f90d3aa730e022b24956c7431438a930b3bb4826966cfbace492b40cfb31a7f2fae73d15a50d08acfad145d7c9156e09151ac35c6ee3ac483cc0c8b2bd915248462000493565b6200236a610b808801357f0527185e6ca62c7ab6f4baf7464a023cad9bbadd558849aeec1846238d4bfd807f2e00774f930e038a62a5f7752ec10950406a4d804b24009859e9aafc65d1e1f68462000493565b620023bd610ba08801357f1383dc481616cb8eee74668b93f87cd25f18054fbbcc8dee666e6188e90cb6807f0f3a03509c610e4cc7eaa0db7229cb8cd7b38e9ea38907771f477f2e76e843128462000493565b62002410610bc08801357f0bb1d030d25c6b2cbb375b0c274fd6039110fe0926ae11dafbf691e7eabb96f97f11b2c485ec903b91cbebe586ecd3bc235efefc5b720715e4b36657000797b1ff8462000493565b62002463610be08801357f149a8c7636a003e31089ba43d5af82e7cea6b179914f560e8bc89e0aedd4d7457f2e61a0db45b59a6196dfb38072db33bdcc89674c6426cd865ff5fac3adc122e28462000493565b620024b6610c008801357f08f04fc9d0d0c16c6cae51835697bb99df9118a84f96bf36fe4dbb6d6736edb77f08484df89c923f41425ef88561fad44384051598a03ecbdf8eee50780db95bce8462000493565b62002508610c208801357eda48b01842e1046e87aa1423aa432de8255430b8d9d6d0f38be2d0787611b27f30181f4210d5599c648aeb0883cd89ed9ea5f0cf344837384668f3c660dc901f8462000493565b6200255b610c408801357f0bdcf34d0b26cfbb99afd1853440edde0d3ea7b1f8e657219dfab2a36d1b2e457f0cac72b30692e43885e5a8015cfa7473571b7ca028296c15136a8c144c89c4778462000493565b620025ae610c608801357f1dfcf24c5a24e07f0976366fef7b92ea44f1bd5a9b0e51ecaf2cf8aed08a9d687f295167dea4afbd105ea0de8ecb972b8dd095c1b549f0a5cca5c632a6f68d8e3f8462000493565b62002601610c808801357f2892f1b37720ff6004575e4d9be7d0593b1197127e9f2d0177d12df89aea42b97f1fffc2858fc46f3ca0c92e5afe870349be2cd6ad3e1e86f8dcb93f671ab596bf8462000493565b62002654610ca08801357f181f4d7f46ee88e82dc327026bd22d1c4c75859e31964b48cfba6ae8cab671867f2218625c0ec9ecde96bc1f130de55bdd6eee3ab809a1c2d49b4c376760e0ceb88462000493565b620026a6610cc08801357f0f238eafed8da9921c0d0e743914e23baa382dd39aee2b5e5d1f13a7fd92b7b67e7a7f94400245e774a4d23ecac72943c37a252331f2e40856e9062eb946d6228462000493565b620026f9610ce08801357f0a2b17410d78fcb9e159b92d2a9a5fd981a43f093d23d13177d32865710f70b37f2fda328d4754bc6d504927f76a6444df11228d9f25d531f2fb5e5d038382eb248462000493565b6200274c610d008801357f292e809095416be1d1fe833bde7532d9b6d0250bf5b31addbcd54383f63ab9f57f171af282575cd2f180a70c869ebfefa3e41d42dd8cc2af108bea20cbc62b05bd8462000493565b6200279f610d208801357f2916daa0867c6962d1285f3c5bad8f3e9a6f857e36ea479640eb57d758521cf67f195bda075e3e0846c24033c40a3dcb0e40439485b5828e0dbfd1a91cc766df248462000493565b620027f1610d408801357f09e56a65382b785853b99a54b819203475ca7684672f04925e0c1cbcb4f8773b7e9fef5b693c9fb2a9d6ead9852f31761567b647e73518dc578e8ba33ca038a38462000493565b62002844610d608801357f271870e47c9b65bf5f66b199a5a2d0d2332246d15e337d67aa4a55e1ca8f33197f1a137e0011459e5a2adfcfd04c7fcb356611a14816fd8ec0f91f373b7d8153f58462000493565b62002897610d808801357f2f026eaae01ce244f9381271e32f979a4ecb06025f875bc0d8ea5e061140e4737f0580df2c6ad0752907cbe01e75a4e3478fa499c17a532ccce2e02439555246c38462000493565b620028e9610da08801357e6a924aa085355cffd9cbc17a341ba5357b8ef21febca1ee57e9f89d13553317f1c64ff8af1954d3cdaf4e1c69555553890125657a11ad78479ec6a72909e4d2d8462000493565b6200293c610dc08801357f1ed3fe06d7412138cde37dc4e8e46f29a4b25006a2ee6da395783d86b61e0e9e7f1911f87aff507e9bd1a80039b41ab82dd7c546f8764d67b5ef60bab98a7ae3f68462000493565b6200298f610de08801357f069b614fd1c93d9705560ec0d0194279fc3778384fe6331ee5006866d93d06627f154b2c995982de573ad8082b40f4d77fd8fe3b1720bbc0ce1a3815a5cbf934178462000493565b620029e2610e008801357f1a8450baf5db04cd5177ee73d9a7e28ab5c811807576cb28d4091acd0c913b4a7f1bdbfe29da32b52311aa313c728d99906e439ba12f483d367b58634430379e058462000493565b62002a35610e208801357f277a95713f16e3f85477ac96d9690424753a95c8302e847c84138d1c56aa1a8b7f11373dec4a3d09e6b9ab410474978090794d25a64568ae11839aa77ec311944c8462000493565b62002a88610e408801357f25b875550d3e554db95d302eebef4bd9ba54d60aa057d141adfe9465e5c23e147f2a987fa015d37235f677d7c8165466207665186aceb2ea38d3daa9052e3365778462000493565b62002adb610e608801357f1654aee6652089e4dad1327a54f43e9b464294892cb97c2a5c038b9185b4f5577f1c0452ef3b0e4fedab52c874324da31cdbab1eb25efcdda7cadffbfb60f99d618462000493565b62002b2e610e808801357f24ad36c6109575b30e93b5afdc3fa10696b40f0250105a7a297d94756206f06f7f26b3a91c014fb3398787d65aa4051b266fa79fafab1193b682a8381cb425092a8462000493565b62002b81610ea08801357f114ace901975704d0432b77d08ae2a8b2a09fe6943be992f78170de49ee2ddcf7f204ae75774d9cc8185b7cb51555a17d4bce3336241fa7976550775f527f967c78462000493565b62002bd4610ec08801357f22bbf245163691dc2f15fb0b6e011797194acff90e8e23f4b2946387143bf7637f2d686be6761c408ddd025ff15b2e6eaaf634ff017b54288224f6eebe5198ef338462000493565b62002c27610ee08801357f1405861952b2f49c2c24ba34e48e3a520169ef3d67ad7cf4d4910abe242d22b27f2deebf557f0785632b3d8ed45c9ab4ca191c85852ada2981cce21fbc3592ebbf8462000493565b62002c7a610f008801357f0e01b0890a867b65b77a199f16d49a93baab602ce536bc65b85b50438bdb03c57f1d5f6c41a8b00b94d0f26af622a898d40bd7cc993446fe6a759a5d24f201488c8462000493565b62002ccd610f208801357f06ccc49a4c2e2cbdbbeb6ef63f8236b6cf17434b05fef6857a45939173d1de217f1cad7800eb827351c2bf258bbd408cb452a020fd999a295d42b545a29e5be2558462000493565b62002d20610f408801357f07d5afa3f03aea3e74e164d5e007e8eb12f87672c9abcb822c26eafaf392d7bf7f2aca59f4776c44fabf4cbdef77a41fa06f0715a7cbedc25509d042e05dbdaa098462000493565b62002d73610f608801357f23a2a8fb3b14158e634bb26fd0e40380b3102b212609b72211dcac2f0b4e38af7f1f41317c0b5792beb6daefa1082368ef766dd0eb297c5838cbeb620b6023726b8462000493565b62002dc6610f808801357f26c6bedc4dc5fa31b5dcfbdeb7b67a2bd06bbf7fda39873bf3c8fe79e20486c47f1ba85a552d27721877ab82879480298915e3d3df8a0b460b77135820cc48b0c18462000493565b62002e19610fa08801357f2b82f1f6d022d1737b83cd91888402fda4c3a3a744eefee04b98c755a40b9eaa7f098f8ed737b08e1ea663bada79b96ecc6db5fe342fff7e9648aa2ca88ff5c6b18462000493565b62002e6c610fc08801357f05b49202e3ff0c4b56e631b70df66c28a8afb2ba019f5c966435aaf83a21b5347f23462db4ed8a635bc9f84ec48d0dc4109186cc7736aece1709a1b7722841cbbc8462000493565b62002ebf610fe08801357f231869eade0ca72c71c379cb2a94edb98f90019e88a7fe18a9e401b723b217b27f05068ac1962d53373caa11c499b630836648487c453dd16df21fdca63467d8008462000493565b62002f126110008801357f2fc3919c01d3a46b13b64e856f860e1a61e10d7f89f3ada8e0c8e3e9263daabf7f2eb738d77ee04d9e35c087b4d8ddffe054e286c4e0c6ab0ee8bea861d9e3996a8462000493565b62002f656110208801357f2cb30d67f119f6c9d07a6f8ef616fcea40c1841457cc03a0880cbc0990afd6377f0870a374b14c9ea9600b899ed60ddf97d813b06b54a7838060aec22e4375a62a8462000493565b62002fb86110408801357f2ba329081289ccf687e5484229ebe728dab0231dc56799980549c7d23cde3c4a7f2f85f3d048e8e8fb408fa5f62a5bdd23450fba9dbb019a33c86efe5b5c41e69f8462000493565b6200300b6110608801357f1d1e8e6690bff21fb3a9637dead35f746c51d1e30085944b133373373073aca87f109275674d30b602e86b0878b72bcf32513a45e8f5410062b049fdffa297d7d98462000493565b6200305e6110808801357f282f89024e318e1067481070477980f981d5ceb3f29b5bd2a13cb0f2893348ae7f18256f27f12311468342c45516ca03ed73f3e7ed9e833746282a3aee09cf88be8462000493565b620030b16110a08801357f1fbc0f179eac8391066b58aad1b7705f8392a0174169beb346095658da044c087f1f480f4beed0496066ef2be5494362f62e284edcd56ae83f121fd9af68a934d98462000493565b620031046110c08801357f2964a0aa7505d016bed38d27a1046d98dec70d7599f88aaafb51a91a2edbdb4d7f28eba79420575c4d25e175992093559d4e55075e81ebb8da05d07a4bbd8129638462000493565b620031576110e08801357f163b18d93f26fe029fa2d8610fcef46e6086e8bff44a4f9c697998befb87a1eb7f033d76759a42b26a4c0c936aa3cfc20ffb6621e5fd604033653845ce140622bb8462000493565b620031aa6111008801357f01cede767cc7f1ceff95f5b53f49d6672ad29fd2fd8ebc7af8a7aeff096b450f7f152daab3597b90f52aa6d89867b9567ac9d2b8e30015a79af38eda3699dca4688462000493565b620031fd6111208801357f2e1cf64340d9eca8e8ac1c0daa1eb7439c90d80e82abff415f95842caa3e07237f1c9a12795d6e803440daff81302465862573a059396f289fe547e1bab51d5ef88462000493565b620032506111408801357f2375924ab4d106b84e4150b332a872271b8a951bbec40f793031d25fb91c054d7f2eeb6448f32ded068fcc91432d84fb8933e94ba7eeabd29465cbea2523a10d028462000493565b620032a36111608801357f0a88e73ca5d50a3c3957039dea42f0cece80b163dd7f3bb50361e938f39575e57f21cd9e5b7681a76abc38410b0ec7de672b71c9858c6866d54ed27dba9ba757b98462000493565b620032f66111808801357f130b9cd79c4a6abd6a1b4666288fce37743485b5bf4cac4280695836840b075d7f18407f330757dd7f86e4db9caee4a094c7dd23a2d4acbbcacc82752d52500bc98462000493565b620033496111a08801357f02c8aca8e0860870fac04113379e1eca2c668ad7e053d5337375a097f7640ad97f1f330a1c2e4233deb41c362804127c8fd3864abc6eaea63250e9d7ddeb71270e8462000493565b6200339c6111c08801357f2d98ef0a3770ecde45e7f62ca3b1ecd481af96640b52a94466adac9c121394907f0645b069aabd3722ea356f391a10812fc7ca2bed28d0f24b9e0a4a2a2bdabc028462000493565b620033ef6111e08801357f09cdee5b5d037121b57d0e08d6463a5c3d051279e6fe8bc037b8a9d0366595b17f14111b6d34a57b6e8a40fec4b720699c594314b373922eaa7f3efbce2d1e77558462000493565b620034426112008801357f0f2ea2c3e8e8e81e7c57036aaf8e795960fdca812e23eb4a5858d50736bc80da7f19836019c2e667973b0690ca7532790fec96186007b29da7a5e7384e51d1e05b8462000493565b620034956112208801357f1457a9b2e4f1f8078980bf5b83aaeeb852b6b19570b5cbe5f51c2239d0e182ef7f0c03c8c5106a05646cf83ad9d91eb2326ffe4647aeaed501e282c3ce00f13b268462000493565b620034e86112408801357f24fa192d673643967648bb280712c599c134c5251f908999e2036056e71d32297f2a71b0a38d1de7d41d0c0113d4cdeaa89cd154fc98644057ded20d9891a26e738462000493565b6200353b6112608801357f22928d1dfd1c3fc766df930484264ad2f718db50bbb63e8f0bde291ce4156b127f07c35cd0b0530e1fb9dabcbba52e5218cca58cf569230e60ea3c77a67bbb3b928462000493565b6200358e6112808801357f13f1ba4633a1e41b93b7d680281608e51027c1076e9b1f1d154104eccddd2e267f19132baab52b98301ef902e74687b57e54546db05efa19a69200595c7c3d28b38462000493565b620035e16112a08801357f17b9d38bfb804e15129b82b346528c01da5b1aaf7076020622befb8cbc4082d77f216b7582c32f1d5d0fd1a25326727f87dc9ef1e94855dbb85dbe242cbfcc4db98462000493565b620036346112c08801357f07eceb9db56491708617f7e3a3638586c61b79587ec2c6e5d6fde0165886c2327f2a2ab1b96bbf8752cda6c010501997af6574c6fb9570f848aa531c19c6b176b48462000493565b620036876112e08801357f1c462e8e16159edb76b7332544b7485e564ef89a59caa5ecaae7a8b28aa7e1287f12eea0060003661289a74d947425ce31b8c75bc575bda7f876488b647d6fd9d58462000493565b620036da6113008801357f0ce4a07224956b3d664210f3800f168c6c2d36a37b4185b952a706dce43faaae7f17591573bf777a6162b93923424b03a024156c48acbfdc1150cb579e2c27a8398462000493565b6200372d6113208801357f2c6a49f9842bd63583400eed9e52867200c08aae8ff37be9556ab165e715a66c7f122f0e1f666d8ade4609d41595592cc39a9548a67f688e3b18686f01147a766c8462000493565b620037806113408801357f252ebecd567796f96aa7fc4277edfc08bd024135fb2140103d7ff23bdb0895df7f13c046ae497637e5a9ecf5bafa809ba7eaf488154e58fb6db8ce377d66090a568462000493565b620037d36113608801357f1e8220b1b9a599be06af5380ad63a63fe6c321d9a9f4384d7ae7518d2580b3717f2ca93d89e76df0082a1aead4d70932ee5b697d03a215894db3cc3c9c362d31d88462000493565b620038266113808801357f181ed382d0c8cecc9da01d25699462629c6f24f59a008ed19316f9f6c58e37c37f140912d406091e0f0339a82e8b0a3027a45e664a3d562a7ea5f14bcd08f4cdc68462000493565b620038796113a08801357f1e4314eb47b092172f1cf7eab761b0da2702edcf76221b609df319532c3cea2b7f01b1e5fa2db56b23df4ec1876e29eb4d3b62f293aac0940758e8d42e2434622c8462000493565b620038cc6113c08801357f210eb76320593685513d0c3c10f022166dcbd1aea9d3e65e9790d34028430b327f10e99b6a2d2b661c27cbf5fbb36b54ec0f5ac722714066c95a78d97ebf665d348462000493565b6200391f6113e08801357f0c876493559b54dcfb03f741889c9dba83593d8a87d00ac84be4f2b1bcd03ada7f2655585a8aecebd5bf0f2b4d63109369b41ca30f48415ad9a4d50f8ca1cd13f68462000493565b620039726114008801357f0e66463ce675d030f5d1de782bde0126c3781494280e34ce67b7ec3899a318747f2f904e8ce2c74e2b072da82d054c232113b8b3988f9d4cb9dd49871ac8f87baf8462000493565b620039c56114208801357f241935da7a55663da71711ff49ac80b421a64212bafc0172beaaa6346d501b4f7f1fce56912c3acffcad18b5f8ddebe77ed350b27a0a3e0a006aa4f3b2c109ed7b8462000493565b62003a186114408801357f04e8f65b0de4bece19c57b0d722890de47ca7444f92955eb063763cdb41a025e7f09889754939d3c195c59b0ee74ec37bb6dabb0fba732e065ed20e2cf51e4fe878462000493565b62003a6b6114608801357f0f3b748eafffdc65e6e9878601bdf619f1e93512c44d8b89bcca00239dc4fefa7f1e62170f1dfd0aa1f76f4b991ae4c8853553eaf2e183cf1cb7f242d1f7feabc78462000493565b62003abe6114808801357f12913ddcdd78953a5ea00468ee5f4666d7015b4b7e88b45a45f4f5915b854f1b7f1d8be16eebdc3e84caeb2eb904625b1151b9e8f4d179ecda6bf8b8662ed21a618462000493565b62003b116114a08801357f0a731dbd1a56e8172909979bffee2d22972e090aaf46fa023aceb22b21fd96927f1896f6c97f15c371c6c3bd07d4d8e8d0ab46827f6c2bee667b6a98b6a8f507a48462000493565b62003b646114c08801357f075308be90650fad27619834a95d769890b35a9a1f412f24c0024e17421394907f2194e4baaef4c4636be96ca897715cd8d6f61b9a12566efe7b2e30c4f3c215d08462000493565b62003bb76114e08801357f1ef6325d45cb730cc00b385ecd8f187a8665b4e581e55e5e574df5fe99c2fba77f2cb4394af58770ebdd2f00b340d55bde3f3725d5c471eb05e4005171c55919608462000493565b62003c0a6115008801357f05882a3d4cbaad0783f5eebbdbe05ad4b6c01f2ffc7db6797ecbed1ad68557427f17d9960c2a9cf0c646aebca8fecf7b5ca9d3077f1e8c6d08cfcda34babb5e6e18462000493565b62003c5d6115208801357f0386037315027b8f5689483fde2db109964babb43c22213667ed170908e846427f023321b2694a27e00d3d41d1855acf7a80af74d02bc94142984d66e7f77273768462000493565b62003cb06115408801357f03249ff5ecf0ee63d21a60617a2749057e46821d7a6944b3bfbe4c71b12bd62c7f189ff542da4f8242c373b47f1c7f890569abdb700d793bba5da7d80ce239a7d28462000493565b62003d036115608801357f1bbee276e2a102292497c7823d83a4d5fd2c9b19f3e7ac854e0e0dcc9f2d64347f2ebf1a8e34182a92e0c3f6ad3934f39b8df8f7b77cf99c87de8d8aed6e36ec368462000493565b62003d566115808801357f0b21436c67c07c518eaf7b1ab4d0fba11fefe23a43277390680fb881b859ff687f16e3c64ff4a42dc48444d622955a34d0e519c07f35e38b0e74af76e2a28c6df48462000493565b62003da96115a08801357f115693d43fc85ceeaaf8513f537a6d60992a282f06149a53fea39d40877170f97f2466aa6034df5e0be3680ec4de46e62df2daf6ec9ba962567b488a0ffbb5191e8462000493565b62003dfc6115c08801357f2ed92e982123d0920c84f691f2efef37ec8d47b422794a7f7cc7ee797820605c7f0acf0a5804d0016df6b80c39d0e0175b2afb012d65515b25c88927bb3180019b8462000493565b62003e4f6115e08801357f209020b702a0a6aa6972c69fe2c54c459f8b5d54b06d2dffa224534e2c3f9be07f09a389ff87a3aafd069fa23c9ad68a3c2a5815178a3b93cfc47f73a1ca12d8478462000493565b62003ea26116008801357f1525254780f642a3c0b1eca1ca80acab903e1cef2216a4ca100792a620d506847f0bf6b515d20553f774f8d5965b962b2fb021006a46524fbf18b2714443a50e478462000493565b62003ef56116208801357f296b4500837b838336045f1bc477056a05e7f24baccf29bf992943ef1c25e90f7f2bec7f18ee86c821eb3fe7f2fb76f4c27b9f24dcaa0d7e55a9bd26e4df4a71d38462000493565b62003f486116408801357f246ff116b7bcddc1ebd3998f4090a3fb28cffdddf4ce0901998ef0ca88e9f4837f04a756601e34cb671a6963635b425b380d61a05ad601e32c18672bacac3adb1d8462000493565b62003f9b6116608801357f18a9b6c782808eae1841bac5f7d50de3a31d60c7418ed636cc59b55164aafaa57f113c05c172634a73480d2c7c52393414efb3fdce9fccfab5703855c5e544576b8462000493565b62003fee6116808801357f0772ed45839f20cb841d73ffdbb8b5fa5a89ad5763e0dc6494f4f4c71f6cf51e7f211c8bdbac9365722b3decb4bb85c2a6861cd9801d6d968cd13c6baeaa3c71ed8462000493565b620040416116a08801357f03ab444f31df80f4f2c03018be6af3ea837c3344656a8f55f7c46289db743ccd7f14d70dda3d02eccba4fe6195d072348637986ae8074a1bca7b03351f70d9bef08462000493565b620040946116c08801357f0252c441aa0a5f687c5e9e42a0ddfbeb94d97a61d7866f7d1d8adec816af03017f1d2a7fed4be38fd965c482c64b1b862f66debc9253032a5fc87bfbe1a4e7d3de8462000493565b620040e76116e08801357f2619109daaea1c1a22eba07bb5a8416ad3a6fa451e03ad78b36c7e9ce5002baa7f2cdf1964e9f25eb042e6e15afce840c5b9ba47e0c822c1ed89703e5e367fa18d8462000493565b6200413a6117008801357f0f60bbad82d83e096cb901eddb6f6096e1b20680219adc81690bbdd40595f4237f2c5c4b708ef33ef02e6a189517dbc54b5fd60f5a51abb9c2fd1256653744ab838462000493565b6200418d6117208801357f04ac7a1c5dd21b1b9a7b33953d2333d2286c776c32f87369e8255b4e20e031447f22fc6d696b85b9bb912e63ca49b5da9e4a34e60250e2e6a0e5896c4866e89d668462000493565b620041e06117408801357f1193a91f87bded2b3bfb9e9c13acd56d3cee9a6144d266fd09dc3de52a7fc7967f15f912ff43ba351a73925ecc5f5aa050777b9a14d70182aa9a0028de065ceddb8462000493565b620042336117608801357f03488dc3a4cde59bcf7e6ab70aabbf3db9af9bf7cc3780e7dfc3af52585719a57f258fa30481e1e8917cbe4eeaded45beddb0d8413e73fda3a3dd7ef3e30668db78462000493565b620042866117808801357f23251d7df4130c36e241fa97a9ac9cf09e829f848a54b3f3c4ba3d21fbb791f87f1009c961b1265ac1c4b401cc33085a5156d452d46b927a6dbd6e42784439775b8462000493565b620042d96117a08801357f045932356cab4357ce75c4ad39be52339564d035a95d005e2eb387d4ed6abcd27f1a8440e6626dc913405bd6ff473e203732dbf490ebc45cf84babcc51d1499eac8462000493565b6200432c6117c08801357f13a32a4677ca0914d647fcdced0fcfbcc237bafb3f33d6ef0a810c658b9fcdb07f275eb327444e7ae7896bda9c951b482f09f1fec481af07910296c806b83ed4fc8462000493565b6200437f6117e08801357f13e00f9eecb509bf4a358733ebd82327899ead51287025c73f617153f62111cf7f27dca60bd755adebd214cdd76cbcf7ac5a6802e2aeac71aaf4c03633fbf999188462000493565b620043d26118008801357f1f4304fe052f7c6d9fbdc6adf2369ba32fb5f2d4135e8c976120b92d72f43b257f05578e9b982e77b4da8ea700c365b75d8b6d2df1dbfa3749cce4a19fb038e1dc8462000493565b620044246118208801357f0dd1ab9a91c99556977a27b58339da60eba2fad65baea9013e0f97f7a91827907ebd95a45741d745a63d3310628b5dfed2e7f0a0339f31ccb02092c6aaadc07e8462000493565b620044776118408801357f1f075f2e3d7c1fe37de9fe18269443c54ec3154a58d4ceada55e25694a2a7dab7f235e5e7fe60a1a59ba9c386a16f3dd1b9772e0fdcf59ddfd5fbb6ff4b7a088ea8462000493565b620044ca6118608801357f22371f775597ca00a8b2ce58dbb54ecb792fdff58e7bb24d75fb3f229103f66e7f14c44cd50b2b5f4e2c99f093e7db9bbdf5f628001a9d2193ae446dc2a3377d418462000493565b6200451d6118808801357f141786e8fd4592c6db1282613c9a929884de8457d2711fa6be41343cf07a526e7f0806f7a1139400cb48e1be6fb6f1a33316c3655f2fa5f5b09dbf5cfffc3b140b8462000493565b620045706118a08801357f028bce7f045255e237cca6af44f7248e433487cbc2bc55cb6e4cbe66e80e1e357f2282c5b82cdb736492fe69d8a78efea6697c850608c3ad9e481d7a5780c15a678462000493565b620045c36118c08801357f1455ca098e3fe67a30391d3f768ea3c3ba4fbc4432094e8a4985bfb5587cab1a7f080331a34c36de4720425071a25f04523ec6ba527cb0ca4be0a59fb3ed9e69218462000493565b620046166118e08801357f14de6ac32c543422ed2a733a3f0479384ba2121c7fdfad82548a426de88b55207f1a108ed54feabe50ae64873da1b86c7207a9d53ab5dc93dd729fe66b36d571e48462000493565b620046696119008801357f1db6b02c54ce74e888e7c73d5030ed89a6e8d7dd5f0c2cb481a81c55ad038b847f04643a80e12d07dddf66912f3bfc3ade7f47a5e177a72b3e61a9e0bc3035e3ef8462000493565b620046bc6119208801357f197f0bea1550abc0aec38e924d76c35910db7208bb4e7aef9ad3591cfb3f4b5e7f0d3a8854143825a91cfbc17fec5862f2227efef64b335116e411838b991526158462000493565b6200470f6119408801357f090004ca8177514000a9c2bd62eb61ba5b695a95229b00242e2697496110243c7f1897f728291313d32208acdbaee0fcf2c73d4f6b330b7acd54b6ff3c1368d2328462000493565b620047626119608801357f0403eec780deed2617739c03c6e83d84519197573b71e00f086b46728e8f54da7f1e86903e412189f6decc202ed716e006745a465c63250b739c6f47c0fd933b418462000493565b620047b56119808801357f093923e51a50c82d3325a821150a6727061048636eaef0a4f1c199f75c5f81537f119dd0723889c0fed223b64e26179d609569615968470dd5a7e42a1aa2e74cf38462000493565b620048086119a08801357f019690cdee05551d00bcbf175371c32c61bdf0a21f9932a1976d8a5b96ab718f7f2301a002ee5e3c06903a8a052b2fadaf4a8632c02dc833a2c76a3f54a439869b8462000493565b6200485b6119c08801357f24f00eb9c4109572018676826f436ae2295aa026e3ef60bf44c87850a0d8f36a7f1045719fc6966d62238fdf0f9527b0816c8c0fb1948b1e664e384d3907970e558462000493565b620048ae6119e08801357f2e88883f45147d1d607fff2407225f1ff5c8c7456739bf8bcd895c45b7e6f2f07f216d524ee67ad3236344eb64450addc3cfac22e6177014a1ffea3922573159aa8462000493565b62004901611a008801357f0873b08b84de7fb696a01057508e55035df6f3f69a4354ba051bfb476959e6217f1e2590d1b8a9645830cf1a5ffa0cc619247cb845dad5d3882b3108a99bf3b04c8462000493565b62004954611a208801357f2369e6436c482e95f25977f725d37f47b477cd718c79b481ab418124d8edea577f1b39b1630a7a3149ca7aef2a1d3d21d4859197a11bf343a9198984ea1393ce3c8462000493565b620049a7611a408801357f0649b342c2b0f7abb1c3f1811bd18b730cea27486d80a55f7d6863c0b2ce4ce27f156eb683f6ea4506f73f43092254a53d4814ddf93c8185ef64b923dcba4c875a8462000493565b620049fa611a608801357f2f041b650926c7a9fd10e3e0f47fa7c1a296a82ee5428d40bf4586b7c73e7b4d7f03b040c24b6a0471fe94419a592d089537754451d1d7b899accf1ea26df82a888462000493565b62004a4d611a808801357f1903e8993b4ad9df2dd9b780ca42c60dc6a166ab2c6b6d3b3e49deed58a41ff17f110cf629630eb2a07be1d5befc0676f87ec11d7c001ee644066f1cf76865dd578462000493565b62004aa0611aa08801357f2283b964a09d66e3f58fb1fd02794fa148e8b36cb9eca482e355fa8862a601cc7f0bf731628a2f289e88f8b30a7949220103875edb42c811edda58a93252b1318d8462000493565b62004af3611ac08801357f10e1bc241db389e89cee7473d58fb20758a8887183a8c8c6bb3317721b721e267f178b47919d7495f85a9293cdf540ef6179658adb28b8da7c8582b27c1d14824a8462000493565b62004b46611ae08801357f1f88602e11c2bf721415a26a27b7372becaf4df20f7f59d8ad5cbd1f15e5d3677f1800ca1379b97275cda1ba88c96e1b3b59ad2fdee85581f5b25f5001ff681aa88462000493565b62004b99611b008801357f0db3645fb3c6db6d608776eab770aa28e9f786dc8336dcde283e36633db664277f0872ede96e4306bb1fd8f76428ab30310cdafe2f0615aba7621bc87d11f18b598462000493565b62004bec611b208801357f0bc40e1dd25049b9054ca39b525caeee9baf220627a08c4b2650efaed9f1de7a7f093e2f084e356835abf8af3a266934f32d19476011ecf9706867511ada0ee9f28462000493565b62004c3f611b408801357f255a5ac15465df9132935006e33174798a2529b54432e57210566db87d0c15747f2ff0d65eb682eb77d2ba20dd020bb099f0b7cc0e246cd8eac397f60f5e08f23e8462000493565b62004c92611b608801357f0fdf4391c19cca02cd6b88cd8ce292b0d0086d7f171eba384dea1eef566d8ff77f162012f514698dbf123daabd2ac95a0981af91c3c3f92aa35df0e35cf36f4a3a8462000493565b62004ce5611b808801357f27dea936f5ed40011854c60b37dbbaa4bb8d750f1810ce105a2eb23adf4c069f7f293e3d0d4e6ef08756e3d064c7a9015e924cef7d5a32bb1057202dc3dab6fe7d8462000493565b62004d38611ba08801357f0be1bebf6244b034e061f59d924bce51e6a001e6d01893ff7ced19ff32cafd067f12a3cc874982de3b945bfe14adc21007621527b2c8cbc5a141bc9a7fe41df1248462000493565b62004d8b611bc08801357f177ac5980db44636cead5586c8377c09431e374bf87de7fe88ba39f2b96896ed7f29b06a1c003c0da1d0a9f7766dfff392fbb873edf79231bf0a000d112bc1e00d8462000493565b62004dde611be08801357f12bda44bf5e936b204f89afcba50ff5c9d63d8bf99613aee99a6e8ffddf4b1637f23d363e8816efa424e38f6326088e7eda1f72808c643e4c2fbd892b4ea4b74dc8462000493565b62004e31611c008801357f1667076f88d53040ff5be0103e1bdfbc7367158ab65a7078800a6cf091b6b59e7f0f0be19e00b45063df2617dde5ffcc430b628b1d07bb00bfc1ef29c6825248af8462000493565b62004e84611c208801357f075e876722ca92091f4d23e6ed8c0fc3705c6d4e099290c6ec8256b2d199ef947f066f3dd3eb11e81330fe12bf8e6af75c28057d178a5f6c5125b6b62b08b191128462000493565b62004ed7611c408801357f1a717928932ed53db08567744dfcd89edf3cde4de05fed8eead954320ba071d87f22bbf12b9431f2b69ca529fd9448b05ec1f2b3c4be9b2ed14b5356eedfb06a7d8462000493565b62004f2a611c608801357f0795ec08e28dfb156ff5f95d7b29900d2293f9f43f747868bdf522e82fa30e6e7f138c632c4e4b3ef5a422669242d2a9577991a8d616a9fea7739aec120f8144368462000493565b62004f7d611c808801357f245f9f165dd943009c77b3477172007ebd74400343f16aaca1ba70ea95b5d8227f2d7728e524f4f2a6323d60dca26c6577bcb98d4644086b0dd1f941f619ceda358462000493565b62004fcf611ca08801357f0d672fa1d7b525e4dfac09c3c1c422b98825dc44ae26e712dffe92d66d2ecdc77e937398e4f79079454cc833ab336d06f8f5c8cf6bf11645f43ad2dc2aef40ac8462000493565b62005022611cc08801357f0375447891a5a48c420905d176bb3a8bac245a224610864e308293948c523ed47f28213f441f74e718572876040e127b37579dc1c29feac7601f6bfb3d69f745da8462000493565b62005075611ce08801357f2bb5383779ee2f9a1c117cd1d5386f818e93276972c355ab5c0ff02e251a1a207f0c958e63d16926e718081dc4a5ec71c24f1d92b13cbcee187a8d0c7bedfc97068462000493565b620050c8611d008801357f1076bb419d03f480be80f087a75eb12ccef9f42d8271bc8de323cad35b7f9de97f053dbc7383385e0b5401df55fe8302bce56f526ac6af215cda2393d0df8d80608462000493565b6200511b611d208801357f0d1988d336638f2f50d169c8b6ada41ac76507a05df6ec5e2ea17181b0d7dafa7f159d259edcd97f87dd2313374d8e3fe5a117f9e91d1360d1626732266a8227d08462000493565b6200516d611d408801357f163ce8f3b63effa1a1379a11a7b8ad9ea39f3106f2fd814a47bd2bb0cb5e54077e14feae2c31161e5695f4652dd478e144793efca2e58b2f53afd99498a759968462000493565b620051c0611d608801357f017555c34e7ee7fdfdc81a9dc97e9c54d9cbca34269df9a6db4399c6969a4ace7f03374633c4e0334cce38138ff3e84e0c2a4e7ffa2fc46905fdf6373aeec7cb358462000493565b62005213611d808801357f077dc4c6fd9bae21d0c6e940b380cc252dda51e812618846f4acc5a4191a2dfc7f12307b999ba4d615c33e8956faa6ecaff98e9a9a3916ab2920e9b5acc7ec419e8462000493565b62005266611da08801357f16e10df18cbe177a6bab7a8324f5b93b30d57c7e10a368778ddaf0abd6aaf6657f0ccf003dbbae6ba26a459063e22ab16912c780d228f5184076b5859df004a7168462000493565b620052b9611dc08801357f232fb705da3b5c1bb526689b5102f27c5f55c7e20411a06618c5b68408070f3e7f0cc3ef928912d26607dc9003926fc818e45f4ab2036cc6b0c78ae0b363b0d6f68462000493565b6200530c611de08801357f0eca2417fa3b620db3a06a5638c134d8f1df2d281a215481a64706f48b4167c17f1b1596b7034d415d7f77994cd3e1539ed11b2f4dbe4d9cfbf297f6c7146748368462000493565b6200535f611e008801357f09bda5c5172e861d3cd4041432da6391278dcc3134290b3a841ed280e58e99c87f1e5d54c0b2cd918e35256d85c610877a4a31022448438de2d1ef534338bb6dec8462000493565b620053b2611e208801357f29507550f1051482312d993f8a563588dd6ac89b6d3c5bde7e01692fb68e38017f196252e549d4cf4ebdf7a5877039077c81d8b26a7c6e90c1cf5e5213a48136e28462000493565b62005405611e408801357f27dcedfc3f3ac49d63628a8ec21ceb65db234f72ef4c0ce84c4db6619101c6b67f0a6c11e705f7edfc381ca11fdbd39247578db643e3e72c77a0ad63f361bcb3e78462000493565b62005458611e608801357f2e609e1a6c353c154fc426d297c32ff08a97bc78a552c6497c9b5464d0f7cf5a7f16cfea9ca98eaf558703856dc0e238d75780c459c0d734769acd6293177556078462000493565b620054ab611e808801357f2728745d52d76d2cd095570841e789eda1707da810f5d39591ead5530562a0d97f221fbc9ac1f88a22417cbab66a5e18efdf0f3fdbe172014d499531468375d09e8462000493565b620054fe611ea08801357f2489e1b97db3e6db65bd3b53c385aecf8eda2719007455250e986120679845aa7f2e71f6a0d7bf7bb69c51788c53be3d34e18bb2f54309de6e4977818f4099e1108462000493565b62005551611ec08801357f19492b4264ac4c4b5422159c8a1fbfea410dd4eeea755d4f23839d18aa4a46097f1b7e4cff6a7cad2bbb45249d9a292ae73e6fc8f6658cb0324df30b6d6662ef138462000493565b620055a4611ee08801357f1e02a77bdc4ae4b6797ab4bea127476589d8863994eabbfbe2a4bf2f6dbfd2797f1ca87131e33135fc3d16b9d7f94dc9e52e489ae35ea5a14170ab24e488257fd98462000493565b620055f7611f008801357f1493afefca72c65ebd8b89d509ed31a7665d6011b87167c09e2b1e270e7715727f09d35baa135f441d7610745952c0411934320786b20f6a4c8a541a84c7f500f18462000493565b6200564a611f208801357f1fa2b38d035ac04c0eb2ddcad102e28ba624b090eea5781c8897d5ec50f05ad97f10e9500d3ad73c50e210ff63ff53d9e004722c48004d495cd0030991aab6095c8462000493565b6200569d611f408801357f28e93e2e11b2be2d2da433f49590113fa590d54e736f1addd5990b62a540f08d7f17d5d7d3fa0234c4a5f7ad24339a6809fe245a43adf91ce86e25d84e1cdd397c8462000493565b620056f0611f608801357f1ad99ac1686f32781fbec0f2b8c44e251db58d7ffa45514ce10af3482bb8da887f01411febf87a39c6990f90973aca495c2657a919c20f65c14a11e44731767d918462000493565b62005743611f808801357f15fb29fa505214da828c6f810fe879eb6aeeaa424d79bf37272ca6532e110a1f7f05cdb6bcecd566f9bd48b7b8faaba58ef93f4d2131d1ff082fcaf9b6945258578462000493565b62005796611fa08801357f13883a7e5ba5ad27df2ed5da31ffbdad002c1f871e8e8ab7b43fef9a2d4803657f249fe7f10f786ecfea01bc7295e612865555f7dc98285c79358db9511852f5db8462000493565b620057e9611fc08801357f1503e8a0b96eff0dd00341ce8a7bed007182c63c6858028d252db87a821000a57f22af34344b37b7fd2c1b459afc17367943befc72c202ff187cd137b499985e1c8462000493565b6200583c611fe08801357f0e346733c92329833fc99aaed5848def4bf1c12f83ac1a4c4a78dbb4e91fc0047f1a5e3bf2e928c64a2dcf818126121eb46de2667a1e6fb5fe17c5524800c2da248462000493565b6200588f6120008801357f1a9fbcbe0ccfc0c8fabcf248f0e2e4551e0ef1680c6ff481ba8d3180bb3182ef7f06e5f28a66e7eedd91f889e2a46a19471fd86d2f3b423fa5552492b8af8652ca8462000493565b620058e26120208801357f2492f4d7b3084172baa9be2d04e7a17a62280099d0236f418a5e6a4a0c9f63c37f2863b19a5cc11ea3ef6535777dbdee694e566e90e10ca75d4ab94fe1eb38507b8462000493565b620059356120408801357f0afc5b54fabb9cb84b9b46f33e969dae1450521c009956466fe53e696ffb767f7f1853f7a7eece45c56ebcf0ab37ba874291b14613122474a6d9b4b1bc0a58f26a8462000493565b620059886120608801357f0b2e683c5074413729f461f77e5377b48bd0f416e075f48c3c01b5bbe0f1acff7f117b06f731b194e19336b3cf31436d0f7d50ae394952efff8be6fb3c9c2c81a08462000493565b620059db6120808801357f23c0f2e86e21e6533bf87dfc6007cfa3196f1274061b605678298e14f08982167f062bba92e0dad63cacb992309c3155dd2dc6dc064f82ed4fd83727bf3ed0d6cb8462000493565b62005a2e6120a08801357f1dcaaddc8557b2d40ce244f34c1d5a991cf867bdd3e6679e2b81ed84399a91737f01fa76c60f1432c49ecd4485bf9ff11ea43924ecf1314ad806dab82a14b07f768462000493565b62005a816120c08801357f045d72e1109d12faf6575d89b1ae2434007edbb1c426173f1914115c7978e80b7f156d3dede89f3b497d8ee6fa363ccc46ded5a8379a63425083e004c258d289bd8462000493565b62005ad46120e08801357f27de7985d8d54719cce6dddecf24879bd5d3f703ca963868586f77de89f4cf5d7f15fa39e57cef3f718889db4120362d0455b100ea492ef3d1be4e949e09bfb25c8462000493565b62005b276121008801357f11a06b483d4b9383caa5f89420929b6083dd45b6a9a5e58d65214a9f49cdea9b7f19b15143ef9ab21b60f0dceb6454adf89478967d8b81547f0c16c234e6c9234f8462000493565b62005b7a6121208801357f0ba58d44b984f65eb29db36cd118608f398b0dd2b474faa00835228326fb841a7f0e0be4a851edadf5045755b54bdc6e834d9da520d77009274d3423f9d750c41a8462000493565b62005bcd6121408801357f2d584dedccedd3f82b589963c7b3f217ea1dd8e46adcdb3334d6666890efd08e7f2a832b2897af3a1e82c3297d8d468b7e4bc292db53324a4130b7d31839bd5b438462000493565b62005c206121608801357f15e13b3a8e7de827b7a9b82446cd52b8e2ac9f132da128f9e9036a9f5b0429e17f1a47fd49d5a1b508beaa23ed7b28b86ddaf5cfc3f9adcbebb67fb85a2cc5c7448462000493565b62005c736121808801357f025b330466bd70d7870bff09809d6ecb1f448678686fb1b7bee6f46e3f564b527f147311ed4b31e7cd10620f21d03c02b4bcc375f6a3f9dd5d01d9d05eabd50dab8462000493565b62005cc66121a08801357f21b9f7d3b4d58e5cdd4b685efefb758684f6ec3f2a5475921d081e7372124f3a7f14a97dfa9058f68593e7bf0f64268ea425de35d40c7b0cd2754cc4b21b3e494f8462000493565b62005d196121c08801357f1a02df28df48d914f5f0077802e05f3c7b371db6c9081990a70941c6cbe879f17f1f8623025ad152f3453233285d2323bd87ceb1aac58bf0c29d24bad62785a4208462000493565b62005d6c6121e08801357f2e589e0acf439dece055c21da3cb0113826028dd9c2400adad3e77a6c3914f367f2b8d144c2a6657c878a1f1b2cee68f7c60bb518082569c6e459a7229fbd8f6438462000493565b62005dbf6122008801357f2f12a99fcc74871002e85e4825e6508c1652eb28b4f152f7ef831e9d6eed326d7f1cac5c59938d102e57738144f6e9b9910476120ce1bae8b0afa785ce664a38d98462000493565b62005e126122208801357f1217f8c5becd0265ec90a0b80f081be96740c7bd683f4a1204e1293b4ba924337f218176f11d92d3f144cf45765d995c5f11ba2171565444875fc73cf9db7a7d8b8462000493565b62005e656122408801357f1a0e37365e0fe4fa0659c13e8afd7aa887792e31f5d3d2ad14a92fcbd411746c7f1587c2ebc3fa87ab3fcc572694b44cc19b1b114f4f3b560f2d32d1e74c6dc9808462000493565b62005eb86122608801357f130ab8ebf4e55ccecb4d5eb44595b166460dc5178f86d18d8f580697e48ecfa67f2a21e8f1a0ae788b91eb78b558beddd731ef9d621422b1d6f5d914981a0d58058462000493565b62005f0b6122808801357f115b8297ed1e52e9eb4f5b285e6449eb42e46038fb09151ca6c8b9e564b8f92d7f2b4b5f7a5a319c82d781ef5f8e498891362d6ab3d4a51647e1c652dc3657a4fb8462000493565b62005f5e6122a08801357f25c11789d3920680013aada1cb208830084b23d1abf89dab323c108fbb21f4ad7f207076f1cfb8a37c03aa2adb331e927f07745cbe72ef8d580d3251478c85c9c58462000493565b62005fb16122c08801357f22706089cd68a24ce00339c74065289b96c09b5047cb77a4f94e526d1edb0ef37f0cbd1762a2fc09cd4620325c69ae2ddc3d7d1c79bead0fdd33484748418a53168462000493565b620060046122e08801357f245a84066c645a7cf75f7605135863950292321f9a6394ce97059ee6ae400b817f1ea4d92762da7f1e953e5147bacc92c2353a718ce9ee85d738e61be656df3cec8462000493565b620060576123008801357f2222953062008a3e7c506bac695df09b22a8f79c843a9b34127f0366d4a8a8877f10d40312f80044362c79b47d3ff41c8d8d906160577d0a3f928a953bca41913a8462000493565b620060aa6123208801357f1ba4f493a63633dfc7d274f19c1c0f97e7fe8a17ebf4ac9822243055fcc5388e7f1408fc26175ed0326ad74572e583d1128029eb994426bbae92a9bd4e770bd63c8462000493565b620060fd6123408801357f1161ad27fc48a7359ca62b02995a93a39f57996d85d0b3d09ede70939633f9927f2c4266b9b2475639626d3713110c815d7642cd60df522b8a8af73bf85be6d7ac8462000493565b620061506123608801357f0bf682d9eabc0a5e063770815501b3d7bfeef099d9ab53b1431de4df75ac9ff77f0f7424e1ad5b5232988ca4d4e34cbc0278f1ecc42fc624119144c92c7f4756cc8462000493565b620061a36123808801357f20c80489910f678d52e7890df5225ab97df4d2356a0d7001a90af7a703772ffe7f0f8394d50f572294a410fff6e758ec429f4de48abcf1eeed78b998979504d08f8462000493565b620061f66123a08801357f22d71c5a9d4fdb1f7e89e322783107f7ae3fd08f579f27c559d9d63c4c120dc17f0653161560beb8436e033843504156acb39a0cfbb83df5381cfee562211c75f48462000493565b620062496123c08801357f20b6d8b51d1aed0b49b4f0ea65f7af797c809ec923c8d9990ca9cfbb7ac58f687f12e5a21e7db3668add026305381584fa1ba3aaa3b2e494f31c6110500ae537618462000493565b6200629c6123e08801357f1d43af9875ad2c3f30f9a65c62a402117390377a27d9064d19357e2c9e4a9e4b7f15a901a3bae743acfaaa25ab4a7d31474dc1e521e37153b2958b05e7cc031d118462000493565b620062ef6124008801357f07fb3e29b2a78affdbf9996fd058d54895f0e0c6218b3cef577e2e3d251fc0337f12b2bb468415b2ff1ea31dd1f2597d658c863b2dd901879d84d4dcfa9ab5afc98462000493565b620063426124208801357f19c5f482aca02ba05a74f720cfaf2da4b321f23e50e377009145154b869487097f21fecaa9407d2886059f342893128da22cd681afb549987be3ce38d93fffc3f58462000493565b620063956124408801357f21e15bb356068e3c9b98de3f5e821b0d20dcb5e28e269b0f24238b7081ceaa1c7f040142baec3c54f746c1bb4c594f687fc81e28856d7fd7c685890a49533eefdb8462000493565b620063e86124608801357f1dc71348b00e4e31f872936a1d6dbb990cfca52556189cabdd7b8c78a799b2ae7f2d18b2efae937e644aaa37fbc725576e20d3ba910058aa5f477d9f52084caf9c8462000493565b6200643b6124808801357f2fa0e1968375093bb0e1373d4d3319d4e19153aa4d483c29d558ccb0ef5ebad07f15cb1eaa8c1a807a70ee17cd89948a18e20dcf121118f5b38c5c1f4dafca5b448462000493565b6200648e6124a08801357f236c14f6ae4a37a4e336fc9388f5daae2d5951b7e806e1f05bc96f98cee4480c7f0a7e3aa9cf9ecc3f4d90981950ff67a29a2017794d1d22513691fda8f664d96c8462000493565b620064e16124c08801357f304f1a5d6adff5ed78cd9de56ade4c1a8291a304d79e39a7f775ad46c7908efc7f23efe3613c30edeb3d6c5e55e98d52a30ec91011f989d377c7dce5c9b6f18b4a8462000493565b620065346124e08801357f182ecd045e8eff61e74f58e802ba5f0fb2ff143c88bc3033b9545da02398b2d47f251615025e583fe2698d80bb7cbe0469486fe64a13586783436bdeaeed2573098462000493565b620065876125008801357f1c5a5171a2a79ccbc6d5f21ef5ac87280365bd48e8202fedc6af2f67e420438a7f238a0627ee0a8ac0b476c93370f7e494c2941df77db6171f9f6686e2a1e0aa468462000493565b620065da6125208801357f036af23a401105dbc05b41c673a7e640cc239610f6c9fde804ac81b395853b6c7f0f6525202028e5652bcdbf4311bdc107e182e0b49863ed1e166d56ae24f682398462000493565b6200662d6125408801357f23583dda37b9d7f11efe033402f2ee5e7e87b8b97151e751cdf0d9616d90b5dc7f1fd35605b22feb5e4ea1ef02eae2e755a06621d2e49397f1866dfb927f48086b8462000493565b620066806125608801357f132e032eaa0a837efe33d90c6fee02471b1b3b3b72d4430af7f3cbfbe92f3b947f1bc5f674b37665168aa3e726b51b79a52dde721f2d187243211caeebe1d796838462000493565b620066d36125808801357f1a778961889ba1480ca047c29f6744b20b0ed985414b86fbd3aedec67e3f56487f2bfbdcdda62fdd6b6e21091de3250a4cec2190e715972528be02dc524c372d228462000493565b620067266125a08801357f237347723ca2c9592057fd74e392cb60ab236f19fe33c761f321a4b8f206e6607f0828148106d441f75246d4da9e14d1dba661007688234c308890ac2b86f2e1ee8462000493565b620067796125c08801357f158f646733849d2c198636e2ec9e2cfba5900cad2de352ad3680c3195d6ed8a47f19bcc37f021030d025e5dd109a0c80d16b6ebaa6dbd443b56ee8df40137acc728462000493565b620067cc6125e08801357f0893d6344fd7e3a6993a5956b2c7c50fb8be35ecfa9fe0e91b9ba361037e21c87f11e32f4911e8e6e02296297575bb2878c924811db7612da96b3b6c8caec17c158462000493565b6200681f6126008801357f02c7d35c58a93d563b1458a3bb91dd2b38f1c4f794e2abbc7ec5125f9091befc7f1f07c85fd6999778f4703555502c1f06b576505494914b394345ef42c41235168462000493565b620068726126208801357f0c37ddbd1529f192e194466ed6d2becad9418db80a474f203b3f3024d43ec2227f2cc73c58ef70163fa9f25971a0e8f59670c03f86ec686325116148c620228b178462000493565b620068c56126408801357f05b5b56f799d17122a5abbdfb9d596532f533f7c896909a90463ee140555b1947f20cb128b7f15ea82942341bf6397869bb5603d616174833ddae0b79c43e4285b8462000493565b620069186126608801357f2f88c0d25e11fc97124e325b46eb4767ed2a6998b65bb0868cb615b352459b147f0170a7356a922036ae5b9e2f8b4bf29b4d47d4b58a1903824c329c17228541978462000493565b6200696b6126808801357f0da99914229a8077423ede7e9db2f2a1cfabab9444245f858edf908e803cc3637f119f3d4961531a8a96fc106db296a6db504e8cf2ad6d9871900f3f25c8d34b1f8462000493565b620069be6126a08801357f2df9874624818689f880976c692e5a0955d0ec1d2664ae670fce61298aa7b9427f0b8dbdda3f05e17ea860863571051621131ba7a4d3dcb732ea503b5275b03c028462000493565b62006a116126c08801357f2482db3b6969cce49ed152140fe9360180d088b2bd1340c04934808db4d2e4d87f09e3f74684501be825619507979a111d868f1c544373b564f5af0aa635108ccd8462000493565b62006a636126e08801357ee44e56bb233b0deb4d4ea78bacae6849bbfb7f96eeb6fe5dc68c1cce77ce3a7f0ae506dfa6d7e6a786732e64e41a06c0f5e664c7b996fd466f2315461ab4742e8462000493565b62006ab66127008801357f2bc563eeb86953fc25c54327bbc478fd9bf21b7f96b5fb8b4eadb2c1049bf8267f10b481fc0c835cf368752dec7a5fbbf22c5c7d7726012df8d5ba776ed284d3a38462000493565b62006b096127208801357f20361ef2f0a47e2d7c51a42b7eb9e8c48480b664606930923e4b91f1d2864b507f0ffac8005df4fbf6470d16afceceb718390fefd75284e4202e7ae2db412d92878462000493565b62006b5c6127408801357f1b0dec772617a273b6bac662c167199b9f2f980c165c7cccf01d54f3562f639c7f2cbdde39d4eaf03ff9b1a0a44a812e67a40ac6f8e21f8154d14d136e128147a88462000493565b62006baf6127608801357f109de32c37873268a422d13260fa4ddcc39bf381101284a5a918c16637af90827f213e77776b380b97f8636d92105881c926b8ad6588debf139accb778d4f010808462000493565b62006c026127808801357f1feea651a2ad16491c1ad7038cf42b3b61b39ec3650872cedb4702b913f9b07d7f11822efe2fd2036f309658ef7b53b71fb3fbb868c7181ac1758a870346ca6c798462000493565b62006c556127a08801357f1977eef5ce55aa8f98aab98ef3d18023082856a89cf50119bb4ecbbe731604167f1f79d8ab6d0b40032a5f543b42131d395b4e75dd4d4b93d2c48eca436f8ce6eb8462000493565b62006ca86127c08801357f296ba7de6afccdc49902ae5390dafb0834738d0fec5d3e04c8f9931b165183ad7f162984ba6997b273acdf496accfdea01bdfd11354942e6adf1629a2aae86ced78462000493565b62006cfb6127e08801357f0d10afce16aa9c44a7185e937dd298f12f016b582835a2504be0c09393c738657f1b710cfb2c2cf37136feb96def551a8b7a364895b47f90636e44e090610aae768462000493565b62006d4e6128008801357f083da8d113af37fb4bbb8db84b2a172ea6167a965633e7ffc1459dc402ac8c707f0bac200b07ef54b6d9cd83a1cd2dfabfff2b38c7e8d3f11d86f7823f4315258a8462000493565b62006da16128208801357f1e9f5b1f5424560978a72bb01a24ffeec5f1139a28bf7903fb03cfa370f96e4b7f0220fdccfb614282e28f9e6bbbba3d5dffc8ed2c28f2b46dabeef036b298a0738462000493565b62006df46128408801357f1bce6bbc38da235b5645e6a360b5926e1173872b4e055c3f17f35007dd0b22147f14212c06c7b4c356ee474b6abeef187f893a3487ccffda27e83f8f8ece2adc398462000493565b62006e476128608801357f2ec7057711983cadeb748fc7e9ccfc79b7b0bfc60b94b0381d3126c6d11a469e7f2afaeb2651740aafd00fae6a052bde1f773f0cf3f56975ac1e8e0664e7cbaec98462000493565b62006e9a6128808801357f2f1ddbae5df34e7fa95fc924287803dfe000dececcc99be448f200054144ee297f22ad69ab05bece669a87d649d861f197244333571047575581572265fa831ff88462000493565b62006eed6128a08801357f06a06104197d88d6da06b9b350c21331c24c6076a7e963162b13a4c44b773b747f260d030ede6a2fe18389c22e90a8530f5577aa3197f355a9854a36ec21f9ebcd8462000493565b62006f406128c08801357f1dc5f397ab097cfb3a223e14c99d27bb9092a634c3abe81a81391c1d1ffccc567f1e1b9f66fe4c86e5e6fe35d5dbb666418bc8626a1975883eb19d122cce2203388462000493565b62006f936128e08801357f093c46a5032810aa1a801bdb7f35cfce66bada53abded97e3beaa050b86692b17f217d14e8b946eb12fe225206944670c92e6c89e02c28f61659bfca53a1d6dbae8462000493565b62006fe66129008801357f1cd60302107b282889c07f31b95a4458426b2a092a004130bf7c8606dbfe2c087f179d2403a94b1be2514e664ba257f08c4a053060c09399192210d53beb5ee5a28462000493565b620070386129208801357f1262452ea1d4365aebddf9bfb9b933726730081e8e89057e18f96f6dffceed637e2fa94713a68fcd0168e0790b6a2497a644afd2e472cc72dd3dcb41ff5050958462000493565b6200708b6129408801357f08499207e26a440af9235915140196b26fc4002d8359bde57b52fd6e475415607f1a2b7ce672c6dbbdc1ffe32d74b638d43ec148f2366a447fd84ec0dedccb8c4f8462000493565b620070de6129608801357f1a51faa1339c5c47c135afbca4a5300dbe0f72693c281f1c1321c77d5a15f67c7f2645c278a53b52fa866d2d613c7a1e49d0833b5a3c6506a5e1579d4d4e7c72d98462000493565b620071316129808801357f05399c84513c636d77d32739157f3c20d31a830b34d798a4f64aaf9c5492cd187f0646ea778a6e47c5ecdd857791271609169a893df013c256c6c65cfe8e6ac0828462000493565b620071846129a08801357f1ba9056f13a9bfbed93ee17a6b199488418a9e7e84fee03d59727965dac37e667f194631222df356bff406608fff409346bd519373ccdc546f9f0f94b02761d0498462000493565b620071d76129c08801357f2d164b1de03fb5a412201eefdd50e542eea717e12085e01e539a26438a3eab6c7f1d6455fc918489ae49e96526f33a2c10d42ca9af3af4af783390c4de5595e5148462000493565b6200722a6129e08801357f107298ff0ee8555721f3293b9f5b4642338ac9e34957e29bf7c370dba064771c7f2b71f06de9b8a73009f71699a88874a35b99407b5d1b8616d256e027164a87c18462000493565b6200727d612a008801357f093e58c3f8ad0653f255659912efb902bb30a60b733ceb1665572a473b8d5c7b7f301bb1db85fdaba3ecef7ba17e508650a1ca2057db19d11caab6ff87d3746fd18462000493565b620072d0612a208801357f1dfc6ff2c462d5083464df2b45eff57b8dcbdfe78282b3baeb489143a8f920447f1a872c6fd655cde1e88a6624759a28bd258c1909430ad816ca8533447938cea28462000493565b62007323612a408801357f2c5e2541eca35f6fd726ae09b04ab9825c5d1842b69e729012d346c96584d5bf7f26b01830c92531fa84604482d2f1720f46866dfc8326e9281a2f535a79e7578b8462000493565b62007376612a608801357f1473d4c5207b8195b9188126dfc544ae2c21358ebd1bd7d07f5861d3e827b0e57f2fa848712fb8f7b73d6a65b43ad986a00e5fbd92e1287d6b61976ba682b03bf68462000493565b620073c9612a808801357f014f570000d934f0eb63c1b2bafc015af3926d0688aae9352d8b4cfe7feb7d547f22ccd5aedc9f2596cf96bf7a06d3bda6e0e95cc488575c7be089e5cba22134718462000493565b6200741c612aa08801357f18ed725f327b193c9fb9ad67560509090554a989924997d0d5c51747cd9c9b2a7f18203f03268e7677adb18b6ea29783b87fd71489371199d1c8aec0dab5dc563b8462000493565b6200746f612ac08801357f2fecde4bc96dc653304af2da95207e0f82dbc0decd3f76cef1fb6935ab68d4937f14fe64a6fdf577eff5a0ac67034206e2b63bb95e1b40cd2c239cf023dc041eb28462000493565b620074c2612ae08801357f0a2c858ee82d0f25189a978d4294e5830fb0118aeb8a3db4dcee89d4ae70aa4f7f279cd4d2ee36985f1357a094663de68356e4bf0cbcbb521e97ed1f724973f1678462000493565b62007514612b008801357f0f8a631ad66cb3738745759d6c2810e048860544a47af9b26febb9ddfdb6cd0d7e8270e5d5667bc8c02f8d384a32796cd1bb190476ec57af6f43f738329af5b78462000493565b62007567612b208801357f1340da6ac7703bd44f22cb1cdaad81e20d3a4e22fac0b0d4311730bda6debd287f19ddf94d1fe90b6d9972ea1106bf9815834dc1d44dbec4eb329eec27759c2c938462000493565b620075ba612b408801357f13205e2f538199a95666ee66361c5e7333532f1496f46fdeb71724edd86d000e7f2ee491bc1594cc77039e63da469acdc67ae09304b5c365a6a1be194a8f0a00028462000493565b6200760d612b608801357f21abc5c37b871e7d1728b30651c16569348eac3b7f59da1e1b97716d92d7dfd87f27baeae47ac83eaf350bdd4281a740076bc7d64e0663edcbec205ca338c3f8048462000493565b62007660612b808801357f0b1ba0035befa92bf15d2f6183598f84255258d57d893e2e39e7b141d19dc74e7f08b3ea2baa7676b3227c5fd0cf373ebaba036b82f6d6740cd2372c5d1f81e5de8462000493565b620076b3612ba08801357f2b14f2524a2e2702a9f5d94230849d7e6618555caf2fa7c38b392ae1d44bb4ec7f0d451646b796d74f7a1d770f74cae39e56a7810b3f8f0b3591524c197094660e8462000493565b62007706612bc08801357f1e4f72a9aeb6c8c2d9cbffa7e35df3f52e27ec5ce3db23cc369f495c60d4b8137f280243d4f4d3769ff14fc928a6e999654e91745c8c27120e5029dc83c2c114518462000493565b62007759612be08801357f18b53ac72ef80cbeddad5b412c9d0f3985dca7a5c724810d3644239b0259b4207f03e9d738fb6212dd8dc451887d897c0c16c6d2a4ec7733c358b044c70de0b1e28462000493565b620077ac612c008801357f074d058ed75cc65a9a89957f0ff91c499dd2c516dc6b6e2bf863a4b9f98eca7c7f0da8802985c503e58679cefee6824d25d9476147d0deae6f4eaf62cec3a7c0a78462000493565b620077ff612c208801357f2c533548c14df74481daa75a630b49310015a7f7f558177bf4428bae243f4daf7f0ec277596080cb8967a123050fe72a0c0fcb5e49dbe9c9f6e164282087f5918e8462000493565b62007852612c408801357f0ec39a10c42c0a213a6e30b4fbd72c5bc24cc908d4367d5bf31b262d5ac005b37f018935506b6b50d7e891652c968aedef072d7c40b6e5df1acaa11b5f884f116f8462000493565b620078a5612c608801357f05d1bcf0c748646fdd34c1fd8c8e793d938c937781ec38d055f8794c1ca2cccf7f12375367e2e63a7349cd23d19e740c981d7c90f6694238c5f7ba4ee77f7a1ed48462000493565b620078f8612c808801357f15c7bc3114c044ebb39194d1d0937311ecf9b5aa92c9eedae229974adbd57dcb7f0c0f8100cccf72232d195e825a1eed3db625b1f63ae16012da1eefab91a8133e8462000493565b6200794b612ca08801357f294779226b16e0d66548a93e20810bcda1d7a223be4e799cd657d5720d35009c7f158c10550f21e5fd67b8cb049cbe60a4b2378c0697458c33b9db50aadd26e7948462000493565b6200799e612cc08801357f024c68c95348338e779d81fa598d2763d0e6dc1a701ccee5f63e97aeb5fbff167f1a1c7fbf6e3ecdab7b8c81510d3068e4627c3cbd9d2ce18698485ad7dc50c67a8462000493565b620079f1612ce08801357f2a978be437d5195c2bc71dc38b1e148c7b4511c3380f3095f122dc14c0e398ec7f0c956e99d4c4bd8cdb076161a16f2407ffb42723192b57d3f9a09cbfd42ee1a38462000493565b62007a44612d008801357f2d1b041ea862046c12d361b50cad26224136a5a237e26fad0c8a7dae4848aeae7f02ca2ef70207b696f9f77dd94b6919286ee4097b3c1ee7b2d56c7883e8baf66f8462000493565b62007a97612d208801357f0657fdcca530417ae40e9dcbb44b92c3f831f15936d3668cf86e967d8bad21527f161ff8812c75cc2b50e515b78ec799809ed6d345926c1528518eaa0c7daf2a378462000493565b62007aea612d408801357f279681cde2586cb9d2a1785e41f3ea61e480739eca56dd8638e960a0e6b43b597f13617a6da98f062b5ee0fe90b8f00c8b583eaf950e68b9cb776cfe913bb39b9e8462000493565b62007b3d612d608801357f05a8cb4010df1765a3397fc7e6afa1530683d4d998b4c0961e9a3640440490147f236ad3aff4669b0f89cafdd236b30393a2cfc5cf68367dcec89c99963b5bfb2f8462000493565b62007b90612d808801357f1b7cc8a1e8ce085e2242d67e38e57196455a4b03c9d6f8f6dcc11f3f0920fa737f2732acc678a883e8dbfdd4e9ed08984980318d6497b5df3c8d02899e93a951e68462000493565b62007be3612da08801357f170a325a50145451fcf3a457a8d78dc7cf68ded8c97ab0f873a5aabd221426eb7f0dee2c9ff57ab6cb3ba4dc6fcd8a4c95ee9e61313c865ec61d3ac4fe63f4b36e8462000493565b62007c36612dc08801357f1a912bf65834090d33a6e691490ae48e6ea8cb81da18d698586c519094c6ea8c7f0b2e6b16d84c4cc1aee01f5459fa227ad4716e39677cabb386cfdad1225fb1048462000493565b62007c89612de08801357f160d5b4617a195d2e5d2e10a72a8c20635454ea58c29518fc6fb97953f88aa227f090a27d29c7e54d1b712619cca4801049e6978f79aa9b00fdbe9863c48ca378c8462000493565b62007cdc612e008801357f0d6390cda26a263afbbe7a20a51eb95c1af4e3297772c3d2b35b19b6bebbf2bd7f09e5c95efafc99919c2be253fba23ce7f072802c430bcf3462b4e0919fe65d608462000493565b62007d2f612e208801357f0a27bbf902cd87d42f4d9b04e139b8ab3871f12825d600c2c4aab2f0b35638e17f1e2518417abaaed8459460707ed47ec8ef6e85838ee4314a1106c31149829aa88462000493565b62007d82612e408801357f02e3f59a8bcfd56cb08b4734e9411b7b86910b8a97d16f7b2bd7ef56aedd36c47f1011a1e6ca23f15ddfa6c9b90021fd35a0b6cd1f7e6da410700d3650495631a88462000493565b62007dd5612e608801357f01263cb5bb67e6f08218240d7cc80a5211e0725ac86d3b8ace064e7477ee2bf97f0ac697820088bb3dd69fc1f1c183c51890a535901fd458399a2dd0b7a6966e1d8462000493565b62007e28612e808801357f0fbfe7b1d3fc9344b81eeecef5de9e9e7cb8ead06c3d904c2296205594fa55777f2dd32db3942f314fc929fb7ae6d5f34c1f561d94a02e78a29f847d607a3d68fb8462000493565b62007e7b612ea08801357f11ca5151b18b9c70e02bf32bbeaac4863b4a18c19dabe747d35c714d3842294b7f16f70e38950409acc2a7ce144be3f6022ab81053a29ab900e433319f47f9e7cc8462000493565b62007ece612ec08801357f27769a45886c12833354b8b5937686e52e77301cde3427a2af8b0900e66e74ab7f2efd4005eca9a95ade3dd666e12e7a24f2365058f3a571e01bfc93e344d930338462000493565b62007f21612ee08801357f21f1113f280fbbc56051d3c2107d2822c707c5b8e2a8be9218ed42bbd2b039737f0f86a3fe250af340b474d6782f14d4be75b0273bd0095b76c278a425c3617b248462000493565b62007f74612f008801357f1c741e6860874bfe2914a9407320ee83a06c02cf410e0e595df81335d57720cd7f07b3a2a4159c23022f632880cc49c98c379152435855d2801807a4b68e5993ae8462000493565b62007fc7612f208801357f26e1d7dc46e73ce2dc89834e7b1002f8808c7536d31a17a6e32957f2278af8f97f13bb4ed6e0d4087b90144cb097c3805228c5923e3738ede32d15f1e3a1aa81a98462000493565b6200801a612f408801357f1495613855c8b98661e613afcf79ff67f54a30d10295ce19971901fe862a909e7f10f58374d70fafb41d9f4ef2b108f4271abd48fa0a64db8dbb4baadfce62a2548462000493565b6200806d612f608801357f1458ea4052a2a5b443fe765452ccd23eca46a37e03b513c9586389abcdace3f57f16cdcae86a5dfa8e44f51b3f85117bee2bb256ce12bd594a7a9a2bc69246f0f38462000493565b620080c0612f808801357f282d84c12c61b9f62714bba11e842624005d1d80ee52b6c3dbd948979af65b467f210c360b719b429a127979a0b82d667f9a0a4dfb6f4f2ceab447d6a8748894958462000493565b62008113612fa08801357f2d2f8de0817d277e3bc47c1471cb0d71e74ab4529e8777b6ddff538e9ab2ecf57f2021b8132065d1cd4cae044d820eb7a9ddd06c213f9f1ff6914d9abf9bbe17008462000493565b62008166612fc08801357f01a0b577ad37489c2e97aebeb6799c761d69ebb7ffa375565ddbf1f86071a5337f1da736a2130c95983ed699db351819db39d693ddd71b8e1d81305a3617c01d548462000493565b620081b9612fe08801357f2e58d1f86d65f5affbee590901599c2eab771f8030a01c10a4bcbbed90e6cffa7f2f72e7009157c8c4bf272ab6b38f83c7fea7ed183948b4c51fce34e93ef110328462000493565b6200820c6130008801357f0556ba55d1d4d04882aa3181531e664ec276a72ea68b6b4ca4a3ae92498a50717f1051bf07a8fbe1338e5ac1c35749eeeda1381e36515d9546c5eb51ef0df855ad8462000493565b6200825f6130208801357f2e8239806eb6ed9e4a9fcabd0ea319c4a148375f3cdb178db40b342cc3b6dc717f1248b2dd0c7538dec05f0e5f13bcdbf0e07dce18a2e826ecd8eb819bf401273b8462000493565b620082b26130408801357f1ea352399ec1b0c721df811c04ea9b7a0b976e01024d24127556f1426048b32b7f1ff05ca3f867f7c6563abc6ec49876947bb94760a7a7cc976ec9994bb4e4b8e08462000493565b620083056130608801357f04bc2b2f5efaf9f519a902564c99e78f031baacebc8c0b7572cd9daa265924407f256bbe7276811dc4e80eb093ad380d8e320a1f0977944c8b34194b154739bc598462000493565b620083586130808801357f24d66f372a9dd29a6d930d78129e9d4b0c582b94acbf93ff8fa358949ce8149c7f265ae4573d5fce2f83b58f2c816f0e44ff987c595c825fc0281de05bb92417df8462000493565b620083ab6130a08801357f13f80907b1b42540537dabc025bde863804ebc49c62ed87545bc8abe480a90227f18a0e60ef94a495426009af205665d0f1d11c191199aa8f2ece1f3059f5e713c8462000493565b620083fe6130c08801357f2f84c750f9d2f0d2db714b44d3b026ac31c8f914a40484d0d5a6d4defdec10d77f23d588a537e3ea5a982d1cef9f4c8abfb65791dad55b1db46c373d9c34acf1858462000493565b620084516130e08801357f2c5534664c89f5595c39b814bfad8f3157bf893e88e04caa6fd21699e4c82d0e7f1420460842f8bdc71c951faa80c1c7d07f75d93afca3d6ce27bb8ddaf9512a838462000493565b620084a46131008801357f0bc940dcfdf323ba8c834fc525b332b68a4f17a5ea4670c298702385c6002af47f1b156bf0ebc80fcba80e6219f3767b50501cb55df8468fa6f447220a00a63d848462000493565b620084f76131208801357f2c694f8318922672665daf062d01199ccbcd7af9a3dc033973d00b6e7d1a55377f06408167a6064d1c0a39bde63582d8d4d6d761115f1e2ea1000cf04cf7af52098462000493565b6200854a6131408801357f22ba6e901b825ba9dd5e6aa30ca518c478ec279d9010f28b082a729c5d9b6e337f22cfe4f0218be3510ecbbddda87509949a91b308eeae9f80b76c6573ab8a98948462000493565b6200859d6131608801357f17a0a1b505c44745a1c672667a593d98af65e45ef5d2788c95b3b868df14d46d7f145ca5fe6e83b98836799a19cc1fe6351677f7014f668ce2a3854c993db84a498462000493565b620085f06131808801357f1ffa17fd30cb8d309e80334622b04821d6da22392df00723a0366010aabdb6b77f064f2ad58fc06284c1ceaf36d24d469739ea6779e16d41d990fe15781baa9be88462000493565b620086436131a08801357f03a4687227fd4c5e06dd88837de6d5af9fc045ad472b05e909a0139883b6708f7f2e386a1eee6d9d8f1c6f3d66c260641cc41cc79defe201822af02f233518c55a8462000493565b620086966131c08801357f2688a7911ba8b62289b7de495dea2199ad44685fac4afe8393edf9b16d1cb1df7f014b1b031f18fbe6bb0ba0149aa0d03fe1b35ee3a659997a9ba5b6d5be3cd3448462000493565b620086e96131e08801357f2658871c45ffe1864ae64f4b9cae01f323bb1f54c668fb9c8f3eecdf07a686677f2570e1bd9f29cc6cbdf5f8944d37da5b8e5b63b135313093e6fe83ec90ace2808462000493565b6200873c6132008801357f2b2add039d551205b3d6471596eddbe5e24283251db097a95bf509e07e0bed037f140d1bff3ad8ee89d2a9d2d481d1f47067691cf521e87e3a223891e480ac336c8462000493565b6200878f6132208801357f1e5bc470e9811647ddb79527a536ce33d02cc0104d40b61ce0bb09a5289718c57f2c23942fb0a94a6cf830a7e32d2052c7dd0035abd5b1eaddbbf67e7d89dee3748462000493565b620087e26132408801357f1619f5327ddcf64cb73f6b525b81b06330c912bcd4c77cc0f6044123e4a0b05d7f1402b229c9364b47625930028384e4944401b51d6a1ca93a91cf646fa627c24b8462000493565b620088356132608801357f238e19922b2d486e498cf75c1ffb96f125a775dc027b5a20cadf87c303f4e4887f26580567d35ff501033edb6e6bbe0f50c8378a870096f3f3d06ab81f1c275a1d8462000493565b620088886132808801357f26982a1db6519e8f7f985b5fe4f3dbfd32c1e15c54eb3c21b21ca49a3064ef507f23372f171e81b9cdc60d89733c7b945580176fdbfc495e713a15f912df3e40658462000493565b620088db6132a08801357f29d2bc7ca4c2d749392ceb570879f1bf352ee6a52a7ee1f3b7f44123bca168ad7f28f2cbcc91ba56da8af5ec7fb710ca36a90475b42055fdfbd1b904c84cb589ec8462000493565b6200892e6132c08801357f0b34eb82429d9d7f5b6724cad75c01e98b809a187d2c1ed39dcdb0ddc0ec35527f293833e57467683b0d3f9c51f9f65aba9146725d9e898e8d2d11f45b7f3287ce8462000493565b620089806132e08801357f017eb8fea6b8aaef866110f6cb53ec3f682dcab9d93b6cf8f90b1e57f9d724417ef95363fcbf79ba9878af48cdf8c5863cf112142da1c8b3657727eb628413078462000493565b620089d36133008801357f2e7e0b870ab105615cc89f2e742ebc1d0f3a6a0cdc19f46fcd209e06cc4dfd197f122da3c4049239d7ea00aa5572044c2336fde932b20b35b0c6ef4cf7395072a58462000493565b62008a266133208801357f170592327e435c8c9f560c108fdde59ad331df4861dc453b973ba5f71d45236f7f0570ea6bbac4cfc818b3fc32e63e4e332d45fabdf3f14781413fb7c42213e6bc8462000493565b62008a796133408801357f2e6dadd6677c289804dfe32b24c89798f0cbd4c9f53fda03e55b39dbc422ce017f2684ca2d6574f973875bead99345ea509a025bef5395616fe51bf87b19d8c5608462000493565b62008acc6133608801357f1850b585b0273a353cad24efb2bd512fba74c283c6c094b0ccd5f43f1971bb387f124ef0b6726154b4d09198ee152980a3cad0d1232f4ccfa6cbe25fa093a14e138462000493565b62008b1f6133808801357f1f767e4029f62bdbe454ad14e93155a8888b49ce3265a857c1bddfa15552b50f7f2e205f04f061d33501a1ffbe0f3a4de49a6d8b8509ef18077dd1ac3260d3029f8462000493565b62008b726133a08801357f2b755810fa03a25a0e2efb51810acdf3db1e355295468011c1e942023d4ab2327f1c3334ff8d544e084d90c5a94e9f95926f04ed0af805caf59959447aa08060178462000493565b62008bc56133c08801357f098194b4e280d0fa45dc3be7be869723a381cae13b9e98d6770fb362fcb2f43c7f2ff29a07d6a88e1cf38a80a739e08f81217ca3cdbe1fcdd1f073f88c3fbff20b8462000493565b62008c186133e08801357f13ddd04adbd68cd18211d628e66cc2d6428bf9592ed2290b0062629460dac5a97f1dac68e35738cd0e02e40b7ed7476fa0c0000e634fe2a3115d89f69ef42c7d278462000493565b62008c6b6134008801357f2a2dbc39c875d653cbede5bb91a8e5578878e22a2b815bed5c1cf0abdaf9b31e7f0f7fda626ca254cb46734192b6017ac40d4592341f84fd152a17fd80d847d7c08462000493565b62008cbe6134208801357f0afe26fa355792a87a43e323b7e4515662f514eb7d654c36a862c41e51255d767f1a8d5c65128ba8d1379a2acba52e4a1c844d23d320bd0f7663d2d33bba927a628462000493565b62008d116134408801357f1302dad7fdf6542881a247ab00bd49d4149471279d979bc980b6a76a3974f7a57f0404032c2fee03ef7a0093448c5c79dccb0919d79e6e8e2d6bd1e07b896995438462000493565b62008d646134608801357f2bacd2798c4817155a771d6114a1316ef2a3b07ac87ddd3753c3ab0b376616ab7f2c8e730b07a98537fc420fb757addb5ba9aeeb6c549911625802f49555e3063d8462000493565b62008db76134808801357f09322db4bcdda85060f6c9f5ea59f661d1d801cfad66f4dfe0796a7b088e234c7f2211a144503181f8530b8176cd8a39ea4928568355fc33aa2cc6e0c51c481b4b8462000493565b62008e0a6134a08801357f063187deffa15a4c5480795ecf046edbefcdb28795c9ef56bc09bf8f3537a3177f2abdf5684b7b601bd0a299ce1e046f303615a272023cfa2beb7b9f1e139368d58462000493565b62008e5d6134c08801357f196ce79079eb2b574378c852eba5fa8372d126497e6d92417e01a6d8e5b31dd17f1f83c0ea811797b111c8424804499c6467a0b9f21d44177d7df124b72365beaa8462000493565b62008eb06134e08801357f184e0354a6f440ad4984dc702c15d3c46f7c309bbb8b1b8a0df21046b7b7a3c77f233d5a7fa2a6dbaa45a3fecac70fbaa49dada1837f7f156e4130290f28c778ee8462000493565b62008f036135008801357f2c1902c56eddc94ddb1e3863e98f8f79c54629b760d43d5678e7dfe810cf9bea7f155557dc2e4b392ee6126b1fe9793f0db3fea794dce7bc92ff5485297a6336af8462000493565b62008f566135208801357f0e51128ecc6dd6f8a3602619c2ebd9a7d0139ebf350b9a4ae5e8566f9b9789ee7f1ce2d0296a42e169d5a7f9219264d0135c4dd797a36df3ea516535495b40bfa08462000493565b62008fa96135408801357f250090552aecad4ddc03407674dadf83fd8e9ed7f9b83fdc3f4b81df14d8175b7f2f2bde28077fb9ce2cd9c8cf49f9c65479e2786184dadd4fc4cd5e4f738d1d358462000493565b62008ffc6135608801357f13f5919aac88fbfb1a55df76fd5d8f81ab6033bf33674a42bc6bd9745e493ecc7f05c548588a782ce9cc6ac418da9ae0b3385ad9af45da6ae3ce18604d2c151ace8462000493565b6200904f6135808801357f1a5b474fe676668f8bb3b803f266dd7811fbd0a96fa2b2010e7d227ab49c3d337f02cb2855e21f9458f849a482aa5690b1ae36a17d936c234b103fa38edcad858a8462000493565b620090a26135a08801357f265c00ea833c61a89550bc3212764e71b05f4ea15eb505b66bfc56d34c38b9587f28a3627e9f5af5c4121fad88053e322661fa3967313764bb19fcc8bbaa7643e88462000493565b620090f56135c08801357f0b67d6876bb3e7e0ac3d1ea4a8b1369026f9e9573010066802b6f4cc4fb176e97f1daa5a3b683444dd9a169ba57767a86c179d0f8109efe55c6d5cb2bbcd935ea78462000493565b620091486135e08801357f117e11444e9e6eb706ad5679da5838157751f5772f9b69cae8978a5b9bab84207f216dfbc19640605d27597e56c0c6b896ea0058a386a9bebd510147b7835662018462000493565b6200919b6136008801357f2737f03a7397bbd44f9a6c17bd25458d96c3f4b5f80e7f94bc7c7d3094640d8b7f28f81a077a767a08c32a25f4945783955d3a11c8eb311ead32238c9ae9eccf388462000493565b620091ee6136208801357f1161382ffb6f1d011cdca13e5b6b6b1bc88f13c5d275865558d9901e86ab045e7f0783da653649eea9fd9f99f0ea28d63949ed94d56b5eaaac96bf45445515d6d78462000493565b620092416136408801357f0339e05b8f157bae35fbc818b6c2e775683308ce71bcb5de50e1d0a0e34fb03e7f1869c125d746af1dd701aa7563dc3a881058e86f7f522c382070b24490798a0c8462000493565b620092946136608801357f232bd5c1c977c147aa9a0635160adc44d8c2d49e6a511ba1e02795017cf725927f1ab9321d96a376757c6834f0364b3dd3213bedcb329c5f9bde9da941ccdb59268462000493565b620092e76136808801357f0ca40ee2b61028d899c0f7931d023ef6aee188fbd2f5fdaf1a310756dbda4bf47f073de5a979438997382588e1b54082fb90ec5b96349b30957de45a89920e2ef88462000493565b6200933a6136a08801357f22d016f847639e9fc9d2f322a1b0e5417ecdf07dbecc647dec7ac7934566e6be7f17040fe9067dbb8fce4fc7f2ce2a1a86b142f9cf26d3b09697e1e6a7552a71af8462000493565b6200938d6136c08801357f02e27e59466243004a615363b52032db2d0aa7616713455809644c38c6785c997f2728a8d37fced52b34b712a0fd0a7fa62b992f1304b0b4501c3a2c55915bf4d78462000493565b620093e06136e08801357f1e6554c47a273586dda021155e140004edaf253c197f4a48a94fd8ac3c0e87d27f23153de46f5b2604aaa9bddf83a88ba67e0e3fa1d8b47a93855673a7d3ebfc808462000493565b620094336137008801357f0b3c4dc6d0c0c34ed88b95947ccdd025a0108f08df3bb4557b1213d325ab8fea7f18fd268b6c703a8d8d12653a35ea70e418b07f9d5154cdf13cc8b4d32a43c5768462000493565b620094866137208801357f2bd6f87b33fee04bf480218e2de5a77b892191c7f2c1604873d905830786e2797f2e9c5ab6f444df5f8216e83a324108a41f49944134cca907252e6106c55568828462000493565b620094d96137408801357f2269158338ca3f0d36299fdac6b1925180a0786917db4263e9c98e69ff96c0dd7f0e40d318d367a63223cafb54200f194c4e66115553f58fb408bcb96c18cfb7a78462000493565b6200952c6137608801357f02701ca5efbf8b3a0cea25e2f12d3f645babd4f21b1fecb659c33b1411627bb97f26b2a69d7dd7b1c92f9beb384173d615f8fe4688fbf33ae1024c399ca60c6cdc8462000493565b6200957f6137808801357f1df1e5a20fb1676436d51e33ec4448f31d731a72956afe6ed8f94c1d9377ebb07f0db4cd70412ff75195e4e68d1bc1d0410506229ade6d643647af145fed872c1b8462000493565b620095d26137a08801357f2c4d3bd55ab57fa151e7fd80d08419b4213aeb2917904292f369c5a74fbfd2407f0fe021c4d5b5de50c674b1fa5022a27f1fd07f877c6e7dcb473f30f6028f56a28462000493565b620096256137c08801357f2100a8a5aa9f3144a100dafe814eada59ad67b03951b17efc4a72ff803b739347f0c198b35c191ca320396fe6bb37c73e6f5556a1b493be85de10881d7a4bb34078462000493565b620096786137e08801357f035ff5c0e8a944b934d40d1bcb61986fc3c8d18ed2fc2f1f5637f69d891a88fb7f1d95354910c52a061567f156daa800a3244ef039fe3b771768a4b259ec8d6f168462000493565b620096cb6138008801357f0d4f01b662af2f1ff7601befdf2839ed5e927e1864af68f515c4112ec343465b7f090eb7eda2c05d985a839e8de2fdc5c20e8ac2b94545d85196bf358b43273b358462000493565b6200971e6138208801357f0bbf12c3a486da24c970ff952175fd8a3be5aed663e0ece92324769fcee318be7f1b942af1fa19706235b6638fe74bb3e7ff859c318c8434cba7e7e692e6d145648462000493565b620097716138408801357f2e38ded5eb9b90ae3e03ca8cebd4b60bc063101e8ca1a1ce4c1972bab901d5b67f0524c9983f725bb6b91be44022e80b3cfe875f7edf219981d4fbf28375fca33e8462000493565b620097c46138608801357f23f13c9cdae4a08139fd077392181bebc7a40e35552a82415a4fb67aa47f4c4d7f1b59cff2fd97da3c3a1bbe5cbecaf169bcb5ab451f5d9493f46f32f299216bec8462000493565b620098176138808801357f20039820ac9c84c80eaf5a1eaecc0575e17a02bd113ded1e6daf0f5c19eadb977f04a7cfc5fd3ff58e202f3800475d730885fd88d9494570d59027e9d8f89ed08f8462000493565b6200986a6138a08801357f28a0a87ddd7829481cbadd9e72737138083f27afc10ef2130cd3c5f716e8ca847f1cbe1db7726b7e336691ac1646474cb1fcb6023d2dc8f4339f984eb6c09011028462000493565b620098bd6138c08801357f2e45dcc6f45fadeb81ceff36a5855043bc57f3a80b64e0c97a208b97ac78d2ed7f1ea676af1ce2bd8741f077af2118db11eb18e10a3e3c55baedd567bcba8b8b8e8462000493565b620099106138e08801357f2a128b9798c8227eeb8504fd3c48967c8c3b81e24831ed762e85fc7684ab8d0b7f13854882a5538fc693547c92e50b54490c6f2aff30d171abc794cfb8bc68655e8462000493565b620099636139008801357f2a5b03c5790c2669d8e8f5b9175d43f9a5d8806ad983dc1b1bbd8ae25825e6e37f1bf618fdcf135cd4f25d453363ba575e4f494db8b256f4116725953af2abeb198462000493565b620099b66139208801357f1c6a04138a69757ab35690c6a95e3b07dea6f9572a5dcf748e5cd89c61a1187b7f1083345cbb94a9f0a0451d3f3ee5eb300777ce61982e740629c9ba3bc34e055c8462000493565b62009a096139408801357f23f63f5c6ac19f8bd1673f80091cd65ce0713551e828fce5934e4c563ea4125f7f059a37af8dd82e6d3fee0b107437fc76082937af96a57602e52f6fa1f675e06e8462000493565b62009a5c6139608801357f01393ff16db6cfc8c6b84f4f308fbebaf250a480cdce3aa7e1035a6f7b1bb6e77f1454c2636db6b4dcb15129d75ea4b06ec7be38f0b2bed81202fa68518a86f4518462000493565b62009aaf6139808801357f18eb939ea86318e8149a13383f746e7eca8f72ed0000f8ff38efe32eaf509aca7f06af8ea70720f7b7ea20933cedf853e7cdcfb4f5a983673dd66ea56714748fd28462000493565b62009b026139a08801357f209efeb5292bd53fadcf560bcdf6790dc370e13c67ea32015164abf9033977207f0925950a60c95e349ff180cfe1401d08637d957c3f0b6134883a57367859562b8462000493565b62009b556139c08801357f0c28bfbe6a5d2616c94e179b3e1be11225efb73d8ee623bc52bcc2226243b8307f271de3a841f56b14c6a17f29769037986bae22f7fcef896165393d28456a2bb88462000493565b62009ba86139e08801357f2b9e6ee8f32b45143506d3d8a5c510d4c3f0018a369e3ee0cd195d90cf2acac77f257b854ad5f13bc8c6fd4750afaa98c21f41843abb7fdc80c281eead08174e538462000493565b62009bfb613a008801357f1f8f73997b5458175a5e271e741b05ee129549a3294ccac5e453ea2ddc264f9a7f19708a527c3207194ed19af88acd74df5b21d7b49d3dd02244b1d3bc3a1f6d278462000493565b62009c4e613a208801357f1d49bedcebb18b82e2f077a079a213007549842dd12d5b5aa5fc23c6bf722eb97f0c107f09beae6b1cc804fd0840528d80792eed826edd289acc102423ae8e8c1e8462000493565b62009ca1613a408801357f1d3f6ff2d1de3997cf2ce1eef261da42028de49030981e9a692b0463c5999db87f054df1ca1de1e585ca98ff7c5a4b90a3cfcf6ec8928279795e01eaa8151e1b0c8462000493565b62009cf4613a608801357f227f33e48f94fbf5ec30fbe1fac01fe8de741411cdb38ddfc2b7e59dbeceb9a77f17ec4344a526ee0a32db210e35932159bc8e36b38a58e284dcbf73939fa201d08462000493565b62009d47613a808801357f2ba10a4c808b1525c7bf4a319b59f4345cb8e0d520e2cf20e1da1e700db79ed07f2740a451c43a0db1149543b34709078c10eb99f9edcf21e8f0d56035133fbe428462000493565b62009d9a613aa08801357f157d0e7a6c1e545951a6d617ea679b85e748fa88a3e2cd52e23918ba785253fa7f071a92d53c3f1d2a032bc8f2836563ed5c515089d55c0e8007fdf39a97dcd9da8462000493565b62009ded613ac08801357f1fdf040a65b8b4d9b18dfbb8895cc98a212d5932b2231d8b11539aab04404b5e7f20053c06b6243aa0ce353571f36d5271f97fe51e60aad30c19b4377d19a235388462000493565b62009e40613ae08801357f2fdc41a731d0be768f4543d157f828702fe011486ac8c76bdabff01518e0faa47f1d22dbac0ce88154fb2e8d1783d575abc32e1c31427032c7ca25c7450edbf3f58462000493565b62009e93613b008801357f03cb5916c80a7a6d58eff9443b105e3d67edf00d2d2e03afeda5b4c985e36d7e7f2fecd39c6b5aa2108d790b1968d8c34ed98799018cc1fb5c6b172c5779884eba8462000493565b62009ee5613b208801357eda9d1c0e8a837282fdabf8b69ef77be3998e12b12a5d9fcd44183f0b494e7c7f245871fc74e31598a7ec0f0e44938366043b46cb3617d55c213a9730e27ab7228462000493565b62009f38613b408801357f0c17567d232b71be23f8a942ab1ad07631c1fd54dffb358f11bc0c0296809a267f0b27b4bf8d6446f84aedb86358b5cf829a2004535a19a3e7a2773e52fd28dcdc8462000493565b62009f8b613b608801357f28c872df0fd8ed75b88069bbdfee75879eb477170bf5c384e923c5a0059f216b7f076311adb78e08b2617a5b4ea367a3353058987ab2f362372ad9810f86367cd08462000493565b62009fde613b808801357f24482000e901f95d56c904f62928165a75dea4db0be1f5f7a12d5faae5f6da217f24f0c1e3fffd84815568a511aebd4d4892e7ffe6317644f9d1eab71b485e08458462000493565b6200a031613ba08801357f095801022aa7fa242b1e3844790d97ece485c3ed5fc655c966d18a16c3b36b247f2671cda3266ca3be060fa87753715ab6cb001488378047b96f5567b47af9e1d08462000493565b6200a084613bc08801357f08fb228dff824a5f4df00fbbc67c5f15739125b80ec6dccfa512a4e29ffdfcf27f0f839a3438952b16e055355920f1115dd19810524b976bfad70cd6b1c457aa5d8462000493565b6200a0d7613be08801357f2b852af4ecfb60c9f466223031e552079b5185e4b599d4be3b3fb89e17b75f3c7f0e6c3f6a3d54ebd2c1fe5af39f00132c18a8baaf039583b694506d72a79d25a88462000493565b6200a12a613c008801357f0263ce96332679105138933c84b633729d761d503fd9eaf5311f992bc4b867d27f0712fac02c1a42149b92d4636c2eff825b842df2d47f1b22172a6ea04eaddbce8462000493565b6200a17d613c208801357f1ab1cffde8178eff2d2ae484a0e0f077ff0b21531935d8bed01fd07e886b6de27f2b7d85606d0e33ac4afe279725cc1489b6d9c6f6e92745eea67a7d96c192162f8462000493565b6200a1d0613c408801357f0b52812246c4642648ab17362beee64011d162a302649df6c871875ab97e30cf7f213798f9447f28a4dd244931f77e5b2eaf242efdef0bc651d68499949d18f1e38462000493565b6200a223613c608801357f059fa1059da3b812209faa67b8f98981f21e2a15b359ecf9d5fb767693d854987f0c024326de0c7834b08873f89d32ead0f17127e052aeac1fa4fc110df47013478462000493565b6200a275613c808801357f16f4ea64997be5472b997d281b19105b238b7e80cc02791b739ae0c5f37819d07e7d02416206cfdeab980b1995027dcb55250cd250429ca0282363202a383b318462000493565b6200a2c8613ca08801357f1a5543bc851da3a6a34f4e46173da8d0c258d679afa1bd344dc1f8e43b8212357f27720ed914d7ae45924164dfb8fe445d911759d40597e33d5c5912321733304a8462000493565b6200a31b613cc08801357f1dcaf162e9dac47712fe91ddee0a3bf83520d987cd89f05383a1f84ad533010f7f2c6cf5cb461242bb598fcec1bc36ff3b5d8764ee692bf01cd28ef98d18f6f7288462000493565b6200a36e613ce08801357f152a7156bcf26bd1ec53d057e9cacb7b891d6a4f2340ebbf74f89faf64a197497f0777cc75507a27c1290a2d1a447521d8b110e6c3f8bf941d0b71d685c7691fe68462000493565b6200a3c1613d008801357f1bea2e081d2b4a28cbb92b95a3dc07cfedac6148bf1310b7edb3c4490107bdb27f0604010ca73eb7f5cfe9feba8bc4b57fb3d0474c48c8d8f0ce91438f5c18ee7c8462000493565b6200a414613d208801357f0e41875d5a0e7acbc7d718817e245b3413c8c31aa3c27c8c62f4a3a9ac028b457f13fb2dc6798d61f8a4a02c6b53b7f503fbe4d33f79238548b410d0dd71097c478462000493565b6200a467613d408801357f152a0e0b093f89c3272988e8a48bd154a5ccf38498079ba9d9cbe5f44404726e7f121f02afa5b738b281225e9340690d9a68bda9c850d521f65cd4723dfa0b62ac8462000493565b6200a4ba613d608801357f215f5a412a48470b9c995e3642cf6e91baa5f8dccd3d8d9e66a4de49db237da47f16feabbc1c65dfaecc75fb190cf10760f367b83dce520f6eabb57025d5d242608462000493565b6200a50d613d808801357f0c6adb35ea8da64ead39b083e3f833ae94565b75ab9f6af52e31dad98497511e7f1126ec6e068c3cd6e89780770bb937bd492d183188ff1f7a4ebb0c40432b84348462000493565b6200a560613da08801357f15426545c061ec8f1468cb06dbe9f620700e67c95011826af4b1b26fa2981e7d7f0ecfb45e964dc7c5aeb58d7d5276c2eee265d33ee5a3902a2b5ce2c513fb032b8462000493565b6200a5b3613dc08801357f0e770be84912f494491bf90e2a17875f171d1b68787b0fce21384cd984c41a307f014ad4c62168b468eed61541a257481b036544f3e4242c6d2ffe9545534c80bb8462000493565b6200a606613de08801357f28499f6591531ba9be20600898d0e0c0f59287a8412c501f1c5167915e8efc907f2497b48ffbae62c29db21ae89eea14eebc9cefc6d2a1a20d8975c438348aa15b8462000493565b6200a659613e008801357f2fe8f89fe37beecc4a6bcddff71959ac099493fcd584df1acb956f4c9ec47bda7f1a14230d52719ce6e2c8d432c93c4c1a5525139d2854c57e6d70686ec5bf286f8462000493565b6200a6ac613e208801357f0c8196813ae5d76014ef52c0690bf55755fda9641868dd47af25a67deb5da9157f1d9a119332abfcc1a1bd623bb61ecdbccf49fd8c6bbd741a515a2c11f063dc158462000493565b6200a6ff613e408801357f1ac740fda24e1e0a2f7c8330b821ee9c50ac267fb2779ab11e386ce97820fdce7f224c05ab718640c8a555829259001ba6fcc279cb9912277ebc5b171dd3c1b80b8462000493565b6200a752613e608801357f1fb882919e4891f9973d5d8d0e74c4c1bd25f54f47348ba67f85c2142c2003bb7f08285518ec9875237b0168492f991d459ae6c3e3d556147c11c1892ec14e48228462000493565b6200a7a5613e808801357f22bde88c56ece6c148df95f87320d85f877557149a9a70ad22f36e97b67346f37f0b6aa5442d9290d5007f48b99241abb6305516aacdd5af8bd75ade950198ff208462000493565b6200a7f8613ea08801357f24d3f4b7fa904e69a639ee7faf8919fecfa9b856c9637fa53eade736bfc615de7f1598bfee9e9a94892150c222102e6a8e8c0bf989607ef489439e99864acf96eb8462000493565b6200a84b613ec08801357f0739c35ff11eb65319ffcc60cb83ff093bd796d40f71ac729cb4c7ef762119ed7f1f10d015e75afc4f566337407eea3146c76d47eb1a1c325de98bfb69867db3358462000493565b6200a89e613ee08801357f10dd2e64fc27ba944893c52aa17bd25d7efce0ef9e258c6206e4271232a306ee7f0678e1cbdece3fd78d695330c3dce306e6d4283310795ed088e74e2c1d2331bb8462000493565b6200a8f1613f008801357f2c6386180c7a2d7ec19f922407963facba6aec09729efd7775594ad92dba53957f0aa89cda5501f2d4d4d5eb923c7e5706559355810f0286395b507dcce82a71d68462000493565b6200a944613f208801357f2c9e61db37b12cc3c17dc27e71db464f1cd317cc12ac8c2891f91f8a688206ee7f1e5f133c9fc741fcaec2f317074c5164877117e197e819c393d702ad401d984f8462000493565b6200a997613f408801357f05bfde543069c82523cddb7f7464b4f618466050c55127d9dfa4959491d1ce9a7f19cfc56aff40d2dec3d726949d5a21012adb8eab0fe1e78ac894ca45f98f5fcb8462000493565b6200a9ea613f608801357f1952d49fa4ca4417dc16601667a11310dd0350caadc9203cafd4ff449e58afba7f07b04521ae35a892369b1a167b5e5b92abc8921e578342218b64513f33b1651a8462000493565b6200aa3d613f808801357f2f05294b63ea1271f55a96c54ce01fb3ba86f78ffee795f04384003fddf4a0bd7f1dacd2fdb497ef3c6dca19c889488ac764c58e81ea0db07a9da9ede1fe2778348462000493565b6200aa90613fa08801357f2f95fcce5f6c2ca5de39251ff3d1b07c384ad8944ef8694aeb66cabe672831747f018b84f9684bf98e3f80faecd69becdbc7f1fb915971657ffb5b264c6f2d10d78462000493565b6200aae3613fc08801357f23edcdb59d371ee463a5e666442fac07959f9ba6b0127b817435e3b374fa7b7b7f1571dd6d40598e0e0e308ae587af430428a1c6fde47fb1c9a1b47360387e29f08462000493565b6200ab36613fe08801357f29d8644c0cf0ad94e847008e23df7d29cc9142895149a6022c1ebcae6e36501b7f1390fae1d7a01a5155300d832f818cd446c0dd0ca2d12cfdce22cf2050dca0e98462000493565b6200ab896140008801357f15631212498b101e463414ac7b556f6b1d372c48680b572064f65aa7b6e84d257f224c38e9d50578421d2e9ccbb5c7507ef08322f4ccad025d291e0714b3b4b0958462000493565b6200abdc6140208801357f1d15feef458321b20878339c9e8f770a557481a3445378a990e40161fd623ee17f143bb344f08e1c3e1a934254e4ddbc5b92d376256078f5c65053c963185d00ba8462000493565b6200ac2f6140408801357f258bf96b8b699a18a24e1647ba998e3b4b25f46393d0a94935a94166cbf04c2a7f10f75b0c7f031d938acf2b37e164e33792a91a2fb9656135e3f0ae6dbc9e66908462000493565b6200ac826140608801357f1ed434f3ec7b6aa8f7d38cf7dbec70148982236a1cb8ce51992d66c25ab6f9567f20052a11a8ed4dd7d513ad0b5fe3138d86b3b935f84626d182240c0d3a5774048462000493565b6200acd56140808801357f05968ae734fff383e64502eab1cbeb2ca69b0ed89c781eb4af1b59991989ee1c7f22da45f447cb5dad9e15503d70363d750f68d9432d6a1cbfd9eab64183c9cb248462000493565b6200ad286140a08801357f0e53829b3400ca296512c6ecd3eb89d30e9f313493c6cbd3aeebeb9b5ac337577f194bcf5671258712f68132c71541818e2ecc1e8684a8f026491e36cab4d0f6c08462000493565b6200ad7b6140c08801357f0ed92e685f88538ac69a4cacd9f7a5dfa7bb99aba8288ac97f5b11e2b54b8d057f200daeabb1cf15509838db4bcd0e4ca4cdf177af601b9bea35caa7e5b3f1f7ec8462000493565b6200adce6140e08801357f01a672d3cace28ae6a6cd2b121b4ec44eaa64ccee90cbf6c82c81dd6f2e939cf7f08741057869689e5af651ba7e2881cbe576bdfad448f8b7693a667abd9e4a8018462000493565b6200ae216141008801357f10d79fc165559dc36a8bec5c69088e721acc290a204af7bc1c9edb8bbef071677f16c1e1bc81a25cead8360422d38b93fe17721b8a1c11574a13de1a6245c8a3518462000493565b6200ae746141208801357f05f27a15b3e9f3f81dc40f0f6e75a80fc8251a2857877fdc5cca31d1328805a57f1d307efa0e1a5449f20b4e276779f26f4a716d7bdd2a94f4070af4a5bb9ba87b8462000493565b6200aec76141408801357f1c0e0cfc982c300dad9f5e4735a07959b1b1ccb55b92b8b6e9dbe7769b93c5eb7f2c0bc7cee1601ba39fe6dce25db531429456290e61f6ec870ef9b8ecd068c7068462000493565b6200af1a6141608801357f13e8691cfbcfa4a490de8dea4403165b31edcc375ed62bdd90fc71b6fe6de22a7f02aa8e329db0ae45a1bf7a7546021d86ec2353d33dcf6a03db723f92f3db5eb28462000493565b6200af6d6141808801357f249dca2837db17e2d2f24fe346d00d91261bbc48512bb744b0876deeefab57c17f0f402acc32813c47a142d8d3018576636c69d957880e10d6a125cbdd5c9511238462000493565b6200afc06141a08801357f12a9f5422ec0533407238d3f221d99141998669551112772d0bd381fc5ddad787f034bc72dedb27e5a1b700a136144c702179d1ba39ab65a2075c6ddb03ed950e68462000493565b6200b0136141c08801357f0f494f141d0f1fa840881d27e32b7f3c1b5c5fab6cd31d3964be2572d1ce3fd97f198d04ed63db3c6174b2fdeecbc30a643ea14c027aa59d5a6e45910b4d549d998462000493565b6200b0666141e08801357f1f9baa28c1f70213848a017887b7b1064eeb93bafca1d990db01dc890e137e1f7f26b9bdeeca8c5b5920c887cd268b6ee2abff18a05d340a755d212582cb0e68738462000493565b6200b0b96142008801357f26ee6088f6c8ca105ff96ac3c55dc054917bc53d2afc9f7ee513e6966f4e3e8d7f082bcde0c998eb3548f4224545f46e15c6fc9b1e70505e864942fce42049119a8462000493565b6200b10c6142208801357f1beec30cc37fbfadd241585bcbecf4bd5307d097968e5f41ab4d1c14f49806bf7f1918dcbd0855ba34e92f4db5e0e7d6228fc1090cf4cd05290c5972946fd87cbf8462000493565b6200b15f6142408801357f0f4238750facbe76d1f982f8733cc1322e2a4219ec3a7c22421b7ea9d01815677f02a29df2862b49352a935efc4f9afe912dd00422a9f61c3d0e8c16c266f050ec8462000493565b6200b1b26142608801357f173247bf67fd51f296cb2342497d5ed6cc20f9469ddbb6a4bddded6de4bdf9857f06d9113db6b684e9231eaf7a56752fd1c0e00fd1f68d3135f91ae7a808b32bda8462000493565b6200b2056142808801357f055a7393496d31cbe303df02bac1c3bf2737169a7ab0366aa37d2bec6638f36b7f0afbfaf56f155d5bcf51f873f0f6526e74c6b1b6bfe8d2112602384dbe4029ce8462000493565b6200b2586142a08801357f0651d7c0abb6cdb1734128fec730d093c9bd4c035ecda3528114a25cab12690f7f2579d5bff82fc5ebfabf9b0c0d4ddb4a89af1a92692ad0ff79c9d5f9092db4518462000493565b6200b2ab6142c08801357f215c1ec2449b494d8054ce86bd3b41012851be34a9756f576ff58d8714a518857f3005519846e73919dd9ae9c009ffbb8c1ca71594233441b80989b67d80ab55198462000493565b6200b2fe6142e08801357f2de52d66393eb095057c55ef0da64d16d793ff574cf7a27fca19618f4f9af1347f2f9eddee2ba94cfc3fc2ae6219eca9b8b8d456cf6f8f299b71fa7ad181a784cc8462000493565b6200b3516143008801357f1503744d18b50c925a8122acadba3d277459b24e8f05f57f03eac7dd5af7dbeb7f2d25224c3fba30008e82c3fb914b74829a11e4bc48099b2dc7d1d780c376d3cf8462000493565b6200b3a46143208801357f0eb9fb9a21ec5033e370eedb095cc9ea573c84ba9f29fd2d374fa3d6207ff4a77f21f7ba325e415aec87fc9dc93ece17ba318fe39b6e79c3805df5c2b1d76515738462000493565b6200b3f76143408801357f23d15318c53fd2850f7a9336efd7c7cc1dfa6a8f5e8acced5dfa910c3b7bec167f2a14fdaa128660bbc760257138a6983a23908ee81b85878a9c0cdd912438d4098462000493565b6200b44a6143608801357f21752bfda4bba951505dcc9decc80827dd4debf5963dd5b3c1fbe2c554c324027f0fd634d44848e027f8aed0bd7e51a84aa0bcc451c1079310d626e07f29a9d0f38462000493565b6200b49d6143808801357f0d169da8afd0207abbada9eeb720c94887d607a643fc906abbf88d4ae57dec1e7f2969f0472f312c34c260e3f011aae8a91ffb99623348e25ed69aff929259a8658462000493565b6200b4f06143a08801357f1f7dca5042666f8693d647203a6b22d179f5423563546ec55c2496e452d439547f0facc51dc3464612ee6aef8b15fb037140308ddf1a39f8d366085bb7c25c8c428462000493565b6200b5436143c08801357f09258b45af7523fe3c8603259cdc0e22b08c6cd17722d174a288a7ecc9051c627f1f0be215c88d60f3bd98288d4b2254565ffc84df6e19ce59f6fa31ee2e80aff18462000493565b6200b5966143e08801357f21fad7f6d6e6f12b31f480964e07c5e0122e9e1477f8e25ba33dc07170fe300c7f22e6d98af01ec188bf6f185d2b4eab1479051265681e98e1558d76c91e90d7e18462000493565b6200b5e96144008801357f2d0566028af1cca03cdce8149ecf3abcae32a38ee14afe64f0b5f9dddb64c7a87f06d70957b65cb74774745d3ac412521d536045ee2a76d1d338ec0f47fc12a60e8462000493565b6200b63c6144208801357f18fa1ad68af0b2967572a1756ad876573d1a383ec7300c15ea8d145d9df287167f1a8589f0a7032a64e83c3bbf86f51959db07297b9ebb24a2a0ceade47ebc0def8462000493565b6200b68f6144408801357f24855a44cbdf10427f3666d8c62482bffab628f8cccf392e271e21c352e0c7b97f1d421a628ac3cec7bddc6c1d5c9e4adcaafacb3d764f3208e138c297c1574cd78462000493565b6200b6e26144608801357f0baff7acbf6480917ec8e767d287c0045943c0ced6061d1015b07aea020834517f171dd6ac45e8a8243deca3e543c607904751b7b3bbb2596d399da9270d203cc28462000493565b6200b7356144808801357f2cea75c5c54536b9504ef24b8b056eef09d7bd094a0e6c3fda6e466bb8da4b3d7f044a765b7da612f41613e0e99c31b0d6ecaaff779d65c98f1f7babccf4d0748f8462000493565b6200b7886144a08801357f0f01f49f960aa0cf9cba7d1b94711fea6b2b16bcecad9641ccfcb53f768b3e827f1c2140521860eadedd7bd1361144de248e97724e0cbac0fd37875854a37ab1918462000493565b6200b7db6144c08801357f13e474aec7dba28d54927188e7688976d542533fab660410cf69c528f15e51317f124e2af1a29f7e713f2fec466e2211198aa2fdd3a7d89e0d63e6eaffbf9315958462000493565b6200b82e6144e08801357f2f3460e81c144775cfde60dc7545cee2a85c0153f581f81a8f9c9a7373e04d487f0eaf9a3fc1d260fe5cf6ab06e4c3cf11ada3acc11c0b6f6abc828eeda511177d8462000493565b6200b8816145008801357f0ad917f919a14fefc2954ae8ea27251d247c907a77c7d66e84744e4b3062fe237f057f041320a91811f00632f78ecb210887960f53680d4eaf94e9750c2a1d73a48462000493565b6200b8d46145208801357f0979cc3e8b5de85952f4919b08ee0d397cb66c29820ded4103a0e55d4ee6bf427f1ad72530bb02572c5cb77d12706518db5b1073cd8fdaee25ba2db26ac413eb378462000493565b6200b9276145408801357f0ab4261d1b4c3d49c99823851d309d5de624b58f637dd4cfb7a6ce3cc7e5b3d77f26f1c31d538e62f35de3c83edc88505120511892dc6f074b9ab63bc7c0596a0d8462000493565b6200b97a6145608801357f04527b84e4113f0a8c46e1afbac943a9083d775e97cb82e1840c659a987bc82b7f27c448d6dc0adf836f7e702a13bcd17a684afe5d66697bedc7596347329550648462000493565b6200b9cc6145808801357f26ca2ed8d769a11e0bbb5ae2aa23cbb9bc1d22ac6ec1b61abd62fdd489bbfcff7e81d3a61c21ef62d42b533802b095b340c500a64439c710ccd8d7554bddd8a08462000493565b6200ba1f6145a08801357f2f3feb43f4aa18e9c72888da19df661137dfdbec671178777361df4823624e237f212b91a2f13c676f9893ca19522d37b4781356094262876776f5d7ee61233ef68462000493565b6200ba726145c08801357f16a8177d380409d9ef90d3b025dfe21d19ff9365de760b2b25d74194971af6f77f2883cde904343b069f0cfa0f54be35a0f85841ce9d725adaded49b80f422a91a8462000493565b6200bac56145e08801357f26c939d288584d9b00a2911097acbe031b0fe04a9d57fdc8e000e8ec103b137b7f0d186878cd31eb196311f72daf1187926a9600d6576bbbd6365b4f94a2c68aef8462000493565b6200bb186146008801357f27f36038d0fd6b0f95884c9a5ea5137da183518df45538284ab2f07c529aafac7f0e848cf999b7320617573ecff6f76c5df017b754ee55494d3461bcde228735ff8462000493565b6200bb6b6146208801357f267b9f5fc460ef56d57492ea7f4e318548ce0f861e8dc1b4cbc36a7374fc74f87f2d38f9f20b2c0e30fa2589d8ec3f1961efedb1255cb5c773ac410c81dda9c33d8462000493565b6200bbbe6146408801357f114d9817237f6dae17a4a71d25059769a1bd52dc8d64c46e87493d412cc46daa7f230b87a3479a04cc58ace1bdc2e371da51fcec0a955f721679a46433c15f81ac8462000493565b6200bc116146608801357f14b4e85114a3160b325c4092ae16f252930bcd1f872bccda3c5998ffa82dab147f11f40649abbecaac784ffcc4a60deb25f2e6568c6253dc2008823212ebd020c18462000493565b6200bc646146808801357f02e843aba43353741264fa65c4919d29aa855d6f2220fa575fdc0458e9a64d5b7f2cc03dab7e5cd3230e9f1c6e60d9f8dd4592b49c9bf46ee8cce10d9b59dc834f8462000493565b6200bcb76146a08801357f13c4f767148ad47c1b516b3b52b55387fedaa58d26042a7e6d69daf5eed0bc8e7f23a9ad8813ef33c5b9711cf98fb53e71a6d76f37b6d5abdb985b45be2ec978208462000493565b6200bd0a6146c08801357f2fe1527263e18abed787aaeeeb634837a0e013e62665bfd34cf11030e5d788037f303370faa910a2a5ec03df4a537f01d30388da8f3d82a729f106b3e2638105678462000493565b6200bd5d6146e08801357f23603ff3d1ea18af552e815d50ce43786ac8aa49bd47f901a2dfd5304cd72ca57f15c50a534f204ccbfb97106fd44605634fb120afdf7c0480d7e2ec37cfd394a78462000493565b6200bdb06147008801357f10d1a4db8dd6b875a388f9f0c0e6c4db86efc2232581316ef33637faf0ed86897f1d260b0fd90a2d01ce4c89d08cd97e977d4693bde3c06185c2766dbf744c31268462000493565b6200be036147208801357f2bcaa50464b889cdb2f7021e12d532440ea978be04bdd3af6bf724a09b575a547f17b283f12bffb8134dea87c92b988841e566fa1cd8257cc224127584bdf7dc238462000493565b6200be566147408801357f2a64eab39f25758884b93f989145bf3cc3fd0be45710d57bbf9e89658892060c7f0a6f8810f77771930242e78a9ad8cfc652845a390d71e0921b3a15a72ccb44588462000493565b6200bea96147608801357f164e39529e1e5930540707be7ace84d111efee3be8f966d22eb363bb621e943d7f2ae86dd03219a38d9ac3f7d5f327e2390eabe32d390f9656320cf46ef178c3a88462000493565b6200befc6147808801357f1ba601a76e711965c13e686f93102aa1361db7350950409ad6968f9b0f12190a7f06f449e7c9a3eab3d24d439ef26e2701b84e806d251d344a0ec56187a8a88fa58462000493565b6200bf4f6147a08801357f0fc2efcb8116127798aab2ecb85c58a9167a365a3b7d420f43347bc626a3eed47f17df762ac3a21827b4daaec7e4f36980ff022f421ff00915a36e60e196b0dbde8462000493565b6200bfa26147c08801357f0dc3ddf33e29682b25eca2b6838e3f6fbc5bdc6863d4376e2ec2c7c04ec922667f1dbfde1f3dce19b2b550947dde689eb33078723fee79fcf4f3b5bde1d47a3ff28462000493565b6200bff56147e08801357f04610cec14d9515d4610351020c0420931e350c6e004c4d6b64abb78e3d4b80e7f2c6069810f0e6b633248f5e2c00d052badae13c613540c56d6d6ac20d8e26bba8462000493565b6200c0486148008801357f0b70521292cbad6c52e9f16557572ab9551eea30ef77de1561336b60bfdda33b7f15ce6ee64cc3423ce11678d237b4da44027d4aae6cc0365b20617a58008dda998462000493565b6200c09b6148208801357f046b92641e35711c73cd3fed3d974d0a1ef9eec7d8415b9982c21303ce6039647f091e9f6a5a659dc5ca8b9ab9f476339a77254a4c4fe4ba693421bfa5153982468462000493565b6200c0ee6148408801357f26c6bc5c431b9ed05afb9f8a099c29df425ec3ecc1d1f334cfe50cc1dc65944f7f13c6bea625161e0fc34771f244b5f524b3d960acbb09466e2e7cecda62c83c468462000493565b6200c1416148608801357f0bb8b959f1b35ae17c6912df034ea448ead01676ced7bc50b4f03a842c2f05687f14108a696788993e741e7864d6764ebf6e646d9f885c6b137697ca5a975c69d38462000493565b6200c1946148808801357f042f2e68829762b1d753c091144f84b2d49c881b4b375c580d8a7385c48256837f1d700e3559d40529fe8c2dc73e15bf52b608c304cf85d49b5a80f0541220e6548462000493565b6200c1e76148a08801357f14c0172bc1648bdbd5d40e047456b46e3fb76f882aeaee5bb3aa0844ff13b2417f2fc2372615ad4dbf009afe2ad87dd87d26beb0df3d7a7c5f5ed16f3f11c3bf448462000493565b6200c23a6148c08801357f0fb5d2765dfa56c12c45769bd66a3640e2e91a1a1bcaca5cf24cb6b478abd1bd7f1f3d246f070fd9ba826282d907e7dc874e29416d056cda253f67990e8549bd498462000493565b6200c28d6148e08801357f09ef21e6af6064c0864f987da2f5bbc684a5e60c6c3dadf6eb38b1b6263035c47f263c0d0e21ec494c08a219d2be81b2c7c9893a63ae5775b2e5e58287aeb5c3178462000493565b6200c2e06149008801357f242564f319c80bc348e2937c0f53defef03f170d408750d5e58ddecb762455ef7f2b1890f1d117a1b5b222885e7d3a2b4b50543ebee99e200b8b5b82e9623d843d8462000493565b6200c3336149208801357f27d29591be8155bca5e356dfad30342829eb6635490275f0641e8aa3aefb61437f06f296963d2a9a7c2e70a7d019a2b4f8cbd2077121070aaf989d401680dcbce18462000493565b6200c3856149408801357f2d8fd4e9302c4fc108ce2473727de378075c195ffb0b352fce3e0fa75df965b17e17e6f284bad34cdc09befddaecb1914eca8836b0dcadc2bc37d520bec01df18462000493565b6200c3d86149608801357f09c401213ef86246d8af4fb32acbfe600c0373a4bd2b8e3e8e8d3fbde2d80d587f180b947a7491dffdf03313218b2d1658b349c9d2f4733b9fe6b2da68e2ef799d8462000493565b6200c42b6149808801357f0b925a5478e7a8bbcf65b79ccdb9652c5c426753ceaa6b6a20a8e1112b0b796b7f2a3e1945462346963f03c3015a1739bee570bf4b4630bc1f8089b25f526a48528462000493565b6200c47e6149a08801357f121c8c6d62c99ea08bfbe64e251c98f6ada1fa014bcb055973a602db5afa20887f14b6c50b5e2162eb4593d6c2e70ffdeed36047a3fef6433fa4981afa7eb1d5708462000493565b6200c4d06149c08801357e7e334c6d7d15232c7a66e30e6e6b2af16f875fd2b3fe38cfd3b403b39daa757f0a4a7d69e35c3f7aead55f878b66d669b25b51eeab1837249d0bb34080d5b9298462000493565b6200c5236149e08801357f22a008c77e727386b6c5122ce14b1c84222395e091d50f76e81f3ca1927bcd357f09bd3585b20eb23c9780c1d2a6b2ff4bca8f397a51b5155d6acfdfff08089fc18462000493565b6200c576614a008801357f1c40a75506e2cd79d00bc48d80752a83be798f6774d98b56c3b1be1503ece7667f147a69330ecac96647a7a4f40b8c70eae4bd86e4a501bf9d45746e4ff9cf74bc8462000493565b6200c5c9614a208801357f2ed0fe7487f67da8d6bf83efcc32e7b42cd3548e55fecc5139b925b924c744327f05098ea526b096bfbfb3310de3c81d7aedded3a0729f3b72bd9a1947eb1453218462000493565b6200c61c614a408801357f2891fb3cca9fd9068b9a8c8c61515008691565d06d0a692d4db87006f1ecf7367f1fc21216db921007c93657e542ef72f11a18f51824613de236f6a0dc4d4b6bee8462000493565b6200c66e614a608801357f0b2a2643771f417fbdc2135f7a592250c4a5de6aea03b760b30494c6629d671c7e31ae0490dd0758a1571e3d1ec89ec27b9d11d99620e6aac92370fd84e62e238462000493565b6200c6c1614a808801357f2c000028e8a62d7e1733a9b72cf23834279f460ec0e6a56d92c8bc4945a3eafd7f01093ea90d257bf6aa17e7e0a2145cbff9154594110a82d24b90d1561393886c8462000493565b6200c714614aa08801357f2bde89397a22d1652ef5aadc861195981e3d5e9279b4c043c14dea4c0cc0e5187f03736bf0a0cb41605b2c6203db80656526232a4f245a0cd8074a0fa4045a868a8462000493565b6200c767614ac08801357f03d30f5e1750626a5b9e3e73ef73c1f04b5674424bbcd4e14360375955f3d2277f196d4f78e6a8337345437a62ffea6c65a5bac203421bc507bc2e23a65139ef1b8462000493565b6200c7ba614ae08801357f2acbb0cee03ec367c976fb23c3638eaf1a9795d40d677a96fcb17bd56024ec527f250f081248b5f1fa1ef19298e8ed5c369c8b52f7ec8bf24d55466b8a116666218462000493565b6200c80d614b008801357f197cb7f6831afa95e9cfed9728f555c339b7941b34f9251d8cc2c872ef1b4bbc7f178fe1b3cc3b1fe051089aecafa857e58c698ea723da326b97b50a3b01dd0bee8462000493565b6200c860614b208801357f1dcf625dbcc149b728fdcf4238c507d2f4a5450ca5cef57820d30b0a374aa3b77f11a5c4a0436de5d0d7b71f9a35cd2d9843c0d3318b289d60a4422e27c06270f28462000493565b6200c8b3614b408801357f0320a139ba1baabc80b26d281cd8bd98c4fbe8cbbbf7778690a8c0071cb4ed737f19769b8679cec24fc34bef697c66c19c72bf0bfb5c5f2f3a315e78a104da0f7c8462000493565b6200c906614b608801357f2c4ea3367ae3760babdf57fdcf883b4af3f442c5fe525506df9948a3f76cc1187f1e2f857a21fb2d368367dd8795691802b20753bcc5cfa2c80cc4fe34edcc26278462000493565b6200c959614b808801357f14d7d842de6d2da38602686d20248d19951cb61ccc71687c64891041a5dc1a927f0407ee86ce567bd949a9f1fb3c9fa8cb79404f190aaef9f2469701380b0e4ef08462000493565b6200c9ac614ba08801357f213acf38df179466b9aa60fc8afb5f612c43369c4792bfd983ae0ff06b27d5cf7f22a60be8c991a521e6261892971a9cb374bcbcc15157ed86c4068f26856a62938462000493565b6200c9ff614bc08801357f1bec5526338fe47216246f71abe04ad971912ce3af75e10581ed936543f28e1e7f20a66cd0808b1cadfb3e4e655aa66b3f17ffe64d8193b738b04ce7e870ad802e8462000493565b6200ca52614be08801357f2b57245583c9c324aa6b44f9edb0640ab2cb5ea8395b1b829908e1339c88fcf87f1b99eefe7b8d2f5e13a308c9c5eb5c6d2a33f92a374f399083ca1d78aadf0f4b8462000493565b6200caa5614c008801357f1e75e93e6f22f0c59d824dea627a39281041911ea08e3dd4c88ad3e1bb6f01317f238777307377ebb6f988ba9a419300913012d4e461d2ef614104a5bbc6c076888462000493565b6200caf8614c208801357f2d50e4017309a71a32ebc8db4ac29ab40ffc62c2800f743f72fa11f42f7728e17f07939308e0eaa23cd1ad67a899024974a183c8a9c0c4ea0684539ed1e4574bf88462000493565b6200cb4b614c408801357f060f143e402a692284ac621951e5f30e6b2aaa4440f82e87368304091fe4e0457f2488650596b396714aeb78738d0f115295e5c29add212bd32cda193f89b9a4888462000493565b6200cb9e614c608801357f0e71e268d87395d0c3611a1bcbeddb5649a46557157edb9c93d1c902aadf1a807f1acf4af39b9bffe167a7f3616572402963c5fd36bced6e22c1b134a242524dcd8462000493565b6200cbf1614c808801357f2ab6d3b68b8b0f71f1bd908c3091961b486ef41a0ee4958c44cf466afc1b0eaf7f205ae79524d3f6b12c8a1dc4aae94bda7dc2a6ef5ce3530e662ef3fb4faed5cc8462000493565b6200cc44614ca08801357f195365eddff90303bec8149c76cdc40a0ad69e343cb7efff4929d0c8726174fc7f2086316a2103d948d95f5e9782ed3991ccc945f8c1a8f1f4b69dd4501c5dcebe8462000493565b6200cc97614cc08801357f244913e4d9d68f25d96bd57ca0fdcbb503230e320eee7d018e483a40c82d8f407f06e994bbf96cfaf3c02b7a40b7f82f11ca885d6aa915676db2eb275ca0eb86c38462000493565b6200ccea614ce08801357f163634d83760e2170fcf80e8ebacd428488a1244b3948d21cb6a701344edecb67f2c2b4217db24cfe082d16eb586268699bd076b8b1e1be6c97d68dc36022f7a1c8462000493565b6200cd3d614d008801357f13821f1af1d4dbfe317cc4e945ceb79343bf734c7ecf179e93330f50294c0b447f0dd7418ff58487e50fb2a51feb4966e2fbe46263d672d53f650bab0c2074f7e88462000493565b6200cd90614d208801357f094153aa441bd3c333c5c13e01763d998074b847ca5508ac17df1afe44f7e64a7f122f320476c03805493b5dfef139390c2d97c436b5fcc20933112ad255cfcfed8462000493565b6200cde3614d408801357f281d458a591ce734f0567fa07518dea256eb60b0935016c8179c61d3af097c347f12c70baff16e3855476ef91c842dabb26760d305d3886fb25fa2e93accb015178462000493565b6200ce35614d608801357e3bb2de8e8cd39b6180f3ae6146c209eff6d1560204890c4fa3d08617508eca7f273625cd45e6ff694ae70f6eb6bb8cf09352b5be7535693d64e21894773f7c0b8462000493565b6200ce88614d808801357f157cc1202e44ac7777b24f6dedcf450db3f622303cd96a32e0f494ddadc041847f213991d2c8cad9ecb5c536ae22329862cc168863d8adcbdd2b8d710be63250558462000493565b6200cedb614da08801357f15c54c765391067be6f4f5857e3e15fbc50232c123a0e4c64b2e5fb717615c067f1138cc76194c2f42053c513d44d7b3fff44279779787a24076c61ce75d6948368462000493565b6200cf2e614dc08801357f249b3b9c06281e9624b8f6b8249c5e5137538d0602dafec9c9c16e4afc7cfef77f27d652d8c79010477bb20325c883214fcb8d2829fb1fd887d263fee696fa082f8462000493565b6200cf81614de08801357f2b6602c1adab9399ff0057c3936fe1a08a9a8c0ee6fef4049c8e61944da7fda27f20ea951289168bea9c98281a0ff028c666175fb602b3f241634be625036191c28462000493565b6200cfd4614e008801357f0b2e0ab48026781fd3ccceb82dd63766328686d29176068e9593c0281a90a6c97f1eb2719a579441b5e3e3b6ab311f423f9ef0f7bbb19eae98a1be1354f9bc41c58462000493565b6200d027614e208801357f18e04c813b6df8e36adc846ea52614235d522af3564876d7a8ef367c761864fe7f24770f615b789a4acb804324f2a96de61eba378dafd5828707cd3e5ae523d8c48462000493565b6200d07a614e408801357f123b14e97553cc5c99156930c7fe625c5b8a5929fc4ba9e58c820b95722e079c7f0f8180fd04603f9da11d0dca24aa42aa6600aa97acc87bc5bc81e1b461c7df488462000493565b6200d0cd614e608801357f1316f370c02187a7da7b515ae14bcaa1f90c0f7ba4dc033f99cab87dc59bcaa97f0f57132fd51182c551a842eb083d5aa1877ad10a704449e47f8fab1ff85a12af8462000493565b6200d120614e808801357f0f30385e64212d640a433581e8b148ed4d84cdfc2fe05e5e667c004fdcbd62d77f113a1095e67a53115abc282c5930755492bc518382db7dcf3a176bf701b77eec8462000493565b6200d173614ea08801357f1afae0d02ddb4567663a3bb9e44518354c17ad94ae2820693f672052637358f37f28c23882140391e96fc7f9ea216ba2ac62a14545fa657013a95aa43c78ade13b8462000493565b6200d1c6614ec08801357f1e075c7a999630491a3e29fb0c5b4dc6638a831425c82f4bc65e9b1891200e527f127cea684a57e3ad46f2dd677a243ef34b384dbee85422ceadc6742fdc436d8d8462000493565b6200d219614ee08801357f0e40df26f3e6af4af960d184b196b325e9959611238c6ec67fd4c330724806bb7f1d42ec0554afccb8f165975486a5f929687c0771433f1d022985b150a9ba4e198462000493565b6200d26c614f008801357f1a192347b9556b67eb68fcc55fde5fc40abb54888b3dbaab0ada01fb45f944917f292e3a28dea1d70791b0ac1141af2479583f893b6df6a08b8d18fa05bb152d818462000493565b6200d2bf614f208801357f256c7769f9de478ae8b614d627cf0974ac6ad3a4f176bbec535bdeb2a20795717f06b3dfbbbfebb4dd691fd0d35d16e4d57aeafcd0eab8f98258921cb03bfe40238462000493565b6200d312614f408801357f1ef74d69b96a715513c3d65639329d9802d549abef57ad699f61bcf3f808e6977f29949bca192085f1b053667e22396066123728f263d7d457f2ff532fbeb0c48d8462000493565b6200d365614f608801357f27a3fd245539e70852ff2bd997127774f421aaa42723281b7a4bd0086776ce937f179e4554af6facf4f617b05c83608af5ad5dd729447015c44c832ee5e77454758462000493565b6200d3b8614f808801357f2279a2826d334176c69f96e4ea3a622ef1e5f1a4e0022ef7465afda154f0803a7f160a85a7cb5d3a52dc279dee2d1bd19e011694da7185c96832ba0fafc80f86658462000493565b6200d40b614fa08801357f263fc0d27390c0375c95438456b38172e6c3e555d20867a2140c1a64a5334b047f2de9af4cce5e09931a0b052cd6fa946561be32911dba80de8b17d72aaff98e048462000493565b6200d45e614fc08801357f17a75488b7d8eb74bc3bc25aa9520a71bad3bb1973aee27274488ce0d54af53e7f0cc64ef9d5f9494f9c56da0c5299350148bccd7ea95481a1bbddc6c67af833648462000493565b6200d4b1614fe08801357f1d2f249b2d0254e5cf21432be0af6163556965b6bce0ad4ee4d4f6afc1af00f67f0a27cc8ab4949394ebb4169938d5bf7b5d7f4663f8bd98c761bb0d53650931368462000493565b6200d5046150008801357f0e860f8817d80cdc09674b5eaf1a8c2c5747dad7df209f90ae760f1739101e787f1ebfb7782a71c70195d857152317d823d40d27456f616789442d43b17953a6ea8462000493565b6200d5576150208801357f06304318ed54be142f04041bcf655d7155e7f386ff8049ba0116de8de1c0498a7f04dadabade156a90413654c18ef9ef7d3761479c2cf9e4373427efb8117a63168462000493565b6200d5aa6150408801357f07518984dc206dd624114c1397d061876d2b0930e7160537ca646a96e12e47987f0bfb59e58d179f40ece20f442295a8fc94a0c44a145ef01881b72d67b6a70ba48462000493565b6200d5fd6150608801357f3005c5d84df56ff0a8186c351cf804368378fbc8b84e80dc0bf589493ed3a6667f1460a59d5be599d578b76e4397c6279b285177bc9a54d4338570cca4f924b7c08462000493565b6200d6506150808801357f181650ced61932d5e962aec4545a64cc2f32f41ad55096cbeb8d5e5715ee5cc97f1213520c4b1a0a5c7617456b5db6d4e00204f2f3068c7a3d7a1240268baba4b38462000493565b6200d6a36150a08801357f0eb7e6c5982b4ce1c1e0462c5b35fea1d25de9acb8ad1cf56e5c77a1557aebd47f18f4bc5ee07f5ac32255f8ced63a51f77607988ab5c3af44375497be1032a87c8462000493565b6200d6f66150c08801357f1845067f9c8564732085f7b68e4d982a02b5087b97bd97400126767d8e526a9c7f1c7528db7cd623906f4aa74bd3e2c76965b869bddfa79cd828d5a7c644a0ad188462000493565b6200d7496150e08801357f11358c9a93e12e2421ce93ea4780d357d2d534b39878c003974aa54c7f67c4387f210d3912bf003c4ac5a8c00b49d125e02df39494dbc0fb3d777966dcf66652118462000493565b6200d79b6151008801357f0b6fc3dce788cfa1a0f777504ba144f7be7a384a70ffaa83d2b8c4963740f5e17e95a64e65380324438fea1fa3338a92b521ca77edcb06af09eaff124ed4ca018462000493565b6200d7ee6151208801357f1ad380af941f401723dcebaf137b7180eb64fab12308e36e4880fa4bf3703ba67f1f6404dc8db31306bf5ab1dbc5acc5f70ccac7d067741320db7131b9066dc34b8462000493565b6200d8416151408801357f21c39e311dbfaf2f9322fd2810589a7e2e4716394b2e594903f5cd43c59e3bb37f2ad47ea61d718c5eb3a8f4df1a2573397f764e66c8cc054b254913cc0670aebd8462000493565b6200d8946151608801357f0c360235ecc02ef64af7a7fb9561c1ca3bbf1a01edd27c0f5a54ab9fb8faa1867f167cfb9fc10f4d960d8a0dc3a0bb7ac7de2cad4225721016a85db30c245ac0798462000493565b6200d8e76151808801357f142c2537e9c28c44d37deede8efeccc8c38dec9c21d4489147252ffd030b93127f25607c69ca20582ee0103a5c64fb0f7be3b658923c4ee65271b06029f56bda208462000493565b6200d93a6151a08801357f19d67d912719b0943a3b8b22422a8beef36024de619aad16f8c02361c37e40b87f1527fed4237ee2f0412434b2eb3cbfa75696f87dc091405acbc6fe3127685d758462000493565b6200d98d6151c08801357f0456f50531df252ea4f75a199cec6f96ebb0823f282c22314c1c1fc6df0e060e7f252da669338a6f5b0cf43acd6ddf9ff60fc6e3823bb5730d5cd28abd2aaf84b08462000493565b6200d9e06151e08801357f2199a172916d9d3c2d7838ed75ff2f7b169f6dd84d7cbc9d4ebb7d305731be5e7f08aff88c0530617e9e2534b2d80b21397de2ba9fb6ee3d57b8ad321aad2d50ae8462000493565b6200da336152008801357f04e6d8a3f8fba2dc33fad5186a0e161f0d8eecc35378de60d8383415f9f2b8007f0d0ec5c7cf93bfb7db3c852ee83a9a3ec11e6eca7d9b28e342cc604087b7ba468462000493565b6200da866152208801357f0bbd48d8e1272c411745b8caeb6825edcd391be44ee4f2147107fa58ad286f367f301c2a075e20e2c94e98b592284844ec8f6b1352f2cedab401c5d4c3537770d78462000493565b6200dad96152408801357f23b4714387dadc1bc1e793c90b7df04c4bfa99e9bcec00aa5dd2e60d84db9f097f24cbfeafee523c815b54952aa938b266e02566ee0ca347b028402a0e5e40c5f08462000493565b6200db2c6152608801357f2320f1a22bb3855c50c6d071d3d1de54a1254ac371cb5290651849d1cb496a417f256c621a3b8e1327f7ab0840ff3814a02405581a7f51ceb1f8bde266a5a684098462000493565b6200db7f6152808801357f146b9db3584bca1a6665b7f63d77068f79cd7721c9413bd2e75631d590e601347f1f94576eca515c08dacce36678498fbd827cd88ff33ed9c75d594229930399348462000493565b6200dbd26152a08801357f12cd923e3a5bf9f353d2ac07eab60bb1b04b79d37e2fea1210c86660c40fc82e7f289b1d7c948e620c0594b164ab6d993ddf1cffc1b23d54bfa5df1b93e419289e8462000493565b6200dc256152c08801357f2433e9a672e2fa0d2231f898f94e60b9a1844974d691f2d325c16123decffbfc7f23eb07c7cb2c81f57a922eccf2f7062b9270d3f0bec1f8c5f85ad7cae222487e8462000493565b6200dc786152e08801357f063cddd7b3506581ffead9004141a263654301344adbb886c389782d17658a827f0a1574df3570f47548d4cafc6653f42557de5fd8e7f96d29eb6147f658964f618462000493565b6200dccb6153008801357f1a9024d1a3174072d1d1199988517d72284eeffa05d2dd0d9efcfa9b4de3fdfb7f2d560e09cd3e4b93e57c924793f8922d1837a395dbce00bf978b616a88487cdd8462000493565b6200dd1e6153208801357f2697dfd4ad621df9f4bb4aef95fe091f51e51daac77bcf577822287ef83024df7f219bf6c3e8c1b23c77f5fe955d248389307af8fa61b6f53760741d1a2b8a94e68462000493565b6200dd716153408801357f25c06109165ddff14c9405192c49cd274e075bf4c0e6001d05814c74ca1cb3a47f261099ccf5f1130d8ebf14736df062f32d5fdcbadb846b6d259573ab4304cc718462000493565b6200ddc46153608801357f204ef31da48a0570b0bc96bf2fcdbf31b22e5e9b8387136c772c7ee00bcaac4d7f30196664de62b73749bbf4353a72c2286906e53da2f032603e8fbd36060d82ed8462000493565b6200de176153808801357f2005baf55f338198213884c5b8ca4af57e8c45ae4d118fe1f688b31d24ebca1b7f2aed5a68db093e3453dc6b066b795d3c225ef0406881512217ead6821b5a45eb8462000493565b6200de6a6153a08801357f179d9c3b9d5e7f497e4c19275de6b260210abe028b4f166641b221530f7641997f0f952849fe87ed20483313c7f7068a6116350474058ec03c59cde2e137ed8ae28462000493565b6200debd6153c08801357f14fd38dd406295f1afe0b8c36d4b53c9ff7e1d1ffd6b56accc83bc8cde5876087f0ed95c21ab85212982acd20d184f989ede45797636e17be8c3758d2ff8c283e08462000493565b6200df106153e08801357f1893fae0e796850d0b585825e1daaeb08904c45065595b5b486685e04936bda97f260ad113218e96b5d6107cb7d694c96b7c21f08acd10258662c4ff4f7e3582188462000493565b6200df636154008801357f1cc1805e311682472c6b35db2519db65fccd156fdc600e564d1d9618dc0bcaa07f056b1968e7795e5aa34b8f996eb4a7e591049dad4fb84c3e1647a5a5551c90c28462000493565b6200dfb66154208801357f296a66ea6f6477e56199241405358ebbef053d446f9af93f921e4470ac8e56da7f0b6caa62116c352ec46d052398972811a7bf5b7b6c97264d9e4e2d34d448a7868462000493565b6200e0096154408801357f0c5d37b1a02e92a2a72eb65a9e6b1dd1ab8887b2394a5b440a43efe366e05da67f1a8f3f0d3828d14cd7a6f212fbec25d2a694b70d83b8b6fec5289ab5d66b00608462000493565b6200e05c6154608801357f14f5283eaf1b0b3445619ecd8a45a54638f872f511eeea9888616f09d868f7037f023c58de3c50ce17feb85217f11a467552f5d8f7ca82e802939c735ac64fee218462000493565b6200e0af6154808801357f2e4214139779e62f4d383f4ec85a7ed57bd32f7a9864eb0aaec9a06e0fc0bd207f0b7b83bd0e8406d3ade762f23e7673405c04c6fa20a809d2f962e51b6e27d02e8462000493565b6200e1026154a08801357f1f1697856836afe49de87aa2c39ddc06446211e7124936cdb7829ec1d6a44d367f28b9d550b06dc1d7b17a9a2e5607d1d965a9d95b28af04c1aec74e6ea2ed46268462000493565b6200e1556154c08801357f1aad1443b6cc0c6d3f0fa8cbccd2667dfeb17b971a344762d4c73c6b51e978177f2e3dec9a73cc1bcc8c4dcc206087ac8949575247586bc6741ca3511c96dc87c38462000493565b6200e1a86154e08801357f28cd36a5c203cd076bb12c49ae4f934f866164ff43c6a7a68673a70e0e3b77987f08af957db0f8ffee379e032b32f8be1aa9c50e22da74f533a1d92ea45d700d5c8462000493565b6200e1fb6155008801357f099c3cab2d9138af309354c86892c0360c7f9114e71e41bf0d3e0214b3bf8fb47f2c1672dd2a687229d0b3cf4278eea9faf028acb6742a29b39964f65de52d57478462000493565b6200e24e6155208801357f06cc7b9cf44b2da9b920f326af8ade720e96b1d50da7e79cd42af052f3577aa47f2ee43c9a0cf51257ec0800bdfa5351848c8ec9ac56530e4149359e3c74c916898462000493565b6200e2a16155408801357f0678e7ac277eb3447a5f9c6b2e4adf5982fdcb99eb862189e5ebf0b3ed59f2f77f0efa2b47ae198f81918f365ab8cb69e53a096ad57ffe49aa50a86c1b2b643b108462000493565b6200e2f46155608801357f16425b10b92340d87a7c764559898940bb6f21a74bec731c044dcb891f47142e7f12730d1a7c558fe74d3f60e6fe2bfeb2cf32f3184114e9eba255e73ab543bac58462000493565b6200e3476155808801357f0f57724b8c8d095831dfa8f7e5a8e2e85607f6e9a4b703191a80c89627e1632d7f09d4ddf4496d9106241bb5203077e0fc1068931353bcb3615ae7af1eeafae2e38462000493565b6200e39a6155a08801357f01d0cde4fe5425a586bc2c755e545e9b91c2e016684621ccfdb28b22b09eff267f2624c5a795e49635afb289b9167fb79b29256d76c9aeb0d295e78770ca856c7e8462000493565b6200e3ed6155c08801357f0dc34eb219725f3d2274f0ad2a188d2937b4d741e6eb910f0e878eafd2c3fb917f20bd33946a7229ca3227269f5a14c3083eab28a797f252e68f423cb2114858368462000493565b6200e4406155e08801357f11c6d88025c3a8681c5470684fdbe2e25d2c22dffb1feea7fdca12c5965e0dbf7f29592fff726a764680b6c580d9aee459817742c9776b00321de91492c9bb12af8462000493565b6200e4936156008801357f20f4810b7df522753e980a778e5877312f350408745543106376f87cc9c900cd7f2b841dadc069d12165147565326277f4e9e0d4770ec29492acf358ca540727078462000493565b6200e4e66156208801357f0b364f544b9c96a8f37e76afb96ec1e7bbd31b5c10ec8e64d2667e2ca4ec2bcc7f260e182e4c761b9a38305a4cd654d7f3750f123657c20ef1ad8fd0b27a5c6f118462000493565b6200e5396156408801357f026a68b7fdddd1bdf63ad507ce985539484a8269685cbe5764bdc6f35cfb826b7f05f878d4852e93d72ff0d170022d365dbb3e3c19ac7f0dac4735386850ac57b28462000493565b6200e58b6156608801357e5f9c5bf04470d6edf425d1b1a9612b345e11ded899c41048e17b76309bd8c07f0c02ceede8da9f8a41de9e0122d1cab35f5646b1b88de9dc1598bcdfb360c6798462000493565b6200e5de6156808801357f0afe4f57157c0bd08802249f54e9486a414368c688d2c6e64fd41e48b9078cba7f280f25f0940f99f2ad1f3621c20357596331db25e6223e0f9174b453ad58360f8462000493565b6200e6316156a08801357f1a92254f028343de596bda69608ba594c90caaaa548e92c02131774b23ebf6907f1abd0a71c82ccd5a09f18464b663a63f321a86a96d8bc94a1295121d8bc01b618462000493565b6200e6846156c08801357f14e80155cb2d74d5eea2ebf86510cdc1467bcba89c6115325b1368671984518a7f17e5535ea69d720a2570a63dbc9ba65ed8ddf8bbb9c69774ade0706b96f6be348462000493565b6200e6d76156e08801357f25d4af95e29b86c9f8719b36f618251db733618d4fc5e7789ecb6ea856279bb57f08312770c65f2deec88bafb0acc5fcd300afe3ac429a5008c9a2463bdabb15498462000493565b6200e72a6157008801357f23c921b0a89fded40b196bcdea6bbacca189950ad8276c8cd2d47a9ca891a0ec7f1ecb0f648e1d28368be7e6c364523834fdb43e2f6a025e8193b32bb53b1d0cd58462000493565b6200e77d6157208801357f16139cefaa67ee27a5e67b5fa550ee741619c80a542ac5235f749517547ccb297f18b74d76897c028523337989d9d2025681bf0326984e45dbd013dfec1395ea828462000493565b6200e7d06157408801357f29242fe5dba78caac70692fe510a082c30ea3ee3a45c537c3f0b44bac64ee93d7f26e6b92eb852e79f479b193d67f0070baf32d072945621d2e34cf04cb1afeefe8462000493565b6200e8236157608801357f233b599ac38f1266d1be9364655af372da76af6e04f7246fdd68f34eab47571c7f17171083e044778c2ffc89ee85b0f71bdde5f3023db1f8b6a7f24f82790911b68462000493565b6200e8766157808801357f294804838e8bb7223ef60a3d12126c83b04d30ce92501e9e5078abf91fe24fc77f1e51d824e7add796371e19a87bc455cd158293a201472a08b4deece536ebd2a08462000493565b6200e8c96157a08801357f29d4712a6db9f1c6b915a053de13ab533a6307f6be4279f192b3a65c044ed8c87f0379757d295604a5142ad56a42546ed3f7ffe1863af4ed0e17e0e428408107d78462000493565b6200e91c6157c08801357f04d998d4d3078348925ce5c8df9a6a6631dfa06bffcc405f11fde41b03f9a6a37f0c0d43da27e026cb2ff60f764f320a4d45d2ddbc1ee4043e4cd2e125d1a032d48462000493565b6200e96f6157e08801357f093b8f7c1cbb4de5699375d882ab91ee14159b2affc2df21291efc2b0df7cf977f1fb0e11aaeefa1f16ad7a7964c98be7f786df441e6f9e285292660232e43bb378462000493565b6200e9c26158008801357f05920b03205b5a4efc8b6846e79ab5df4cce46f466c5dc8f44529a9afb07d2717f252ddcbe440f3116990b3f78ae43ab77a1221895fe6c1cc6273df9d38a25cf618462000493565b6200ea156158208801357f28eac5f60f8ec2dbff98e3ffa41e89be4fa28ca758484fd00b7287e8b8f66de57f2c03f9a9f7add48b00156a66fc0716b855781f12beddbd0694fff83d89f032c08462000493565b6200ea686158408801357f1650cc1b3fd62c831874ca08ad65535e676e854fee982a0e0a8ff0c4230633597f1dd72e595ed34b04eb98391a74e65355c86e056548c8689e736299aeb9ca24f78462000493565b6200eabb6158608801357f0c630d2480c4790ceda756d5c2270d7392589afe9175e9e25a145f9eaefeffd77f12a7c267ceb9140ba47f9cb6e87252cc6df6a1ef86c7029048801262194c4f5d8462000493565b6200eb0e6158808801357f0f154a47045f7140abfc142a234ae0bc687e9f485ab34067f56ecee60da3df6b7f0c8b0d672a51422ffd09fb61f1984220252c2a23d5739e044924696ab578393b8462000493565b6200eb616158a08801357f06a66091f4736264db15734ab3a8f594795c1aaf6c399d1e507e464ee7c152927f285ad33d51c186d94d46e93b0905c959c7ea89863223127b39123e27d8e2197d8462000493565b6200ebb46158c08801357f2729096688bc2248c9fdadcb2a48ed1dddec6c731388f9a4f4e3dc182e7803287f0e72a340a485021613b8f90c3966a036aba547fb7e0fe9899c68781c0e8bf9a68462000493565b6200ec076158e08801357f18c840a49cf346ece715dd787c952ee2eedb12689c8599d36b65b4fb19dc8d317f1620f6f9afca8a3a120c74fa086227ee60f9eb3ca51fbbf5dc5c056481779b728462000493565b6200ec5a6159008801357f0426b0eb30bce65d78555ef3e0631f5eccbdd36313175af8ef288a2747b3f4157f21d293be7cb0bb33b356868c4a46548a6f2414030cfab17f86ad1b73c57fcffe8462000493565b6200ecad6159208801357f11c9b94f913cb4cca37cbd76ec4dace9f7f2ded18ac0991865c6907ebebd07377f1297f1f935e73bbd0761a99ce38853f3b383cccc6eeba4dc4083f24bba9b61378462000493565b6200ed006159408801357f10f98d8fafca6409398f63097461a2a164dedcbad9ec7a6f3b2741a87d3611da7f2e23d98a3532d93ba9c8c04bf0295370108b1883844903b301e87a9c516c8b248462000493565b6200ed536159608801357f020f3ea1421eb46bcecf3eaa7c6b841d0f914d3c5c8c711affb070517fbde6b37f2664fe332c0ceaaf55f84e5aea03214d844c2ddbd94a01ded8bbdd9eeeecf63c8462000493565b6200eda66159808801357f03e14accde891c5f47de95980a309ae7ede6509a23518581289d572f6bac74c57f17a0cd31043f956165840b28f96b9ae573ac3de67989952a8d9dd0d50c6d61848462000493565b6200edf96159a08801357f0129fff16ebb81b936ef1d163bc205d6016958b9563bf350f202e29c35949cab7f2834f299e87cf46fa4d6c9641842ca70b4c0a8d5ff5893468b9705b1df070e008462000493565b6200ee4b6159c08801357e35a25158991892c5dc29de128c3657fc546259b23392568e4adbf867dc34177f1a06fee372444039368132514914b44cb550f26cfaf4a12bdbddc50cbbc37f2d8462000493565b6200ee9e6159e08801357f1709ef8c925cec0f3143908a8bbdb9e119372d2d6dacb4795546cfaa56feb5f87f15c54024b7f1b4680b46d15058b9d5f04f59fc3d8596a55538e8a1d19abfadd78462000493565b6200eef1615a008801357f1a2e832e9377e62f0be9c4db57add861ca771187b752e20ed80996c7400561cd7f08a69cb506b5702de5b9c6adbbe697668b7df2a5d47dce6aac2e7685668d93648462000493565b6200ef44615a208801357f07d101d4ed6de6857fc47a0d5e74d99241cd3af1aed70d8f297116e6282c21147f1fa398bb1cc8a044ef63451a295c06f57cb74c9a22a9f05e86e0e459a11f786c8462000493565b6200ef97615a408801357f26f88c2dc75a01ca779b0bf8bf7842aafa190af548e949c2238d86225adaa0887f1335acc59586e158241e0940d5254d06112324383ffc6e315666e363e4ed20c48462000493565b6200efea615a608801357f0c78d3fab73dbaa7ebda252deec72ab4814bd989aa1ad110ee28a33716d70f657f08c126657c482f99d2ab1df2275215562a77e0dbed74c58de8018f9b4a87949f8462000493565b6200f03d615a808801357f1fd05d04e520098afbf41f7883f33a7bf901bce357be4845cd0bb383f7b611177f04de54bd63aa97c9f4b3db5011f0146ca8b220f106d3ef4b8551a66ec5d5b4a88462000493565b6200f090615aa08801357f29ee4aaa52972de4b53e47ef46e1ad303b184a86aaeea5641df081f79fc1b66f7f0e1301bb8f3016ec2ccb957b39652959862b898b03b99a15310645969f5ef61d8462000493565b6200f0e3615ac08801357f2df6f7c0c3df0168ae1ed285fac643ae18fa5114dcc953f9066c928b418991197f0f53cd0c42e51bda78c13e73d96e5a277d2389a9ce27bc4030f64e3da3f113448462000493565b6200f136615ae08801357f24cfe6bce2a2816e9cc8afa06b220d9d0c1943adf3189f6d105238f134cbc50e7f1c032cee441469c59ce0fe0e34d8254d9c6b3f72e839c42acf0b5fdd44077bfe8462000493565b6200f189615b008801357f1ddc1935420cc61ad1870fa8138e253d1228dd63d25f3b2e9f478977029972d27f1f899b3769fe333d3119b7ba6439c01427811a023d12ec832eb9f61bf03b91538462000493565b6200f1dc615b208801357f0799e2d131bbc7da1d3f55f8128808cdc7eb11066196c871b21b7718dbd9c7387f1c8887d9a5d33dce5dc81b06b4a606aa26fd9fcd621a853dcebcfbccc5a698988462000493565b6200f22f615b408801357f1c921cbd2cf331a6216217710bb3e592fdd36901b74e6239c1f3687f3038ade97f0346c83fbfdd353c98947bb0c1e1f4ca3ba681f9d8700072e1ea5caccd6df2a88462000493565b6200f282615b608801357f1ad86b17827c4f0daf4b7bdd1f718c6d0a7fe15d178c5bf4bdc3203524cca0ae7f0ec437ddd7a6938d29c844e710f3687e5dbb6db2f8e1379291ae4f2fedcd0d9d8462000493565b6200f2d5615b808801357f207f1675282b74a899099182013128b4297381092d0cd8ebe904e61b9b160b877f1180e89dfe4ff620ecfccd9e9f705f2859a84b1c66d94960b07784a1abb5e7d08462000493565b6200f328615ba08801357f295f7c437ba3a59886ba16db9bab2818e615aa37725310a8e9c98a5a77d217cb7f22cfc9f048427684425c218c9ecde5edc9590c9d7e5acc3543a8db5cbb8b2cb68462000493565b6200f37b615bc08801357f05941183c89cdab35e025c1fbfcffb6e89817b88ace4bf92c07bb6f0c2208a0e7f1b62f37d0bda4eaeb8061f6aed3ae3ac53827441d25993ee6f5740be5d9f57c28462000493565b6200f3ce615be08801357f06cd5380ea24d3171861f74e7f5f5e3e7d089a82f57d87ddcad98c3ea35361217f1471dd0b3888b94bea45a130e31695395fb5d35cd2f453ff8ca782536c9851f78462000493565b6200f421615c008801357f2695db81750149d7fce9171002bb8964ad777ce8d482246944e4ace06b3c80817f18d11c4d80545ed92fe2ab647ed5c3236350ed5d23ec8a2a6f66f043540e69c78462000493565b6200f474615c208801357f1bb14e5cc8a94f257b1f92c0e1ec2a8f3cf416afaba135709f0763b70df520c97f1328a7c793c2456ca518d9fac10b8dc75bc19b891a283d0df0216cd56da070af8462000493565b6200f4c7615c408801357f2bdc913f3b30d8373bc689de62de0f7ed25290a5cbf18fa4da514d63808979fb7f1903c716bf68beab9a699a2598760d5319aec29dea601e91835f019a3fb605c78462000493565b6200f51a615c608801357f094b060b7ab0c832e2c731ac84745b1a1c2c03a5cc3cf3e5b8e399d63dcf3eb37f2d228adfb3281c51dd00b125034fb07427a876e24dd40061d03310f75089630f8462000493565b6200f56d615c808801357f28f5a4826639812da78c9f50dc3089bd1b8c20b743d6a79e0c5f752fcfefba2d7f196263583426d08ffc14caeb85555083029909e3d7ba72bcd10f535695d6fc728462000493565b6200f5c0615ca08801357f15bde0a9b45be7c9d8b309fcc43a22f6fd928701e5d4b6da3d74b046152799df7f2ebd180fa3b6e3fbabc31b6a05eb286193524bcd20e6dc8fc3733e14570d0da98462000493565b6200f613615cc08801357f2fea939437c4a3812fd8903aea076bf686acfef834f0913d0d572576793467de7f212aee432d2156bea79e828adcbc3bdd3e8653cec28c0f3a4db32c32f8d1d2ca8462000493565b6200f666615ce08801357f290a23f1e80a44a94c64bd37a2aa3dff900c37440ce2e03aa470814cec8bb1bd7f1ac97ab9b9ceb828dcf41953438381678b095eee3c7cccea15603da677d3e4f68462000493565b6200f6b8615d008801357f2eed59b7899aa9811de07bc822a53148130a1e480dc803f222225ce51e9548cf7e22e24f49d19d024fbfefde17d5318d322049532098ccbfcdaf246093fbb3078462000493565b6200f70b615d208801357f1a96592ddc0188bc1d5cfe41743842bb92a77be66eae1728a59dd815c823bfd07f115143dde4e00a704dab7fef1b5192173e941e01db6eab856ca13681f4458e338462000493565b6200f75e615d408801357f1544c95c7f62736e84ebb7d17409c214ea9cb080ef00d1928ea57edfb9d069c17f0d7bb8481217c8f8c762839ee14bebec08a026befad95e125bb6730403f3c32c8462000493565b6200f7b1615d608801357f1f06ee85b1d3c9c88f7f1bffebec05ab53ea08f03de92afa34b73a5a9e72f7de7f2e79520dabab171f3112a34c2b835675f84e070859050b84a441f6136f6f96118462000493565b6200f804615d808801357f0fb7b8b761cf1360161a6abd46ccd04ca8cf6884a680ae4cb675a43cfe0cc3057f28008eed70b23bc5bd03b181f7ab63245b42ac2365474b7cbc1741bd90b99ef18462000493565b6200f857615da08801357f146f49e028c4394fb318f68b287ff6441d39f1fa3f2878984ff271dc1dc960dd7f04321078faffb116224a993e2594a29481e738d52ff0ee7faf87319867d21d9d8462000493565b6200f8aa615dc08801357f2a6c6dccb9ada36e8c314925f1203139937a16221fec9a274056469b2c01fc1b7f252751a7e5bdcf4d1e329d0f78793dd69fda475e34e034bf495608a9b32012cd8462000493565b6200f8fd615de08801357f0f22e5e8796b502c7d943fed04d06a9c258ab6dc1f53f57e4c79469a5331bf7e7f21df5335c1500f6533ccebdc24c692302812e5bea1db282b47744eb4c0448c788462000493565b6200f950615e008801357f18c3b2c70cfa3448b37b8e0a387a67147358bdcdc5261209ba5eb489e6730c697f29058b2fe9fa2df23612edf4deba774b9d9666d1da0ed0ad5b2699736f261b7b8462000493565b6200f9a3615e208801357f27be4e3a534a29e002a27b34d4cc90c608cd4ada92b6fdc7ef5b017cc1f1184b7f2c59712ae5c1b2436bf6ab893ac1db26e1e6eefce3451d7569c23870cabc77228462000493565b6200f9f6615e408801357f1f68ec2ace005ce0006033e2c94849d03cfa847f99d8e4a3e07e7219ca5a4e8a7f2a5050e6ae579a9362d52b0e42c674c125f4d8e527f18cb32dbbf89632f3e8378462000493565b6200fa49615e608801357f16e8639c341c671c96c1c2a13763da53a8f1a1071e14c9255e9defd5238b071b7f14e3571ea41be2e13d860ef4e71cda1dabd4238ef92b91bc09c6a95ba4070a948462000493565b6200fa9c615e808801357f1606202918383cf8e64be4cfe8611ccc47c32bebb96f3c8a2ff7a6572ae97f837f11d672c85084e927c672e5b5db2435751e787cc2d589aa3ba7867605bf1581258462000493565b6200faef615ea08801357f0f3f795577025c3ba40e419543e209117710d2ac4dfedb23e717ca1ab8adcce27f2bacd77029aba58da9ff5989c1739ef0a5ee7e25648d3980f5152eaded357ba78462000493565b6200fb42615ec08801357f1a4187d18a11455bff6c432d65bdc04d6ac285e05c578d6dfa42c3b5eddb3c0e7f22f8d0cf37bd7f7f8151be2ad6a00e8860e71831eca245d5a503241375f4f1f28462000493565b6200fb95615ee08801357f183d6cf8f6f2b307cd236369c4b692da191142ef929f3441767f96988eb117797f05f1007952134051caa2ee9143021ac40ae297490b2c3094a557f73c4b745f178462000493565b6200fbe8615f008801357f1a0bab327a842c07c5aaab9af28ae302bd589c5919f896eb688533cc1e4451637f2d9bf5476b8e91bf1ac049a322dc877a61e4729e1dd059e31bf6eb6b94282e4b8462000493565b6200fc3b615f208801357f03005b26050822f453103db008592780591eda2d62acbd484c53274908ac816f7f269aa171ead9f48a28fa2c078244f0ebfb161ecd16aa97a9ba957c77d4d91a0b8462000493565b6200fc8e615f408801357f2a8486f6e758d2f3353bef598127da92ff1a2a1cfedb0c19b1c236082e0b68397f19dde8fc0c10a3b1bc147cf8ffffa268dce56fc858fcf136e5b827d9d318d0c68462000493565b6200fce1615f608801357f13ac7c384116fc1704b821a6b2661222d8cabc3e2955ba619934ee03d5490d3f7f187fdff59f44b4cdc022b37907ad91f6ea8521e61b1efe3045f3762b6b46d8f18462000493565b6200fd34615f808801357f2d4f0cdb9b49ad19824eb0aed9ca6d2b7c0ab676c286bb2c99a97a7720bb7a287f23e38888bc48f93eb88d2d6b23340f857cd0efb9e8206eb52d108e29e443d4bb8462000493565b6200fd87615fa08801357f061a83559d89e34bbede2e43931925021729271a919cd864ac106a7dbb7011047f144acbbf6ec502261dfe84a3d163dece56ec5cc6380348900a4b8e2fe925cc828462000493565b6200fdda615fc08801357f25d03895f8f28d94f8f9697afd2121edb0d9df5738732f7eb8227ee3b06238747f1d1bc1c14738f818823cea5ff1984bf8576ec48661eded21ad475024678b0c448462000493565b6200fe2d615fe08801357f28dc54a755d9391d478a4a686da45de36d984c1c4f3eff79dd392aa56a812c667f22e83f887137b85280a31307f78e6cabc38f61bb12048b5122b5ed6d7668e4f28462000493565b6200fe806160008801357f2e18d63afc0ec5e5bb96b6059899152ed633aba718f187795e0c00f35104e0287f0a3df1b043b138b48136471f93081517e9b82d88021ddf77b231b869dc2b61bb8462000493565b6200fed26160208801357e326bcae3d11bd3147dcf7dad7f911a82dd660a03767e360d7755435241e4757f1de3bd099c0e246a682b4b7dd3c989c400d259131e76313f81ee8ed53452fa3c8462000493565b6200ff256160408801357f23ef5c5103552f9adf96e284916ee9be5bc7d517300192c02fffd6211186bb6f7f0ea4434e204e588c53c1da22286e0f49f87cb9ab1c3bc410ecd57606db2aa6cd8462000493565b6200ff786160608801357f117fa79e2144662b31ec82cd05305f0d706b614ab8be99df0d94c81312603ee17f068413bbba812cdad2044c88c048293e0361d4e653715aadd44782888fe6d6668462000493565b6200ffcb6160808801357f1189cab3fe19874e2d2dcd4539f60fb2f87d16a474e6ca7f97b5954fde3dd15e7f17b0430a3c8645566b1a42a9c464985e4965102c65bc50d035905b75ff14539d8462000493565b6201001e6160a08801357f1d9b0f4512e066a96f55e4a39b150198441b1f7877b67d7707741d2701c46c757f052c660b6a90e55f56da5bb02651ce40071548658e5191ff7e63ea88b52b1dc68462000493565b620100716160c08801357f25a4b74f98c817bb1d64ade9eb04e35015b2f78b77023208fab15e313a95f1287f2669b18e6a3de48fab9c4ed86c1418431a47d057b23bcdc62cb4c1ae7b58d64b8462000493565b620100c46160e08801357f09e29d9ebc866be56fd69f0b60c77b78044573eb4db7b9d10eb296761e8abc357f0a42d7c3051b78c1edca5e8e050daa25c7a656fb8629a1fefee1b73b843a1a458462000493565b620101176161008801357f2f402a278c65e69244bca7bad97af5941b1788206a5bd8ffaae427173d0a490d7f281aa00da44ba5521e03d69d4cc3c9b58cdaaeb44087aea53735b1f1fb64ecd08462000493565b6201016a6161208801357f25482b41054821eb86da39862e8c4b99db780d5c0eaa093218d85b6cfd80a7397f14e4d2daa09712bedf7ca59963d36c279330cc5dfc77811caa1b5a3eb97ab4428462000493565b620101bd6161408801357f0ac668c386d2c4dbbe086b1bd5ef30ef917502795c80e611ef170d1a6bf7fd1f7f0964718f6412dffeb88815625f0ea7ace4b507a4c19cc1c34cf521bb1ff5024e8462000493565b620102106161608801357f1e207b36040f537d14104611d15482c7d3647e8004d42dfeebd180bd6c30c35e7f1c413e4123f1b8e1364a589962001fe13d4fea6dca230de83b396105b5bb4ef88462000493565b620102626161808801357e483560079c44f59e4c7786d7023bc8d02196fba0a681f47d6d8c7a64196a157f261651300af17016e39e181f0fe99718cef7605071350295bb86933d094f07b48462000493565b620102b56161a08801357f2fa48f532b3a66644f6d9c0bf5450ce04d5dcd64caa538d268384bb952659ba47f2917a89e179f017027a62e2fd70b1abd8d171c547a6fe6a7063413f2537cacfd8462000493565b620103086161c08801357f2dab99498d86d4eb208e1cf51789672e3bce52c0c525c89688b3703141691a0e7f2a012cc1e128b13d98f4f61e960b060317709d00781041f30bc256c30d542c208462000493565b6201035b6161e08801357f110bd7c104fe698b09386764399895cc9a211f551d6819f2ee37d2dc4362b49b7f111fd01fdab7094986ac1f76047b1ed88da982e47fba5ea380a29ff8e28eca658462000493565b620103ae6162008801357f173db53be2f4694100a1f38655f021e1cf6bf37fa9eceadefe3479d8df7b0c717f1ee81b9ce246af2fcdcb182b852427d8504c90bdb75f56bfa9e8261b2be6bfa08462000493565b620104016162208801357f12ef3fb7771edb87200489480c8d34ec8f5415f18fa34422114ffc4893bc0a247f0349288193ecc4928d65fd5b94ff66a84fb070a2ea41909e4f3e49e7a9bbf0dd8462000493565b620104546162408801357f228c70d55ca19801e72aee62f76d5507dfad61667d54ee338a8233f05daf2eed7f08ef61d9083e24d8dcf042678421cd56bd4d0e3878d68d0c676fb6986c1bfad88462000493565b620104a76162608801357f2c62aca02e7cd21c42f2b75a5c2586af315465b2cd7a18f8327ebd9cd3d5f69f7f0f6cda7156e6103f6480a7a2dab2c065d362a3130958369bafccdc7405cb2d348462000493565b620104fa6162808801357f0db728f709ed4f691a501c0da7bdd1f151ea61eb92eacea75bf977a65647ae6d7f2edb316ac2977300f5664517a6edd59a8e905d2fadcc618dc2b6496405aa3d248462000493565b6201054d6162a08801357f041e3a8e593a3c53230e82649631f6322d527f591c3bd867396064f9e993be177f0c96514e26a94de6d6426de4ff0f0426d7fde57c2a404847dee7900dda018fb28462000493565b620105a06162c08801357f071a9ec86aebb1c05ec2285f21bf9d311916f6c1746e9890a80e0d26636e47337f284e5a2f29d9f22f20171779a8dffdd3d43691c2f73aeaf2d23cdd78b0d456638462000493565b620105f36162e08801357f145d98cb9c9ba5946042cbfbf0c8b4caa72517ee3c1cc48b0cfd4bc6cff6378b7f240f52c4589279b2723ad318970f7c4478924424b68f2d79b09e552b04bd2dd48462000493565b620106466163008801357f0cbfcdf439261d56325c156c013f1f1ab7c28bc3b42e0d33a3d82e14de523b6b7f2d44da77a60fd6586bcac3f4ecb6fb3f1441d0a2c70ee4757f85a97b5e6780068462000493565b620106996163208801357f302e4c85ef69fdcbab66b360790877dd553670a3c40b944cfb6615e1fdf1dc8e7f0dfe84b584e4ed53636baacc2c57aca8d9b22c284dee9bf94465b8fa744504338462000493565b620106ec6163408801357f1ebca52920a3f6f2c30c529e3c1aedfbd4e4b42cc9690ef5e6baff0458b45cb07f1d0e3dcc01b73f7ce693b69f7a336cfe73b4cd3f59361be66f65603e892c57fa8462000493565b6201073f6163608801357f057ede4707996c546d351e93805ee86e28f542f75279ea6ea0fa1dfb453ca6cc7f05a577477e7547023060fb68a2ddfc8445d6f5e1c421710b6b3de4bf6b1d28f98462000493565b620107926163808801357f150a5123b8446b44347f96933223a1f8f8acedb85e8e2026f729d39097819a5b7f122b507614261e7ae2be915ef393ae14d39e62f7409bd729112526c84685dfbb8462000493565b620107e56163a08801357f108ce457529463cf8c20fef66a8eef5d633ff4532b8f30bc59d2add20acead747f05b9840be4e125723714e42ac010fe15241feae9cb41e9e98d947b4102d17e088462000493565b620108386163c08801357f107af352c47abe59857319b92233efc52590e9181139f54fdec8246ce9faefc67f2dfc36e9d057100d03d716c58a61592da24770f64e75d3627421db64d527f1278462000493565b6201088a6163e08801357f239d0a4c1b128e4fab6b28b06ce702de692e29a64de532bde373796df290029a7e9bd0aa5a73b3f4e21ac11031ddf9ecdabf769f3ef7c140d27bf0a7889b52df8462000493565b620108dd6164008801357f2e01d76fa5521f037ef621b0e05b48281c6049e6bb606d6e034959ed305fa5287f27cbd6b73b4d40ab55b75a652d68835044dd69d051504342086e4c51374accb68462000493565b620109306164208801357f1d23941d59e01a771e5bfc3030331a69c342a99323156190b8fc39f01f8734387f04f23f863288e132bdc8a12880a3fa1539ab4e1d8f4768da372ebabd7c1c4d868462000493565b620109836164408801357f1096e57be82281fcbe25349c1a97cb5260ebb0df8f649f3ed58728ec07b0f8c07f0f8c7bd851c2663a51dfbb821d74b27eaa208b30497d91e9acfa73c713c6a2528462000493565b620109d66164608801357f2a42b7fc0d7acf6331098d8f92690f17e90b0b798495d1ab39b23c0a8e6b70f27f2eb36f01cc1926449c710e4684cb42d817b132225a4600cc39f57889d714707e8462000493565b62010a296164808801357f1aaffbce21208d359645aefd043d4667d318278d9086b6a969a3ada36817b38f7f08f1fda8e3f13450e72404a297df86c04dd1891d6fd66abeb6dcbbf099f6d8348462000493565b62010a7c6164a08801357f0e4db2347dee9bb8a1b319b7dea09075ee480868d46637b3eae00b5a91d3d5797f0cb97437b60b07cc807848b25afdce6733e31b0b44ed4bfe8934755ac22394248462000493565b62010acf6164c08801357f2e0a7c3a495f5bdbdae340aa8210fd6b00a41c408400caf115dfc6b3cf5217c87f2103a15a8004aa77edea7da6b234bd604bf619033e3da39ed9c16564a1764dfe8462000493565b62010b226164e08801357f2b65f9a1d4f06995f36a67f89be2c40a5baba2fb2cab039cb8b4b06f056569fe7f1e013833f17f1b961081a59210e4f5fb7059ed89d39de13e7d0fc99dbb7bff3a8462000493565b62010b746165008801357efde1de88f841f8bfb2d403ca3cad050fa2f2831c998937cc0becf60290a87c7f01138a5ce34e2c789e7e7e585ec5097c585bf1f22ee45eece766f0e6d1751c1a8462000493565b62010bc76165208801357f3006895ca5cc93e7f677d11beb65234a08dec313716d1fa0f8e5b7566b4b43e87f030cf13e24f3fac9af97b76add6bee6f222245ca831105419c2a87ac62232c598462000493565b62010c1a6165408801357f0d695710975949a334ab1332ad9f38db38a06c60560c69f7a4276ab0f88788b67f20716ecc4e913a7aca615fb5a93d2a699895b3d13e7152e6653335f766ee6dcd8462000493565b62010c6d6165608801357f03ba16a8a50ec06d51af3befd1b55564e7472db08b76eb0a0c5111ad87e53c8a7f26c45f1e1d8a3016c0097bffc4bcabea1f3c242b000b82bb51b9566ce163f38f8462000493565b62010cc06165808801357f039c31a7aaf471927959b3318ea2e5e40e9a277aa11aa11c78f988e54bf10ce37f0e436b000d8f2dc06e8c7cc3b9ddc85c14cab23b1b43c62762dd472ac8ca03758462000493565b62010d136165a08801357f0f71791201a3a26f7ed3751fded0039d5a8fe9bd26221c6601f20de8c5b1b2107f287d81a4d3fd0f2f9ccd55d4388dbac4ef2ec1dfed63a067100e8c01371e97948462000493565b62010d666165c08801357f2ce59f5d691d4f53e46398d250487f32b52520ecc37e7f42278b040669ca4f257f15da182b90037eed734f155050930dda7a5e0cca92ac88dd6d5d60de7fddd05c8462000493565b62010db96165e08801357f0bac9bc056de23db0a1b6f9baaac6cd1dbb70b1d73c9ad796a5eabee0e143a1f7f03bf4555d7aa8a73c8329ca1b9604d1bae05b002e4d4811252463cb80ff8514d8462000493565b62010e0c6166008801357f0ed96b34608e6a323242b9db7af1b38e1d1c57081b4afe67e976bee6b08bd8267f0938daa829b4e7a3f258842bda5c0fba07d6dbc1eb5524783394a3e9c858e97f8462000493565b62010e5f6166208801357f115643e21ed3f56445ce119e4b4814b36dbce7664bd500d989256ec11d1819ca7f22f421157fbd8674d4cb04d262ed19c4dbe4e2d8ed8b602db05c43e168e05f3f8462000493565b62010eb26166408801357f19396d38b246094234f720c678a56b84ea6209e36d32b4dca49347e6a9ae006e7f050e7b91ddebf89971c8bca1c439f6d3ecf1060fc8902b504cca962c1892de028462000493565b62010f056166608801357f19dd2cc04770943008bfc9e115a8ab5aedecbb39a1b6b32d55b79ebe9970bc477f028ca8d8ec071ae0364a3f379e78baf8ec8c91282d2749c9926a04ba35fc097e8462000493565b62010f586166808801357f0839362812384abd3f473e15489c89f09b8fcec297a8562aafc82f055a95723f7f1eec6ede7580d9890ae54aecf53d026116a9e60b17831480ec538ee96810efac8462000493565b62010fab6166a08801357f1c5a15fc98eee07faa603ddcef7420d7f40ba27f9a4e2a67e49aa669e0cd33cf7f0f49dd18d6314af2b8b7928984c5b4f3c0f4b591c0865bea10df0e734729aef98462000493565b62010ffe6166c08801357f1893133476cecc1bc87f173baceee1097317e2b1f58628821c5b61afa3851d2c7f22286682c6c7eb290c452860a89bddcbfd1e5c6225ddd2a5e2ecb063805f95818462000493565b620110516166e08801357f153d1ab630b2fff514317add60de05494720e53c3664f382b6d37f6aed1ab5e07f28bc9a47248b9c74214dc55d021dca0a0fb02714df4ec8a42f70d99336aac9088462000493565b620110a46167008801357f27d59887b6fe8d8164e0a0c064c1697e6a694f7b6f6cc1682f73790533cb56097f14f145437329f513bd982a8c87d9071101c0b94fa93a8f9c956f387b33a130df8462000493565b620110f76167208801357f1bc4ca893aa83f37e78f7e2cb0855e0fd44fdb8734347e21ebab2f6cc1a0b5627f0ac404d8113077384ad328600220cd29a7c9100fcdc350fde486bd5b0bd19e248462000493565b6201114a6167408801357f292a8c13a23a6abdca9002755a9422a3e4263b8936efce78c96b36d08152a6617f24ceb012b0ae2b7f1e5e38c6b64e38f10c7d349c2b207098b3f69e6577b7fcda8462000493565b6201119d6167608801357f2e9a491558b13ef5607abc1c6693df052ef5eba8b0dfac62199c1400849c86487f0630342292ce4ae390d413491f0f8781a72fc63d5c3b8972675b36c946d8568a8462000493565b620111f06167808801357f28b15e7ec3149e5178d3d8f12c6754b94be162f60a9706a84c1945b4ecd2050a7f2069f2d9d32a4638ad1b7eb4bccbc0f67d0dee796b43e54c8d8404063d6fe5f48462000493565b620112436167a08801357f1e9f523a08b7710453bd075ef6016b328e12bfb6eb37aa364d81153e1ebcc4c97f1efd0eb06dcb05a509e47dd8e674eb370503fa286c187c0d5b22b6e3fe61b9be8462000493565b620112966167c08801357f0bb39e33572788d47001e5e981ec037a0eaeb359ef93885962055fac2ffc5f677f1825def2a4ab0d4ae15d6eeaf3455fa558b64dca4fef9712f6355c83adf52b2f8462000493565b620112e96167e08801357f2cd5c390d39a44e1892eb45e7cf0b9ea7486debebfcba078e14614f5ae8e71997f2e0235925bd5396a8b326d20b6ce931bb296b7c8887d0def3a72f4e5057a2be98462000493565b6201133c6168008801357f05c659e6b13a97d02472f49698223bbe90f8e0b5e2661a8764f7f1aaa5f135f87f02a27c6640f5e41be79d1ebfc2d54b603298ce862cf2815a3b8d216665be37d28462000493565b6201138f6168208801357f054dc59e7163bb1e690ea91d540a7555fc75f467756a02eab569c97d3761de2f7f28cc889513b66d76d7c8eeda2ffcc6e5b6790970caa5dfe794bf81f803399ccb8462000493565b620113e26168408801357f097cd09031b86d58c5a93ab4c0ef95330b1b227777832b0f434ccf4c9a09f8737f2f05c2891faa0c1cb5505635bf179c1a6822f9b9255b65a1d4502beaf827dde98462000493565b620114356168608801357f200b72403c34441e70064f7cd4657ac0227a95f888f79241fa138b6cdf0e47757f25cfb5a0e3a157d3f5aab783157fa2000a64a4e017fda8448207a5099094cc458462000493565b620114886168808801357f21a7429df50b8c783855556fb6658b70c3953555c215a8708ca4728737a986a97f11e82e609ef459a0dcfe776758d33e5b955de5a13246bf4609844dfb3d1013548462000493565b620114db6168a08801357f2a258c73d2426eb9d2e6bd03aacee42f27a391a2bd4018ded2d7759641a3749f7f118b29d08a2cb547c358a7f424e2d4af5fc7f9ffd660182978b0dcc27b7d18c28462000493565b6201152e6168c08801357f0d0c9be1bc8c92f960432f7557f3f48eba332500888b8b6589adf228328ab2867f294ac5f714c6c602074e1ff284a4aad727889c6c3a6864e0ce0c5ebf685c4f3a8462000493565b620115816168e08801357f283bc29f9cb84a1e0d7ad5bb8618672c1df342acbbcb1d70c6dd5b31dbf5fee77f0357a5acf0277e12d2120806f8a2a8c4acc1a601a8bf967bd4a32512ad1647c98462000493565b620115d46169008801357f0903c9bca5946664ee382fc5a2c6d44956cbf0d7c27e0c0a56bf05b99768abd87f27d47af58dbba63a96332518a211a3b9972f8c927248d2eed00c127485f669568462000493565b620116276169208801357f28c88cf7a9910899521e0ceb75cc06e459780a8bf38969bd1fb47485b67897c97f1440fd8a1b9155ccb038d07a4b0487e243f70ce500182f8f5e28f030b20997918462000493565b6201167a6169408801357f154cff3fefb330a4e8037a7380acd0bb1323be9d20f3e8e3fab1485d0848da8c7f0277a6384b788dc6e972bdccb4c559b499b909f426df451f3ec1f47423b1ef338462000493565b620116cd6169608801357f209ba41513109be67ca95088790a3d840e6d4e15151f0297de3af8400e11cbf27f1d2ddd11d1bc65accf9e99ba57698b47e65551b140b296f9fa7a870d6f7969808462000493565b620117206169808801357f1065692184e3b4d39109a158928b89735b48a759489046385b41b2a86f2b40857f0d8e92b855622b30a8bcde790c265fcbe41a0a3a24bb84757ed40af410b384638462000493565b620117736169a08801357f2733f361aae76b288e005a46699fd9452eb85f400e8f3fab7bfb41b673de57c07f2c264f7ff0d4a493020df992a4f61a4e244342858e84b3dec41b2b72311eed518462000493565b620117c66169c08801357f18862506c44e383910ed529d1ba341ccb6f4bb853cde55f8d970cda18bf137317f099bdedae1ff1022286bdfda742a953b28fa60307c8ec1ee8d07b32d5820e5948462000493565b620118196169e08801357f11b1a50f0dc79457d1aeae7fd9fa73d79c2de823c588df9405717faaaafffc3b7f29e6317c7e8b8b23a57898d83dc7400727a2476f88e1aee593cb9b65678c7ce38462000493565b6201186c616a008801357f2ad9d5f0d5ab1b638e5057785a03ce4be7e0e0944b15a34b03ec57c23d1e36eb7f03525686483b9f132d54b0b35f27400b0701740cbee98d11b7ea746f5e7756c88462000493565b620118bf616a208801357f0e3b5e56db8e70c705352640455732a1aabfc7cf6aa29fe17572cb6b3b22cdd87f294fda51e0983649ce2efda9d644cf23b30399a0927bfc30f790dedf3a552e378462000493565b62011912616a408801357f2c699cfb8b9abbd58a0bbc72e2d020a6534e85852f31ed65efa0a5c5fc9bd78e7f205499d01fe709699f3a9d44ae4289f91e0eada8420db400d1fed719bb1f0cc08462000493565b62011965616a608801357f2cbc9f5fd1354c643d5190653501d4c00c2d05ae6c05e3e6642d3fd334fdff467f04bac2f1c01aab26da494d6f4909cd0c151a80bce10fa625375ade9c6f5b3d538462000493565b620119b8616a808801357f2f662c752167712edcbf4f1896f63609ccf2802ca7431dec1d9cd308ba862acb7f0e96faac976eafd3c44ea75d302ba7a42ec443f6b9afdb1218b0dac5ac52757a8462000493565b62011a0b616aa08801357f27017a28c8db74f88ba49169446b08282b72ee9fd7225642eed24b3eac8b0a617f2e6daa7bd43e198497605c048ce73c08b7cb2a2c5a91694731abb347806393528462000493565b62011a5e616ac08801357f0ee8a4d4e9d3ae031b69b188e4038eb08c47f3b0c70ede4a43b29b6f59278ba47f245b3c9a92d752934ed107c8f0ca34af914e0b05ffedebf4e4dcd8943d1b2aa48462000493565b62011ab1616ae08801357f1d6188d08e92ecd1c4e593d20b75a074083b6cae7cb7c1c652c768a695b724007f03c183799b41fdcfc187f92ae4f3a56ffe3b193e9c73f5b4deef56e7ede3ab768462000493565b62011b04616b008801357f2142ba29ff6ae79d9e14fac7126aae4dbe1373faa1e99fb631940e1752da56717f1af6c838c80180a7213749141ed7a910568dcaf9b987a5106827aae633cdd9ee8462000493565b62011b57616b208801357f1c7c939417ce05ae440bb8424177dbc279df7a1473b8369baabfd79c7015b17b7f303328b9c4c371ca028f052a9eb3b4b4b9a91908fd3c27bde43c1fff064306e98462000493565b62011baa616b408801357f1aec316bb7bbfa4128d5464595830b1b3d629040cf6bbf8f9815e7b09bf2fc927f07d8810a6ed869c40d1ae2fa3f65b002e709cf44242ac89c341bd48d14c7afae8462000493565b62011bfd616b608801357f090dcde4d34a3f1ee4639665776765e05508edd91bf410114d4812b3be3c27397f20545624c874a2e00e47e2e3cdae881ec1df428949ac4c6dc88a5947d239b88f8462000493565b62011c50616b808801357f0bc45c77e3331960e3d8087f9c72bbcdcfae9bd239bb0fe61554f102fab3c82d7f130a653a4dc49ad99f8921e9b9e6de66a4b39e2d2e0233e205f0025aabf500aa8462000493565b62011ca3616ba08801357f19b4330c33efa0a3eac3b9f649d82327b260bd4120d1a28614afdd7218bf94e67f1ea9e42646399566d739d2e8ace59c8786175af0a11f2f2ce6b431eac26544508462000493565b62011cf6616bc08801357f151e25b903e3d3fc968c1190887bb0a617f7ebad2aebc89d88c52e6b95dcf0437f21ba4f7aa6da84998c410de4e3d6b153f262c2d34e98b9c0b73f89a93dcd7f518462000493565b62011d49616be08801357f1a32199cc84ff2f6f07b35608c831a8f3ce6a9fbcbebe05ea9d0697eea08ee967f094f9b3bc20473356b2f5985df06dc147a1f5ca78c4bdd8737c894d90778a0448462000493565b62011d9c616c008801357f1bffd443724b4a53e56d1cee8b4d2177a69ac8e1ae2da629c3528c8a993671c57f0f4b393afedfed93fe72dc9f78fd87f3f95519691608845101fc8c76b8496e778462000493565b62011dee616c208801357ef26ab1e8ae6e32ae0584e2f8cdc5824872dbe5e0623b69349f4c2033718fee7f1496f5d7481c207c69dc713614a2934039140f73006f6aa8b1835f4f0fadd5928462000493565b62011e41616c408801357f23f5cea6c007a3447c8d6321371c4fc5c74f28f25ea2319accc45fe7d32fc6997f0b6414a3f5d7aeb925537fc63fc7989b5e015fdf96d5bc0971dcbaefe30c77f28462000493565b62011e94616c608801357f0a830af289275104bde889b3a79c9fd08ab63f59602a248ce5966be22fee477c7f16a331a368b3cfd177e8b7d37740b8880a0c632c8b555d316f1e3e78261c93058462000493565b62011ee7616c808801357f18ae46982b9c453980aae10ee0401716fe97ce5476a5e3dac909f5f834ed160d7f258568de440a5adcdbe80a4959abc6bc701a52b3b430d269936bf722f882d8ea8462000493565b62011f3a616ca08801357f253519b05d807f05030d6d5be8550ce2ac2ad1cb20b302c4979d37b5891411247f13265f0bcfb8e68095a23c714748029b7d52c5c3327b4ec96822f16d96640bfd8462000493565b62011f8d616cc08801357f0b86437bad05a53f6e9d1b5cd41984474d455bb885656bfa9befc686b49beeb67f08ef7fdaa5b4c4321861b4e17ce87740a0a5357735ed453872609fb5732dd4ce8462000493565b62011fe0616ce08801357f1c9ce1a50a5d8d4e2499c067b74e4117a5be34e2d2f1cf2439b3cedea7e3caa97f1e317f875570eb6fa3129ea9d7a1cccd42baa07128ca1b6a6d0d79ecceb551628462000493565b62012033616d008801357f0c4070eaae70b0ec964ac3532c674782efc48cf1a3952b1c6e54a6bc572824217f0a3dd96f1b0a32c16cbbf334d665df9b0252cafa714484548a8ef1f73e6da46e8462000493565b62012086616d208801357f0eb46d87f502ff46fb939e14f60d442cdd2e31ae0fc847dffa6d4ab53cfbbee97f1d015907b7a15d632371f9e102193fff3cea3900e0fe91019b235f36e6401f088462000493565b620120d9616d408801357f04c4ecdff8e0dbe3f579e06f6a03e729bab2144900cc2115f0acab6260b006ac7f25352a1a09fee2564f4536ca4cb2eaea6460e6b05fe4484e5c5a6507141ee70b8462000493565b6201212c616d608801357f2de4e26e7cf47f5fe5c6be8f449d237823dc5dba46c63de6f1d9b0e375425aa67f271e70f5b73e3f5b81e350651fce8aae68cd510029611849ff6472346942775c8462000493565b6201217f616d808801357f0bd4de0fbdeb9626ed1c1539927594de410aa932fe1c7db4b4ea2c259059b7017f101413cc15097d910c6c4594031efd1509cb9dadfe34d904ad78195f60a8f3dc8462000493565b620121d2616da08801357f1768b3229dfdc446e67745798557c4eb045a60a4a89e167e9222d22b63a70c2f7f0376565d7ec25053fd94cc193c3ffbc636830b814beb4aac40da914a372b46cd8462000493565b62012225616dc08801357f21e6bf0eae4d8a424f1d397259308176c91e24f0a3fb2a378faa1a922aa5e41c7f1eb55619406258909ca36fc5103f6cf1c955e081056e4f038fff46e26c81620f8462000493565b62012278616de08801357f2fc40e62fbf4127d3a3ef269508bed6635fe951e19d41f6f851432a9edf387e57f0a5a418a5474db87c3028bffd247e7f6ab1d598baffb7fdccb8ae106d25f15778462000493565b620122cb616e008801357f275a7b21be98ace9135236a96eb3dc79bc84db46a7f73a0ecadf49303256d66c7f0e73886d4de5c4766c6680da6dc2eecbac5b02ca0d78174b04f328b3a9d05f098462000493565b6201231e616e208801357f139bd3562cd08eee53c343af2ed2bcc67249fe7bcd19d7c584016d1c780321ff7f0d61f2cd6312ee69c060648577c26542fe7483592eef10513039f314073cd0498462000493565b62012371616e408801357f2242b477fe3ae6fb1888596ed07a89ee22f124060252c2a3a8ec8798cbe3b1e07f2cff491fe364c3b927477e294027807a3f021bf7b2bc3e7bf09ad2bc27d438db8462000493565b620123c4616e608801357f153343815cc36f30f550adc8a08f5432c0098d956dd8a2d5ce94e80810644a087f2c5716748b608f6475befe122732b87cddea026d874b7140fa64818ef69bfccf8462000493565b62012417616e808801357f167060f46ad78fc529662abf9aeb9474a4236d81895699c2354379c5a3b1d6f57f1fe0d01ac36525bdc92270540a41bf5c1faa0e2f9096741996f05906fc31218a8462000493565b6201246a616ea08801357f13794553fcf75a52636085d98f677c38b580306c771ee964dfb4be767a265cb57f0c87760d201003023bd74481ddfbac01f3741d9403d46ae4958aad9e15e05d9f8462000493565b620124bd616ec08801357f0ed5b6a57df82804619d68d260ecce7e08ef227b5d0f0cb03cafba4ef1d5db277f177dca51005d37cdd4c2590d95e4d830eb67b0117c6ae317721442e20cc2091c8462000493565b62012510616ee08801357f2d220080e6ddf13720db93fd1251cf7ba528995b29ac52b610d639906e8734497f0eed30b3fdc4dae6db675b9adf40e3adfc96b571bba96eb18874699931126f108462000493565b62012563616f008801357f2e1b98ef23f0d5c97c834e1fecb256b9a41de363605a117039bf54f5c2c948ed7f10bcd25c7828a973ce77035c314d46b76f47bf766e646409ff8be009400be6598462000493565b620125b6616f208801357f15733ddbfdc13913be3dd30f6f04d5b7b8ff3d29f4249f04519e486261fb61ef7f1133b2b5a3c0d8ac4f83d55d5087108b8768ee4388af9a9877e8f3237e87c5cd8462000493565b62012609616f408801357f2e85bf6ffcae37360b6934e68cf11535c14ae64ed3151534956821f06bf588b77f06ed982ad4f16fddeb5eb305bb428cf21558d8e1be610f8797fe8d82a0e807b98462000493565b6201265c616f608801357f2f58b0bbc1f2525792f6ceb3850a6d3287ea47d2aa32f5c0f8091016766f71ea7f21df6430c8c1b073f2c0cb03799d30ecb41e8635892912fbe7522f26dd8385758462000493565b620126af616f808801357f0d43e1782f2552eee18897ac29dc65463ab92ea1556a22ee64c5d5067a0866917f165b60e2d91808a5bdf53307b5ff92d478058089aaffe3bbd65e7cef22e8210a8462000493565b62012702616fa08801357f23440e3c3daa233d5dfd0b4a4cf7b93b31ca0e08008fbcacce31b51f1c98a5bf7f08d22650f780bb3a9ab4af1f3c05d82bac9841bcf3baab5bbe6c7730fd71219f8462000493565b62012755616fc08801357f093dba78c9a77a174b6b00b2b2eec60d11ac127a36d942e0408017224d53d3ff7f25610f3f23133f50decf381ef95b8fc93596f5e05eec4fabd1ee5b1850b9c8ab8462000493565b620127a8616fe08801357f15cf0e10fc24b41e41bb4a95eb2f2942dca43c5d15977b926e5adc8703318fd47f1a1b5307f6fd3d21bd613bd1fa92fbb6b09f1c45190951305889f8e9bdb4a3dd8462000493565b620127fb6170008801357f2bfc4eae4168e6afb770fcb2d0f91187387d4e49e40a60f5fef40b0b3a7f22c47f104a6e9913afcb2e876ede184aea69f4528c536b744464a624a7e6a50a26a6f68462000493565b6201284e6170208801357f04e3d58b2dcda5917353dfd3a2d26909c8aa8e499f1a216908ba33f81a04c6c37f2293a4d826cf9cc5c3099ba57f1158374ec4411544be2959d2e7a125d80517fd8462000493565b620128a16170408801357f087acdc6ffdfe7e6107f1cfb7f48bd1fcdf1c696fc76f2b4223a50f07c8543297f2c65ecd6f1a2ac521b6c2582ea991cd3611a474337b0f71a8b2fde7eb50367df8462000493565b620128f46170608801357f225a63d5422497d5223784f29300fbd1068c5f3237e70f18a026eacb758c69877f2833858f8ad0dca42c8b595a0a0846eacf185f0a2e5b6e9ef3ba197d6965343b8462000493565b620129476170808801357f0a5f9419d491c47f81b0bcda6e887bec07d17f5374dea6b567ff880050864e2f7f0a596876c00efa793ba0cf214d15f021577c460b88ab3291421a8f56bdeefed98462000493565b6201299a6170a08801357f2e8ff6639c30c22f244d7d12c7c45af1303036affe714e949f2c8568dd5cb70a7f09ca593f22100566a0ed83032511eaafcfb334b9583e19b3a0aeefff74d40a358462000493565b620129ed6170c08801357f0c424cb4b24732548be104590beccf0f31cbfd694f5fb665b0851b6ba2d090777f0288417d5bd3f76e7e597886365b8d9bbe2004fdb30a404b664d442befff090b8462000493565b62012a406170e08801357f0adcd41fc514842a6f3add025cd5b12189a2a9274c2c3ff92b09fbbfb43464877f0788865ed1364050ff76635abf9157e93f1865ce646d6ca7222fce173dbaad638462000493565b62012a936171008801357f27b3858b5ca1a52cd37585b5d871fb7a3f84f63d7623422eda279da35056a24b7f143a2f6b3ea741acb6bbc68b47e0d54839f4a0b5d8eb695b7ff14221eb5bb7e08462000493565b62012ae66171208801357f2cfa8b00fce45dc6ab5073cce7c446eeee3a5c668173330c93d52e9da25918537f2770fbfca12d08fd5724c269fd2178ba836d4c4f5237cb4aaa2e2f2dadc6b5778462000493565b62012b396171408801357f20b886c2df34a7b9ee1f2704a3646a6bc3843d95fc40bf4ccf9f898d50ccfd7c7f1a11ae8ed216aad32b6ea317e6290474f4596f9e669fec6975b4814dff49142a8462000493565b62012b8c6171608801357f0d0da8757d56c78c5adaa91e8605b0fa4efc365d326efa8bab60d89adf5373d37f1225be122ad20cbc82e013b7727455d38972bf4d5fa8cc3d7070d016226813be8462000493565b62012bdf6171808801357f1c451922908f392de57702dd1856f40b9be751ab189968cd63ff6a39cd23e9f77f2529852aa448aaa1bfcbf9a1ccf4fdcb5684a8a1fd771a00997b91605f91140a8462000493565b62012c326171a08801357f1e0f3b9f9d59bb075913f9d92b75b0118b9779bc13d901498f1b3388065078717f06a89f495cb9e95e15c50e35b36e736f77a822d53e80c07e38a7802b07273af18462000493565b62012c856171c08801357f1d4f34b4dde8598fcad27b5783fc4b7b5efccebc7a4b3a35311e75cbbfbac10b7f2cf062980e3a821d8bc628992feb00c5927075d844ea2af0876c30de0fca83ea8462000493565b62012cd86171e08801357f2632021c1a666a3a855d52052ea5614e917ee4a4f82dd6ec1822715dbf83aabb7f0ddca38efbd3bfaacbc5ccca66dac19ca3638f6af570ef08c777506eb8bd06248462000493565b62012d2b6172008801357f110741f941eaff922ec4f606f411159e8813a52f177059e31371c7a46df6def97f1a118db8bd8a511d2974836ff85e1482519cd5a0155401ede5a4e4f35179b98f8462000493565b62012d7e6172208801357f2333582e78cd30b829f017b74a7ad6a655123226b7b081e3c826b380f41217387f1cb95093955ae3f82aa9f51203f1b9910b2dd39345f2c2436aac32c38ee177488462000493565b62012dd16172408801357f07a105ef139a891f3766aef26c5cccd46127a8ba7cce2b3ede06d1786116f6fc7f14ea37cada5ab97e2a13e470ef507ae28ce168d457ae6869d24b4f1d07cfe17b8462000493565b62012e246172608801357f2a21ff8b07cf21cf12f1dfa6a9bb837341f1aba151562d10f2e5697dd88a162a7f0e76fbb1344c6d0b786072e042e96b59cfe6cb769cd092bfb4550054bbfeecb48462000493565b62012e776172808801357f1a61cebd23d844f420ccaa216fa96dd3f1e0af4bdcf913553bcd9f98713b18d87f21974d53e60448a2c7721b8a5ffb17570e14706dc62f00e5808bd7a0a2cbe2688462000493565b62012eca6172a08801357f190aa377297a5d134f05361256395cf05b35fba316ff8fd380b2fe92f78d00527f238f9e300a7238c9de9d25c01371046f921d284a3e05ba1df5033aa709a0ff8f8462000493565b62012f1d6172c08801357f1519babe8ba4ce594a076dbfcc0cb40144b9224c45b906a3693d6715d124fa667f0582557f16e1970628d533660365dfcc9ed7a65c4865265632dfa310aa86622c8462000493565b62012f706172e08801357f0fba187eaf29c56d638d7cd3bba67bf108059010f8a456ad057ac4106c8534ef7f207aaf0b789826dfb987e1571c3a03e778771056d8d170126d7810fa0936cf858462000493565b62012fc36173008801357f05aa04200471f5645278fd4ea3dec877c9bc7382e12179438835fe578d3d4d317f1d8ecc38913e8bb571698b3b1f5d8d92d6131a57f1a6e391d2c43ee3b9499e9b8462000493565b620130166173208801357f198aa889861eec973d40262f606378a74affae6017913d5754b8b7dd25750c077f2565be5d9b289bfbd64c214a9a08582883b0a44b817025dda05daac0599ea69f8462000493565b620130696173408801357f0ad84d03e8b38d1ea7c23dbd8e70cf1b17ae5bebebb9d5c7a92c248e2e42dec37f0f4696bef097a162e7af3eff007d2956ffb552136f77671951296655bf83bb078462000493565b620130bc6173608801357f2f9140eb51f05cad7311fa47d104ce64777be6bbd718574d84d87a7f41c744f07f23b5be5411bc3db171d25ef6cd3c4d248e65d006aa60de3fa078875b7fd3a9678462000493565b6201310f6173808801357f1cb5763a9e33500fdf40bfa47bdbc6e5be1ef2cafbb5dc276dbf0c24ec3f74937f2e21392db41ec484b8830d643b979701ac5dbced55c7aceb359a13baaa55844d8462000493565b620131626173a08801357f117c77e8f6f76d0c91080744c848eb0ef3527ebe4c4931dce718436ab36062647f236e186cf2e8d8d5ff0451b070db70226a10ef8ae063af79426258d399e751288462000493565b620131b56173c08801357f2833fe4b5c2277b0cfe6e3a1c336c9aa89fd89a329994829c73ee92a168440797f066fae5bd8da27027bb2cd4a38d7e70c55a4caedcaa9cddcc2771d43193b05538462000493565b620132086173e08801357f2057981e9d7b3dd0ceb1a05212b3b30b0e9528db64b71adc34a1963dc7b3418c7f197e836aed5f59809e2ce8ff39440287eb4fb63421f28464f752c95f2b7935e28462000493565b6201325b6174008801357f16edd372d2e96998458260208cbcb52fc150d8faad7db6e19b0bf39f8cdc906e7f16f7f6387bb1b5c4c0daa1c0bd537e8a6d3c3a8f4a69b12eae3a36fa94ecf8138462000493565b50823581526000805160206201874083398151915260208401356000805160206201874083398151915203066020820152833560408201526020840135606082015260408401356080820152606084013560a08201527f0131a80dab89fc75407c6656580ceedaf2eb3ff35e54cd2aa05444337ac9f3c960c08201527f181e7354c1a153dae245a6a13966bb7a062640b0f40befe1f5b31072497ee47460e08201527f1d30960cd6c0cd3b2af31e94289e566c8f1aaa41b7b951be9b35f35da37d1ba96101008201527f12e8213264348ef76c5efbd88d36cfc30882c52b0d4d396a1e7f8c619e2d58006101208201527f24ce66e854fa38b4f75d08a88ae54cb681e05c07c1ae6e9b12fff89198d62bc56101408201527f2d75af09a96880ee8a301db2a4a84a0d2b86080d683bb4b97e8639244bd68f62610160820152600087015161018082015260206000018701516101a08201527f198e9393920d483a7260bfb731fb5d25f1aa493335a9e71297e485b7aef312c26101c08201527f1800deef121f1e76426a00665e5c4479674322d4f75edadd46debd5cd992f6ed6101e08201527f090689d0585ff075ec9e99ad690c3395bc4b313370b38ef355acdadcd122975b6102008201527f12c85ea5db8c6deb4aab71808dcb408fe3d1e7690c43d37b4ce6cc0166fa7daa610220820152843561024082015260208501356102608201527f1daebe6281569aab14493a6c6cf0fae07c951d14e94ad19dea8363ed862650bc6102808201527f28489133c5ae0bd9e4a4665a409ba954e4070dcf86b9dfbc04f40c0529a3a56a6102a08201527f2eac99903e0e034bb027ff02741275eb962c719cef6a433472eb46c1afa7da0f6102c08201527f2e5a791e9196238d80f766ed57cd58735380ef4994f4023ccef80a84c76cfd166102e08201526020816103008360086107d05a03fa9051169695505050505050565b60405161038081016040526201353360008401356200045e565b6201354260208401356200045e565b6201355160408401356200045e565b6201356060608401356200045e565b6201356f60808401356200045e565b6201357e60a08401356200045e565b6201358d60c08401356200045e565b6201359c60e08401356200045e565b620135ac6101008401356200045e565b620135bc6101208401356200045e565b620135cc6101408401356200045e565b620135dc6101608401356200045e565b620135ec6101808401356200045e565b620135fc6101a08401356200045e565b6201360c6101c08401356200045e565b6201361c6101e08401356200045e565b6201362c6102008401356200045e565b6201363c6102208401356200045e565b6201364c6102408401356200045e565b6201365c6102608401356200045e565b6201366c6102808401356200045e565b6201367c6102a08401356200045e565b6201368c6102c08401356200045e565b6201369c6102e08401356200045e565b620136ac6103008401356200045e565b620136bc6103208401356200045e565b620136cc6103408401356200045e565b620136dc6103608401356200045e565b620136ec6103808401356200045e565b620136fc6103a08401356200045e565b6201370c6103c08401356200045e565b6201371c6103e08401356200045e565b6201372c6104008401356200045e565b6201373c6104208401356200045e565b6201374c6104408401356200045e565b6201375c6104608401356200045e565b6201376c6104808401356200045e565b6201377c6104a08401356200045e565b6201378c6104c08401356200045e565b6201379c6104e08401356200045e565b620137ac6105008401356200045e565b620137bc6105208401356200045e565b620137cc6105408401356200045e565b620137dc6105608401356200045e565b620137ec6105808401356200045e565b620137fc6105a08401356200045e565b6201380c6105c08401356200045e565b6201381c6105e08401356200045e565b6201382c6106008401356200045e565b6201383c6106208401356200045e565b6201384c6106408401356200045e565b6201385c6106608401356200045e565b6201386c6106808401356200045e565b6201387c6106a08401356200045e565b6201388c6106c08401356200045e565b6201389c6106e08401356200045e565b620138ac6107008401356200045e565b620138bc6107208401356200045e565b620138cc6107408401356200045e565b620138dc6107608401356200045e565b620138ec6107808401356200045e565b620138fc6107a08401356200045e565b6201390c6107c08401356200045e565b6201391c6107e08401356200045e565b6201392c6108008401356200045e565b6201393c6108208401356200045e565b6201394c6108408401356200045e565b6201395c6108608401356200045e565b6201396c6108808401356200045e565b6201397c6108a08401356200045e565b6201398c6108c08401356200045e565b6201399c6108e08401356200045e565b620139ac6109008401356200045e565b620139bc6109208401356200045e565b620139cc6109408401356200045e565b620139dc6109608401356200045e565b620139ec6109808401356200045e565b620139fc6109a08401356200045e565b62013a0c6109c08401356200045e565b62013a1c6109e08401356200045e565b62013a2c610a008401356200045e565b62013a3c610a208401356200045e565b62013a4c610a408401356200045e565b62013a5c610a608401356200045e565b62013a6c610a808401356200045e565b62013a7c610aa08401356200045e565b62013a8c610ac08401356200045e565b62013a9c610ae08401356200045e565b62013aac610b008401356200045e565b62013abc610b208401356200045e565b62013acc610b408401356200045e565b62013adc610b608401356200045e565b62013aec610b808401356200045e565b62013afc610ba08401356200045e565b62013b0c610bc08401356200045e565b62013b1c610be08401356200045e565b62013b2c610c008401356200045e565b62013b3c610c208401356200045e565b62013b4c610c408401356200045e565b62013b5c610c608401356200045e565b62013b6c610c808401356200045e565b62013b7c610ca08401356200045e565b62013b8c610cc08401356200045e565b62013b9c610ce08401356200045e565b62013bac610d008401356200045e565b62013bbc610d208401356200045e565b62013bcc610d408401356200045e565b62013bdc610d608401356200045e565b62013bec610d808401356200045e565b62013bfc610da08401356200045e565b62013c0c610dc08401356200045e565b62013c1c610de08401356200045e565b62013c2c610e008401356200045e565b62013c3c610e208401356200045e565b62013c4c610e408401356200045e565b62013c5c610e608401356200045e565b62013c6c610e808401356200045e565b62013c7c610ea08401356200045e565b62013c8c610ec08401356200045e565b62013c9c610ee08401356200045e565b62013cac610f008401356200045e565b62013cbc610f208401356200045e565b62013ccc610f408401356200045e565b62013cdc610f608401356200045e565b62013cec610f808401356200045e565b62013cfc610fa08401356200045e565b62013d0c610fc08401356200045e565b62013d1c610fe08401356200045e565b62013d2c6110008401356200045e565b62013d3c6110208401356200045e565b62013d4c6110408401356200045e565b62013d5c6110608401356200045e565b62013d6c6110808401356200045e565b62013d7c6110a08401356200045e565b62013d8c6110c08401356200045e565b62013d9c6110e08401356200045e565b62013dac6111008401356200045e565b62013dbc6111208401356200045e565b62013dcc6111408401356200045e565b62013ddc6111608401356200045e565b62013dec6111808401356200045e565b62013dfc6111a08401356200045e565b62013e0c6111c08401356200045e565b62013e1c6111e08401356200045e565b62013e2c6112008401356200045e565b62013e3c6112208401356200045e565b62013e4c6112408401356200045e565b62013e5c6112608401356200045e565b62013e6c6112808401356200045e565b62013e7c6112a08401356200045e565b62013e8c6112c08401356200045e565b62013e9c6112e08401356200045e565b62013eac6113008401356200045e565b62013ebc6113208401356200045e565b62013ecc6113408401356200045e565b62013edc6113608401356200045e565b62013eec6113808401356200045e565b62013efc6113a08401356200045e565b62013f0c6113c08401356200045e565b62013f1c6113e08401356200045e565b62013f2c6114008401356200045e565b62013f3c6114208401356200045e565b62013f4c6114408401356200045e565b62013f5c6114608401356200045e565b62013f6c6114808401356200045e565b62013f7c6114a08401356200045e565b62013f8c6114c08401356200045e565b62013f9c6114e08401356200045e565b62013fac6115008401356200045e565b62013fbc6115208401356200045e565b62013fcc6115408401356200045e565b62013fdc6115608401356200045e565b62013fec6115808401356200045e565b62013ffc6115a08401356200045e565b6201400c6115c08401356200045e565b6201401c6115e08401356200045e565b6201402c6116008401356200045e565b6201403c6116208401356200045e565b6201404c6116408401356200045e565b6201405c6116608401356200045e565b6201406c6116808401356200045e565b6201407c6116a08401356200045e565b6201408c6116c08401356200045e565b6201409c6116e08401356200045e565b620140ac6117008401356200045e565b620140bc6117208401356200045e565b620140cc6117408401356200045e565b620140dc6117608401356200045e565b620140ec6117808401356200045e565b620140fc6117a08401356200045e565b6201410c6117c08401356200045e565b6201411c6117e08401356200045e565b6201412c6118008401356200045e565b6201413c6118208401356200045e565b6201414c6118408401356200045e565b6201415c6118608401356200045e565b6201416c6118808401356200045e565b6201417c6118a08401356200045e565b6201418c6118c08401356200045e565b6201419c6118e08401356200045e565b620141ac6119008401356200045e565b620141bc6119208401356200045e565b620141cc6119408401356200045e565b620141dc6119608401356200045e565b620141ec6119808401356200045e565b620141fc6119a08401356200045e565b6201420c6119c08401356200045e565b6201421c6119e08401356200045e565b6201422c611a008401356200045e565b6201423c611a208401356200045e565b6201424c611a408401356200045e565b6201425c611a608401356200045e565b6201426c611a808401356200045e565b6201427c611aa08401356200045e565b6201428c611ac08401356200045e565b6201429c611ae08401356200045e565b620142ac611b008401356200045e565b620142bc611b208401356200045e565b620142cc611b408401356200045e565b620142dc611b608401356200045e565b620142ec611b808401356200045e565b620142fc611ba08401356200045e565b6201430c611bc08401356200045e565b6201431c611be08401356200045e565b6201432c611c008401356200045e565b6201433c611c208401356200045e565b6201434c611c408401356200045e565b6201435c611c608401356200045e565b6201436c611c808401356200045e565b6201437c611ca08401356200045e565b6201438c611cc08401356200045e565b6201439c611ce08401356200045e565b620143ac611d008401356200045e565b620143bc611d208401356200045e565b620143cc611d408401356200045e565b620143dc611d608401356200045e565b620143ec611d808401356200045e565b620143fc611da08401356200045e565b6201440c611dc08401356200045e565b6201441c611de08401356200045e565b6201442c611e008401356200045e565b6201443c611e208401356200045e565b6201444c611e408401356200045e565b6201445c611e608401356200045e565b6201446c611e808401356200045e565b6201447c611ea08401356200045e565b6201448c611ec08401356200045e565b6201449c611ee08401356200045e565b620144ac611f008401356200045e565b620144bc611f208401356200045e565b620144cc611f408401356200045e565b620144dc611f608401356200045e565b620144ec611f808401356200045e565b620144fc611fa08401356200045e565b6201450c611fc08401356200045e565b6201451c611fe08401356200045e565b6201452c6120008401356200045e565b6201453c6120208401356200045e565b6201454c6120408401356200045e565b6201455c6120608401356200045e565b6201456c6120808401356200045e565b6201457c6120a08401356200045e565b6201458c6120c08401356200045e565b6201459c6120e08401356200045e565b620145ac6121008401356200045e565b620145bc6121208401356200045e565b620145cc6121408401356200045e565b620145dc6121608401356200045e565b620145ec6121808401356200045e565b620145fc6121a08401356200045e565b6201460c6121c08401356200045e565b6201461c6121e08401356200045e565b6201462c6122008401356200045e565b6201463c6122208401356200045e565b6201464c6122408401356200045e565b6201465c6122608401356200045e565b6201466c6122808401356200045e565b6201467c6122a08401356200045e565b6201468c6122c08401356200045e565b6201469c6122e08401356200045e565b620146ac6123008401356200045e565b620146bc6123208401356200045e565b620146cc6123408401356200045e565b620146dc6123608401356200045e565b620146ec6123808401356200045e565b620146fc6123a08401356200045e565b6201470c6123c08401356200045e565b6201471c6123e08401356200045e565b6201472c6124008401356200045e565b6201473c6124208401356200045e565b6201474c6124408401356200045e565b6201475c6124608401356200045e565b6201476c6124808401356200045e565b6201477c6124a08401356200045e565b6201478c6124c08401356200045e565b6201479c6124e08401356200045e565b620147ac6125008401356200045e565b620147bc6125208401356200045e565b620147cc6125408401356200045e565b620147dc6125608401356200045e565b620147ec6125808401356200045e565b620147fc6125a08401356200045e565b6201480c6125c08401356200045e565b6201481c6125e08401356200045e565b6201482c6126008401356200045e565b6201483c6126208401356200045e565b6201484c6126408401356200045e565b6201485c6126608401356200045e565b6201486c6126808401356200045e565b6201487c6126a08401356200045e565b6201488c6126c08401356200045e565b6201489c6126e08401356200045e565b620148ac6127008401356200045e565b620148bc6127208401356200045e565b620148cc6127408401356200045e565b620148dc6127608401356200045e565b620148ec6127808401356200045e565b620148fc6127a08401356200045e565b6201490c6127c08401356200045e565b6201491c6127e08401356200045e565b6201492c6128008401356200045e565b6201493c6128208401356200045e565b6201494c6128408401356200045e565b6201495c6128608401356200045e565b6201496c6128808401356200045e565b6201497c6128a08401356200045e565b6201498c6128c08401356200045e565b6201499c6128e08401356200045e565b620149ac6129008401356200045e565b620149bc6129208401356200045e565b620149cc6129408401356200045e565b620149dc6129608401356200045e565b620149ec6129808401356200045e565b620149fc6129a08401356200045e565b62014a0c6129c08401356200045e565b62014a1c6129e08401356200045e565b62014a2c612a008401356200045e565b62014a3c612a208401356200045e565b62014a4c612a408401356200045e565b62014a5c612a608401356200045e565b62014a6c612a808401356200045e565b62014a7c612aa08401356200045e565b62014a8c612ac08401356200045e565b62014a9c612ae08401356200045e565b62014aac612b008401356200045e565b62014abc612b208401356200045e565b62014acc612b408401356200045e565b62014adc612b608401356200045e565b62014aec612b808401356200045e565b62014afc612ba08401356200045e565b62014b0c612bc08401356200045e565b62014b1c612be08401356200045e565b62014b2c612c008401356200045e565b62014b3c612c208401356200045e565b62014b4c612c408401356200045e565b62014b5c612c608401356200045e565b62014b6c612c808401356200045e565b62014b7c612ca08401356200045e565b62014b8c612cc08401356200045e565b62014b9c612ce08401356200045e565b62014bac612d008401356200045e565b62014bbc612d208401356200045e565b62014bcc612d408401356200045e565b62014bdc612d608401356200045e565b62014bec612d808401356200045e565b62014bfc612da08401356200045e565b62014c0c612dc08401356200045e565b62014c1c612de08401356200045e565b62014c2c612e008401356200045e565b62014c3c612e208401356200045e565b62014c4c612e408401356200045e565b62014c5c612e608401356200045e565b62014c6c612e808401356200045e565b62014c7c612ea08401356200045e565b62014c8c612ec08401356200045e565b62014c9c612ee08401356200045e565b62014cac612f008401356200045e565b62014cbc612f208401356200045e565b62014ccc612f408401356200045e565b62014cdc612f608401356200045e565b62014cec612f808401356200045e565b62014cfc612fa08401356200045e565b62014d0c612fc08401356200045e565b62014d1c612fe08401356200045e565b62014d2c6130008401356200045e565b62014d3c6130208401356200045e565b62014d4c6130408401356200045e565b62014d5c6130608401356200045e565b62014d6c6130808401356200045e565b62014d7c6130a08401356200045e565b62014d8c6130c08401356200045e565b62014d9c6130e08401356200045e565b62014dac6131008401356200045e565b62014dbc6131208401356200045e565b62014dcc6131408401356200045e565b62014ddc6131608401356200045e565b62014dec6131808401356200045e565b62014dfc6131a08401356200045e565b62014e0c6131c08401356200045e565b62014e1c6131e08401356200045e565b62014e2c6132008401356200045e565b62014e3c6132208401356200045e565b62014e4c6132408401356200045e565b62014e5c6132608401356200045e565b62014e6c6132808401356200045e565b62014e7c6132a08401356200045e565b62014e8c6132c08401356200045e565b62014e9c6132e08401356200045e565b62014eac6133008401356200045e565b62014ebc6133208401356200045e565b62014ecc6133408401356200045e565b62014edc6133608401356200045e565b62014eec6133808401356200045e565b62014efc6133a08401356200045e565b62014f0c6133c08401356200045e565b62014f1c6133e08401356200045e565b62014f2c6134008401356200045e565b62014f3c6134208401356200045e565b62014f4c6134408401356200045e565b62014f5c6134608401356200045e565b62014f6c6134808401356200045e565b62014f7c6134a08401356200045e565b62014f8c6134c08401356200045e565b62014f9c6134e08401356200045e565b62014fac6135008401356200045e565b62014fbc6135208401356200045e565b62014fcc6135408401356200045e565b62014fdc6135608401356200045e565b62014fec6135808401356200045e565b62014ffc6135a08401356200045e565b6201500c6135c08401356200045e565b6201501c6135e08401356200045e565b6201502c6136008401356200045e565b6201503c6136208401356200045e565b6201504c6136408401356200045e565b6201505c6136608401356200045e565b6201506c6136808401356200045e565b6201507c6136a08401356200045e565b6201508c6136c08401356200045e565b6201509c6136e08401356200045e565b620150ac6137008401356200045e565b620150bc6137208401356200045e565b620150cc6137408401356200045e565b620150dc6137608401356200045e565b620150ec6137808401356200045e565b620150fc6137a08401356200045e565b6201510c6137c08401356200045e565b6201511c6137e08401356200045e565b6201512c6138008401356200045e565b6201513c6138208401356200045e565b6201514c6138408401356200045e565b6201515c6138608401356200045e565b6201516c6138808401356200045e565b6201517c6138a08401356200045e565b6201518c6138c08401356200045e565b6201519c6138e08401356200045e565b620151ac6139008401356200045e565b620151bc6139208401356200045e565b620151cc6139408401356200045e565b620151dc6139608401356200045e565b620151ec6139808401356200045e565b620151fc6139a08401356200045e565b6201520c6139c08401356200045e565b6201521c6139e08401356200045e565b6201522c613a008401356200045e565b6201523c613a208401356200045e565b6201524c613a408401356200045e565b6201525c613a608401356200045e565b6201526c613a808401356200045e565b6201527c613aa08401356200045e565b6201528c613ac08401356200045e565b6201529c613ae08401356200045e565b620152ac613b008401356200045e565b620152bc613b208401356200045e565b620152cc613b408401356200045e565b620152dc613b608401356200045e565b620152ec613b808401356200045e565b620152fc613ba08401356200045e565b6201530c613bc08401356200045e565b6201531c613be08401356200045e565b6201532c613c008401356200045e565b6201533c613c208401356200045e565b6201534c613c408401356200045e565b6201535c613c608401356200045e565b6201536c613c808401356200045e565b6201537c613ca08401356200045e565b6201538c613cc08401356200045e565b6201539c613ce08401356200045e565b620153ac613d008401356200045e565b620153bc613d208401356200045e565b620153cc613d408401356200045e565b620153dc613d608401356200045e565b620153ec613d808401356200045e565b620153fc613da08401356200045e565b6201540c613dc08401356200045e565b6201541c613de08401356200045e565b6201542c613e008401356200045e565b6201543c613e208401356200045e565b6201544c613e408401356200045e565b6201545c613e608401356200045e565b6201546c613e808401356200045e565b6201547c613ea08401356200045e565b6201548c613ec08401356200045e565b6201549c613ee08401356200045e565b620154ac613f008401356200045e565b620154bc613f208401356200045e565b620154cc613f408401356200045e565b620154dc613f608401356200045e565b620154ec613f808401356200045e565b620154fc613fa08401356200045e565b6201550c613fc08401356200045e565b6201551c613fe08401356200045e565b6201552c6140008401356200045e565b6201553c6140208401356200045e565b6201554c6140408401356200045e565b6201555c6140608401356200045e565b6201556c6140808401356200045e565b6201557c6140a08401356200045e565b6201558c6140c08401356200045e565b6201559c6140e08401356200045e565b620155ac6141008401356200045e565b620155bc6141208401356200045e565b620155cc6141408401356200045e565b620155dc6141608401356200045e565b620155ec6141808401356200045e565b620155fc6141a08401356200045e565b6201560c6141c08401356200045e565b6201561c6141e08401356200045e565b6201562c6142008401356200045e565b6201563c6142208401356200045e565b6201564c6142408401356200045e565b6201565c6142608401356200045e565b6201566c6142808401356200045e565b6201567c6142a08401356200045e565b6201568c6142c08401356200045e565b6201569c6142e08401356200045e565b620156ac6143008401356200045e565b620156bc6143208401356200045e565b620156cc6143408401356200045e565b620156dc6143608401356200045e565b620156ec6143808401356200045e565b620156fc6143a08401356200045e565b6201570c6143c08401356200045e565b6201571c6143e08401356200045e565b6201572c6144008401356200045e565b6201573c6144208401356200045e565b6201574c6144408401356200045e565b6201575c6144608401356200045e565b6201576c6144808401356200045e565b6201577c6144a08401356200045e565b6201578c6144c08401356200045e565b6201579c6144e08401356200045e565b620157ac6145008401356200045e565b620157bc6145208401356200045e565b620157cc6145408401356200045e565b620157dc6145608401356200045e565b620157ec6145808401356200045e565b620157fc6145a08401356200045e565b6201580c6145c08401356200045e565b6201581c6145e08401356200045e565b6201582c6146008401356200045e565b6201583c6146208401356200045e565b6201584c6146408401356200045e565b6201585c6146608401356200045e565b6201586c6146808401356200045e565b6201587c6146a08401356200045e565b6201588c6146c08401356200045e565b6201589c6146e08401356200045e565b620158ac6147008401356200045e565b620158bc6147208401356200045e565b620158cc6147408401356200045e565b620158dc6147608401356200045e565b620158ec6147808401356200045e565b620158fc6147a08401356200045e565b6201590c6147c08401356200045e565b6201591c6147e08401356200045e565b6201592c6148008401356200045e565b6201593c6148208401356200045e565b6201594c6148408401356200045e565b6201595c6148608401356200045e565b6201596c6148808401356200045e565b6201597c6148a08401356200045e565b6201598c6148c08401356200045e565b6201599c6148e08401356200045e565b620159ac6149008401356200045e565b620159bc6149208401356200045e565b620159cc6149408401356200045e565b620159dc6149608401356200045e565b620159ec6149808401356200045e565b620159fc6149a08401356200045e565b62015a0c6149c08401356200045e565b62015a1c6149e08401356200045e565b62015a2c614a008401356200045e565b62015a3c614a208401356200045e565b62015a4c614a408401356200045e565b62015a5c614a608401356200045e565b62015a6c614a808401356200045e565b62015a7c614aa08401356200045e565b62015a8c614ac08401356200045e565b62015a9c614ae08401356200045e565b62015aac614b008401356200045e565b62015abc614b208401356200045e565b62015acc614b408401356200045e565b62015adc614b608401356200045e565b62015aec614b808401356200045e565b62015afc614ba08401356200045e565b62015b0c614bc08401356200045e565b62015b1c614be08401356200045e565b62015b2c614c008401356200045e565b62015b3c614c208401356200045e565b62015b4c614c408401356200045e565b62015b5c614c608401356200045e565b62015b6c614c808401356200045e565b62015b7c614ca08401356200045e565b62015b8c614cc08401356200045e565b62015b9c614ce08401356200045e565b62015bac614d008401356200045e565b62015bbc614d208401356200045e565b62015bcc614d408401356200045e565b62015bdc614d608401356200045e565b62015bec614d808401356200045e565b62015bfc614da08401356200045e565b62015c0c614dc08401356200045e565b62015c1c614de08401356200045e565b62015c2c614e008401356200045e565b62015c3c614e208401356200045e565b62015c4c614e408401356200045e565b62015c5c614e608401356200045e565b62015c6c614e808401356200045e565b62015c7c614ea08401356200045e565b62015c8c614ec08401356200045e565b62015c9c614ee08401356200045e565b62015cac614f008401356200045e565b62015cbc614f208401356200045e565b62015ccc614f408401356200045e565b62015cdc614f608401356200045e565b62015cec614f808401356200045e565b62015cfc614fa08401356200045e565b62015d0c614fc08401356200045e565b62015d1c614fe08401356200045e565b62015d2c6150008401356200045e565b62015d3c6150208401356200045e565b62015d4c6150408401356200045e565b62015d5c6150608401356200045e565b62015d6c6150808401356200045e565b62015d7c6150a08401356200045e565b62015d8c6150c08401356200045e565b62015d9c6150e08401356200045e565b62015dac6151008401356200045e565b62015dbc6151208401356200045e565b62015dcc6151408401356200045e565b62015ddc6151608401356200045e565b62015dec6151808401356200045e565b62015dfc6151a08401356200045e565b62015e0c6151c08401356200045e565b62015e1c6151e08401356200045e565b62015e2c6152008401356200045e565b62015e3c6152208401356200045e565b62015e4c6152408401356200045e565b62015e5c6152608401356200045e565b62015e6c6152808401356200045e565b62015e7c6152a08401356200045e565b62015e8c6152c08401356200045e565b62015e9c6152e08401356200045e565b62015eac6153008401356200045e565b62015ebc6153208401356200045e565b62015ecc6153408401356200045e565b62015edc6153608401356200045e565b62015eec6153808401356200045e565b62015efc6153a08401356200045e565b62015f0c6153c08401356200045e565b62015f1c6153e08401356200045e565b62015f2c6154008401356200045e565b62015f3c6154208401356200045e565b62015f4c6154408401356200045e565b62015f5c6154608401356200045e565b62015f6c6154808401356200045e565b62015f7c6154a08401356200045e565b62015f8c6154c08401356200045e565b62015f9c6154e08401356200045e565b62015fac6155008401356200045e565b62015fbc6155208401356200045e565b62015fcc6155408401356200045e565b62015fdc6155608401356200045e565b62015fec6155808401356200045e565b62015ffc6155a08401356200045e565b6201600c6155c08401356200045e565b6201601c6155e08401356200045e565b6201602c6156008401356200045e565b6201603c6156208401356200045e565b6201604c6156408401356200045e565b6201605c6156608401356200045e565b6201606c6156808401356200045e565b6201607c6156a08401356200045e565b6201608c6156c08401356200045e565b6201609c6156e08401356200045e565b620160ac6157008401356200045e565b620160bc6157208401356200045e565b620160cc6157408401356200045e565b620160dc6157608401356200045e565b620160ec6157808401356200045e565b620160fc6157a08401356200045e565b6201610c6157c08401356200045e565b6201611c6157e08401356200045e565b6201612c6158008401356200045e565b6201613c6158208401356200045e565b6201614c6158408401356200045e565b6201615c6158608401356200045e565b6201616c6158808401356200045e565b6201617c6158a08401356200045e565b6201618c6158c08401356200045e565b6201619c6158e08401356200045e565b620161ac6159008401356200045e565b620161bc6159208401356200045e565b620161cc6159408401356200045e565b620161dc6159608401356200045e565b620161ec6159808401356200045e565b620161fc6159a08401356200045e565b6201620c6159c08401356200045e565b6201621c6159e08401356200045e565b6201622c615a008401356200045e565b6201623c615a208401356200045e565b6201624c615a408401356200045e565b6201625c615a608401356200045e565b6201626c615a808401356200045e565b6201627c615aa08401356200045e565b6201628c615ac08401356200045e565b6201629c615ae08401356200045e565b620162ac615b008401356200045e565b620162bc615b208401356200045e565b620162cc615b408401356200045e565b620162dc615b608401356200045e565b620162ec615b808401356200045e565b620162fc615ba08401356200045e565b6201630c615bc08401356200045e565b6201631c615be08401356200045e565b6201632c615c008401356200045e565b6201633c615c208401356200045e565b6201634c615c408401356200045e565b6201635c615c608401356200045e565b6201636c615c808401356200045e565b6201637c615ca08401356200045e565b6201638c615cc08401356200045e565b6201639c615ce08401356200045e565b620163ac615d008401356200045e565b620163bc615d208401356200045e565b620163cc615d408401356200045e565b620163dc615d608401356200045e565b620163ec615d808401356200045e565b620163fc615da08401356200045e565b6201640c615dc08401356200045e565b6201641c615de08401356200045e565b6201642c615e008401356200045e565b6201643c615e208401356200045e565b6201644c615e408401356200045e565b6201645c615e608401356200045e565b6201646c615e808401356200045e565b6201647c615ea08401356200045e565b6201648c615ec08401356200045e565b6201649c615ee08401356200045e565b620164ac615f008401356200045e565b620164bc615f208401356200045e565b620164cc615f408401356200045e565b620164dc615f608401356200045e565b620164ec615f808401356200045e565b620164fc615fa08401356200045e565b6201650c615fc08401356200045e565b6201651c615fe08401356200045e565b6201652c6160008401356200045e565b6201653c6160208401356200045e565b6201654c6160408401356200045e565b6201655c6160608401356200045e565b6201656c6160808401356200045e565b6201657c6160a08401356200045e565b6201658c6160c08401356200045e565b6201659c6160e08401356200045e565b620165ac6161008401356200045e565b620165bc6161208401356200045e565b620165cc6161408401356200045e565b620165dc6161608401356200045e565b620165ec6161808401356200045e565b620165fc6161a08401356200045e565b6201660c6161c08401356200045e565b6201661c6161e08401356200045e565b6201662c6162008401356200045e565b6201663c6162208401356200045e565b6201664c6162408401356200045e565b6201665c6162608401356200045e565b6201666c6162808401356200045e565b6201667c6162a08401356200045e565b6201668c6162c08401356200045e565b6201669c6162e08401356200045e565b620166ac6163008401356200045e565b620166bc6163208401356200045e565b620166cc6163408401356200045e565b620166dc6163608401356200045e565b620166ec6163808401356200045e565b620166fc6163a08401356200045e565b6201670c6163c08401356200045e565b6201671c6163e08401356200045e565b6201672c6164008401356200045e565b6201673c6164208401356200045e565b6201674c6164408401356200045e565b6201675c6164608401356200045e565b6201676c6164808401356200045e565b6201677c6164a08401356200045e565b6201678c6164c08401356200045e565b6201679c6164e08401356200045e565b620167ac6165008401356200045e565b620167bc6165208401356200045e565b620167cc6165408401356200045e565b620167dc6165608401356200045e565b620167ec6165808401356200045e565b620167fc6165a08401356200045e565b6201680c6165c08401356200045e565b6201681c6165e08401356200045e565b6201682c6166008401356200045e565b6201683c6166208401356200045e565b6201684c6166408401356200045e565b6201685c6166608401356200045e565b6201686c6166808401356200045e565b6201687c6166a08401356200045e565b6201688c6166c08401356200045e565b6201689c6166e08401356200045e565b620168ac6167008401356200045e565b620168bc6167208401356200045e565b620168cc6167408401356200045e565b620168dc6167608401356200045e565b620168ec6167808401356200045e565b620168fc6167a08401356200045e565b6201690c6167c08401356200045e565b6201691c6167e08401356200045e565b6201692c6168008401356200045e565b6201693c6168208401356200045e565b6201694c6168408401356200045e565b6201695c6168608401356200045e565b6201696c6168808401356200045e565b6201697c6168a08401356200045e565b6201698c6168c08401356200045e565b6201699c6168e08401356200045e565b620169ac6169008401356200045e565b620169bc6169208401356200045e565b620169cc6169408401356200045e565b620169dc6169608401356200045e565b620169ec6169808401356200045e565b620169fc6169a08401356200045e565b62016a0c6169c08401356200045e565b62016a1c6169e08401356200045e565b62016a2c616a008401356200045e565b62016a3c616a208401356200045e565b62016a4c616a408401356200045e565b62016a5c616a608401356200045e565b62016a6c616a808401356200045e565b62016a7c616aa08401356200045e565b62016a8c616ac08401356200045e565b62016a9c616ae08401356200045e565b62016aac616b008401356200045e565b62016abc616b208401356200045e565b62016acc616b408401356200045e565b62016adc616b608401356200045e565b62016aec616b808401356200045e565b62016afc616ba08401356200045e565b62016b0c616bc08401356200045e565b62016b1c616be08401356200045e565b62016b2c616c008401356200045e565b62016b3c616c208401356200045e565b62016b4c616c408401356200045e565b62016b5c616c608401356200045e565b62016b6c616c808401356200045e565b62016b7c616ca08401356200045e565b62016b8c616cc08401356200045e565b62016b9c616ce08401356200045e565b62016bac616d008401356200045e565b62016bbc616d208401356200045e565b62016bcc616d408401356200045e565b62016bdc616d608401356200045e565b62016bec616d808401356200045e565b62016bfc616da08401356200045e565b62016c0c616dc08401356200045e565b62016c1c616de08401356200045e565b62016c2c616e008401356200045e565b62016c3c616e208401356200045e565b62016c4c616e408401356200045e565b62016c5c616e608401356200045e565b62016c6c616e808401356200045e565b62016c7c616ea08401356200045e565b62016c8c616ec08401356200045e565b62016c9c616ee08401356200045e565b62016cac616f008401356200045e565b62016cbc616f208401356200045e565b62016ccc616f408401356200045e565b62016cdc616f608401356200045e565b62016cec616f808401356200045e565b62016cfc616fa08401356200045e565b62016d0c616fc08401356200045e565b62016d1c616fe08401356200045e565b62016d2c6170008401356200045e565b62016d3c6170208401356200045e565b62016d4c6170408401356200045e565b62016d5c6170608401356200045e565b62016d6c6170808401356200045e565b62016d7c6170a08401356200045e565b62016d8c6170c08401356200045e565b62016d9c6170e08401356200045e565b62016dac6171008401356200045e565b62016dbc6171208401356200045e565b62016dcc6171408401356200045e565b62016ddc6171608401356200045e565b62016dec6171808401356200045e565b62016dfc6171a08401356200045e565b62016e0c6171c08401356200045e565b62016e1c6171e08401356200045e565b62016e2c6172008401356200045e565b62016e3c6172208401356200045e565b62016e4c6172408401356200045e565b62016e5c6172608401356200045e565b62016e6c6172808401356200045e565b62016e7c6172a08401356200045e565b62016e8c6172c08401356200045e565b62016e9c6172e08401356200045e565b62016eac6173008401356200045e565b62016ebc6173208401356200045e565b62016ecc6173408401356200045e565b62016edc6173608401356200045e565b62016eec6173808401356200045e565b62016efc6173a08401356200045e565b62016f0c6173c08401356200045e565b62016f1c6173e08401356200045e565b62016f2c6174008401356200045e565b62016f3b818486888a62000500565b90508060005260206000f35b62016f5162017f90565b600062016f5f8585620175f9565b61740081019390935250909392505050565b6001600160a01b0380821660009081526002602090815260408083209386168352929052205460ff165b92915050565b62016fab620177bc565b62016fb689620177e7565b62016fd85760405163046fa7d760e41b8152600481018a905260240162000361565b60008381526004602052604090205460ff16156201700d5760405163093b5a1d60e31b81526004810184905260240162000361565b6000838152600460205260408120805460ff1916600117905580620170338a8a62017262565b92509250506000620170458262017835565b9050600060058c8c6040516201705d929190620183d0565b908152604051908190036020019020549050816201707c8683620183f6565b1115620170a05760405163f71c8e2760e01b81526004810186905260240162000361565b8460058d8d604051620170b5929190620183d0565b90815260200160405180910390206000828254620170d49190620183f6565b9250508190555060006201711f8e8e8e8080601f016020809104026020016040519081016040528093929190818152602001838380828437600092019190915250620175f992505050565b905087816103a060200201526040516306a712fb60e41b81523090636a712fb09062017156908e908e908e9087906004016201840c565b602060405180830381865afa15801562017174573d6000803e3d6000fd5b505050506040513d601f19601f820116820180604052508101906201719a919062018465565b620171b85760405163186a529960e11b815260040160405180910390fd5b6001600160a01b03851662017231576000876001600160a01b03168760405160006040518083038185875af1925050503d806000811462017216576040519150601f19603f3d011682016040523d82523d6000602084013e6201721b565b606091505b50509050806201722a57600080fd5b5062017247565b620172476001600160a01b038616888862017858565b5050505050620172576001602b55565b505050505050505050565b60008060006201727385856201788b565b9250620172818585620178a7565b91506201728f8585620178ce565b90509250925092565b6040516001600160a01b038481166024830152838116604483015260648201839052620173019186918216906323b872dd906084015b604051602081830303815290604052915060e01b6020820180516001600160e01b038381831617835250505050620178df565b50505050565b6201731d8262017317836201794d565b6201795c565b5050565b6000620173507f0000000000000000000000000000000000000000000000000000000000000000600162018489565b6027805464ffffffffff92831692169060006201736d83620184a9565b91906101000a81548164ffffffffff021916908364ffffffffff16021790555064ffffffffff1603620173d05760405162461bcd60e51b815260206004820152600a602482015269547265652046756c6c2160b01b604482015260640162000361565b602754600080805260296020527fbc72c27881d499e9ea29f42d0975d4e269d866b929e1b555435cbfe829a9d200805464ffffffffff191664ffffffffff9093169283179055835b60028364ffffffffff161062017469576201743583838362017ace565b905060026201744684600162018489565b620174529190620184e9565b925081620174608162018516565b92505062017418565b809350620174778462017e4e565b5050506028819055919050565b6000828152602081905260408120805460ff191660011790556001600160a01b0382161562017525576040516370a0823160e01b81526001600160a01b038316906370a0823190620174db9030906004016201838c565b602060405180830381865afa158015620174f9573d6000803e3d6000fd5b505050506040513d601f19601f820116820180604052508101906201751f9190620183a0565b62017527565b475b60408051606081018252338082526001600160a01b03868116602080850182815285870188815260008c81526001808552898220985189549088166001600160a01b0319918216178a55935190890180549190971693169290921790945592516002958601559082529283528381209181529152205490915060ff16620175f4576001600160a01b03821660008181526002602090815260408083203384528252808320805460ff1916600117905592825260039052908120805491620175ee836201852f565b91905055505b505050565b6201760362017f90565b600080846040516020016201761a91815260200190565b60408051601f198184030181529190529050601f5b60008160000b12620176ec5760006201766e838360ff1681518110620176595762017659620183ba565b01602001516001600160f81b03191662017eb9565b905060005b600860ff82161015620176d457818160ff1660088110620176985762017698620183ba565b6020020151868661ffff166103a18110620176b757620176b7620183ba565b602002015284620176c8816201854b565b95505060010162017673565b50508080620176e39062018566565b9150506201762f565b5060008460405160200162017702919062018588565b604051602081830303815290604052905060005b60548160ff161015620177b257600062017741838360ff1681518110620176595762017659620183ba565b905060005b600860ff82161015620177a757818160ff16600881106201776b576201776b620183ba565b6020020151878761ffff166103a181106201778a576201778a620183ba565b6020020152856201779b816201854b565b96505060010162017746565b505060010162017716565b5050505092915050565b6002602b5403620177e057604051633ee5aeb560e01b815260040160405180910390fd5b6002602b55565b6000805b602060ff821610156201782c578260078260ff1660208110620178125762017812620183ba565b015403620178235750600192915050565b600101620177eb565b50600092915050565b60008062017843836201794d565b9050620178518184620185b9565b9392505050565b6040516001600160a01b03838116602483015260448201839052620175f491859182169063a9059cbb90606401620172ce565b60006201789c6020828486620185cf565b6201785191620185fb565b6000620178b9603460208486620185cf565b620178c4916201861a565b60601c9392505050565b60006201789c8260348186620185cf565b600080602060008451602086016000885af18062017903576040513d6000823e3d81fd5b50506000513d915081156201791d5780600114156201792a565b6001600160a01b0384163b155b15620173015783604051635274afe760e01b81526004016200036191906201838c565b600062016f9b60648362018653565b600060646201796d83605a6201866a565b62017979919062018653565b90506000620179898284620185b9565b90506001600160a01b03841662017a7a5760405160009073fd5c09ed977f29f2d841351869639a86c500bfef9084908381818185875af1925050503d8060008114620179f2576040519150601f19603f3d011682016040523d82523d6000602084013e620179f7565b606091505b5050604051909150600090735f6ef81421e331f65aa3d841247927acb00df77a9084908381818185875af1925050503d806000811462017a54576040519150601f19603f3d011682016040523d82523d6000602084013e62017a59565b606091505b5050905081801562017a685750805b62017a7257600080fd5b505062017301565b62017aa46001600160a01b03851673fd5c09ed977f29f2d841351869639a86c500bfef8462017858565b620173016001600160a01b038516735f6ef81421e331f65aa3d841247927acb00df77a8362017858565b60008060008564ffffffffff1660020362017c5b5760ff85166000908152602a602052604090205462017b02908562017f3a565b604080518082018252838152602081018390529051632b0aac7f60e11b815292945090925073__$67367400603f1be6402167f5b17acfebb8$__9163561558fe9162017b519160040162018684565b602060405180830381865af415801562017b6f573d6000803e3d6000fd5b505050506040513d601f19601f8201168201806040525081019062017b959190620183a0565b925082602a600062017ba9886001620186b7565b60ff1660ff168152602001908152602001600020819055506029600086600162017bd49190620186b7565b60ff168152602081019190915260400160009081205464ffffffffff16900362017c55576029600062017c09876001620186b7565b60ff16815260208101919091526040016000908120805464ffffffffff169162017c3383620184a9565b91906101000a81548164ffffffffff021916908364ffffffffff160217905550505b62017d35565b62017c68600287620186d3565b64ffffffffff1660010362017c805783925062017d35565b60ff85166000908152602a602052604090205462017c9f908562017f3a565b604080518082018252838152602081018390529051632b0aac7f60e11b815292945090925073__$67367400603f1be6402167f5b17acfebb8$__9163561558fe9162017cee9160040162018684565b602060405180830381865af415801562017d0c573d6000803e3d6000fd5b505050506040513d601f19601f8201168201806040525081019062017d329190620183a0565b92505b8460ff1660000362017d5c5760ff85166000908152602a6020526040902084905562017e45565b60ff8516600090815260296020819052604082205464ffffffffff1691908162017d8860018a62018700565b60ff16815260208101919091526040016000205464ffffffffff1690508062017db383600162018489565b62017dc09060026201871c565b64ffffffffff160362017e425760ff87166000908152602960205260408120805464ffffffffff169162017df483620184a9565b91906101000a81548164ffffffffff021916908364ffffffffff160217905550508764ffffffffff1660021462017e2c578462017e2e565b855b60ff88166000908152602a60205260409020555b50505b50509392505050565b60065460ff16601f190162017e68576006805460ff191690555b600654819060079060ff166020811062017e865762017e86620183ba565b01556006805460ff1690600062017e9d8362018516565b91906101000a81548160ff021916908360ff1602179055505050565b62017ec362017fb0565b60005b600860ff8216101562017f345760f883901c600160ff83161b161562017f0b576001828260ff166008811062017f005762017f00620183ba565b602002015262017f2b565b6000828260ff166008811062017f255762017f25620183ba565b60200201525b60010162017ec6565b50919050565b60008082841062017f4d57828462017f50565b83835b915091505b9250929050565b6040805160c0810182526000606082018181526080830182905260a083018290528252602082018190529181019190915290565b6040518061742001604052806103a1906020820280368337509192915050565b6040518061010001604052806008906020820280368337509192915050565b60006020828403121562017fe257600080fd5b5035919050565b60008083601f84011262017ffc57600080fd5b5081356001600160401b038111156201801457600080fd5b60208301915083602082850101111562017f5557600080fd5b6000806000604084860312156201804357600080fd5b83356001600160401b038111156201805a57600080fd5b620180688682870162017fe9565b909790965060209590950135949350505050565b806040810183101562016f9b57600080fd5b806080810183101562016f9b57600080fd5b6000806000806175208587031215620180b857600080fd5b620180c486866201807c565b9350620180d586604087016201808e565b9250620180e68660c087016201807c565b91508561752086011115620180fa57600080fd5b50919490935090916101000190565b634e487b7160e01b600052604160045260246000fd5b600082601f8301126201813157600080fd5b81356001600160401b038111156201814d576201814d62018109565b604051601f8201601f19908116603f011681016001600160401b03811182821017156201817e576201817e62018109565b6040528181528382016020018510156201819757600080fd5b816020850160208301376000918101602001919091529392505050565b600060208284031215620181c757600080fd5b81356001600160401b03811115620181de57600080fd5b620181ec848285016201811f565b949350505050565b6000806000606084860312156201820a57600080fd5b8335925060208401356001600160401b038111156201822857600080fd5b62018236868287016201811f565b93969395505050506040919091013590565b8060005b6103a1811015620173015781518452602093840193909101906001016201824c565b617420810162016f9b828462018248565b80356001600160a01b03811681146201829757600080fd5b919050565b60008060408385031215620182b057600080fd5b620182bb836201827f565b9150620182cb602084016201827f565b90509250929050565b60008060008060008060008060006101a08a8c031215620182f457600080fd5b8935985060208a01356001600160401b038111156201831257600080fd5b620183208c828d0162017fe9565b90995097506201833690508b60408c016201807c565b9550620183478b60808c016201808e565b9450620183598b6101008c016201807c565b93506101408a01359250620183726101608b016201827f565b989b979a5095989497939692955090936101800135919050565b6001600160a01b0391909116815260200190565b600060208284031215620183b357600080fd5b5051919050565b634e487b7160e01b600052603260045260246000fd5b8183823760009101908152919050565b634e487b7160e01b600052601160045260246000fd5b8082018082111562016f9b5762016f9b620183e0565b61752081016040868337604082018560005b60028110156201844157604082843760409283019291909101906001016201841e565b50505060408460c08401376201845c61010083018462018248565b95945050505050565b6000602082840312156201847857600080fd5b815180151581146201785157600080fd5b64ffffffffff818116838216019081111562016f9b5762016f9b620183e0565b600064ffffffffff821664ffffffffff8103620184ca57620184ca620183e0565b60010192915050565b634e487b7160e01b600052601260045260246000fd5b600064ffffffffff831680620185035762018503620184d3565b8064ffffffffff84160491505092915050565b600060ff821660ff8103620184ca57620184ca620183e0565b600060018201620185445762018544620183e0565b5060010190565b600061ffff821661ffff8103620184ca57620184ca620183e0565b600081810b608081016201857e576201857e620183e0565b6000190192915050565b6000825160005b81811015620185ab57602081860181015185830152016201858f565b506000920191825250919050565b8181038181111562016f9b5762016f9b620183e0565b60008085851115620185e057600080fd5b83861115620185ee57600080fd5b5050820193919092039150565b8035602083101562016f9b57600019602084900360031b1b1692915050565b80356001600160601b031981169060148410156201864c576001600160601b0319601485900360031b81901b82161691505b5092915050565b600082620186655762018665620184d3565b500490565b808202811582820484141762016f9b5762016f9b620183e0565b60408101818360005b6002811015620186ae5781518352602092830192909101906001016201868d565b50505092915050565b60ff818116838216019081111562016f9b5762016f9b620183e0565b600064ffffffffff831680620186ed57620186ed620184d3565b8064ffffffffff84160691505092915050565b60ff828116828216039081111562016f9b5762016f9b620183e0565b64ffffffffff81811683821602908116908181146201864c576201864c620183e056fe30644e72e131a029b85045b68181585d97816a916871ca8d3c208c16d87cfd47a2646970667358221220777cadc23a193f27fd910417359d5e96cb0be0f60a755d571876807cf968813e64736f6c634300081c0033",
  "linkReferences": {
    "@fifteenfigures/lib/PoseidonHash.sol": {
      "PoseidonT2": [
        {
          "length": 20,
          "start": 89
        }
      ],
      "PoseidonT3": [
        {
          "length": 20,
          "start": 97528
        },
        {
          "length": 20,
          "start": 97941
        }
      ]
    }
  },
  "deployedLinkReferences": {
    "@fifteenfigures/lib/PoseidonHash.sol": {
      "PoseidonT3": [
        {
          "length": 20,
          "start": 97065
        },
        {
          "length": 20,
          "start": 97478
        }
      ]
    }
  }
}