{"src/Main.sol":{"Main":{"abi":[{"inputs":[{"internalType":"bytes32","name":"initLeaf","type":"bytes32"},{"internalType":"address","name":"_verifier","type":"address"}],"stateMutability":"nonpayable","type":"constructor"},{"inputs":[{"internalType":"uint256","name":"ethSent","type":"uint256"},{"internalType":"uint256","name":"deposit","type":"uint256"}],"name":"ETHSentLessThanDeposit","type":"error"},{"inputs":[{"internalType":"bytes32","name":"leaf","type":"bytes32"}],"name":"KeyAlreadyUsed","type":"error"},{"inputs":[{"internalType":"uint256","name":"nullifier","type":"uint256"}],"name":"NullifierUsed","type":"error"},{"inputs":[],"name":"ProofNotVerified","type":"error"},{"inputs":[],"name":"ReentrancyGuardReentrantCall","type":"error"},{"inputs":[{"internalType":"bytes32","name":"root","type":"bytes32"}],"name":"RootNotInHistory","type":"error"},{"inputs":[{"internalType":"address","name":"token","type":"address"}],"name":"SafeERC20FailedOperation","type":"error"},{"inputs":[{"internalType":"uint256","name":"withdrawal","type":"uint256"}],"name":"WithdrawalExceedsMax","type":"error"},{"anonymous":false,"inputs":[{"indexed":true,"internalType":"bytes32","name":"leaf","type":"bytes32"}],"name":"DepositAdded","type":"event"},{"inputs":[{"internalType":"bytes","name":"depositKey","type":"bytes"}],"name":"deposit","outputs":[],"stateMutability":"payable","type":"function"},{"inputs":[{"internalType":"bytes32","name":"standardizedKey","type":"bytes32"}],"name":"getDepositDelta","outputs":[{"components":[{"components":[{"internalType":"address","name":"depositor","type":"address"},{"internalType":"address","name":"asset","type":"address"},{"internalType":"uint256","name":"amountAfterDeposit","type":"uint256"}],"internalType":"struct Recorder.UserInfo","name":"info","type":"tuple"},{"internalType":"uint256","name":"uniqueDeposits","type":"uint256"},{"internalType":"uint256","name":"currentDeposit","type":"uint256"}],"internalType":"struct Recorder.DepositInfo","name":"","type":"tuple"}],"stateMutability":"view","type":"function"},{"inputs":[],"name":"getLast64Roots","outputs":[{"internalType":"bytes32[64]","name":"","type":"bytes32[64]"}],"stateMutability":"view","type":"function"},{"inputs":[],"name":"length","outputs":[{"internalType":"uint40","name":"","type":"uint40"}],"stateMutability":"view","type":"function"},{"inputs":[],"name":"root","outputs":[{"internalType":"bytes32","name":"","type":"bytes32"}],"stateMutability":"view","type":"function"},{"inputs":[{"internalType":"address","name":"user","type":"address"},{"internalType":"address","name":"asset","type":"address"}],"name":"userHasDeposited","outputs":[{"internalType":"bool","name":"","type":"bool"}],"stateMutability":"view","type":"function"},{"inputs":[{"internalType":"bytes32","name":"root","type":"bytes32"},{"internalType":"bytes","name":"withdrawalKey","type":"bytes"},{"internalType":"uint256[2]","name":"pA","type":"uint256[2]"},{"internalType":"uint256[2][2]","name":"pB","type":"uint256[2][2]"},{"internalType":"uint256[2]","name":"pC","type":"uint256[2]"},{"internalType":"uint256","name":"nullifier","type":"uint256"},{"internalType":"address","name":"recipient","type":"address"},{"internalType":"uint256","name":"amount","type":"uint256"}],"name":"withdraw","outputs":[],"stateMutability":"nonpayable","type":"function"},{"inputs":[{"internalType":"bytes","name":"withdrawalKeyHash","type":"bytes"}],"name":"withdrawals","outputs":[{"internalType":"uint256","name":"amountWithdrawn","type":"uint256"}],"stateMutability":"view","type":"function"},{"stateMutability":"payable","type":"receive"}],"evm":{"bytecode":{"linkReferences":{"@fifteenfigures/lib/PoseidonHash.sol":{"PoseidonT2":[{"length":20,"start":87}],"PoseidonT3":[{"length":20,"start":4271},{"length":20,"start":4663}]},"src/lib/PoseidonT4.sol":{"PoseidonT4":[{"length":20,"start":1386}]}},"object":"60a060405264010000000060805234801561001957600080fd5b50604051611ad1380380611ad183398101604081905261003891610180565b604080516020810182528381529051639d036e7160e01b81528391829173__$cf4de68ffd19b0b1d2943d989c0c37e50a$__91639d036e719161007e91906004016101bd565b602060405180830381865af415801561009b573d6000803e3d6000fd5b505050506040513d601f19601f820116820180604052508101906100bf91906101ee565b60485560478054600164ffffffffff19918216811790925560008080527f9a0ca60aea446f0de2b73532837f00f56d3ae047e136f7838a520755c00b6e7680549092168317909155604a6020527f5260d36d21f8359821a072aff7b4be49946e72f371a0eaed97092c5b641059e292909255604b55604c80546001600160a01b0319166001600160a01b0385161790556040518492507fb7880b10329262ba73b895beb1cc9ddfc6a99af8811c65a0d997b43fe365d4649190a25050610207565b6000806040838503121561019357600080fd5b825160208401519092506001600160a01b03811681146101b257600080fd5b809150509250929050565b60208101818360005b60018110156101e55781518352602092830192909101906001016101c6565b50505092915050565b60006020828403121561020057600080fd5b5051919050565b6080516118af610222600039600061089f01526118af6000f3fe60806040526004361061006f5760003560e01c806317933afa1461007b5780631f7b6d32146100e25780636f16f4461461011657806398b1e06a1461015c578063dc25879f14610171578063ebf0c717146101a1578063f057d3e1146101b7578063fdd4f025146101d757600080fd5b3661007657005b600080fd5b34801561008757600080fd5b5061009b610096366004611281565b6101f9565b60408051825180516001600160a01b0390811683526020808301519091168184015290830151828401528301516060820152910151608082015260a0015b60405180910390f35b3480156100ee57600080fd5b506047546101009064ffffffffff1681565b60405164ffffffffff90911681526020016100d9565b34801561012257600080fd5b5061014e6101313660046112b0565b805160208183018101805160058252928201919093012091525481565b6040519081526020016100d9565b61016f61016a3660046113a7565b6102fe565b005b34801561017d57600080fd5b5061019161018c366004611404565b6104f6565b60405190151581526020016100d9565b3480156101ad57600080fd5b5061014e60485481565b3480156101c357600080fd5b5061016f6101d2366004611448565b610526565b3480156101e357600080fd5b506101ec6107ac565b6040516100d991906114fa565b610201611210565b600082815260016020819052604090912001546001600160a01b0316610225611210565b6000848152600160208181526040808420815160608101835281546001600160a01b0390811682529482015485168185015260029091015481830152855291851680845260038252919092205491830191909152156102f0576040516370a0823160e01b81526001600160a01b038316906370a08231906102aa90309060040161152c565b602060405180830381865afa1580156102c7573d6000803e3d6000fd5b505050506040513d601f19601f820116820180604052508101906102eb9190611540565b6102f2565b475b60408201529392505050565b600080600061030d85856107e5565b604080516060810182528481526001600160a01b038416602082015280820183905290516320cf0a3760e01b8152939650919450925060009173__$b3d815f66fdc3fd247e96d393eea3510b4$__916320cf0a379161036f9190600401611559565b602060405180830381865af415801561038c573d6000803e3d6000fd5b505050506040513d601f19601f820116820180604052508101906103b09190611540565b60008181526020819052604090205490915060ff16156103eb5760405163284fe6b360e11b8152600481018290526024015b60405180910390fd5b60006001600160a01b03841661043657823410156104255760405163f231e15b60e01b8152346004820152602481018490526044016103e2565b61042f8334611597565b905061044e565b61044b6001600160a01b038516333086610815565b50345b604051600090339083908381818185875af1925050503d8060008114610490576040519150601f19603f3d011682016040523d82523d6000602084013e610495565b606091505b50509050806104a357600080fd5b6104ad8585610882565b6104b683610898565b506104c183866109e9565b60405183907fb7880b10329262ba73b895beb1cc9ddfc6a99af8811c65a0d997b43fe365d46490600090a25050505050505050565b6001600160a01b0380821660009081526002602090815260408083209386168352929052205460ff165b92915050565b61052e610b54565b61053789610b7e565b6105575760405163046fa7d760e41b8152600481018a90526024016103e2565b60008381526004602052604090205460ff161561058a5760405163093b5a1d60e31b8152600481018490526024016103e2565b6000838152600460205260408120805460ff1916600117905580806105af8b8b6107e5565b92509250925060006105c082610bc6565b9050600060058d8d6040516105d69291906115aa565b908152604051908190036020019020549050816105f387836115ba565b11156106155760405163f71c8e2760e01b8152600481018790526024016103e2565b8560058e8e6040516106289291906115aa565b9081526020016040518091039020600082825461064591906115ba565b909155506106539050611244565b8e8152602081018690526001600160a01b0385811660408084019190915260608301869052608083018b9052604c5490516334baeab960e01b81529116906334baeab9906106ab908f908f908f9087906004016115e3565b602060405180830381865afa1580156106c8573d6000803e3d6000fd5b505050506040513d601f19601f820116820180604052508101906106ec9190611655565b6107095760405163186a529960e11b815260040160405180910390fd5b6001600160a01b03851661077d576000886001600160a01b03168860405160006040518083038185875af1925050503d8060008114610764576040519150601f19603f3d011682016040523d82523d6000602084013e610769565b606091505b505090508061077757600080fd5b50610791565b6107916001600160a01b0386168989610be5565b5050505050506107a16001604b55565b505050505050505050565b6107b4611262565b604080516108008101808352909160079182845b8154815260200190600101908083116107c8575050505050905090565b60008060006107f48585610c16565b92506108008585610c2e565b915061080c8585610c51565b90509250925092565b6040516001600160a01b03848116602483015283811660448301526064820183905261087c9186918216906323b872dd906084015b604051602081830303815290604052915060e01b6020820180516001600160e01b038381831617835250505050610c60565b50505050565b6108948261088f83610cc8565b610cd5565b5050565b60006108c57f00000000000000000000000000000000000000000000000000000000000000006001611677565b6047805464ffffffffff92831692169060006108e083611694565b91906101000a81548164ffffffffff021916908364ffffffffff16021790555064ffffffffff16036109415760405162461bcd60e51b815260206004820152600a602482015269547265652046756c6c2160b01b60448201526064016103e2565b604754600080805260496020527f9a0ca60aea446f0de2b73532837f00f56d3ae047e136f7838a520755c00b6e76805464ffffffffff191664ffffffffff9093169283179055835b60028364ffffffffff16106109d0576109a3838383610e35565b905060026109b2846001611677565b6109bc91906116d1565b9250816109c8816116fb565b925050610989565b8093506109dc8461118b565b5050506048819055919050565b6000828152602081905260408120805460ff191660011790556001600160a01b03821615610a83576040516370a0823160e01b81526001600160a01b038316906370a0823190610a3d90309060040161152c565b602060405180830381865afa158015610a5a573d6000803e3d6000fd5b505050506040513d601f19601f82011682018060405250810190610a7e9190611540565b610a85565b475b60408051606081018252338082526001600160a01b03868116602080850182815285870188815260008c81526001808552898220985189549088166001600160a01b0319918216178a55935190890180549190971693169290921790945592516002958601559082529283528381209181529152205490915060ff16610b4f576001600160a01b03821660008181526002602090815260408083203384528252808320805460ff1916600117905592825260039052908120805491610b4983611711565b91905055505b505050565b6002604b5403610b7757604051633ee5aeb560e01b815260040160405180910390fd5b6002604b55565b6000805b604060ff82161015610bbd578260078260ff1660408110610ba557610ba56115cd565b015403610bb55750600192915050565b600101610b82565b50600092915050565b600080610bd283610cc8565b9050610bde8184611597565b9392505050565b6040516001600160a01b03838116602483015260448201839052610b4f91859182169063a9059cbb9060640161084a565b6000610c25602082848661172a565b610bde91611754565b6000610c3e60346020848661172a565b610c4791611772565b60601c9392505050565b6000610c25826034818661172a565b600080602060008451602086016000885af180610c83576040513d6000823e3d81fd5b50506000513d91508115610c9b578060011415610ca8565b6001600160a01b0384163b155b1561087c5783604051635274afe760e01b81526004016103e2919061152c565b60006105206064836117aa565b60006064610ce483605a6117be565b610cee91906117aa565b90506000610cfc8284611597565b90506001600160a01b038416610de557604051600090731181a7ea6e0a4350b067b0bacdf71440e70ef2199084908381818185875af1925050503d8060008114610d62576040519150601f19603f3d011682016040523d82523d6000602084013e610d67565b606091505b5050604051909150600090735f6ef81421e331f65aa3d841247927acb00df77a9084908381818185875af1925050503d8060008114610dc2576040519150601f19603f3d011682016040523d82523d6000602084013e610dc7565b606091505b50509050818015610dd55750805b610dde57600080fd5b505061087c565b610e0d6001600160a01b038516731181a7ea6e0a4350b067b0bacdf71440e70ef21984610be5565b61087c6001600160a01b038516735f6ef81421e331f65aa3d841247927acb00df77a83610be5565b60008060008564ffffffffff16600203610fb05760ff85166000908152604a6020526040902054610e6690856111f0565b604080518082018252838152602081018390529051632b0aac7f60e11b815292945090925073__$67367400603f1be6402167f5b17acfebb8$__9163561558fe91610eb3916004016117d5565b602060405180830381865af4158015610ed0573d6000803e3d6000fd5b505050506040513d601f19601f82011682018060405250810190610ef49190611540565b925082604a6000610f068860016117fd565b60ff1660ff1681526020019081526020016000208190555060496000866001610f2f91906117fd565b60ff168152602081019190915260400160009081205464ffffffffff169003610fab5760496000610f618760016117fd565b60ff16815260208101919091526040016000908120805464ffffffffff1691610f8983611694565b91906101000a81548164ffffffffff021916908364ffffffffff160217905550505b61107f565b610fbb600287611816565b64ffffffffff16600103610fd15783925061107f565b60ff85166000908152604a6020526040902054610fee90856111f0565b604080518082018252838152602081018390529051632b0aac7f60e11b815292945090925073__$67367400603f1be6402167f5b17acfebb8$__9163561558fe9161103b916004016117d5565b602060405180830381865af4158015611058573d6000803e3d6000fd5b505050506040513d601f19601f8201168201806040525081019061107c9190611540565b92505b8460ff166000036110a45760ff85166000908152604a60205260409020849055611182565b60ff8516600090815260496020819052604082205464ffffffffff169190816110ce60018a611840565b60ff16815260208101919091526040016000205464ffffffffff169050806110f7836001611677565b611102906002611859565b64ffffffffff160361117f5760ff87166000908152604960205260408120805464ffffffffff169161113383611694565b91906101000a81548164ffffffffff021916908364ffffffffff160217905550508764ffffffffff16600214611169578461116b565b855b60ff88166000908152604a60205260409020555b50505b50509392505050565b60065460ff16603f19016111a4576006805460ff191690555b600654819060079060ff16604081106111bf576111bf6115cd565b01556006805460ff169060006111d4836116fb565b91906101000a81548160ff021916908360ff1602179055505050565b600080828410611201578284611204565b83835b915091505b9250929050565b6040805160c0810182526000606082018181526080830182905260a083018290528252602082018190529181019190915290565b6040518060a001604052806005906020820280368337509192915050565b6040518061080001604052806040906020820280368337509192915050565b60006020828403121561129357600080fd5b5035919050565b634e487b7160e01b600052604160045260246000fd5b6000602082840312156112c257600080fd5b81356001600160401b038111156112d857600080fd5b8201601f810184136112e957600080fd5b80356001600160401b038111156113025761130261129a565b604051601f8201601f19908116603f011681016001600160401b03811182821017156113305761133061129a565b60405281815282820160200186101561134857600080fd5b81602084016020830137600091810160200191909152949350505050565b60008083601f84011261137857600080fd5b5081356001600160401b0381111561138f57600080fd5b60208301915083602082850101111561120957600080fd5b600080602083850312156113ba57600080fd5b82356001600160401b038111156113d057600080fd5b6113dc85828601611366565b90969095509350505050565b80356001600160a01b03811681146113ff57600080fd5b919050565b6000806040838503121561141757600080fd5b611420836113e8565b915061142e602084016113e8565b90509250929050565b806040810183101561052057600080fd5b60008060008060008060008060006101a08a8c03121561146757600080fd5b8935985060208a01356001600160401b0381111561148457600080fd5b6114908c828d01611366565b90995097506114a490508b60408c01611437565b95506101008a018b8111156114b857600080fd5b60808b0195506114c88c82611437565b9450506101408a013592506114e06101608b016113e8565b989b979a5095989497939692955090936101800135919050565b6108008101818360005b6040811015611523578151835260209283019290910190600101611504565b50505092915050565b6001600160a01b0391909116815260200190565b60006020828403121561155257600080fd5b5051919050565b60608101818360005b6003811015611523578151835260209283019290910190600101611562565b634e487b7160e01b600052601160045260246000fd5b8181038181111561052057610520611581565b8183823760009101908152919050565b8082018082111561052057610520611581565b634e487b7160e01b600052603260045260246000fd5b6101a081016040868337604082018560005b600281101561161657604082843760409283019291909101906001016115f5565b50505060408460c084013761010082018360005b600581101561164957815183526020928301929091019060010161162a565b50505095945050505050565b60006020828403121561166757600080fd5b81518015158114610bde57600080fd5b64ffffffffff818116838216019081111561052057610520611581565b600064ffffffffff821664ffffffffff81036116b2576116b2611581565b60010192915050565b634e487b7160e01b600052601260045260246000fd5b600064ffffffffff8316806116e8576116e86116bb565b8064ffffffffff84160491505092915050565b600060ff821660ff81036116b2576116b2611581565b60006001820161172357611723611581565b5060010190565b6000808585111561173a57600080fd5b8386111561174757600080fd5b5050820193919092039150565b8035602083101561052057600019602084900360031b1b1692915050565b80356001600160601b031981169060148410156117a3576001600160601b0319601485900360031b81901b82161691505b5092915050565b6000826117b9576117b96116bb565b500490565b808202811582820484141761052057610520611581565b60408101818360005b60028110156115235781518352602092830192909101906001016117de565b60ff818116838216019081111561052057610520611581565b600064ffffffffff83168061182d5761182d6116bb565b8064ffffffffff84160691505092915050565b60ff828116828216039081111561052057610520611581565b64ffffffffff81811683821602908116908181146117a3576117a361158156fea2646970667358221220d2217a32dbab937538438de76f4fa37e0bf2964fa0e0623ca30eac2090cb965264736f6c634300081c0033","opcodes":"PUSH1 0xA0 PUSH1 0x40 MSTORE PUSH5 0x100000000 PUSH1 0x80 MSTORE CALLVALUE DUP1 ISZERO PUSH2 0x19 JUMPI PUSH1 0x0 DUP1 REVERT JUMPDEST POP PUSH1 0x40 MLOAD PUSH2 0x1AD1 CODESIZE SUB DUP1 PUSH2 0x1AD1 DUP4 CODECOPY DUP2 ADD PUSH1 0x40 DUP2 SWAP1 MSTORE PUSH2 0x38 SWAP2 PUSH2 0x180 JUMP JUMPDEST PUSH1 0x40 DUP1 MLOAD PUSH1 0x20 DUP2 ADD DUP3 MSTORE DUP4 DUP2 MSTORE SWAP1 MLOAD PUSH4 0x9D036E71 PUSH1 0xE0 SHL DUP2 MSTORE DUP4 SWAP2 DUP3 SWAP2 PUSH20 0x0 SWAP2 PUSH4 0x9D036E71 SWAP2 PUSH2 0x7E SWAP2 SWAP1 PUSH1 0x4 ADD PUSH2 0x1BD JUMP JUMPDEST PUSH1 0x20 PUSH1 0x40 MLOAD DUP1 DUP4 SUB DUP2 DUP7 GAS DELEGATECALL ISZERO DUP1 ISZERO PUSH2 0x9B JUMPI RETURNDATASIZE PUSH1 0x0 DUP1 RETURNDATACOPY RETURNDATASIZE PUSH1 0x0 REVERT JUMPDEST POP POP POP POP PUSH1 0x40 MLOAD RETURNDATASIZE PUSH1 0x1F NOT PUSH1 0x1F DUP3 ADD AND DUP3 ADD DUP1 PUSH1 0x40 MSTORE POP DUP2 ADD SWAP1 PUSH2 0xBF SWAP2 SWAP1 PUSH2 0x1EE JUMP JUMPDEST PUSH1 0x48 SSTORE PUSH1 0x47 DUP1 SLOAD PUSH1 0x1 PUSH5 0xFFFFFFFFFF NOT SWAP2 DUP3 AND DUP2 OR SWAP1 SWAP3 SSTORE PUSH1 0x0 DUP1 DUP1 MSTORE PUSH32 0x9A0CA60AEA446F0DE2B73532837F00F56D3AE047E136F7838A520755C00B6E76 DUP1 SLOAD SWAP1 SWAP3 AND DUP4 OR SWAP1 SWAP2 SSTORE PUSH1 0x4A PUSH1 0x20 MSTORE PUSH32 0x5260D36D21F8359821A072AFF7B4BE49946E72F371A0EAED97092C5B641059E2 SWAP3 SWAP1 SWAP3 SSTORE PUSH1 0x4B SSTORE PUSH1 0x4C DUP1 SLOAD PUSH1 0x1 PUSH1 0x1 PUSH1 0xA0 SHL SUB NOT AND PUSH1 0x1 PUSH1 0x1 PUSH1 0xA0 SHL SUB DUP6 AND OR SWAP1 SSTORE PUSH1 0x40 MLOAD DUP5 SWAP3 POP PUSH32 0xB7880B10329262BA73B895BEB1CC9DDFC6A99AF8811C65A0D997B43FE365D464 SWAP2 SWAP1 LOG2 POP POP PUSH2 0x207 JUMP JUMPDEST PUSH1 0x0 DUP1 PUSH1 0x40 DUP4 DUP6 SUB SLT ISZERO PUSH2 0x193 JUMPI PUSH1 0x0 DUP1 REVERT JUMPDEST DUP3 MLOAD PUSH1 0x20 DUP5 ADD MLOAD SWAP1 SWAP3 POP PUSH1 0x1 PUSH1 0x1 PUSH1 0xA0 SHL SUB DUP2 AND DUP2 EQ PUSH2 0x1B2 JUMPI PUSH1 0x0 DUP1 REVERT JUMPDEST DUP1 SWAP2 POP POP SWAP3 POP SWAP3 SWAP1 POP JUMP JUMPDEST PUSH1 0x20 DUP2 ADD DUP2 DUP4 PUSH1 0x0 JUMPDEST PUSH1 0x1 DUP2 LT ISZERO PUSH2 0x1E5 JUMPI DUP2 MLOAD DUP4 MSTORE PUSH1 0x20 SWAP3 DUP4 ADD SWAP3 SWAP1 SWAP2 ADD SWAP1 PUSH1 0x1 ADD PUSH2 0x1C6 JUMP JUMPDEST POP POP POP SWAP3 SWAP2 POP POP JUMP JUMPDEST PUSH1 0x0 PUSH1 0x20 DUP3 DUP5 SUB SLT ISZERO PUSH2 0x200 JUMPI PUSH1 0x0 DUP1 REVERT JUMPDEST POP MLOAD SWAP2 SWAP1 POP JUMP JUMPDEST PUSH1 0x80 MLOAD PUSH2 0x18AF PUSH2 0x222 PUSH1 0x0 CODECOPY PUSH1 0x0 PUSH2 0x89F ADD MSTORE PUSH2 0x18AF PUSH1 0x0 RETURN INVALID PUSH1 0x80 PUSH1 0x40 MSTORE PUSH1 0x4 CALLDATASIZE LT PUSH2 0x6F JUMPI PUSH1 0x0 CALLDATALOAD PUSH1 0xE0 SHR DUP1 PUSH4 0x17933AFA EQ PUSH2 0x7B JUMPI DUP1 PUSH4 0x1F7B6D32 EQ PUSH2 0xE2 JUMPI DUP1 PUSH4 0x6F16F446 EQ PUSH2 0x116 JUMPI DUP1 PUSH4 0x98B1E06A EQ PUSH2 0x15C JUMPI DUP1 PUSH4 0xDC25879F EQ PUSH2 0x171 JUMPI DUP1 PUSH4 0xEBF0C717 EQ PUSH2 0x1A1 JUMPI DUP1 PUSH4 0xF057D3E1 EQ PUSH2 0x1B7 JUMPI DUP1 PUSH4 0xFDD4F025 EQ PUSH2 0x1D7 JUMPI PUSH1 0x0 DUP1 REVERT JUMPDEST CALLDATASIZE PUSH2 0x76 JUMPI STOP JUMPDEST PUSH1 0x0 DUP1 REVERT JUMPDEST CALLVALUE DUP1 ISZERO PUSH2 0x87 JUMPI PUSH1 0x0 DUP1 REVERT JUMPDEST POP PUSH2 0x9B PUSH2 0x96 CALLDATASIZE PUSH1 0x4 PUSH2 0x1281 JUMP JUMPDEST PUSH2 0x1F9 JUMP JUMPDEST PUSH1 0x40 DUP1 MLOAD DUP3 MLOAD DUP1 MLOAD PUSH1 0x1 PUSH1 0x1 PUSH1 0xA0 SHL SUB SWAP1 DUP2 AND DUP4 MSTORE PUSH1 0x20 DUP1 DUP4 ADD MLOAD SWAP1 SWAP2 AND DUP2 DUP5 ADD MSTORE SWAP1 DUP4 ADD MLOAD DUP3 DUP5 ADD MSTORE DUP4 ADD MLOAD PUSH1 0x60 DUP3 ADD MSTORE SWAP2 ADD MLOAD PUSH1 0x80 DUP3 ADD MSTORE PUSH1 0xA0 ADD JUMPDEST PUSH1 0x40 MLOAD DUP1 SWAP2 SUB SWAP1 RETURN JUMPDEST CALLVALUE DUP1 ISZERO PUSH2 0xEE JUMPI PUSH1 0x0 DUP1 REVERT JUMPDEST POP PUSH1 0x47 SLOAD PUSH2 0x100 SWAP1 PUSH5 0xFFFFFFFFFF AND DUP2 JUMP JUMPDEST PUSH1 0x40 MLOAD PUSH5 0xFFFFFFFFFF SWAP1 SWAP2 AND DUP2 MSTORE PUSH1 0x20 ADD PUSH2 0xD9 JUMP JUMPDEST CALLVALUE DUP1 ISZERO PUSH2 0x122 JUMPI PUSH1 0x0 DUP1 REVERT JUMPDEST POP PUSH2 0x14E PUSH2 0x131 CALLDATASIZE PUSH1 0x4 PUSH2 0x12B0 JUMP JUMPDEST DUP1 MLOAD PUSH1 0x20 DUP2 DUP4 ADD DUP2 ADD DUP1 MLOAD PUSH1 0x5 DUP3 MSTORE SWAP3 DUP3 ADD SWAP2 SWAP1 SWAP4 ADD KECCAK256 SWAP2 MSTORE SLOAD DUP2 JUMP JUMPDEST PUSH1 0x40 MLOAD SWAP1 DUP2 MSTORE PUSH1 0x20 ADD PUSH2 0xD9 JUMP JUMPDEST PUSH2 0x16F PUSH2 0x16A CALLDATASIZE PUSH1 0x4 PUSH2 0x13A7 JUMP JUMPDEST PUSH2 0x2FE JUMP JUMPDEST STOP JUMPDEST CALLVALUE DUP1 ISZERO PUSH2 0x17D JUMPI PUSH1 0x0 DUP1 REVERT JUMPDEST POP PUSH2 0x191 PUSH2 0x18C CALLDATASIZE PUSH1 0x4 PUSH2 0x1404 JUMP JUMPDEST PUSH2 0x4F6 JUMP JUMPDEST PUSH1 0x40 MLOAD SWAP1 ISZERO ISZERO DUP2 MSTORE PUSH1 0x20 ADD PUSH2 0xD9 JUMP JUMPDEST CALLVALUE DUP1 ISZERO PUSH2 0x1AD JUMPI PUSH1 0x0 DUP1 REVERT JUMPDEST POP PUSH2 0x14E PUSH1 0x48 SLOAD DUP2 JUMP JUMPDEST CALLVALUE DUP1 ISZERO PUSH2 0x1C3 JUMPI PUSH1 0x0 DUP1 REVERT JUMPDEST POP PUSH2 0x16F PUSH2 0x1D2 CALLDATASIZE PUSH1 0x4 PUSH2 0x1448 JUMP JUMPDEST PUSH2 0x526 JUMP JUMPDEST CALLVALUE DUP1 ISZERO PUSH2 0x1E3 JUMPI PUSH1 0x0 DUP1 REVERT JUMPDEST POP PUSH2 0x1EC PUSH2 0x7AC JUMP JUMPDEST PUSH1 0x40 MLOAD PUSH2 0xD9 SWAP2 SWAP1 PUSH2 0x14FA JUMP JUMPDEST PUSH2 0x201 PUSH2 0x1210 JUMP JUMPDEST PUSH1 0x0 DUP3 DUP2 MSTORE PUSH1 0x1 PUSH1 0x20 DUP2 SWAP1 MSTORE PUSH1 0x40 SWAP1 SWAP2 KECCAK256 ADD SLOAD PUSH1 0x1 PUSH1 0x1 PUSH1 0xA0 SHL SUB AND PUSH2 0x225 PUSH2 0x1210 JUMP JUMPDEST PUSH1 0x0 DUP5 DUP2 MSTORE PUSH1 0x1 PUSH1 0x20 DUP2 DUP2 MSTORE PUSH1 0x40 DUP1 DUP5 KECCAK256 DUP2 MLOAD PUSH1 0x60 DUP2 ADD DUP4 MSTORE DUP2 SLOAD PUSH1 0x1 PUSH1 0x1 PUSH1 0xA0 SHL SUB SWAP1 DUP2 AND DUP3 MSTORE SWAP5 DUP3 ADD SLOAD DUP6 AND DUP2 DUP6 ADD MSTORE PUSH1 0x2 SWAP1 SWAP2 ADD SLOAD DUP2 DUP4 ADD MSTORE DUP6 MSTORE SWAP2 DUP6 AND DUP1 DUP5 MSTORE PUSH1 0x3 DUP3 MSTORE SWAP2 SWAP1 SWAP3 KECCAK256 SLOAD SWAP2 DUP4 ADD SWAP2 SWAP1 SWAP2 MSTORE ISZERO PUSH2 0x2F0 JUMPI PUSH1 0x40 MLOAD PUSH4 0x70A08231 PUSH1 0xE0 SHL DUP2 MSTORE PUSH1 0x1 PUSH1 0x1 PUSH1 0xA0 SHL SUB DUP4 AND SWAP1 PUSH4 0x70A08231 SWAP1 PUSH2 0x2AA SWAP1 ADDRESS SWAP1 PUSH1 0x4 ADD PUSH2 0x152C JUMP JUMPDEST PUSH1 0x20 PUSH1 0x40 MLOAD DUP1 DUP4 SUB DUP2 DUP7 GAS STATICCALL ISZERO DUP1 ISZERO PUSH2 0x2C7 JUMPI RETURNDATASIZE PUSH1 0x0 DUP1 RETURNDATACOPY RETURNDATASIZE PUSH1 0x0 REVERT JUMPDEST POP POP POP POP PUSH1 0x40 MLOAD RETURNDATASIZE PUSH1 0x1F NOT PUSH1 0x1F DUP3 ADD AND DUP3 ADD DUP1 PUSH1 0x40 MSTORE POP DUP2 ADD SWAP1 PUSH2 0x2EB SWAP2 SWAP1 PUSH2 0x1540 JUMP JUMPDEST PUSH2 0x2F2 JUMP JUMPDEST SELFBALANCE JUMPDEST PUSH1 0x40 DUP3 ADD MSTORE SWAP4 SWAP3 POP POP POP JUMP JUMPDEST PUSH1 0x0 DUP1 PUSH1 0x0 PUSH2 0x30D DUP6 DUP6 PUSH2 0x7E5 JUMP JUMPDEST PUSH1 0x40 DUP1 MLOAD PUSH1 0x60 DUP2 ADD DUP3 MSTORE DUP5 DUP2 MSTORE PUSH1 0x1 PUSH1 0x1 PUSH1 0xA0 SHL SUB DUP5 AND PUSH1 0x20 DUP3 ADD MSTORE DUP1 DUP3 ADD DUP4 SWAP1 MSTORE SWAP1 MLOAD PUSH4 0x20CF0A37 PUSH1 0xE0 SHL DUP2 MSTORE SWAP4 SWAP7 POP SWAP2 SWAP5 POP SWAP3 POP PUSH1 0x0 SWAP2 PUSH20 0x0 SWAP2 PUSH4 0x20CF0A37 SWAP2 PUSH2 0x36F SWAP2 SWAP1 PUSH1 0x4 ADD PUSH2 0x1559 JUMP JUMPDEST PUSH1 0x20 PUSH1 0x40 MLOAD DUP1 DUP4 SUB DUP2 DUP7 GAS DELEGATECALL ISZERO DUP1 ISZERO PUSH2 0x38C JUMPI RETURNDATASIZE PUSH1 0x0 DUP1 RETURNDATACOPY RETURNDATASIZE PUSH1 0x0 REVERT JUMPDEST POP POP POP POP PUSH1 0x40 MLOAD RETURNDATASIZE PUSH1 0x1F NOT PUSH1 0x1F DUP3 ADD AND DUP3 ADD DUP1 PUSH1 0x40 MSTORE POP DUP2 ADD SWAP1 PUSH2 0x3B0 SWAP2 SWAP1 PUSH2 0x1540 JUMP JUMPDEST PUSH1 0x0 DUP2 DUP2 MSTORE PUSH1 0x20 DUP2 SWAP1 MSTORE PUSH1 0x40 SWAP1 KECCAK256 SLOAD SWAP1 SWAP2 POP PUSH1 0xFF AND ISZERO PUSH2 0x3EB JUMPI PUSH1 0x40 MLOAD PUSH4 0x284FE6B3 PUSH1 0xE1 SHL DUP2 MSTORE PUSH1 0x4 DUP2 ADD DUP3 SWAP1 MSTORE PUSH1 0x24 ADD JUMPDEST PUSH1 0x40 MLOAD DUP1 SWAP2 SUB SWAP1 REVERT JUMPDEST PUSH1 0x0 PUSH1 0x1 PUSH1 0x1 PUSH1 0xA0 SHL SUB DUP5 AND PUSH2 0x436 JUMPI DUP3 CALLVALUE LT ISZERO PUSH2 0x425 JUMPI PUSH1 0x40 MLOAD PUSH4 0xF231E15B PUSH1 0xE0 SHL DUP2 MSTORE CALLVALUE PUSH1 0x4 DUP3 ADD MSTORE PUSH1 0x24 DUP2 ADD DUP5 SWAP1 MSTORE PUSH1 0x44 ADD PUSH2 0x3E2 JUMP JUMPDEST PUSH2 0x42F DUP4 CALLVALUE PUSH2 0x1597 JUMP JUMPDEST SWAP1 POP PUSH2 0x44E JUMP JUMPDEST PUSH2 0x44B PUSH1 0x1 PUSH1 0x1 PUSH1 0xA0 SHL SUB DUP6 AND CALLER ADDRESS DUP7 PUSH2 0x815 JUMP JUMPDEST POP CALLVALUE JUMPDEST PUSH1 0x40 MLOAD PUSH1 0x0 SWAP1 CALLER SWAP1 DUP4 SWAP1 DUP4 DUP2 DUP2 DUP2 DUP6 DUP8 GAS CALL SWAP3 POP POP POP RETURNDATASIZE DUP1 PUSH1 0x0 DUP2 EQ PUSH2 0x490 JUMPI PUSH1 0x40 MLOAD SWAP2 POP PUSH1 0x1F NOT PUSH1 0x3F RETURNDATASIZE ADD AND DUP3 ADD PUSH1 0x40 MSTORE RETURNDATASIZE DUP3 MSTORE RETURNDATASIZE PUSH1 0x0 PUSH1 0x20 DUP5 ADD RETURNDATACOPY PUSH2 0x495 JUMP JUMPDEST PUSH1 0x60 SWAP2 POP JUMPDEST POP POP SWAP1 POP DUP1 PUSH2 0x4A3 JUMPI PUSH1 0x0 DUP1 REVERT JUMPDEST PUSH2 0x4AD DUP6 DUP6 PUSH2 0x882 JUMP JUMPDEST PUSH2 0x4B6 DUP4 PUSH2 0x898 JUMP JUMPDEST POP PUSH2 0x4C1 DUP4 DUP7 PUSH2 0x9E9 JUMP JUMPDEST PUSH1 0x40 MLOAD DUP4 SWAP1 PUSH32 0xB7880B10329262BA73B895BEB1CC9DDFC6A99AF8811C65A0D997B43FE365D464 SWAP1 PUSH1 0x0 SWAP1 LOG2 POP POP POP POP POP POP POP POP JUMP JUMPDEST PUSH1 0x1 PUSH1 0x1 PUSH1 0xA0 SHL SUB DUP1 DUP3 AND PUSH1 0x0 SWAP1 DUP2 MSTORE PUSH1 0x2 PUSH1 0x20 SWAP1 DUP2 MSTORE PUSH1 0x40 DUP1 DUP4 KECCAK256 SWAP4 DUP7 AND DUP4 MSTORE SWAP3 SWAP1 MSTORE KECCAK256 SLOAD PUSH1 0xFF AND JUMPDEST SWAP3 SWAP2 POP POP JUMP JUMPDEST PUSH2 0x52E PUSH2 0xB54 JUMP JUMPDEST PUSH2 0x537 DUP10 PUSH2 0xB7E JUMP JUMPDEST PUSH2 0x557 JUMPI PUSH1 0x40 MLOAD PUSH4 0x46FA7D7 PUSH1 0xE4 SHL DUP2 MSTORE PUSH1 0x4 DUP2 ADD DUP11 SWAP1 MSTORE PUSH1 0x24 ADD PUSH2 0x3E2 JUMP JUMPDEST PUSH1 0x0 DUP4 DUP2 MSTORE PUSH1 0x4 PUSH1 0x20 MSTORE PUSH1 0x40 SWAP1 KECCAK256 SLOAD PUSH1 0xFF AND ISZERO PUSH2 0x58A JUMPI PUSH1 0x40 MLOAD PUSH4 0x93B5A1D PUSH1 0xE3 SHL DUP2 MSTORE PUSH1 0x4 DUP2 ADD DUP5 SWAP1 MSTORE PUSH1 0x24 ADD PUSH2 0x3E2 JUMP JUMPDEST PUSH1 0x0 DUP4 DUP2 MSTORE PUSH1 0x4 PUSH1 0x20 MSTORE PUSH1 0x40 DUP2 KECCAK256 DUP1 SLOAD PUSH1 0xFF NOT AND PUSH1 0x1 OR SWAP1 SSTORE DUP1 DUP1 PUSH2 0x5AF DUP12 DUP12 PUSH2 0x7E5 JUMP JUMPDEST SWAP3 POP SWAP3 POP SWAP3 POP PUSH1 0x0 PUSH2 0x5C0 DUP3 PUSH2 0xBC6 JUMP JUMPDEST SWAP1 POP PUSH1 0x0 PUSH1 0x5 DUP14 DUP14 PUSH1 0x40 MLOAD PUSH2 0x5D6 SWAP3 SWAP2 SWAP1 PUSH2 0x15AA JUMP JUMPDEST SWAP1 DUP2 MSTORE PUSH1 0x40 MLOAD SWAP1 DUP2 SWAP1 SUB PUSH1 0x20 ADD SWAP1 KECCAK256 SLOAD SWAP1 POP DUP2 PUSH2 0x5F3 DUP8 DUP4 PUSH2 0x15BA JUMP JUMPDEST GT ISZERO PUSH2 0x615 JUMPI PUSH1 0x40 MLOAD PUSH4 0xF71C8E27 PUSH1 0xE0 SHL DUP2 MSTORE PUSH1 0x4 DUP2 ADD DUP8 SWAP1 MSTORE PUSH1 0x24 ADD PUSH2 0x3E2 JUMP JUMPDEST DUP6 PUSH1 0x5 DUP15 DUP15 PUSH1 0x40 MLOAD PUSH2 0x628 SWAP3 SWAP2 SWAP1 PUSH2 0x15AA JUMP JUMPDEST SWAP1 DUP2 MSTORE PUSH1 0x20 ADD PUSH1 0x40 MLOAD DUP1 SWAP2 SUB SWAP1 KECCAK256 PUSH1 0x0 DUP3 DUP3 SLOAD PUSH2 0x645 SWAP2 SWAP1 PUSH2 0x15BA JUMP JUMPDEST SWAP1 SWAP2 SSTORE POP PUSH2 0x653 SWAP1 POP PUSH2 0x1244 JUMP JUMPDEST DUP15 DUP2 MSTORE PUSH1 0x20 DUP2 ADD DUP7 SWAP1 MSTORE PUSH1 0x1 PUSH1 0x1 PUSH1 0xA0 SHL SUB DUP6 DUP2 AND PUSH1 0x40 DUP1 DUP5 ADD SWAP2 SWAP1 SWAP2 MSTORE PUSH1 0x60 DUP4 ADD DUP7 SWAP1 MSTORE PUSH1 0x80 DUP4 ADD DUP12 SWAP1 MSTORE PUSH1 0x4C SLOAD SWAP1 MLOAD PUSH4 0x34BAEAB9 PUSH1 0xE0 SHL DUP2 MSTORE SWAP2 AND SWAP1 PUSH4 0x34BAEAB9 SWAP1 PUSH2 0x6AB SWAP1 DUP16 SWAP1 DUP16 SWAP1 DUP16 SWAP1 DUP8 SWAP1 PUSH1 0x4 ADD PUSH2 0x15E3 JUMP JUMPDEST PUSH1 0x20 PUSH1 0x40 MLOAD DUP1 DUP4 SUB DUP2 DUP7 GAS STATICCALL ISZERO DUP1 ISZERO PUSH2 0x6C8 JUMPI RETURNDATASIZE PUSH1 0x0 DUP1 RETURNDATACOPY RETURNDATASIZE PUSH1 0x0 REVERT JUMPDEST POP POP POP POP PUSH1 0x40 MLOAD RETURNDATASIZE PUSH1 0x1F NOT PUSH1 0x1F DUP3 ADD AND DUP3 ADD DUP1 PUSH1 0x40 MSTORE POP DUP2 ADD SWAP1 PUSH2 0x6EC SWAP2 SWAP1 PUSH2 0x1655 JUMP JUMPDEST PUSH2 0x709 JUMPI PUSH1 0x40 MLOAD PUSH4 0x186A5299 PUSH1 0xE1 SHL DUP2 MSTORE PUSH1 0x4 ADD PUSH1 0x40 MLOAD DUP1 SWAP2 SUB SWAP1 REVERT JUMPDEST PUSH1 0x1 PUSH1 0x1 PUSH1 0xA0 SHL SUB DUP6 AND PUSH2 0x77D JUMPI PUSH1 0x0 DUP9 PUSH1 0x1 PUSH1 0x1 PUSH1 0xA0 SHL SUB AND DUP9 PUSH1 0x40 MLOAD PUSH1 0x0 PUSH1 0x40 MLOAD DUP1 DUP4 SUB DUP2 DUP6 DUP8 GAS CALL SWAP3 POP POP POP RETURNDATASIZE DUP1 PUSH1 0x0 DUP2 EQ PUSH2 0x764 JUMPI PUSH1 0x40 MLOAD SWAP2 POP PUSH1 0x1F NOT PUSH1 0x3F RETURNDATASIZE ADD AND DUP3 ADD PUSH1 0x40 MSTORE RETURNDATASIZE DUP3 MSTORE RETURNDATASIZE PUSH1 0x0 PUSH1 0x20 DUP5 ADD RETURNDATACOPY PUSH2 0x769 JUMP JUMPDEST PUSH1 0x60 SWAP2 POP JUMPDEST POP POP SWAP1 POP DUP1 PUSH2 0x777 JUMPI PUSH1 0x0 DUP1 REVERT JUMPDEST POP PUSH2 0x791 JUMP JUMPDEST PUSH2 0x791 PUSH1 0x1 PUSH1 0x1 PUSH1 0xA0 SHL SUB DUP7 AND DUP10 DUP10 PUSH2 0xBE5 JUMP JUMPDEST POP POP POP POP POP POP PUSH2 0x7A1 PUSH1 0x1 PUSH1 0x4B SSTORE JUMP JUMPDEST POP POP POP POP POP POP POP POP POP JUMP JUMPDEST PUSH2 0x7B4 PUSH2 0x1262 JUMP JUMPDEST PUSH1 0x40 DUP1 MLOAD PUSH2 0x800 DUP2 ADD DUP1 DUP4 MSTORE SWAP1 SWAP2 PUSH1 0x7 SWAP2 DUP3 DUP5 JUMPDEST DUP2 SLOAD DUP2 MSTORE PUSH1 0x20 ADD SWAP1 PUSH1 0x1 ADD SWAP1 DUP1 DUP4 GT PUSH2 0x7C8 JUMPI POP POP POP POP POP SWAP1 POP SWAP1 JUMP JUMPDEST PUSH1 0x0 DUP1 PUSH1 0x0 PUSH2 0x7F4 DUP6 DUP6 PUSH2 0xC16 JUMP JUMPDEST SWAP3 POP PUSH2 0x800 DUP6 DUP6 PUSH2 0xC2E JUMP JUMPDEST SWAP2 POP PUSH2 0x80C DUP6 DUP6 PUSH2 0xC51 JUMP JUMPDEST SWAP1 POP SWAP3 POP SWAP3 POP SWAP3 JUMP JUMPDEST PUSH1 0x40 MLOAD PUSH1 0x1 PUSH1 0x1 PUSH1 0xA0 SHL SUB DUP5 DUP2 AND PUSH1 0x24 DUP4 ADD MSTORE DUP4 DUP2 AND PUSH1 0x44 DUP4 ADD MSTORE PUSH1 0x64 DUP3 ADD DUP4 SWAP1 MSTORE PUSH2 0x87C SWAP2 DUP7 SWAP2 DUP3 AND SWAP1 PUSH4 0x23B872DD SWAP1 PUSH1 0x84 ADD JUMPDEST PUSH1 0x40 MLOAD PUSH1 0x20 DUP2 DUP4 SUB SUB DUP2 MSTORE SWAP1 PUSH1 0x40 MSTORE SWAP2 POP PUSH1 0xE0 SHL PUSH1 0x20 DUP3 ADD DUP1 MLOAD PUSH1 0x1 PUSH1 0x1 PUSH1 0xE0 SHL SUB DUP4 DUP2 DUP4 AND OR DUP4 MSTORE POP POP POP POP PUSH2 0xC60 JUMP JUMPDEST POP POP POP POP JUMP JUMPDEST PUSH2 0x894 DUP3 PUSH2 0x88F DUP4 PUSH2 0xCC8 JUMP JUMPDEST PUSH2 0xCD5 JUMP JUMPDEST POP POP JUMP JUMPDEST PUSH1 0x0 PUSH2 0x8C5 PUSH32 0x0 PUSH1 0x1 PUSH2 0x1677 JUMP JUMPDEST PUSH1 0x47 DUP1 SLOAD PUSH5 0xFFFFFFFFFF SWAP3 DUP4 AND SWAP3 AND SWAP1 PUSH1 0x0 PUSH2 0x8E0 DUP4 PUSH2 0x1694 JUMP JUMPDEST SWAP2 SWAP1 PUSH2 0x100 EXP DUP2 SLOAD DUP2 PUSH5 0xFFFFFFFFFF MUL NOT AND SWAP1 DUP4 PUSH5 0xFFFFFFFFFF AND MUL OR SWAP1 SSTORE POP PUSH5 0xFFFFFFFFFF AND SUB PUSH2 0x941 JUMPI PUSH1 0x40 MLOAD PUSH3 0x461BCD PUSH1 0xE5 SHL DUP2 MSTORE PUSH1 0x20 PUSH1 0x4 DUP3 ADD MSTORE PUSH1 0xA PUSH1 0x24 DUP3 ADD MSTORE PUSH10 0x547265652046756C6C21 PUSH1 0xB0 SHL PUSH1 0x44 DUP3 ADD MSTORE PUSH1 0x64 ADD PUSH2 0x3E2 JUMP JUMPDEST PUSH1 0x47 SLOAD PUSH1 0x0 DUP1 DUP1 MSTORE PUSH1 0x49 PUSH1 0x20 MSTORE PUSH32 0x9A0CA60AEA446F0DE2B73532837F00F56D3AE047E136F7838A520755C00B6E76 DUP1 SLOAD PUSH5 0xFFFFFFFFFF NOT AND PUSH5 0xFFFFFFFFFF SWAP1 SWAP4 AND SWAP3 DUP4 OR SWAP1 SSTORE DUP4 JUMPDEST PUSH1 0x2 DUP4 PUSH5 0xFFFFFFFFFF AND LT PUSH2 0x9D0 JUMPI PUSH2 0x9A3 DUP4 DUP4 DUP4 PUSH2 0xE35 JUMP JUMPDEST SWAP1 POP PUSH1 0x2 PUSH2 0x9B2 DUP5 PUSH1 0x1 PUSH2 0x1677 JUMP JUMPDEST PUSH2 0x9BC SWAP2 SWAP1 PUSH2 0x16D1 JUMP JUMPDEST SWAP3 POP DUP2 PUSH2 0x9C8 DUP2 PUSH2 0x16FB JUMP JUMPDEST SWAP3 POP POP PUSH2 0x989 JUMP JUMPDEST DUP1 SWAP4 POP PUSH2 0x9DC DUP5 PUSH2 0x118B JUMP JUMPDEST POP POP POP PUSH1 0x48 DUP2 SWAP1 SSTORE SWAP2 SWAP1 POP JUMP JUMPDEST PUSH1 0x0 DUP3 DUP2 MSTORE PUSH1 0x20 DUP2 SWAP1 MSTORE PUSH1 0x40 DUP2 KECCAK256 DUP1 SLOAD PUSH1 0xFF NOT AND PUSH1 0x1 OR SWAP1 SSTORE PUSH1 0x1 PUSH1 0x1 PUSH1 0xA0 SHL SUB DUP3 AND ISZERO PUSH2 0xA83 JUMPI PUSH1 0x40 MLOAD PUSH4 0x70A08231 PUSH1 0xE0 SHL DUP2 MSTORE PUSH1 0x1 PUSH1 0x1 PUSH1 0xA0 SHL SUB DUP4 AND SWAP1 PUSH4 0x70A08231 SWAP1 PUSH2 0xA3D SWAP1 ADDRESS SWAP1 PUSH1 0x4 ADD PUSH2 0x152C JUMP JUMPDEST PUSH1 0x20 PUSH1 0x40 MLOAD DUP1 DUP4 SUB DUP2 DUP7 GAS STATICCALL ISZERO DUP1 ISZERO PUSH2 0xA5A JUMPI RETURNDATASIZE PUSH1 0x0 DUP1 RETURNDATACOPY RETURNDATASIZE PUSH1 0x0 REVERT JUMPDEST POP POP POP POP PUSH1 0x40 MLOAD RETURNDATASIZE PUSH1 0x1F NOT PUSH1 0x1F DUP3 ADD AND DUP3 ADD DUP1 PUSH1 0x40 MSTORE POP DUP2 ADD SWAP1 PUSH2 0xA7E SWAP2 SWAP1 PUSH2 0x1540 JUMP JUMPDEST PUSH2 0xA85 JUMP JUMPDEST SELFBALANCE JUMPDEST PUSH1 0x40 DUP1 MLOAD PUSH1 0x60 DUP2 ADD DUP3 MSTORE CALLER DUP1 DUP3 MSTORE PUSH1 0x1 PUSH1 0x1 PUSH1 0xA0 SHL SUB DUP7 DUP2 AND PUSH1 0x20 DUP1 DUP6 ADD DUP3 DUP2 MSTORE DUP6 DUP8 ADD DUP9 DUP2 MSTORE PUSH1 0x0 DUP13 DUP2 MSTORE PUSH1 0x1 DUP1 DUP6 MSTORE DUP10 DUP3 KECCAK256 SWAP9 MLOAD DUP10 SLOAD SWAP1 DUP9 AND PUSH1 0x1 PUSH1 0x1 PUSH1 0xA0 SHL SUB NOT SWAP2 DUP3 AND OR DUP11 SSTORE SWAP4 MLOAD SWAP1 DUP10 ADD DUP1 SLOAD SWAP2 SWAP1 SWAP8 AND SWAP4 AND SWAP3 SWAP1 SWAP3 OR SWAP1 SWAP5 SSTORE SWAP3 MLOAD PUSH1 0x2 SWAP6 DUP7 ADD SSTORE SWAP1 DUP3 MSTORE SWAP3 DUP4 MSTORE DUP4 DUP2 KECCAK256 SWAP2 DUP2 MSTORE SWAP2 MSTORE KECCAK256 SLOAD SWAP1 SWAP2 POP PUSH1 0xFF AND PUSH2 0xB4F JUMPI PUSH1 0x1 PUSH1 0x1 PUSH1 0xA0 SHL SUB DUP3 AND PUSH1 0x0 DUP2 DUP2 MSTORE PUSH1 0x2 PUSH1 0x20 SWAP1 DUP2 MSTORE PUSH1 0x40 DUP1 DUP4 KECCAK256 CALLER DUP5 MSTORE DUP3 MSTORE DUP1 DUP4 KECCAK256 DUP1 SLOAD PUSH1 0xFF NOT AND PUSH1 0x1 OR SWAP1 SSTORE SWAP3 DUP3 MSTORE PUSH1 0x3 SWAP1 MSTORE SWAP1 DUP2 KECCAK256 DUP1 SLOAD SWAP2 PUSH2 0xB49 DUP4 PUSH2 0x1711 JUMP JUMPDEST SWAP2 SWAP1 POP SSTORE POP JUMPDEST POP POP POP JUMP JUMPDEST PUSH1 0x2 PUSH1 0x4B SLOAD SUB PUSH2 0xB77 JUMPI PUSH1 0x40 MLOAD PUSH4 0x3EE5AEB5 PUSH1 0xE0 SHL DUP2 MSTORE PUSH1 0x4 ADD PUSH1 0x40 MLOAD DUP1 SWAP2 SUB SWAP1 REVERT JUMPDEST PUSH1 0x2 PUSH1 0x4B SSTORE JUMP JUMPDEST PUSH1 0x0 DUP1 JUMPDEST PUSH1 0x40 PUSH1 0xFF DUP3 AND LT ISZERO PUSH2 0xBBD JUMPI DUP3 PUSH1 0x7 DUP3 PUSH1 0xFF AND PUSH1 0x40 DUP2 LT PUSH2 0xBA5 JUMPI PUSH2 0xBA5 PUSH2 0x15CD JUMP JUMPDEST ADD SLOAD SUB PUSH2 0xBB5 JUMPI POP PUSH1 0x1 SWAP3 SWAP2 POP POP JUMP JUMPDEST PUSH1 0x1 ADD PUSH2 0xB82 JUMP JUMPDEST POP PUSH1 0x0 SWAP3 SWAP2 POP POP JUMP JUMPDEST PUSH1 0x0 DUP1 PUSH2 0xBD2 DUP4 PUSH2 0xCC8 JUMP JUMPDEST SWAP1 POP PUSH2 0xBDE DUP2 DUP5 PUSH2 0x1597 JUMP JUMPDEST SWAP4 SWAP3 POP POP POP JUMP JUMPDEST PUSH1 0x40 MLOAD PUSH1 0x1 PUSH1 0x1 PUSH1 0xA0 SHL SUB DUP4 DUP2 AND PUSH1 0x24 DUP4 ADD MSTORE PUSH1 0x44 DUP3 ADD DUP4 SWAP1 MSTORE PUSH2 0xB4F SWAP2 DUP6 SWAP2 DUP3 AND SWAP1 PUSH4 0xA9059CBB SWAP1 PUSH1 0x64 ADD PUSH2 0x84A JUMP JUMPDEST PUSH1 0x0 PUSH2 0xC25 PUSH1 0x20 DUP3 DUP5 DUP7 PUSH2 0x172A JUMP JUMPDEST PUSH2 0xBDE SWAP2 PUSH2 0x1754 JUMP JUMPDEST PUSH1 0x0 PUSH2 0xC3E PUSH1 0x34 PUSH1 0x20 DUP5 DUP7 PUSH2 0x172A JUMP JUMPDEST PUSH2 0xC47 SWAP2 PUSH2 0x1772 JUMP JUMPDEST PUSH1 0x60 SHR SWAP4 SWAP3 POP POP POP JUMP JUMPDEST PUSH1 0x0 PUSH2 0xC25 DUP3 PUSH1 0x34 DUP2 DUP7 PUSH2 0x172A JUMP JUMPDEST PUSH1 0x0 DUP1 PUSH1 0x20 PUSH1 0x0 DUP5 MLOAD PUSH1 0x20 DUP7 ADD PUSH1 0x0 DUP9 GAS CALL DUP1 PUSH2 0xC83 JUMPI PUSH1 0x40 MLOAD RETURNDATASIZE PUSH1 0x0 DUP3 RETURNDATACOPY RETURNDATASIZE DUP2 REVERT JUMPDEST POP POP PUSH1 0x0 MLOAD RETURNDATASIZE SWAP2 POP DUP2 ISZERO PUSH2 0xC9B JUMPI DUP1 PUSH1 0x1 EQ ISZERO PUSH2 0xCA8 JUMP JUMPDEST PUSH1 0x1 PUSH1 0x1 PUSH1 0xA0 SHL SUB DUP5 AND EXTCODESIZE ISZERO JUMPDEST ISZERO PUSH2 0x87C JUMPI DUP4 PUSH1 0x40 MLOAD PUSH4 0x5274AFE7 PUSH1 0xE0 SHL DUP2 MSTORE PUSH1 0x4 ADD PUSH2 0x3E2 SWAP2 SWAP1 PUSH2 0x152C JUMP JUMPDEST PUSH1 0x0 PUSH2 0x520 PUSH1 0x64 DUP4 PUSH2 0x17AA JUMP JUMPDEST PUSH1 0x0 PUSH1 0x64 PUSH2 0xCE4 DUP4 PUSH1 0x5A PUSH2 0x17BE JUMP JUMPDEST PUSH2 0xCEE SWAP2 SWAP1 PUSH2 0x17AA JUMP JUMPDEST SWAP1 POP PUSH1 0x0 PUSH2 0xCFC DUP3 DUP5 PUSH2 0x1597 JUMP JUMPDEST SWAP1 POP PUSH1 0x1 PUSH1 0x1 PUSH1 0xA0 SHL SUB DUP5 AND PUSH2 0xDE5 JUMPI PUSH1 0x40 MLOAD PUSH1 0x0 SWAP1 PUSH20 0x1181A7EA6E0A4350B067B0BACDF71440E70EF219 SWAP1 DUP5 SWAP1 DUP4 DUP2 DUP2 DUP2 DUP6 DUP8 GAS CALL SWAP3 POP POP POP RETURNDATASIZE DUP1 PUSH1 0x0 DUP2 EQ PUSH2 0xD62 JUMPI PUSH1 0x40 MLOAD SWAP2 POP PUSH1 0x1F NOT PUSH1 0x3F RETURNDATASIZE ADD AND DUP3 ADD PUSH1 0x40 MSTORE RETURNDATASIZE DUP3 MSTORE RETURNDATASIZE PUSH1 0x0 PUSH1 0x20 DUP5 ADD RETURNDATACOPY PUSH2 0xD67 JUMP JUMPDEST PUSH1 0x60 SWAP2 POP JUMPDEST POP POP PUSH1 0x40 MLOAD SWAP1 SWAP2 POP PUSH1 0x0 SWAP1 PUSH20 0x5F6EF81421E331F65AA3D841247927ACB00DF77A SWAP1 DUP5 SWAP1 DUP4 DUP2 DUP2 DUP2 DUP6 DUP8 GAS CALL SWAP3 POP POP POP RETURNDATASIZE DUP1 PUSH1 0x0 DUP2 EQ PUSH2 0xDC2 JUMPI PUSH1 0x40 MLOAD SWAP2 POP PUSH1 0x1F NOT PUSH1 0x3F RETURNDATASIZE ADD AND DUP3 ADD PUSH1 0x40 MSTORE RETURNDATASIZE DUP3 MSTORE RETURNDATASIZE PUSH1 0x0 PUSH1 0x20 DUP5 ADD RETURNDATACOPY PUSH2 0xDC7 JUMP JUMPDEST PUSH1 0x60 SWAP2 POP JUMPDEST POP POP SWAP1 POP DUP2 DUP1 ISZERO PUSH2 0xDD5 JUMPI POP DUP1 JUMPDEST PUSH2 0xDDE JUMPI PUSH1 0x0 DUP1 REVERT JUMPDEST POP POP PUSH2 0x87C JUMP JUMPDEST PUSH2 0xE0D PUSH1 0x1 PUSH1 0x1 PUSH1 0xA0 SHL SUB DUP6 AND PUSH20 0x1181A7EA6E0A4350B067B0BACDF71440E70EF219 DUP5 PUSH2 0xBE5 JUMP JUMPDEST PUSH2 0x87C PUSH1 0x1 PUSH1 0x1 PUSH1 0xA0 SHL SUB DUP6 AND PUSH20 0x5F6EF81421E331F65AA3D841247927ACB00DF77A DUP4 PUSH2 0xBE5 JUMP JUMPDEST PUSH1 0x0 DUP1 PUSH1 0x0 DUP6 PUSH5 0xFFFFFFFFFF AND PUSH1 0x2 SUB PUSH2 0xFB0 JUMPI PUSH1 0xFF DUP6 AND PUSH1 0x0 SWAP1 DUP2 MSTORE PUSH1 0x4A PUSH1 0x20 MSTORE PUSH1 0x40 SWAP1 KECCAK256 SLOAD PUSH2 0xE66 SWAP1 DUP6 PUSH2 0x11F0 JUMP JUMPDEST PUSH1 0x40 DUP1 MLOAD DUP1 DUP3 ADD DUP3 MSTORE DUP4 DUP2 MSTORE PUSH1 0x20 DUP2 ADD DUP4 SWAP1 MSTORE SWAP1 MLOAD PUSH4 0x2B0AAC7F PUSH1 0xE1 SHL DUP2 MSTORE SWAP3 SWAP5 POP SWAP1 SWAP3 POP PUSH20 0x0 SWAP2 PUSH4 0x561558FE SWAP2 PUSH2 0xEB3 SWAP2 PUSH1 0x4 ADD PUSH2 0x17D5 JUMP JUMPDEST PUSH1 0x20 PUSH1 0x40 MLOAD DUP1 DUP4 SUB DUP2 DUP7 GAS DELEGATECALL ISZERO DUP1 ISZERO PUSH2 0xED0 JUMPI RETURNDATASIZE PUSH1 0x0 DUP1 RETURNDATACOPY RETURNDATASIZE PUSH1 0x0 REVERT JUMPDEST POP POP POP POP PUSH1 0x40 MLOAD RETURNDATASIZE PUSH1 0x1F NOT PUSH1 0x1F DUP3 ADD AND DUP3 ADD DUP1 PUSH1 0x40 MSTORE POP DUP2 ADD SWAP1 PUSH2 0xEF4 SWAP2 SWAP1 PUSH2 0x1540 JUMP JUMPDEST SWAP3 POP DUP3 PUSH1 0x4A PUSH1 0x0 PUSH2 0xF06 DUP9 PUSH1 0x1 PUSH2 0x17FD JUMP JUMPDEST PUSH1 0xFF AND PUSH1 0xFF AND DUP2 MSTORE PUSH1 0x20 ADD SWAP1 DUP2 MSTORE PUSH1 0x20 ADD PUSH1 0x0 KECCAK256 DUP2 SWAP1 SSTORE POP PUSH1 0x49 PUSH1 0x0 DUP7 PUSH1 0x1 PUSH2 0xF2F SWAP2 SWAP1 PUSH2 0x17FD JUMP JUMPDEST PUSH1 0xFF AND DUP2 MSTORE PUSH1 0x20 DUP2 ADD SWAP2 SWAP1 SWAP2 MSTORE PUSH1 0x40 ADD PUSH1 0x0 SWAP1 DUP2 KECCAK256 SLOAD PUSH5 0xFFFFFFFFFF AND SWAP1 SUB PUSH2 0xFAB JUMPI PUSH1 0x49 PUSH1 0x0 PUSH2 0xF61 DUP8 PUSH1 0x1 PUSH2 0x17FD JUMP JUMPDEST PUSH1 0xFF AND DUP2 MSTORE PUSH1 0x20 DUP2 ADD SWAP2 SWAP1 SWAP2 MSTORE PUSH1 0x40 ADD PUSH1 0x0 SWAP1 DUP2 KECCAK256 DUP1 SLOAD PUSH5 0xFFFFFFFFFF AND SWAP2 PUSH2 0xF89 DUP4 PUSH2 0x1694 JUMP JUMPDEST SWAP2 SWAP1 PUSH2 0x100 EXP DUP2 SLOAD DUP2 PUSH5 0xFFFFFFFFFF MUL NOT AND SWAP1 DUP4 PUSH5 0xFFFFFFFFFF AND MUL OR SWAP1 SSTORE POP POP JUMPDEST PUSH2 0x107F JUMP JUMPDEST PUSH2 0xFBB PUSH1 0x2 DUP8 PUSH2 0x1816 JUMP JUMPDEST PUSH5 0xFFFFFFFFFF AND PUSH1 0x1 SUB PUSH2 0xFD1 JUMPI DUP4 SWAP3 POP PUSH2 0x107F JUMP JUMPDEST PUSH1 0xFF DUP6 AND PUSH1 0x0 SWAP1 DUP2 MSTORE PUSH1 0x4A PUSH1 0x20 MSTORE PUSH1 0x40 SWAP1 KECCAK256 SLOAD PUSH2 0xFEE SWAP1 DUP6 PUSH2 0x11F0 JUMP JUMPDEST PUSH1 0x40 DUP1 MLOAD DUP1 DUP3 ADD DUP3 MSTORE DUP4 DUP2 MSTORE PUSH1 0x20 DUP2 ADD DUP4 SWAP1 MSTORE SWAP1 MLOAD PUSH4 0x2B0AAC7F PUSH1 0xE1 SHL DUP2 MSTORE SWAP3 SWAP5 POP SWAP1 SWAP3 POP PUSH20 0x0 SWAP2 PUSH4 0x561558FE SWAP2 PUSH2 0x103B SWAP2 PUSH1 0x4 ADD PUSH2 0x17D5 JUMP JUMPDEST PUSH1 0x20 PUSH1 0x40 MLOAD DUP1 DUP4 SUB DUP2 DUP7 GAS DELEGATECALL ISZERO DUP1 ISZERO PUSH2 0x1058 JUMPI RETURNDATASIZE PUSH1 0x0 DUP1 RETURNDATACOPY RETURNDATASIZE PUSH1 0x0 REVERT JUMPDEST POP POP POP POP PUSH1 0x40 MLOAD RETURNDATASIZE PUSH1 0x1F NOT PUSH1 0x1F DUP3 ADD AND DUP3 ADD DUP1 PUSH1 0x40 MSTORE POP DUP2 ADD SWAP1 PUSH2 0x107C SWAP2 SWAP1 PUSH2 0x1540 JUMP JUMPDEST SWAP3 POP JUMPDEST DUP5 PUSH1 0xFF AND PUSH1 0x0 SUB PUSH2 0x10A4 JUMPI PUSH1 0xFF DUP6 AND PUSH1 0x0 SWAP1 DUP2 MSTORE PUSH1 0x4A PUSH1 0x20 MSTORE PUSH1 0x40 SWAP1 KECCAK256 DUP5 SWAP1 SSTORE PUSH2 0x1182 JUMP JUMPDEST PUSH1 0xFF DUP6 AND PUSH1 0x0 SWAP1 DUP2 MSTORE PUSH1 0x49 PUSH1 0x20 DUP2 SWAP1 MSTORE PUSH1 0x40 DUP3 KECCAK256 SLOAD PUSH5 0xFFFFFFFFFF AND SWAP2 SWAP1 DUP2 PUSH2 0x10CE PUSH1 0x1 DUP11 PUSH2 0x1840 JUMP JUMPDEST PUSH1 0xFF AND DUP2 MSTORE PUSH1 0x20 DUP2 ADD SWAP2 SWAP1 SWAP2 MSTORE PUSH1 0x40 ADD PUSH1 0x0 KECCAK256 SLOAD PUSH5 0xFFFFFFFFFF AND SWAP1 POP DUP1 PUSH2 0x10F7 DUP4 PUSH1 0x1 PUSH2 0x1677 JUMP JUMPDEST PUSH2 0x1102 SWAP1 PUSH1 0x2 PUSH2 0x1859 JUMP JUMPDEST PUSH5 0xFFFFFFFFFF AND SUB PUSH2 0x117F JUMPI PUSH1 0xFF DUP8 AND PUSH1 0x0 SWAP1 DUP2 MSTORE PUSH1 0x49 PUSH1 0x20 MSTORE PUSH1 0x40 DUP2 KECCAK256 DUP1 SLOAD PUSH5 0xFFFFFFFFFF AND SWAP2 PUSH2 0x1133 DUP4 PUSH2 0x1694 JUMP JUMPDEST SWAP2 SWAP1 PUSH2 0x100 EXP DUP2 SLOAD DUP2 PUSH5 0xFFFFFFFFFF MUL NOT AND SWAP1 DUP4 PUSH5 0xFFFFFFFFFF AND MUL OR SWAP1 SSTORE POP POP DUP8 PUSH5 0xFFFFFFFFFF AND PUSH1 0x2 EQ PUSH2 0x1169 JUMPI DUP5 PUSH2 0x116B JUMP JUMPDEST DUP6 JUMPDEST PUSH1 0xFF DUP9 AND PUSH1 0x0 SWAP1 DUP2 MSTORE PUSH1 0x4A PUSH1 0x20 MSTORE PUSH1 0x40 SWAP1 KECCAK256 SSTORE JUMPDEST POP POP JUMPDEST POP POP SWAP4 SWAP3 POP POP POP JUMP JUMPDEST PUSH1 0x6 SLOAD PUSH1 0xFF AND PUSH1 0x3F NOT ADD PUSH2 0x11A4 JUMPI PUSH1 0x6 DUP1 SLOAD PUSH1 0xFF NOT AND SWAP1 SSTORE JUMPDEST PUSH1 0x6 SLOAD DUP2 SWAP1 PUSH1 0x7 SWAP1 PUSH1 0xFF AND PUSH1 0x40 DUP2 LT PUSH2 0x11BF JUMPI PUSH2 0x11BF PUSH2 0x15CD JUMP JUMPDEST ADD SSTORE PUSH1 0x6 DUP1 SLOAD PUSH1 0xFF AND SWAP1 PUSH1 0x0 PUSH2 0x11D4 DUP4 PUSH2 0x16FB JUMP JUMPDEST SWAP2 SWAP1 PUSH2 0x100 EXP DUP2 SLOAD DUP2 PUSH1 0xFF MUL NOT AND SWAP1 DUP4 PUSH1 0xFF AND MUL OR SWAP1 SSTORE POP POP POP JUMP JUMPDEST PUSH1 0x0 DUP1 DUP3 DUP5 LT PUSH2 0x1201 JUMPI DUP3 DUP5 PUSH2 0x1204 JUMP JUMPDEST DUP4 DUP4 JUMPDEST SWAP2 POP SWAP2 POP JUMPDEST SWAP3 POP SWAP3 SWAP1 POP JUMP JUMPDEST PUSH1 0x40 DUP1 MLOAD PUSH1 0xC0 DUP2 ADD DUP3 MSTORE PUSH1 0x0 PUSH1 0x60 DUP3 ADD DUP2 DUP2 MSTORE PUSH1 0x80 DUP4 ADD DUP3 SWAP1 MSTORE PUSH1 0xA0 DUP4 ADD DUP3 SWAP1 MSTORE DUP3 MSTORE PUSH1 0x20 DUP3 ADD DUP2 SWAP1 MSTORE SWAP2 DUP2 ADD SWAP2 SWAP1 SWAP2 MSTORE SWAP1 JUMP JUMPDEST PUSH1 0x40 MLOAD DUP1 PUSH1 0xA0 ADD PUSH1 0x40 MSTORE DUP1 PUSH1 0x5 SWAP1 PUSH1 0x20 DUP3 MUL DUP1 CALLDATASIZE DUP4 CALLDATACOPY POP SWAP2 SWAP3 SWAP2 POP POP JUMP JUMPDEST PUSH1 0x40 MLOAD DUP1 PUSH2 0x800 ADD PUSH1 0x40 MSTORE DUP1 PUSH1 0x40 SWAP1 PUSH1 0x20 DUP3 MUL DUP1 CALLDATASIZE DUP4 CALLDATACOPY POP SWAP2 SWAP3 SWAP2 POP POP JUMP JUMPDEST PUSH1 0x0 PUSH1 0x20 DUP3 DUP5 SUB SLT ISZERO PUSH2 0x1293 JUMPI PUSH1 0x0 DUP1 REVERT JUMPDEST POP CALLDATALOAD SWAP2 SWAP1 POP JUMP JUMPDEST PUSH4 0x4E487B71 PUSH1 0xE0 SHL PUSH1 0x0 MSTORE PUSH1 0x41 PUSH1 0x4 MSTORE PUSH1 0x24 PUSH1 0x0 REVERT JUMPDEST PUSH1 0x0 PUSH1 0x20 DUP3 DUP5 SUB SLT ISZERO PUSH2 0x12C2 JUMPI PUSH1 0x0 DUP1 REVERT JUMPDEST DUP2 CALLDATALOAD PUSH1 0x1 PUSH1 0x1 PUSH1 0x40 SHL SUB DUP2 GT ISZERO PUSH2 0x12D8 JUMPI PUSH1 0x0 DUP1 REVERT JUMPDEST DUP3 ADD PUSH1 0x1F DUP2 ADD DUP5 SGT PUSH2 0x12E9 JUMPI PUSH1 0x0 DUP1 REVERT JUMPDEST DUP1 CALLDATALOAD PUSH1 0x1 PUSH1 0x1 PUSH1 0x40 SHL SUB DUP2 GT ISZERO PUSH2 0x1302 JUMPI PUSH2 0x1302 PUSH2 0x129A JUMP JUMPDEST PUSH1 0x40 MLOAD PUSH1 0x1F DUP3 ADD PUSH1 0x1F NOT SWAP1 DUP2 AND PUSH1 0x3F ADD AND DUP2 ADD PUSH1 0x1 PUSH1 0x1 PUSH1 0x40 SHL SUB DUP2 GT DUP3 DUP3 LT OR ISZERO PUSH2 0x1330 JUMPI PUSH2 0x1330 PUSH2 0x129A JUMP JUMPDEST PUSH1 0x40 MSTORE DUP2 DUP2 MSTORE DUP3 DUP3 ADD PUSH1 0x20 ADD DUP7 LT ISZERO PUSH2 0x1348 JUMPI PUSH1 0x0 DUP1 REVERT JUMPDEST DUP2 PUSH1 0x20 DUP5 ADD PUSH1 0x20 DUP4 ADD CALLDATACOPY PUSH1 0x0 SWAP2 DUP2 ADD PUSH1 0x20 ADD SWAP2 SWAP1 SWAP2 MSTORE SWAP5 SWAP4 POP POP POP POP JUMP JUMPDEST PUSH1 0x0 DUP1 DUP4 PUSH1 0x1F DUP5 ADD SLT PUSH2 0x1378 JUMPI PUSH1 0x0 DUP1 REVERT JUMPDEST POP DUP2 CALLDATALOAD PUSH1 0x1 PUSH1 0x1 PUSH1 0x40 SHL SUB DUP2 GT ISZERO PUSH2 0x138F JUMPI PUSH1 0x0 DUP1 REVERT JUMPDEST PUSH1 0x20 DUP4 ADD SWAP2 POP DUP4 PUSH1 0x20 DUP3 DUP6 ADD ADD GT ISZERO PUSH2 0x1209 JUMPI PUSH1 0x0 DUP1 REVERT JUMPDEST PUSH1 0x0 DUP1 PUSH1 0x20 DUP4 DUP6 SUB SLT ISZERO PUSH2 0x13BA JUMPI PUSH1 0x0 DUP1 REVERT JUMPDEST DUP3 CALLDATALOAD PUSH1 0x1 PUSH1 0x1 PUSH1 0x40 SHL SUB DUP2 GT ISZERO PUSH2 0x13D0 JUMPI PUSH1 0x0 DUP1 REVERT JUMPDEST PUSH2 0x13DC DUP6 DUP3 DUP7 ADD PUSH2 0x1366 JUMP JUMPDEST SWAP1 SWAP7 SWAP1 SWAP6 POP SWAP4 POP POP POP POP JUMP JUMPDEST DUP1 CALLDATALOAD PUSH1 0x1 PUSH1 0x1 PUSH1 0xA0 SHL SUB DUP2 AND DUP2 EQ PUSH2 0x13FF JUMPI PUSH1 0x0 DUP1 REVERT JUMPDEST SWAP2 SWAP1 POP JUMP JUMPDEST PUSH1 0x0 DUP1 PUSH1 0x40 DUP4 DUP6 SUB SLT ISZERO PUSH2 0x1417 JUMPI PUSH1 0x0 DUP1 REVERT JUMPDEST PUSH2 0x1420 DUP4 PUSH2 0x13E8 JUMP JUMPDEST SWAP2 POP PUSH2 0x142E PUSH1 0x20 DUP5 ADD PUSH2 0x13E8 JUMP JUMPDEST SWAP1 POP SWAP3 POP SWAP3 SWAP1 POP JUMP JUMPDEST DUP1 PUSH1 0x40 DUP2 ADD DUP4 LT ISZERO PUSH2 0x520 JUMPI PUSH1 0x0 DUP1 REVERT JUMPDEST PUSH1 0x0 DUP1 PUSH1 0x0 DUP1 PUSH1 0x0 DUP1 PUSH1 0x0 DUP1 PUSH1 0x0 PUSH2 0x1A0 DUP11 DUP13 SUB SLT ISZERO PUSH2 0x1467 JUMPI PUSH1 0x0 DUP1 REVERT JUMPDEST DUP10 CALLDATALOAD SWAP9 POP PUSH1 0x20 DUP11 ADD CALLDATALOAD PUSH1 0x1 PUSH1 0x1 PUSH1 0x40 SHL SUB DUP2 GT ISZERO PUSH2 0x1484 JUMPI PUSH1 0x0 DUP1 REVERT JUMPDEST PUSH2 0x1490 DUP13 DUP3 DUP14 ADD PUSH2 0x1366 JUMP JUMPDEST SWAP1 SWAP10 POP SWAP8 POP PUSH2 0x14A4 SWAP1 POP DUP12 PUSH1 0x40 DUP13 ADD PUSH2 0x1437 JUMP JUMPDEST SWAP6 POP PUSH2 0x100 DUP11 ADD DUP12 DUP2 GT ISZERO PUSH2 0x14B8 JUMPI PUSH1 0x0 DUP1 REVERT JUMPDEST PUSH1 0x80 DUP12 ADD SWAP6 POP PUSH2 0x14C8 DUP13 DUP3 PUSH2 0x1437 JUMP JUMPDEST SWAP5 POP POP PUSH2 0x140 DUP11 ADD CALLDATALOAD SWAP3 POP PUSH2 0x14E0 PUSH2 0x160 DUP12 ADD PUSH2 0x13E8 JUMP JUMPDEST SWAP9 SWAP12 SWAP8 SWAP11 POP SWAP6 SWAP9 SWAP5 SWAP8 SWAP4 SWAP7 SWAP3 SWAP6 POP SWAP1 SWAP4 PUSH2 0x180 ADD CALLDATALOAD SWAP2 SWAP1 POP JUMP JUMPDEST PUSH2 0x800 DUP2 ADD DUP2 DUP4 PUSH1 0x0 JUMPDEST PUSH1 0x40 DUP2 LT ISZERO PUSH2 0x1523 JUMPI DUP2 MLOAD DUP4 MSTORE PUSH1 0x20 SWAP3 DUP4 ADD SWAP3 SWAP1 SWAP2 ADD SWAP1 PUSH1 0x1 ADD PUSH2 0x1504 JUMP JUMPDEST POP POP POP SWAP3 SWAP2 POP POP JUMP JUMPDEST PUSH1 0x1 PUSH1 0x1 PUSH1 0xA0 SHL SUB SWAP2 SWAP1 SWAP2 AND DUP2 MSTORE PUSH1 0x20 ADD SWAP1 JUMP JUMPDEST PUSH1 0x0 PUSH1 0x20 DUP3 DUP5 SUB SLT ISZERO PUSH2 0x1552 JUMPI PUSH1 0x0 DUP1 REVERT JUMPDEST POP MLOAD SWAP2 SWAP1 POP JUMP JUMPDEST PUSH1 0x60 DUP2 ADD DUP2 DUP4 PUSH1 0x0 JUMPDEST PUSH1 0x3 DUP2 LT ISZERO PUSH2 0x1523 JUMPI DUP2 MLOAD DUP4 MSTORE PUSH1 0x20 SWAP3 DUP4 ADD SWAP3 SWAP1 SWAP2 ADD SWAP1 PUSH1 0x1 ADD PUSH2 0x1562 JUMP JUMPDEST PUSH4 0x4E487B71 PUSH1 0xE0 SHL PUSH1 0x0 MSTORE PUSH1 0x11 PUSH1 0x4 MSTORE PUSH1 0x24 PUSH1 0x0 REVERT JUMPDEST DUP2 DUP2 SUB DUP2 DUP2 GT ISZERO PUSH2 0x520 JUMPI PUSH2 0x520 PUSH2 0x1581 JUMP JUMPDEST DUP2 DUP4 DUP3 CALLDATACOPY PUSH1 0x0 SWAP2 ADD SWAP1 DUP2 MSTORE SWAP2 SWAP1 POP JUMP JUMPDEST DUP1 DUP3 ADD DUP1 DUP3 GT ISZERO PUSH2 0x520 JUMPI PUSH2 0x520 PUSH2 0x1581 JUMP JUMPDEST PUSH4 0x4E487B71 PUSH1 0xE0 SHL PUSH1 0x0 MSTORE PUSH1 0x32 PUSH1 0x4 MSTORE PUSH1 0x24 PUSH1 0x0 REVERT JUMPDEST PUSH2 0x1A0 DUP2 ADD PUSH1 0x40 DUP7 DUP4 CALLDATACOPY PUSH1 0x40 DUP3 ADD DUP6 PUSH1 0x0 JUMPDEST PUSH1 0x2 DUP2 LT ISZERO PUSH2 0x1616 JUMPI PUSH1 0x40 DUP3 DUP5 CALLDATACOPY PUSH1 0x40 SWAP3 DUP4 ADD SWAP3 SWAP2 SWAP1 SWAP2 ADD SWAP1 PUSH1 0x1 ADD PUSH2 0x15F5 JUMP JUMPDEST POP POP POP PUSH1 0x40 DUP5 PUSH1 0xC0 DUP5 ADD CALLDATACOPY PUSH2 0x100 DUP3 ADD DUP4 PUSH1 0x0 JUMPDEST PUSH1 0x5 DUP2 LT ISZERO PUSH2 0x1649 JUMPI DUP2 MLOAD DUP4 MSTORE PUSH1 0x20 SWAP3 DUP4 ADD SWAP3 SWAP1 SWAP2 ADD SWAP1 PUSH1 0x1 ADD PUSH2 0x162A JUMP JUMPDEST POP POP POP SWAP6 SWAP5 POP POP POP POP POP JUMP JUMPDEST PUSH1 0x0 PUSH1 0x20 DUP3 DUP5 SUB SLT ISZERO PUSH2 0x1667 JUMPI PUSH1 0x0 DUP1 REVERT JUMPDEST DUP2 MLOAD DUP1 ISZERO ISZERO DUP2 EQ PUSH2 0xBDE JUMPI PUSH1 0x0 DUP1 REVERT JUMPDEST PUSH5 0xFFFFFFFFFF DUP2 DUP2 AND DUP4 DUP3 AND ADD SWAP1 DUP2 GT ISZERO PUSH2 0x520 JUMPI PUSH2 0x520 PUSH2 0x1581 JUMP JUMPDEST PUSH1 0x0 PUSH5 0xFFFFFFFFFF DUP3 AND PUSH5 0xFFFFFFFFFF DUP2 SUB PUSH2 0x16B2 JUMPI PUSH2 0x16B2 PUSH2 0x1581 JUMP JUMPDEST PUSH1 0x1 ADD SWAP3 SWAP2 POP POP JUMP JUMPDEST PUSH4 0x4E487B71 PUSH1 0xE0 SHL PUSH1 0x0 MSTORE PUSH1 0x12 PUSH1 0x4 MSTORE PUSH1 0x24 PUSH1 0x0 REVERT JUMPDEST PUSH1 0x0 PUSH5 0xFFFFFFFFFF DUP4 AND DUP1 PUSH2 0x16E8 JUMPI PUSH2 0x16E8 PUSH2 0x16BB JUMP JUMPDEST DUP1 PUSH5 0xFFFFFFFFFF DUP5 AND DIV SWAP2 POP POP SWAP3 SWAP2 POP POP JUMP JUMPDEST PUSH1 0x0 PUSH1 0xFF DUP3 AND PUSH1 0xFF DUP2 SUB PUSH2 0x16B2 JUMPI PUSH2 0x16B2 PUSH2 0x1581 JUMP JUMPDEST PUSH1 0x0 PUSH1 0x1 DUP3 ADD PUSH2 0x1723 JUMPI PUSH2 0x1723 PUSH2 0x1581 JUMP JUMPDEST POP PUSH1 0x1 ADD SWAP1 JUMP JUMPDEST PUSH1 0x0 DUP1 DUP6 DUP6 GT ISZERO PUSH2 0x173A JUMPI PUSH1 0x0 DUP1 REVERT JUMPDEST DUP4 DUP7 GT ISZERO PUSH2 0x1747 JUMPI PUSH1 0x0 DUP1 REVERT JUMPDEST POP POP DUP3 ADD SWAP4 SWAP2 SWAP1 SWAP3 SUB SWAP2 POP JUMP JUMPDEST DUP1 CALLDATALOAD PUSH1 0x20 DUP4 LT ISZERO PUSH2 0x520 JUMPI PUSH1 0x0 NOT PUSH1 0x20 DUP5 SWAP1 SUB PUSH1 0x3 SHL SHL AND SWAP3 SWAP2 POP POP JUMP JUMPDEST DUP1 CALLDATALOAD PUSH1 0x1 PUSH1 0x1 PUSH1 0x60 SHL SUB NOT DUP2 AND SWAP1 PUSH1 0x14 DUP5 LT ISZERO PUSH2 0x17A3 JUMPI PUSH1 0x1 PUSH1 0x1 PUSH1 0x60 SHL SUB NOT PUSH1 0x14 DUP6 SWAP1 SUB PUSH1 0x3 SHL DUP2 SWAP1 SHL DUP3 AND AND SWAP2 POP JUMPDEST POP SWAP3 SWAP2 POP POP JUMP JUMPDEST PUSH1 0x0 DUP3 PUSH2 0x17B9 JUMPI PUSH2 0x17B9 PUSH2 0x16BB JUMP JUMPDEST POP DIV SWAP1 JUMP JUMPDEST DUP1 DUP3 MUL DUP2 ISZERO DUP3 DUP3 DIV DUP5 EQ OR PUSH2 0x520 JUMPI PUSH2 0x520 PUSH2 0x1581 JUMP JUMPDEST PUSH1 0x40 DUP2 ADD DUP2 DUP4 PUSH1 0x0 JUMPDEST PUSH1 0x2 DUP2 LT ISZERO PUSH2 0x1523 JUMPI DUP2 MLOAD DUP4 MSTORE PUSH1 0x20 SWAP3 DUP4 ADD SWAP3 SWAP1 SWAP2 ADD SWAP1 PUSH1 0x1 ADD PUSH2 0x17DE JUMP JUMPDEST PUSH1 0xFF DUP2 DUP2 AND DUP4 DUP3 AND ADD SWAP1 DUP2 GT ISZERO PUSH2 0x520 JUMPI PUSH2 0x520 PUSH2 0x1581 JUMP JUMPDEST PUSH1 0x0 PUSH5 0xFFFFFFFFFF DUP4 AND DUP1 PUSH2 0x182D JUMPI PUSH2 0x182D PUSH2 0x16BB JUMP JUMPDEST DUP1 PUSH5 0xFFFFFFFFFF DUP5 AND MOD SWAP2 POP POP SWAP3 SWAP2 POP POP JUMP JUMPDEST PUSH1 0xFF DUP3 DUP2 AND DUP3 DUP3 AND SUB SWAP1 DUP2 GT ISZERO PUSH2 0x520 JUMPI PUSH2 0x520 PUSH2 0x1581 JUMP JUMPDEST PUSH5 0xFFFFFFFFFF DUP2 DUP2 AND DUP4 DUP3 AND MUL SWAP1 DUP2 AND SWAP1 DUP2 DUP2 EQ PUSH2 0x17A3 JUMPI PUSH2 0x17A3 PUSH2 0x1581 JUMP INVALID LOG2 PUSH5 0x6970667358 0x22 SLT KECCAK256 0xD2 0x21 PUSH27 0x32DBAB937538438DE76F4FA37E0BF2964FA0E0623CA30EAC2090CB SWAP7 MSTORE PUSH5 0x736F6C6343 STOP ADDMOD SHR STOP CALLER "},"methodIdentifiers":{"deposit(bytes)":"98b1e06a","getDepositDelta(bytes32)":"17933afa","getLast64Roots()":"fdd4f025","length()":"1f7b6d32","root()":"ebf0c717","userHasDeposited(address,address)":"dc25879f","withdraw(bytes32,bytes,uint256[2],uint256[2][2],uint256[2],uint256,address,uint256)":"f057d3e1","withdrawals(bytes)":"6f16f446"}}}}}