{"src/lib/PoseidonT4.sol":{"PoseidonT4":{"abi":[{"inputs":[{"internalType":"uint256[3]","name":"","type":"uint256[3]"}],"name":"hash","outputs":[{"internalType":"uint256","name":"","type":"uint256"}],"stateMutability":"pure","type":"function"}],"evm":{"bytecode":{"linkReferences":{},"object":"613050610039600b82828239805160001a607314602c57634e487b7160e01b600052600060045260246000fd5b30600052607381538281f3fe73000000000000000000000000000000000000000030146080604052600436106100355760003560e01c806320cf0a371461003a575b600080fd5b61004d610048366004612d7d565b61005f565b60405190815260200160405180910390f35b60006105fd565b8060005101826020510184608051018660a05101600080516020612f3b833981519152848509600080516020612f3b83398151915285600080516020612f3b83398151915283840909945050600080516020612f3b83398151915280600080516020612e5b8339815191528309600080516020612f3b833981519152600080516020612ffb8339815191528509600080516020612f3b833981519152600080516020612fdb8339815191528709600080516020612f3b833981519152600080516020612e3b833981519152890901010106600052600080516020612f3b83398151915280600080516020612e1b8339815191528309600080516020612f3b833981519152600080516020612f1b8339815191528509600080516020612f3b833981519152600080516020612edb8339815191528709600080516020612f3b833981519152600080516020612f5b833981519152890901010106602052600080516020612f3b83398151915280600080516020612e7b8339815191528309600080516020612f3b833981519152600080516020612f9b8339815191528509600080516020612f3b833981519152600080516020612dfb8339815191528709600080516020612f3b833981519152600080516020612ebb833981519152890901010106608052600080516020612f3b83398151915280600080516020612efb8339815191528309600080516020612f3b833981519152600080516020612fbb8339815191528509600080516020612f3b833981519152600080516020612e9b8339815191528709600080516020612f3b833981519152600080516020612f7b83398151915289090101010660a0525050505050505050565b8060005101826020510184608051018660a05101600080516020612f3b833981519152848509600080516020612f3b83398151915285600080516020612f3b833981519152838409099450600080516020612f3b8339815191528485099050600080516020612f3b83398151915284600080516020612f3b833981519152838409099350600080516020612f3b8339815191528384099050600080516020612f3b83398151915283600080516020612f3b833981519152838409099250600080516020612f3b8339815191528283099050600080516020612f3b83398151915282600080516020612f3b83398151915283840909915050600080516020612f3b83398151915280600080516020612e5b8339815191528309600080516020612f3b833981519152600080516020612ffb8339815191528509600080516020612f3b833981519152600080516020612fdb8339815191528709600080516020612f3b833981519152600080516020612e3b833981519152890901010106600052600080516020612f3b83398151915280600080516020612e1b8339815191528309600080516020612f3b833981519152600080516020612f1b8339815191528509600080516020612f3b833981519152600080516020612edb8339815191528709600080516020612f3b833981519152600080516020612f5b833981519152890901010106602052600080516020612f3b83398151915280600080516020612e7b8339815191528309600080516020612f3b833981519152600080516020612f9b8339815191528509600080516020612f3b833981519152600080516020612dfb8339815191528709600080516020612f3b833981519152600080516020612ebb833981519152890901010106608052600080516020612f3b83398151915280600080516020612efb8339815191528309600080516020612f3b833981519152600080516020612fbb8339815191528509600080516020612f3b833981519152600080516020612e9b8339815191528709600080516020612f3b833981519152600080516020612f7b83398151915289090101010660a0525050505050505050565b60007f265ddfe127dd51bd7239347b758f0a1320eb2cc7450acc1dad47f80c8dcf34d6600080516020612f3b83398151915260805106017f199750ec472f1809e0f66a545e1e51624108ac845015c2aa3dfc36bab497d8aa600080516020612f3b83398151915260a05106017f157ff3fe65ac7208110f06a5f74302b14d743ea25067f0ffd032f787c7f1cdf8600080516020612f3b83398151915260c0510601600080516020612f3b8339815191528384099350600080516020612f3b83398151915283600080516020612f3b833981519152868709099250600080516020612f3b8339815191528283099350600080516020612f3b83398151915282600080516020612f3b833981519152868709099150600080516020612f3b8339815191528182099350600080516020612f3b83398151915281600080516020612f3b833981519152868709099050600080516020612f3b83398151915280600080516020612e5b8339815191528309600080516020612f3b833981519152600080516020612ffb8339815191528509600080516020612f3b833981519152600080516020612fdb83398151915287097f211184aac7468125da9b5527788aed6331caa8335774fe66f16acc6c66c456d701010106600052600080516020612f3b83398151915280600080516020612e1b8339815191528309600080516020612f3b833981519152600080516020612f1b8339815191528509600080516020612f3b833981519152600080516020612edb83398151915287097f19764435729b98150ca53b559b7b1bdd91692d645e831f4a30d30d510792687a01010106602052600080516020612f3b83398151915280600080516020612e7b8339815191528309600080516020612f3b833981519152600080516020612f9b8339815191528509600080516020612f3b833981519152600080516020612dfb83398151915287097f21f642c132b82c867835f1753eecedd4679085e8c78f6a0ae4a8cd81e9834bdf01010106608052600080516020612f3b83398151915280600080516020612efb8339815191528309600080516020612f3b833981519152600080516020612fbb8339815191528509600080516020612f3b833981519152600080516020612e9b83398151915287097f26bc2b5c607af61196105d955bd3d9b2cf795edcf9e39d1e508c542ca85d6be30101010660a0525050506109fc7f13da07dc64d428369873e97160234641f8beb56fdd05e5f3563fa39d9c22df4e7f251ad47cb15c4f1105f109ae5e944f1ba9d9e7806d667ffec6fe723002e0b9967f0e35fb89981890520d4aef2b6d6506c3cb2f0b6973c24fa82731345ffa2d1f1e7f2e49c43c4569dd9c5fd35ac45fca33f10b15c590692f8beefe18f4896ac949026102dc565b610a887f04dba94a7b0ce9e221acad41472b6bbe3aec507f5eb3d33f463672264c9f789b7f0ed69e5e383a688f209d9a561daa79612f3f78d0467ad45485df07093f3675497f011f16b1c63a854f01992e3956f42d8b04eb650c6d535eb0203dec74befdca067f0c009b84e650e6d23dc00c7dccef7483a553939689d350cd46e7b89055fd47386102dc565b610b147f0a1ca941f057037526ea200f489be8d4c37c85bbcce6a2aeec91bd69414324477f28bf7459c9b2f4c6d8e7d06a4ee3a47f7745d4271038e5157a32fdf7ede0d6a17f259a666f129eea198f8a1c502fdb38fa39b1f075569564b6e54a485d1182323f7f0a3f2637d840f3a16eb094271c9d237b6036757d4bb50bf7ce732ff1d4fa28e86102dc565b610ba07f1cb55cad7bd133de18a64c5c47b9c97cbe4d8b7bf9e095864471537e6a4ae2c57f26e1ba52ad9285d97dd3ab52f8e840085e8fa83ff1e8f1877b074867cd2dee757f123106a93cd17578d426e8128ac9d90aa9e8a00708e296e084dd57e69caaf8117f0c6f8f958be0e93053d7fd4fc54512855535ed1539f051dcb43a26fd926361cf610066565b610c2c7f2539de1785b735999fb4dac35ee17ed0ef995d05ab2fc5faeaa69ae87bcec0a57f2b1e809ac1d10ab29ad5f20d03a57dfebadfe5903f58bafed7c508dd2287ae8c7f011003e32f6d9c66f5852f05474a4def0cda294a0eb4e9b9b12b9bb4512e55747f1dcd73e46acd8f8e0e2c7ce04bde7f6d2a53043d5060a41c7143f08e6e9055d0610066565b610cb87f179190e5d0e22179e46f8282872abc88db6e2fdc0dee99e69768bd98c5d06bfb7f1eae0ad8ab68b2f06a0ee36eeb0d0c058529097d91096b756d8fdc2fb5a60d857f192089c4974f68e95408148f7c0632edbb09e6a6ad1a1c2f3f0305f5d03b527b7f0c246c5a2ef8ee0126497f222b3e0a0ef4e1c3d41c86d46e43982cb11d77951d610066565b610d447f10ba3a0e01df92e87f301c4b716d8a394d67f4bf42a75c10922910a78f6b5b877f064760623c25c8cf753d238055b444532be13557451c087de09efd454b23fd597f225d394e42207599403efd0c2464a90d52652645882aac35b10e590e6e691e087f29bb9e2c9076732576e9a81c7ac4b83214528f7db00f31bf6cafe794a9b3cd1c610066565b610dd07f2ec93189bd1ab4f69117d0fe980c80ff8785c2961829f701bb74ac1f303b17db7f1d7cb39bafb8c744e148787a2e70230f9d4e917d5713bb050487b5aa7d74070b7f1b94cd61b051b04dd39755ff93821a73ccd6cb11d2491d8aa7f921014de252fb7f0e070bf53f8451b24f9c6e96b0c2a801cb511bc0c242eb9d361b77693f21471c610066565b610e5c7f20fc411a114d13992c2705aa034e3f315d78608a0f7de4ccf7a72e494855ad0d7f0761d33c66614aaa570e7f1e8244ca1120243f92fa59e4f900c567bf41f5a59b7f062100eb485db06269655cf186a68532985275428450359adc99cec6960711b87f2db366bfdd36d277a692bb825b86275beac404a19ae07a9082ea46bd83517926610066565b610ee87f26c0c8fe09eb30b7e27a74dc33492347e5bdff409aa3610254413d3fad795ce57f22734b4c5c3f9493606c4ba9012499bf0f14d13bfcfcccaa16102a29cc2f69e07f23b1822d278ed632a494e58f6df6f5ed038b186d8474155ad87e7dff62b37f4b7f25b5c004a4bdfcb5add9ec4e9ab219ba102c67e8b3effb5fc3a30f317250bc5a610066565b610f747f1a306d439d463b0816fc6fd64cc939318b45eb759ddde4aa106d15d9bd9baaaa7f248d97d7f76283d63bec30e7a5876c11c06fca9b275c671c5e33d95bb7e8d7297f12b6595bdb329b6fb043ba78bb28c3bec2c0a6de46d8c5ad6067c4ebfd4250da7f070dd0ccb6bd7bbae88eac03fa1fbb26196be3083a809829bbd626df348ccad9610066565b610fff7f2a6cf5e9aa03d4336349ad6fb8ed2269c7bef54b8822cc76d08495c12efde1877f04d5ee4c3aa78f7d80fde60d716480d3593f74d4f653ae83f4103246db2e8d657e94975717f9a8a8bb35152f24d43294071ce320c829f388bc852183e1e2ce7e7f28a8f8372e3c38daced7c00421cb4621f4f1b54ddc27821b0d62d3d6ec7c56cf610066565b61108a7f159f81ada0771799ec38fca2d4bf65ebb13d3a74f3298db36272c5ca65e92d9a7eb7258ded52bbda2248404d55ee5044798afc3a209193073f7954d4d63b0b647f03fd9ac865a4b2a6d5e7009785817249bff08a7e0726fcb4e1c11d39d199f0b07f2304d31eaab960ba9274da43e19ddeb7f792180808fd6e43baae48d7efcba3f3610066565b6111167f0832e5753ceb0ff6402543b1109229c165dc2d73bef715e3f1c6e07c168bb1737f2b1b045def3a166cec6ce768d079ba74b18c844e570e1f826575c1068c94c33f7f1e65f838515e5ff0196b49aa41a2d2568df739bc176b08ec95a79ed82932e30d7f1ef90e67437fbc8550237a75bc28e3bb9000130ea25f0c5471e144cf4264431f610066565b6111a27f22ead100e8e482674decdab17066c5a26bb1515355d5461a3dc06cc85327cea97f0493630b7c670b6deb7c84d414e7ce79049f0ec098c3c7c50768bbe29214a53a7f0e2427d38bd46a60dd640b8e362cad967370ebb777bedff40f6a0be27e7ed7057f02f614e9cedfb3dc6b762ae0a37d41bab1b841c2e8b6451bc5a8e3c390b6ad16610066565b61122e7f2f569b8a9a4424c9278e1db7311e889f54ccbf10661bab7fcd18e7c7a7d835057f2fa2a871c15a387cc50f68f6f3c3455b23c00995f05078f672a9864074d412e57f1e32752ada8836ef5837a6cde8ff13dbb599c336349e4c584b4fdc0a0cf6f9d07f25b3e56e655b42cdaae2626ed2554d48583f1ae35626d04de5084e0b6d2a6f16610066565b6112ba7f0ef915f0ac120b876abccceb344a1d36bad3f3c5ab91a8ddcbec2e060d8befac7f02fcca2934e046bc623adead873579865d03781ae090ad4a8579d2e7a68003557f227808de93906d5d420246157f2e42b191fe8c90adfe118178ddc723a53190257f044cb455110a8fdd531ade530234c518a7df93f7332ffd2144165374b246b43d610066565b6113467f25721c4fc15a3f2853b57c338fa538d85f8fbba6c6b9c6090611889b797b9c5f7f1fffb9ec1992d66ba1e77a7b93209af6f8fa76d48acb664796174b5326a31a5c7f0a76225dc04170ae3306c85abab59e608c7f497c20156d4d36c668555decc6e57f1797130f4b7a3e1777eb757bc6f287f6ab0fb85f6be63b09f3b16ef2b1405d38610066565b6113d27f21ca859468a746b6aaa79474a37dab49f1ca5a28c748bc7157e1b3345bb0f9597f2106feea546224ea12ef7f39987a46c85c1bc3dc29bdbd7a92cd60acb4d391ce7f13abe3f5239915d39f7e13c2c24970b6df8cf86ce00a22002bc15866e52b5a967f0c817fd42d5f7a41215e3d07ba197216adb4c3790705da95eb63b982bfcaf75a610066565b61145e7f09d3dca9173ed2faceea125157683d18924cadad3f655a60b72f5864961f14557f0558531a4e25470c6157794ca36d0e9647dbfcfe350d64838f5b1a8a2de0d4bf7f0f0e34a64b70a626e464d846674c4c8816c4fb267fe44fe6ea28678cb09490a47f05ccd6255c1e6f0c5cf1f0df934194c62911d14d0321662a8f1a48999e34185b610066565b6114ea7f176563472456aaa746b694c60e1823611ef39039b2edc7ff391e6f2293d2c4047f1daf345a58006b736499c583cb76c316d6f78ed6a6dffc82111e11a63fe412df7f2bf07216e2aff0a223a487b1a7094e07e79e7bcc9798c648ee3347dd5329d34b7f0328cbd54e8c0913493f866ed03d218bf23f92d68aaec48617d4c722e5bd4335610066565b6115767f2debff156e276bb5742c3373f2635b48b8e923d301f372f8e550cfd4034212c77f14bce3549cc3db7428126b4c3a15ae0ff8148c89f13fb35d35734eb5d4ad0def7f226c9b1af95babcf17b2b1f57c7310179c1803dec5ae8f0a1779ed36c817ae2a7f2ef1e0fad9f08e87a3bb5e47d7e33538ca964d2b7d1083d4fb0225035bd3f8db610066565b6116027f0b61811a9210be78b05974587486d58bddc8f51bfdfebbb87afe8b7aa7d3199c7f03152169d4f3d06ec33a79bfac91a02c99aa0200db66d5aa7b835265f9c9c8f37f0c225b7bcd04bf9c34b911262fdc9c1b91bf79a10c0184d89c317c53d7161c297f2d4083cf5a87f5b6fc2395b22e356b6441afe1b6b29c47add7d0432d1d4760c7610066565b61168d7e780af2ca1cad6465a2171250fdfc32d6fc241d3214177f3d553ef3631821857f0376b4fae08cb03d3500afec1a1f56acb8e0fde75a2106d7002f59c5611d4daa7f1a44bf0937c722d1376672b69f6c9655ba7ee386fda1112c0757143d1bfa91467f203e000cad298daaf7eba6a5c5921878b8ae48acf7048f16046d637a533b6f78610066565b6117187f222c01175718386f2e2e82eb122789e352e105a3b8fa852613bc534433ee428c7e544b8338791518b2c7645a50392798b21f75bb60e3596170067d00141cac167f10dc6e9c006ea38b04b1e03b4bd9490c0d03f98929ca1d7fb56821fd19d3b6e87f10774d9ab80c25bdeb808bedfd72a8d9b75dbe18d5221c87e9d857079bdc31d5610066565b6117a47f04a533f236c422d1ff900a368949b0022c7a2ae092f308d82b1dcbbf51f5000d7f06041bdac48205ac87adb87c20a478a71c9950c12a80bc0a55a8e83eaaf047467f062752f86eebe11a009c937e468c335b04554574c2990196508e01fa5860186b7f2840d045e9bc22b259cfb8811b1e0f45b77f7bdb7f7e2b46151a1430f608e3c5610066565b6118307f14abdec8db9c6dc970291ee638690209b65080781ef9fd13d84c7a726b5f13647f0b0d219346b8574525b1a270e0b4cba5d56c928e3e2c2bd0a1ecaed015aaf6ae7f011c2683ae91eb4dfbc13d6357e8599a9279d1648ff2c95d2f79905bb13920f17f13e31d7a67232fd811d6a955b3d4f25dfe066d1e7dc33df04bde50a2b2d05b2a610066565b6118bc7f2567a658a81ffb444f240088fa5524c69a9e53eeab6b7f8c41c3479dcf8c644a7f16eb59494a9776cf57866214dbd1473f3f0738a325638d8ba36535e011d582597f278543721f96d1307b6943f9804e7fe56401deb2ef99c4d12704882e7278b6077f1a0b70b4b26fdc28fcd32aa3d266478801eb12202ef47ced988d0376610be106610066565b6119487f02db50480a07be0eb2c2e13ed6ef4074c0182d9b668b8e08ffe67692500420257f16bd7d22ff858e5e0882c2c999558d77e7673ad5f1915f9feb679a8115f014cf7f15c091233e60efe0d4bbfce2b36415006a4f017f9a85388ce206b91f99f2c9847f29aa1d7c151e9ad0a7ab39f1abd9cf77ab78e0215a5715a6b882ade840bb13d8610066565b6119d47f1498a307e68900065f5e8276f62aef1c37414b84494e1577ad1a6d64341b78ec7f0184bef721888187f645b6fee3667f3c91da214414d89ba5cd301f22b0de89907f1dda05ebc30170bc98cbf2a5ee3b50e8b5f70bc424d39fa4104d37f1cbcf7a427f05e4a220e6a3bc9f7b6806ec9d6cdba186330ef2bf7adb4c13ba866343b73119610066565b611a607f0f53dafd535a9f4473dc266b6fccc6841bbd336963f254c152f89e785f729bbf7f2f77d77786d979b23ba4ce4a4c1b3bd0a41132cd467a86ab29b913b6cf3149d07f09d317cc670251943f6f5862a30d2ea9e83056ce4907bfbbcb1ff31ce5bb96507f25f40f82b31dacc4f4939800b9d2c3eacef737b8fab1f864fe33548ad46bd49d610066565b611aec7f24a6073f91addc33a49a1fa306df008801c5ec569609034d2fc50f7f0f4d00567f1ce1580a3452ecf302878c8976b82be96676dd114d1dc8d25527405762f835297f2a902c8980c17faae368d385d52d16be41af95c84eaea3cf893e65d6ce4a8f627f25c1fd72e223045265c3a099e17526fa0e6976e1c00baf16de96de85deef2fa2610066565b611b787f2754114281286546b75f09f115fc751b4778303d0405c1b4cc7df0d8e9f639257f06342da370cc0d8c49b77594f6b027c480615d50be36243a99591bc9924ed6f57f23dffae3c423fa7a93468dbccfb029855974be4d0a7b29946796e5b6cd70f15d7f25e52dbd6124530d9fc27fe306d71d4583e07ca554b5d1577f256c68b0be2b74610066565b611c047f17662f7456789739f81cd3974827a887d92a5e05bdf3fe6b9fbccca4524aaebd7f13ccf689d67a3ec9f22cb7cd0ac3a327d377ac5cd0146f048debfd098d3ec7be7f265fe062766d08fab4c78d0d9ef3cabe366f3be0a821061679b4b3d2d77d5f3e7f15c19e8534c5c1a8862c2bc1d119eddeabf214153833d7bdb59ee197f8187cf5610066565b611c907f2ddb2e376f54d64a563840480df993feb4173203c2bd94ad0e602077aef9a03e7f2bc07ea2bfad68e8dc724f5fef2b37c2d34f761935ffd3b739ceec4668f37e887f18137478382aadba441eb97fe27901989c06738165215319939eb17b01fa975c7f21b29c76329b31c8ef18631e515f7f2f82ca6a5cca70cee4e809fd624be7ad5d610066565b611d1c7f11fe5b18fbbea1a86e06930cb89f7d4a26e186a65945e96574247fddb720f8f57f0b8442bfe9e4a1b4428673b6bd3eea6f9f445697058f134aae908d0279a29f0c7f0d4de47e1aba34269d0c620904f01a56b33fc4b450c0db50bb7f87734c9a1fe57f277eb50f2baa706106b41cb24c602609e8a20f8d72f613708adb25373596c3f7610066565b611da87f30185c48b7b2f1d53d4120801b047d087493bce64d4d24aedce2f4836bb84ad47f221b63d66f0b45f9d40c54053a28a06b1d0a4ce41d364797a1a7e0c96529f4217f0b2ca6a999fe6887e0704dad58d03465a96bc9e37d1091f61bc9f9c62bbeb8247f224026f6dfaf71e24d25d8f6d9f90021df5b774dcad4d883170e4ad89c33a0d6610066565b611e347f1444e8f592bdbfd8025d91ab4982dd425f51682d31472b05e81c43c0f9434b317f0977545836866fa204ca1d853ec0909e3d140770c80ac67dc930c69748d5d4bc7f2716683b32c755fd1bf8235ea162b1f388e1e0090d06162e8e6dfbe4328f3e3b7f23f5d372a3f0e3cba989e223056227d3533356f0faa48f27f8267318632a61f0610066565b611ec07f1db1db8aa45283f31168fa66694cf2808d2189b87c8c8143d56c871907b39b877f174b54d9907d8f5c6afd672a738f42737ec338f3a0964c629f7474dd44c5c8d77f22a5c2fa860d11fe34ee47a5cd9f869800f48f4febe29ad6df69816fb1a914d27f26e04b65e9ca8270beb74a1c5cb8fee8be3ffbfe583f7012a00f874e7718fbe3610066565b611f4c7f2b30d53ed1759bfb8503da66c92cf4077abe82795dc272b377df57d77c8755267f29c25a22fe2164604552aaea377f448d587ab977fc8227787bd2dc0f36bcf41e7f0b73f613993229f59f01c1cec8760e9936ead9edc8f2814889330a2f2bade4577f1530bf0f46527e889030b8c7b7dfde126f65faf8cce0ab66387341d813d1bfd1610066565b611fd87f0a99b3e178db2e2e432f5cd5bef8fe4483bf5cbf70ed407c08aae24b830ad7257f1ec9daea860971ecdda8ed4f346fa967ac9bc59278277393c68f09fa03b8b95f7f2520e18300afda3f61a40a0b8837293a55ad01071028d4841ffa9ac7063641137f12f6d703b5702aab7b7b7e69359d53a2756c08c85ede7227cf5f0a2916787cd2610066565b6120647f1049a6c65ff019f0d28770072798e8b7909432bd0c129813a9f179ba627f7d6a7f2737f8ce1d5a67b349590ddbfbd709ed9af54a2a3f2719d33801c9c17bdd9c9e7f08c9c65a4f955e8952d571b191bb0adb49bd8290963203b35d48aab38f8fc3a37f07cda9e63db6e39f086b89b601c2bbe407ee0abac3c817a1317abad7c5778492610066565b6120f07f265a5eccd8b92975e33ad9f75bf3426d424a4c6a7794ee3f08c1d100378e545e7f2ec5f2f1928fe932e56c789b8f6bbcb3e8be4057cbd8dbd18a1b352f5cef42ff7f2ff2b6fd22df49d2440b2eaeeefa8c02a6f478cfcf11f1b2a4f7473483885d197f18b4fe968732c462c0ea5a9beb27cecbde8868944fdf64ee60a5122361daeddb610066565b61217c7f01a75666f6241f6825d01cc6dcb1622d4886ea583e87299e6aa2fc716fdb6cf57f2c30d5f33bb32c5c22b9979a605bf64d508b705221e6a686330c9625c2afe0b87f094c97d8c194c42e88018004cbbf2bc5fdb51955d8b2d66b76dd98a2dbf604177f2405eaa4c0bde1129d6242bb5ada0e68778e656cfcb366bf20517da1dfd4279c610066565b6122087f2cf4051e6cab48301a8b2e3bca6099d756bbdf485afa1f549d395bbcbd8064617f27aa8d3e25380c0b1b172d79c6f22eee99231ef5dc69d8dc13a4b5095d0287727f154ade9ca36e268dfeb38461425bb0d8c31219d8fa0dfc75ecd21bf69aa0cc747f0a3290e8398113ea4d12ac091e87be7c6d359ab9a66979fcf47bf2e87d382fcb610066565b6122947f0dc8a2146110c0b375432902999223d5aa1ef6e78e1e5ebcbc1d9ba41dc1c7377f1b362e72a5f847f84d03fd291c3c471ed1c14a15b221680acf11a3f02e46aa957f298beb64f812d25d8b4d9620347ab02332dc4cef113ae60d17a8d7a4c91f83bc7f301e70f729f3c94b1d3f517ddff9f2015131feab8afa5eebb0843d7f84b23e71610066565b6123207f01001cf512ac241d47ebe2239219bc6a173a8bbcb8a5b987b4eac1f533315b6b7f1b5b2946f7c28975f0512ff8e6ca362f8826edd7ea9c29f382ba8a2a0892fd5d7f0a87391fb1cd8cdf6096b64a82f9e95f0fe46f143b702d74545bb314881098ee7f0a48663b34ce5e1c05dc93092cb69778cb21729a72ddc03a08afa1eb922ff279610066565b6123ac7f2d9b10c2f2e7ac1afddccffd94a563028bf29b646d020830919f9d5ca1cefe597f19d43ee0c6081c052c9c0df6161eaac1aec356cf435888e79f27f22ff03fa25d7f23c0039a3fab4ad3c2d7cc688164f39e761d5355c05444d99be763a97793a9c47f2fd977c70f645db4f704fa7d7693da727ac093d3fb5f5febc72beb17d8358a32610066565b6124387f0f97ae3033ffa01608aafb26ae13cd393ee0e4ec041ba644a3d3ab546e98c9c87f19d2cc5ca549d1d40cebcd37f3ea54f31161ac3993acf3101d2c2bc30eac1eb07f0abc392fe85eda855820592445094022811ee8676ed6f0c3044dfb54a7c10b357f2457ca6c2f2aa30ec47e4aff5a66f5ce2799283e166fc81cdae2f2b9f83e4267610066565b6124c47f2e47e15ea4a47ff1a6a853aaf3a644ca38d5b085ac1042fdc4a705a7ce089f4d7f0a1bb075aa37ff0cfe6c8531e55e1770eaba808c8fdb6dbf46f8cab58d9ef1af7f240faf28f11499b916f085f73bc4f22eef8344e576f8ad3d1827820366d5e07b7f16dbc78fd28b7fb8260e404cf1d427a7fa15537ea4e168e88a166496e88cfeca610066565b6125507f242acd3eb3a2f72baf7c7076dd165adf89f9339c7b971921d9e70863451dd8d17f089cb1b032238f5e4914788e3e3c7ead4fc368020b3ed38221deab1051c377027f18b42d7ffdd2ea4faf235902f057a2740cacccd027233001ed10f96538f0916f7f166e5bf073378348860ca4a9c09d39e1673ab059935f4df35fb14528375772b6610066565b6125dc7f0529898dc0649907e1d4d5e284b8d1075198c55cad66e8a9bf40f92938e2e9617f1e8e40ac853b7d42f00f2e383982d024f098b9f8fd455953a2fd380c4df7f6b27f17340e71d96f466d61f3058ce092c67d2891fb2bb318613f780c275fe1116c6b7f174fbb104a4ee302bf47f2bd82fce896eac9a068283f326474af860457245c3b610066565b6126677eccf13e0cb6f9d81d52951bea990bd5b6c07c5d98e66ff71db6e74d5b87d1587f292643e3ba2026affcb8c5279313bd51a733c93353e9d9c79cb723136526508e7f12c7553698c4bf6f3ceb250ae00c58c2a9f9291efbde4c8421bef44741752ec67f2162754db0baa030bf7de5bb797364dce8c77aa017ee1d7bf65f21c4d4e5df8f610066565b6126f37f1b8fd9ff39714e075df124f887bf40b383143374fd2080ba0c0a6b6e8fa5b3e87f0f356841b3f556fce5dbe4680457691c2919e2af53008184d03ee1195d72449e7f14c61c836d55d3df742bdf11c60efa186778e3de0f024c0f13fe53f8d8764e1f7f185d1e20e23b0917dd654128cf2f3aaab6723873cb30fc22b0f86c15ab645b4b610066565b61277f7f29a3110463a5aae76c3d152875981d0c1daf2dcd65519ef5ca8929851da8c0087f05d797f1ab3647237c14f9d1df032bc9ff9fe1a0ecd377972ce5fd5a0c0146047f2e6c5e898f5547770e5462ad932fcdd2373fc43820ca2b16b0861421e79155c87f0e86a8c2009c140ca3f873924e2aaa14fc3c8ae04e9df0b3e9103418796f6024610066565b61280b7f1e6aac1c6d3dd3157956257d3d234ef18c91e82589a78169fbb4a8770977dc2f7f1c793ef0dcc51123654ff26d8d863feeae29e8c572eca912d80c8ae36e40fe9b7f1ed0fb06699ba249b2a30621c05eb12ca29cb91aa082c8bfcce9c522889b47dc7f2974da7bc074322273c3a4b91c05354cdc71640a8bbd1f864b732f8163883314610066565b6128967f0b0d7e69c651910bbef3e68d417e9fa0fbd57f596c8f29831eff8c0174cdb06d7e6e5979da7e7ef53a825aa6fddc3abfc76f200b3740b8b232ef481f5d06297b7f191033d6d85ceaa6fc7a9a23a6fd9996642d772045ece51335d49306728af96c7f1a20ada7576234eee6273dd6fa98b25ed037748080a47d948fcda33256fb6bf5610066565b6129227f0136df457c80588dd687fb2f3be18691705b87ec5a4cfdc168d31084256b67dc7f16af29695157aba9b8bbe3afeb245feee5a929d9f928b9b81de6dadc78c32aae7f12c1ea892cc31e0d9af8b796d9645872f7f77442d62fd4c8085b2f150f72472a7f25caf5b0c1b93bc516435ec084e2ecd44ac46dbbb033c5112c4b20a25c9cdf9d610066565b6129ae7f13f9b9a41274129479c5e6138c6c8ee36a670e6bc68c7a49642b645807bfc8247f11aeeb527dc8ce44b4d14aaddca3cfe2f77a1e40fc6da97c249830de1edfde547f03d62fbf82fd1d4313f8e650f587ec06816c28b700bdc50f7e232bd9b5ca9b767f1639a28c5b4c81166aea984fba6e71479e07b1efbc74434db95a285060e7b089610066565b612a3a7f2cf0a09a55ca93af8abd068f06a7287fb08b193b608582a27379ce35da915dec7f2bedb66e1ad5a1d571e16e2953f48731f66463c2eb54a245444d1c0a3a25707e7f1b39a00cbc81e427de4bdec58febe8d8b5971752067a612b39fc46a68c5d4db47f0e4772fa3d75179dc8484cd26c7c1f635ddeeed7a939440c506cae8b7ebcd15b6102dc565b612ac67f1aa9d3fe4c644910f76b92b3e13b30d500dae5354e79508c3c49c8aa99e0258b7f2d933ff19217a5545013b12873452bebcc5f9969033f15ec642fb464bd6073687f065610c6f4f92491f423d3071eb83539f7c0d49c1387062e630d7fd283dc33947f2d1bd78fa90e77aa88830cabfef2f8d27d1a512050ba7db0753c8fb863efb3876102dc565b612b517eb4567186bc3f7c62a7b56acf4f76207a1f43c2d30d0fe4a627dcdd9bd790787f0c7c382443c6aa787c8718d86747c7f74693ae25b1e55df13f7c3c1dd735db0f7f2b7d524c5172cbbb15db4e00668a8c449f67a2605d9ec03802e3fa136ad0b8fb7f027ef04869e482b1c748638c59111c6b27095fa773e1aca078cea1f1c8450bdd6102dc565b7f1e41fc29b825454fe6d61737fe08b47fb07fe739e4c1e61d0337490883db4fd5600051017f12507cd556b7bbcc72ee6dafc616584421e1af872d8c0e89002ae8d3ba0653b6602051017f13d437083553006bcef312e5e6f52a5d97eb36617ef36fe4d77d3e97f71cb5db608051017f163ec73251f85443687222487dda9a65467d90b22f0b38664686077c6a4486d560a05101600080516020612f3b8339815191528485099450600080516020612f3b83398151915284600080516020612f3b833981519152878809099350600080516020612f3b8339815191528384099450600080516020612f3b83398151915283600080516020612f3b833981519152878809099250600080516020612f3b8339815191528283099450600080516020612f3b83398151915282600080516020612f3b833981519152878809099150600080516020612f3b8339815191528182099450600080516020612f3b83398151915281600080516020612f3b833981519152878809099050600080516020612f3b83398151915280600080516020612f3b833981519152600080516020612e5b8339815191528409600080516020612f3b833981519152600080516020612ffb8339815191528609600080516020612f3b833981519152600080516020612fdb8339815191528809600080516020612f3b833981519152600080516020612e3b8339815191528a09010101060660005260206000f35b634e487b7160e01b600052604160045260246000fd5b600060608284031215612d8f57600080fd5b82601f830112612d9e57600080fd5b604051606081016001600160401b0381118282101715612dc057612dc0612d67565b604052806060840185811115612dd557600080fd5b845b81811015612def578035835260209283019201612dd7565b50919594505050505056fe2e18c8570d20bf5df800739a53da75d906ece318cd224ab6b3a2be979e2d7eab0d745fd00dd167fb86772133640f02ce945004a7bc2c59e8790f725c5d84f0af236d13393ef85cc48a351dd786dd7a1de5e39942296127fd87947223ae5108ad1d359d245f286c12d50d663bae733f978af08cdbd63017c57b3a75646ff382c103f3e6fab791f16628168e4b14dbaeb657035ee3da6b2ca83f0c2491e0b403eb23810bf82877fc19bff7eefeae3faf4bb8104c32ba4cd701596a15623d01476e2070679e798782ef592a52ca9cef820d497ad2eecbaa7e42f366b3e521c4ed42083abff5e10051f078e2827d092e1ae808b4dd3e15ccc3706f38ce4157b6770e00c15fc3a1d5733dd835eae0823e377f8ba4a8b627627cc2bb661c25d20fb52a1a5ad71bbbecd8a97dc49cfdbae303ad24d5c4741eab8b7568a9ff8253a1eb6f30644e72e131a029b85045b68181585d2833e84879b9709143e1f593f00000012a75a171563b807db525be259699ab28fe9bc7fb1f70943ff049bc970e841a0c2f545e578202c9732488540e41f783b68ff0613fd79375f8ba8b3d30958e76770fa86f0f27e4d3dd7f3367ce86f684f1f2e4386d3e5b9f38fa283c6aa723b608014fcd5eb0be6d5beeafc4944034cf321c068ef930f10be2207ed58d2a34cdd6277686494f7644bbc4a9b194e10724eb967f1dc58718e59e3cedc821b2a7ae19023db68784e3f0cc0b85618826a9b3505129c16479973b0a84a4529e66b09c62a264697066735822122061c1f52d152da101b4a3bb1b335ba46fdb8f2850d98338f4b60b3da57b2eca1664736f6c634300081c0033","opcodes":"PUSH2 0x3050 PUSH2 0x39 PUSH1 0xB DUP3 DUP3 DUP3 CODECOPY DUP1 MLOAD PUSH1 0x0 BYTE PUSH1 0x73 EQ PUSH1 0x2C JUMPI PUSH4 0x4E487B71 PUSH1 0xE0 SHL PUSH1 0x0 MSTORE PUSH1 0x0 PUSH1 0x4 MSTORE PUSH1 0x24 PUSH1 0x0 REVERT JUMPDEST ADDRESS PUSH1 0x0 MSTORE PUSH1 0x73 DUP2 MSTORE8 DUP3 DUP2 RETURN INVALID PUSH20 0x0 ADDRESS EQ PUSH1 0x80 PUSH1 0x40 MSTORE PUSH1 0x4 CALLDATASIZE LT PUSH2 0x35 JUMPI PUSH1 0x0 CALLDATALOAD PUSH1 0xE0 SHR DUP1 PUSH4 0x20CF0A37 EQ PUSH2 0x3A JUMPI JUMPDEST PUSH1 0x0 DUP1 REVERT JUMPDEST PUSH2 0x4D PUSH2 0x48 CALLDATASIZE PUSH1 0x4 PUSH2 0x2D7D JUMP JUMPDEST PUSH2 0x5F JUMP JUMPDEST PUSH1 0x40 MLOAD SWAP1 DUP2 MSTORE PUSH1 0x20 ADD PUSH1 0x40 MLOAD DUP1 SWAP2 SUB SWAP1 RETURN JUMPDEST PUSH1 0x0 PUSH2 0x5FD JUMP JUMPDEST DUP1 PUSH1 0x0 MLOAD ADD DUP3 PUSH1 0x20 MLOAD ADD DUP5 PUSH1 0x80 MLOAD ADD DUP7 PUSH1 0xA0 MLOAD ADD PUSH1 0x0 DUP1 MLOAD PUSH1 0x20 PUSH2 0x2F3B DUP4 CODECOPY DUP2 MLOAD SWAP2 MSTORE DUP5 DUP6 MULMOD PUSH1 0x0 DUP1 MLOAD PUSH1 0x20 PUSH2 0x2F3B DUP4 CODECOPY DUP2 MLOAD SWAP2 MSTORE DUP6 PUSH1 0x0 DUP1 MLOAD PUSH1 0x20 PUSH2 0x2F3B DUP4 CODECOPY DUP2 MLOAD SWAP2 MSTORE DUP4 DUP5 MULMOD MULMOD SWAP5 POP POP PUSH1 0x0 DUP1 MLOAD PUSH1 0x20 PUSH2 0x2F3B DUP4 CODECOPY DUP2 MLOAD SWAP2 MSTORE DUP1 PUSH1 0x0 DUP1 MLOAD PUSH1 0x20 PUSH2 0x2E5B DUP4 CODECOPY DUP2 MLOAD SWAP2 MSTORE DUP4 MULMOD PUSH1 0x0 DUP1 MLOAD PUSH1 0x20 PUSH2 0x2F3B DUP4 CODECOPY DUP2 MLOAD SWAP2 MSTORE PUSH1 0x0 DUP1 MLOAD PUSH1 0x20 PUSH2 0x2FFB DUP4 CODECOPY DUP2 MLOAD SWAP2 MSTORE DUP6 MULMOD PUSH1 0x0 DUP1 MLOAD PUSH1 0x20 PUSH2 0x2F3B DUP4 CODECOPY DUP2 MLOAD SWAP2 MSTORE PUSH1 0x0 DUP1 MLOAD PUSH1 0x20 PUSH2 0x2FDB DUP4 CODECOPY DUP2 MLOAD SWAP2 MSTORE DUP8 MULMOD PUSH1 0x0 DUP1 MLOAD PUSH1 0x20 PUSH2 0x2F3B DUP4 CODECOPY DUP2 MLOAD SWAP2 MSTORE PUSH1 0x0 DUP1 MLOAD PUSH1 0x20 PUSH2 0x2E3B DUP4 CODECOPY DUP2 MLOAD SWAP2 MSTORE DUP10 MULMOD ADD ADD ADD MOD PUSH1 0x0 MSTORE PUSH1 0x0 DUP1 MLOAD PUSH1 0x20 PUSH2 0x2F3B DUP4 CODECOPY DUP2 MLOAD SWAP2 MSTORE DUP1 PUSH1 0x0 DUP1 MLOAD PUSH1 0x20 PUSH2 0x2E1B DUP4 CODECOPY DUP2 MLOAD SWAP2 MSTORE DUP4 MULMOD PUSH1 0x0 DUP1 MLOAD PUSH1 0x20 PUSH2 0x2F3B DUP4 CODECOPY DUP2 MLOAD SWAP2 MSTORE PUSH1 0x0 DUP1 MLOAD PUSH1 0x20 PUSH2 0x2F1B DUP4 CODECOPY DUP2 MLOAD SWAP2 MSTORE DUP6 MULMOD PUSH1 0x0 DUP1 MLOAD PUSH1 0x20 PUSH2 0x2F3B DUP4 CODECOPY DUP2 MLOAD SWAP2 MSTORE PUSH1 0x0 DUP1 MLOAD PUSH1 0x20 PUSH2 0x2EDB DUP4 CODECOPY DUP2 MLOAD SWAP2 MSTORE DUP8 MULMOD PUSH1 0x0 DUP1 MLOAD PUSH1 0x20 PUSH2 0x2F3B DUP4 CODECOPY DUP2 MLOAD SWAP2 MSTORE PUSH1 0x0 DUP1 MLOAD PUSH1 0x20 PUSH2 0x2F5B DUP4 CODECOPY DUP2 MLOAD SWAP2 MSTORE DUP10 MULMOD ADD ADD ADD MOD PUSH1 0x20 MSTORE PUSH1 0x0 DUP1 MLOAD PUSH1 0x20 PUSH2 0x2F3B DUP4 CODECOPY DUP2 MLOAD SWAP2 MSTORE DUP1 PUSH1 0x0 DUP1 MLOAD PUSH1 0x20 PUSH2 0x2E7B DUP4 CODECOPY DUP2 MLOAD SWAP2 MSTORE DUP4 MULMOD PUSH1 0x0 DUP1 MLOAD PUSH1 0x20 PUSH2 0x2F3B DUP4 CODECOPY DUP2 MLOAD SWAP2 MSTORE PUSH1 0x0 DUP1 MLOAD PUSH1 0x20 PUSH2 0x2F9B DUP4 CODECOPY DUP2 MLOAD SWAP2 MSTORE DUP6 MULMOD PUSH1 0x0 DUP1 MLOAD PUSH1 0x20 PUSH2 0x2F3B DUP4 CODECOPY DUP2 MLOAD SWAP2 MSTORE PUSH1 0x0 DUP1 MLOAD PUSH1 0x20 PUSH2 0x2DFB DUP4 CODECOPY DUP2 MLOAD SWAP2 MSTORE DUP8 MULMOD PUSH1 0x0 DUP1 MLOAD PUSH1 0x20 PUSH2 0x2F3B DUP4 CODECOPY DUP2 MLOAD SWAP2 MSTORE PUSH1 0x0 DUP1 MLOAD PUSH1 0x20 PUSH2 0x2EBB DUP4 CODECOPY DUP2 MLOAD SWAP2 MSTORE DUP10 MULMOD ADD ADD ADD MOD PUSH1 0x80 MSTORE PUSH1 0x0 DUP1 MLOAD PUSH1 0x20 PUSH2 0x2F3B DUP4 CODECOPY DUP2 MLOAD SWAP2 MSTORE DUP1 PUSH1 0x0 DUP1 MLOAD PUSH1 0x20 PUSH2 0x2EFB DUP4 CODECOPY DUP2 MLOAD SWAP2 MSTORE DUP4 MULMOD PUSH1 0x0 DUP1 MLOAD PUSH1 0x20 PUSH2 0x2F3B DUP4 CODECOPY DUP2 MLOAD SWAP2 MSTORE PUSH1 0x0 DUP1 MLOAD PUSH1 0x20 PUSH2 0x2FBB DUP4 CODECOPY DUP2 MLOAD SWAP2 MSTORE DUP6 MULMOD PUSH1 0x0 DUP1 MLOAD PUSH1 0x20 PUSH2 0x2F3B DUP4 CODECOPY DUP2 MLOAD SWAP2 MSTORE PUSH1 0x0 DUP1 MLOAD PUSH1 0x20 PUSH2 0x2E9B DUP4 CODECOPY DUP2 MLOAD SWAP2 MSTORE DUP8 MULMOD PUSH1 0x0 DUP1 MLOAD PUSH1 0x20 PUSH2 0x2F3B DUP4 CODECOPY DUP2 MLOAD SWAP2 MSTORE PUSH1 0x0 DUP1 MLOAD PUSH1 0x20 PUSH2 0x2F7B DUP4 CODECOPY DUP2 MLOAD SWAP2 MSTORE DUP10 MULMOD ADD ADD ADD MOD PUSH1 0xA0 MSTORE POP POP POP POP POP POP POP POP JUMP JUMPDEST DUP1 PUSH1 0x0 MLOAD ADD DUP3 PUSH1 0x20 MLOAD ADD DUP5 PUSH1 0x80 MLOAD ADD DUP7 PUSH1 0xA0 MLOAD ADD PUSH1 0x0 DUP1 MLOAD PUSH1 0x20 PUSH2 0x2F3B DUP4 CODECOPY DUP2 MLOAD SWAP2 MSTORE DUP5 DUP6 MULMOD PUSH1 0x0 DUP1 MLOAD PUSH1 0x20 PUSH2 0x2F3B DUP4 CODECOPY DUP2 MLOAD SWAP2 MSTORE DUP6 PUSH1 0x0 DUP1 MLOAD PUSH1 0x20 PUSH2 0x2F3B DUP4 CODECOPY DUP2 MLOAD SWAP2 MSTORE DUP4 DUP5 MULMOD MULMOD SWAP5 POP PUSH1 0x0 DUP1 MLOAD PUSH1 0x20 PUSH2 0x2F3B DUP4 CODECOPY DUP2 MLOAD SWAP2 MSTORE DUP5 DUP6 MULMOD SWAP1 POP PUSH1 0x0 DUP1 MLOAD PUSH1 0x20 PUSH2 0x2F3B DUP4 CODECOPY DUP2 MLOAD SWAP2 MSTORE DUP5 PUSH1 0x0 DUP1 MLOAD PUSH1 0x20 PUSH2 0x2F3B DUP4 CODECOPY DUP2 MLOAD SWAP2 MSTORE DUP4 DUP5 MULMOD MULMOD SWAP4 POP PUSH1 0x0 DUP1 MLOAD PUSH1 0x20 PUSH2 0x2F3B DUP4 CODECOPY DUP2 MLOAD SWAP2 MSTORE DUP4 DUP5 MULMOD SWAP1 POP PUSH1 0x0 DUP1 MLOAD PUSH1 0x20 PUSH2 0x2F3B DUP4 CODECOPY DUP2 MLOAD SWAP2 MSTORE DUP4 PUSH1 0x0 DUP1 MLOAD PUSH1 0x20 PUSH2 0x2F3B DUP4 CODECOPY DUP2 MLOAD SWAP2 MSTORE DUP4 DUP5 MULMOD MULMOD SWAP3 POP PUSH1 0x0 DUP1 MLOAD PUSH1 0x20 PUSH2 0x2F3B DUP4 CODECOPY DUP2 MLOAD SWAP2 MSTORE DUP3 DUP4 MULMOD SWAP1 POP PUSH1 0x0 DUP1 MLOAD PUSH1 0x20 PUSH2 0x2F3B DUP4 CODECOPY DUP2 MLOAD SWAP2 MSTORE DUP3 PUSH1 0x0 DUP1 MLOAD PUSH1 0x20 PUSH2 0x2F3B DUP4 CODECOPY DUP2 MLOAD SWAP2 MSTORE DUP4 DUP5 MULMOD MULMOD SWAP2 POP POP PUSH1 0x0 DUP1 MLOAD PUSH1 0x20 PUSH2 0x2F3B DUP4 CODECOPY DUP2 MLOAD SWAP2 MSTORE DUP1 PUSH1 0x0 DUP1 MLOAD PUSH1 0x20 PUSH2 0x2E5B DUP4 CODECOPY DUP2 MLOAD SWAP2 MSTORE DUP4 MULMOD PUSH1 0x0 DUP1 MLOAD PUSH1 0x20 PUSH2 0x2F3B DUP4 CODECOPY DUP2 MLOAD SWAP2 MSTORE PUSH1 0x0 DUP1 MLOAD PUSH1 0x20 PUSH2 0x2FFB DUP4 CODECOPY DUP2 MLOAD SWAP2 MSTORE DUP6 MULMOD PUSH1 0x0 DUP1 MLOAD PUSH1 0x20 PUSH2 0x2F3B DUP4 CODECOPY DUP2 MLOAD SWAP2 MSTORE PUSH1 0x0 DUP1 MLOAD PUSH1 0x20 PUSH2 0x2FDB DUP4 CODECOPY DUP2 MLOAD SWAP2 MSTORE DUP8 MULMOD PUSH1 0x0 DUP1 MLOAD PUSH1 0x20 PUSH2 0x2F3B DUP4 CODECOPY DUP2 MLOAD SWAP2 MSTORE PUSH1 0x0 DUP1 MLOAD PUSH1 0x20 PUSH2 0x2E3B DUP4 CODECOPY DUP2 MLOAD SWAP2 MSTORE DUP10 MULMOD ADD ADD ADD MOD PUSH1 0x0 MSTORE PUSH1 0x0 DUP1 MLOAD PUSH1 0x20 PUSH2 0x2F3B DUP4 CODECOPY DUP2 MLOAD SWAP2 MSTORE DUP1 PUSH1 0x0 DUP1 MLOAD PUSH1 0x20 PUSH2 0x2E1B DUP4 CODECOPY DUP2 MLOAD SWAP2 MSTORE DUP4 MULMOD PUSH1 0x0 DUP1 MLOAD PUSH1 0x20 PUSH2 0x2F3B DUP4 CODECOPY DUP2 MLOAD SWAP2 MSTORE PUSH1 0x0 DUP1 MLOAD PUSH1 0x20 PUSH2 0x2F1B DUP4 CODECOPY DUP2 MLOAD SWAP2 MSTORE DUP6 MULMOD PUSH1 0x0 DUP1 MLOAD PUSH1 0x20 PUSH2 0x2F3B DUP4 CODECOPY DUP2 MLOAD SWAP2 MSTORE PUSH1 0x0 DUP1 MLOAD PUSH1 0x20 PUSH2 0x2EDB DUP4 CODECOPY DUP2 MLOAD SWAP2 MSTORE DUP8 MULMOD PUSH1 0x0 DUP1 MLOAD PUSH1 0x20 PUSH2 0x2F3B DUP4 CODECOPY DUP2 MLOAD SWAP2 MSTORE PUSH1 0x0 DUP1 MLOAD PUSH1 0x20 PUSH2 0x2F5B DUP4 CODECOPY DUP2 MLOAD SWAP2 MSTORE DUP10 MULMOD ADD ADD ADD MOD PUSH1 0x20 MSTORE PUSH1 0x0 DUP1 MLOAD PUSH1 0x20 PUSH2 0x2F3B DUP4 CODECOPY DUP2 MLOAD SWAP2 MSTORE DUP1 PUSH1 0x0 DUP1 MLOAD PUSH1 0x20 PUSH2 0x2E7B DUP4 CODECOPY DUP2 MLOAD SWAP2 MSTORE DUP4 MULMOD PUSH1 0x0 DUP1 MLOAD PUSH1 0x20 PUSH2 0x2F3B DUP4 CODECOPY DUP2 MLOAD SWAP2 MSTORE PUSH1 0x0 DUP1 MLOAD PUSH1 0x20 PUSH2 0x2F9B DUP4 CODECOPY DUP2 MLOAD SWAP2 MSTORE DUP6 MULMOD PUSH1 0x0 DUP1 MLOAD PUSH1 0x20 PUSH2 0x2F3B DUP4 CODECOPY DUP2 MLOAD SWAP2 MSTORE PUSH1 0x0 DUP1 MLOAD PUSH1 0x20 PUSH2 0x2DFB DUP4 CODECOPY DUP2 MLOAD SWAP2 MSTORE DUP8 MULMOD PUSH1 0x0 DUP1 MLOAD PUSH1 0x20 PUSH2 0x2F3B DUP4 CODECOPY DUP2 MLOAD SWAP2 MSTORE PUSH1 0x0 DUP1 MLOAD PUSH1 0x20 PUSH2 0x2EBB DUP4 CODECOPY DUP2 MLOAD SWAP2 MSTORE DUP10 MULMOD ADD ADD ADD MOD PUSH1 0x80 MSTORE PUSH1 0x0 DUP1 MLOAD PUSH1 0x20 PUSH2 0x2F3B DUP4 CODECOPY DUP2 MLOAD SWAP2 MSTORE DUP1 PUSH1 0x0 DUP1 MLOAD PUSH1 0x20 PUSH2 0x2EFB DUP4 CODECOPY DUP2 MLOAD SWAP2 MSTORE DUP4 MULMOD PUSH1 0x0 DUP1 MLOAD PUSH1 0x20 PUSH2 0x2F3B DUP4 CODECOPY DUP2 MLOAD SWAP2 MSTORE PUSH1 0x0 DUP1 MLOAD PUSH1 0x20 PUSH2 0x2FBB DUP4 CODECOPY DUP2 MLOAD SWAP2 MSTORE DUP6 MULMOD PUSH1 0x0 DUP1 MLOAD PUSH1 0x20 PUSH2 0x2F3B DUP4 CODECOPY DUP2 MLOAD SWAP2 MSTORE PUSH1 0x0 DUP1 MLOAD PUSH1 0x20 PUSH2 0x2E9B DUP4 CODECOPY DUP2 MLOAD SWAP2 MSTORE DUP8 MULMOD PUSH1 0x0 DUP1 MLOAD PUSH1 0x20 PUSH2 0x2F3B DUP4 CODECOPY DUP2 MLOAD SWAP2 MSTORE PUSH1 0x0 DUP1 MLOAD PUSH1 0x20 PUSH2 0x2F7B DUP4 CODECOPY DUP2 MLOAD SWAP2 MSTORE DUP10 MULMOD ADD ADD ADD MOD PUSH1 0xA0 MSTORE POP POP POP POP POP POP POP POP JUMP JUMPDEST PUSH1 0x0 PUSH32 0x265DDFE127DD51BD7239347B758F0A1320EB2CC7450ACC1DAD47F80C8DCF34D6 PUSH1 0x0 DUP1 MLOAD PUSH1 0x20 PUSH2 0x2F3B DUP4 CODECOPY DUP2 MLOAD SWAP2 MSTORE PUSH1 0x80 MLOAD MOD ADD PUSH32 0x199750EC472F1809E0F66A545E1E51624108AC845015C2AA3DFC36BAB497D8AA PUSH1 0x0 DUP1 MLOAD PUSH1 0x20 PUSH2 0x2F3B DUP4 CODECOPY DUP2 MLOAD SWAP2 MSTORE PUSH1 0xA0 MLOAD MOD ADD PUSH32 0x157FF3FE65AC7208110F06A5F74302B14D743EA25067F0FFD032F787C7F1CDF8 PUSH1 0x0 DUP1 MLOAD PUSH1 0x20 PUSH2 0x2F3B DUP4 CODECOPY DUP2 MLOAD SWAP2 MSTORE PUSH1 0xC0 MLOAD MOD ADD PUSH1 0x0 DUP1 MLOAD PUSH1 0x20 PUSH2 0x2F3B DUP4 CODECOPY DUP2 MLOAD SWAP2 MSTORE DUP4 DUP5 MULMOD SWAP4 POP PUSH1 0x0 DUP1 MLOAD PUSH1 0x20 PUSH2 0x2F3B DUP4 CODECOPY DUP2 MLOAD SWAP2 MSTORE DUP4 PUSH1 0x0 DUP1 MLOAD PUSH1 0x20 PUSH2 0x2F3B DUP4 CODECOPY DUP2 MLOAD SWAP2 MSTORE DUP7 DUP8 MULMOD MULMOD SWAP3 POP PUSH1 0x0 DUP1 MLOAD PUSH1 0x20 PUSH2 0x2F3B DUP4 CODECOPY DUP2 MLOAD SWAP2 MSTORE DUP3 DUP4 MULMOD SWAP4 POP PUSH1 0x0 DUP1 MLOAD PUSH1 0x20 PUSH2 0x2F3B DUP4 CODECOPY DUP2 MLOAD SWAP2 MSTORE DUP3 PUSH1 0x0 DUP1 MLOAD PUSH1 0x20 PUSH2 0x2F3B DUP4 CODECOPY DUP2 MLOAD SWAP2 MSTORE DUP7 DUP8 MULMOD MULMOD SWAP2 POP PUSH1 0x0 DUP1 MLOAD PUSH1 0x20 PUSH2 0x2F3B DUP4 CODECOPY DUP2 MLOAD SWAP2 MSTORE DUP2 DUP3 MULMOD SWAP4 POP PUSH1 0x0 DUP1 MLOAD PUSH1 0x20 PUSH2 0x2F3B DUP4 CODECOPY DUP2 MLOAD SWAP2 MSTORE DUP2 PUSH1 0x0 DUP1 MLOAD PUSH1 0x20 PUSH2 0x2F3B DUP4 CODECOPY DUP2 MLOAD SWAP2 MSTORE DUP7 DUP8 MULMOD MULMOD SWAP1 POP PUSH1 0x0 DUP1 MLOAD PUSH1 0x20 PUSH2 0x2F3B DUP4 CODECOPY DUP2 MLOAD SWAP2 MSTORE DUP1 PUSH1 0x0 DUP1 MLOAD PUSH1 0x20 PUSH2 0x2E5B DUP4 CODECOPY DUP2 MLOAD SWAP2 MSTORE DUP4 MULMOD PUSH1 0x0 DUP1 MLOAD PUSH1 0x20 PUSH2 0x2F3B DUP4 CODECOPY DUP2 MLOAD SWAP2 MSTORE PUSH1 0x0 DUP1 MLOAD PUSH1 0x20 PUSH2 0x2FFB DUP4 CODECOPY DUP2 MLOAD SWAP2 MSTORE DUP6 MULMOD PUSH1 0x0 DUP1 MLOAD PUSH1 0x20 PUSH2 0x2F3B DUP4 CODECOPY DUP2 MLOAD SWAP2 MSTORE PUSH1 0x0 DUP1 MLOAD PUSH1 0x20 PUSH2 0x2FDB DUP4 CODECOPY DUP2 MLOAD SWAP2 MSTORE DUP8 MULMOD PUSH32 0x211184AAC7468125DA9B5527788AED6331CAA8335774FE66F16ACC6C66C456D7 ADD ADD ADD MOD PUSH1 0x0 MSTORE PUSH1 0x0 DUP1 MLOAD PUSH1 0x20 PUSH2 0x2F3B DUP4 CODECOPY DUP2 MLOAD SWAP2 MSTORE DUP1 PUSH1 0x0 DUP1 MLOAD PUSH1 0x20 PUSH2 0x2E1B DUP4 CODECOPY DUP2 MLOAD SWAP2 MSTORE DUP4 MULMOD PUSH1 0x0 DUP1 MLOAD PUSH1 0x20 PUSH2 0x2F3B DUP4 CODECOPY DUP2 MLOAD SWAP2 MSTORE PUSH1 0x0 DUP1 MLOAD PUSH1 0x20 PUSH2 0x2F1B DUP4 CODECOPY DUP2 MLOAD SWAP2 MSTORE DUP6 MULMOD PUSH1 0x0 DUP1 MLOAD PUSH1 0x20 PUSH2 0x2F3B DUP4 CODECOPY DUP2 MLOAD SWAP2 MSTORE PUSH1 0x0 DUP1 MLOAD PUSH1 0x20 PUSH2 0x2EDB DUP4 CODECOPY DUP2 MLOAD SWAP2 MSTORE DUP8 MULMOD PUSH32 0x19764435729B98150CA53B559B7B1BDD91692D645E831F4A30D30D510792687A ADD ADD ADD MOD PUSH1 0x20 MSTORE PUSH1 0x0 DUP1 MLOAD PUSH1 0x20 PUSH2 0x2F3B DUP4 CODECOPY DUP2 MLOAD SWAP2 MSTORE DUP1 PUSH1 0x0 DUP1 MLOAD PUSH1 0x20 PUSH2 0x2E7B DUP4 CODECOPY DUP2 MLOAD SWAP2 MSTORE DUP4 MULMOD PUSH1 0x0 DUP1 MLOAD PUSH1 0x20 PUSH2 0x2F3B DUP4 CODECOPY DUP2 MLOAD SWAP2 MSTORE PUSH1 0x0 DUP1 MLOAD PUSH1 0x20 PUSH2 0x2F9B DUP4 CODECOPY DUP2 MLOAD SWAP2 MSTORE DUP6 MULMOD PUSH1 0x0 DUP1 MLOAD PUSH1 0x20 PUSH2 0x2F3B DUP4 CODECOPY DUP2 MLOAD SWAP2 MSTORE PUSH1 0x0 DUP1 MLOAD PUSH1 0x20 PUSH2 0x2DFB DUP4 CODECOPY DUP2 MLOAD SWAP2 MSTORE DUP8 MULMOD PUSH32 0x21F642C132B82C867835F1753EECEDD4679085E8C78F6A0AE4A8CD81E9834BDF ADD ADD ADD MOD PUSH1 0x80 MSTORE PUSH1 0x0 DUP1 MLOAD PUSH1 0x20 PUSH2 0x2F3B DUP4 CODECOPY DUP2 MLOAD SWAP2 MSTORE DUP1 PUSH1 0x0 DUP1 MLOAD PUSH1 0x20 PUSH2 0x2EFB DUP4 CODECOPY DUP2 MLOAD SWAP2 MSTORE DUP4 MULMOD PUSH1 0x0 DUP1 MLOAD PUSH1 0x20 PUSH2 0x2F3B DUP4 CODECOPY DUP2 MLOAD SWAP2 MSTORE PUSH1 0x0 DUP1 MLOAD PUSH1 0x20 PUSH2 0x2FBB DUP4 CODECOPY DUP2 MLOAD SWAP2 MSTORE DUP6 MULMOD PUSH1 0x0 DUP1 MLOAD PUSH1 0x20 PUSH2 0x2F3B DUP4 CODECOPY DUP2 MLOAD SWAP2 MSTORE PUSH1 0x0 DUP1 MLOAD PUSH1 0x20 PUSH2 0x2E9B DUP4 CODECOPY DUP2 MLOAD SWAP2 MSTORE DUP8 MULMOD PUSH32 0x26BC2B5C607AF61196105D955BD3D9B2CF795EDCF9E39D1E508C542CA85D6BE3 ADD ADD ADD MOD PUSH1 0xA0 MSTORE POP POP POP PUSH2 0x9FC PUSH32 0x13DA07DC64D428369873E97160234641F8BEB56FDD05E5F3563FA39D9C22DF4E PUSH32 0x251AD47CB15C4F1105F109AE5E944F1BA9D9E7806D667FFEC6FE723002E0B996 PUSH32 0xE35FB89981890520D4AEF2B6D6506C3CB2F0B6973C24FA82731345FFA2D1F1E PUSH32 0x2E49C43C4569DD9C5FD35AC45FCA33F10B15C590692F8BEEFE18F4896AC94902 PUSH2 0x2DC JUMP JUMPDEST PUSH2 0xA88 PUSH32 0x4DBA94A7B0CE9E221ACAD41472B6BBE3AEC507F5EB3D33F463672264C9F789B PUSH32 0xED69E5E383A688F209D9A561DAA79612F3F78D0467AD45485DF07093F367549 PUSH32 0x11F16B1C63A854F01992E3956F42D8B04EB650C6D535EB0203DEC74BEFDCA06 PUSH32 0xC009B84E650E6D23DC00C7DCCEF7483A553939689D350CD46E7B89055FD4738 PUSH2 0x2DC JUMP JUMPDEST PUSH2 0xB14 PUSH32 0xA1CA941F057037526EA200F489BE8D4C37C85BBCCE6A2AEEC91BD6941432447 PUSH32 0x28BF7459C9B2F4C6D8E7D06A4EE3A47F7745D4271038E5157A32FDF7EDE0D6A1 PUSH32 0x259A666F129EEA198F8A1C502FDB38FA39B1F075569564B6E54A485D1182323F PUSH32 0xA3F2637D840F3A16EB094271C9D237B6036757D4BB50BF7CE732FF1D4FA28E8 PUSH2 0x2DC JUMP JUMPDEST PUSH2 0xBA0 PUSH32 0x1CB55CAD7BD133DE18A64C5C47B9C97CBE4D8B7BF9E095864471537E6A4AE2C5 PUSH32 0x26E1BA52AD9285D97DD3AB52F8E840085E8FA83FF1E8F1877B074867CD2DEE75 PUSH32 0x123106A93CD17578D426E8128AC9D90AA9E8A00708E296E084DD57E69CAAF811 PUSH32 0xC6F8F958BE0E93053D7FD4FC54512855535ED1539F051DCB43A26FD926361CF PUSH2 0x66 JUMP JUMPDEST PUSH2 0xC2C PUSH32 0x2539DE1785B735999FB4DAC35EE17ED0EF995D05AB2FC5FAEAA69AE87BCEC0A5 PUSH32 0x2B1E809AC1D10AB29AD5F20D03A57DFEBADFE5903F58BAFED7C508DD2287AE8C PUSH32 0x11003E32F6D9C66F5852F05474A4DEF0CDA294A0EB4E9B9B12B9BB4512E5574 PUSH32 0x1DCD73E46ACD8F8E0E2C7CE04BDE7F6D2A53043D5060A41C7143F08E6E9055D0 PUSH2 0x66 JUMP JUMPDEST PUSH2 0xCB8 PUSH32 0x179190E5D0E22179E46F8282872ABC88DB6E2FDC0DEE99E69768BD98C5D06BFB PUSH32 0x1EAE0AD8AB68B2F06A0EE36EEB0D0C058529097D91096B756D8FDC2FB5A60D85 PUSH32 0x192089C4974F68E95408148F7C0632EDBB09E6A6AD1A1C2F3F0305F5D03B527B PUSH32 0xC246C5A2EF8EE0126497F222B3E0A0EF4E1C3D41C86D46E43982CB11D77951D PUSH2 0x66 JUMP JUMPDEST PUSH2 0xD44 PUSH32 0x10BA3A0E01DF92E87F301C4B716D8A394D67F4BF42A75C10922910A78F6B5B87 PUSH32 0x64760623C25C8CF753D238055B444532BE13557451C087DE09EFD454B23FD59 PUSH32 0x225D394E42207599403EFD0C2464A90D52652645882AAC35B10E590E6E691E08 PUSH32 0x29BB9E2C9076732576E9A81C7AC4B83214528F7DB00F31BF6CAFE794A9B3CD1C PUSH2 0x66 JUMP JUMPDEST PUSH2 0xDD0 PUSH32 0x2EC93189BD1AB4F69117D0FE980C80FF8785C2961829F701BB74AC1F303B17DB PUSH32 0x1D7CB39BAFB8C744E148787A2E70230F9D4E917D5713BB050487B5AA7D74070B PUSH32 0x1B94CD61B051B04DD39755FF93821A73CCD6CB11D2491D8AA7F921014DE252FB PUSH32 0xE070BF53F8451B24F9C6E96B0C2A801CB511BC0C242EB9D361B77693F21471C PUSH2 0x66 JUMP JUMPDEST PUSH2 0xE5C PUSH32 0x20FC411A114D13992C2705AA034E3F315D78608A0F7DE4CCF7A72E494855AD0D PUSH32 0x761D33C66614AAA570E7F1E8244CA1120243F92FA59E4F900C567BF41F5A59B PUSH32 0x62100EB485DB06269655CF186A68532985275428450359ADC99CEC6960711B8 PUSH32 0x2DB366BFDD36D277A692BB825B86275BEAC404A19AE07A9082EA46BD83517926 PUSH2 0x66 JUMP JUMPDEST PUSH2 0xEE8 PUSH32 0x26C0C8FE09EB30B7E27A74DC33492347E5BDFF409AA3610254413D3FAD795CE5 PUSH32 0x22734B4C5C3F9493606C4BA9012499BF0F14D13BFCFCCCAA16102A29CC2F69E0 PUSH32 0x23B1822D278ED632A494E58F6DF6F5ED038B186D8474155AD87E7DFF62B37F4B PUSH32 0x25B5C004A4BDFCB5ADD9EC4E9AB219BA102C67E8B3EFFB5FC3A30F317250BC5A PUSH2 0x66 JUMP JUMPDEST PUSH2 0xF74 PUSH32 0x1A306D439D463B0816FC6FD64CC939318B45EB759DDDE4AA106D15D9BD9BAAAA PUSH32 0x248D97D7F76283D63BEC30E7A5876C11C06FCA9B275C671C5E33D95BB7E8D729 PUSH32 0x12B6595BDB329B6FB043BA78BB28C3BEC2C0A6DE46D8C5AD6067C4EBFD4250DA PUSH32 0x70DD0CCB6BD7BBAE88EAC03FA1FBB26196BE3083A809829BBD626DF348CCAD9 PUSH2 0x66 JUMP JUMPDEST PUSH2 0xFFF PUSH32 0x2A6CF5E9AA03D4336349AD6FB8ED2269C7BEF54B8822CC76D08495C12EFDE187 PUSH32 0x4D5EE4C3AA78F7D80FDE60D716480D3593F74D4F653AE83F4103246DB2E8D65 PUSH31 0x94975717F9A8A8BB35152F24D43294071CE320C829F388BC852183E1E2CE7E PUSH32 0x28A8F8372E3C38DACED7C00421CB4621F4F1B54DDC27821B0D62D3D6EC7C56CF PUSH2 0x66 JUMP JUMPDEST PUSH2 0x108A PUSH32 0x159F81ADA0771799EC38FCA2D4BF65EBB13D3A74F3298DB36272C5CA65E92D9A PUSH31 0xB7258DED52BBDA2248404D55EE5044798AFC3A209193073F7954D4D63B0B64 PUSH32 0x3FD9AC865A4B2A6D5E7009785817249BFF08A7E0726FCB4E1C11D39D199F0B0 PUSH32 0x2304D31EAAB960BA9274DA43E19DDEB7F792180808FD6E43BAAE48D7EFCBA3F3 PUSH2 0x66 JUMP JUMPDEST PUSH2 0x1116 PUSH32 0x832E5753CEB0FF6402543B1109229C165DC2D73BEF715E3F1C6E07C168BB173 PUSH32 0x2B1B045DEF3A166CEC6CE768D079BA74B18C844E570E1F826575C1068C94C33F PUSH32 0x1E65F838515E5FF0196B49AA41A2D2568DF739BC176B08EC95A79ED82932E30D PUSH32 0x1EF90E67437FBC8550237A75BC28E3BB9000130EA25F0C5471E144CF4264431F PUSH2 0x66 JUMP JUMPDEST PUSH2 0x11A2 PUSH32 0x22EAD100E8E482674DECDAB17066C5A26BB1515355D5461A3DC06CC85327CEA9 PUSH32 0x493630B7C670B6DEB7C84D414E7CE79049F0EC098C3C7C50768BBE29214A53A PUSH32 0xE2427D38BD46A60DD640B8E362CAD967370EBB777BEDFF40F6A0BE27E7ED705 PUSH32 0x2F614E9CEDFB3DC6B762AE0A37D41BAB1B841C2E8B6451BC5A8E3C390B6AD16 PUSH2 0x66 JUMP JUMPDEST PUSH2 0x122E PUSH32 0x2F569B8A9A4424C9278E1DB7311E889F54CCBF10661BAB7FCD18E7C7A7D83505 PUSH32 0x2FA2A871C15A387CC50F68F6F3C3455B23C00995F05078F672A9864074D412E5 PUSH32 0x1E32752ADA8836EF5837A6CDE8FF13DBB599C336349E4C584B4FDC0A0CF6F9D0 PUSH32 0x25B3E56E655B42CDAAE2626ED2554D48583F1AE35626D04DE5084E0B6D2A6F16 PUSH2 0x66 JUMP JUMPDEST PUSH2 0x12BA PUSH32 0xEF915F0AC120B876ABCCCEB344A1D36BAD3F3C5AB91A8DDCBEC2E060D8BEFAC PUSH32 0x2FCCA2934E046BC623ADEAD873579865D03781AE090AD4A8579D2E7A6800355 PUSH32 0x227808DE93906D5D420246157F2E42B191FE8C90ADFE118178DDC723A5319025 PUSH32 0x44CB455110A8FDD531ADE530234C518A7DF93F7332FFD2144165374B246B43D PUSH2 0x66 JUMP JUMPDEST PUSH2 0x1346 PUSH32 0x25721C4FC15A3F2853B57C338FA538D85F8FBBA6C6B9C6090611889B797B9C5F PUSH32 0x1FFFB9EC1992D66BA1E77A7B93209AF6F8FA76D48ACB664796174B5326A31A5C PUSH32 0xA76225DC04170AE3306C85ABAB59E608C7F497C20156D4D36C668555DECC6E5 PUSH32 0x1797130F4B7A3E1777EB757BC6F287F6AB0FB85F6BE63B09F3B16EF2B1405D38 PUSH2 0x66 JUMP JUMPDEST PUSH2 0x13D2 PUSH32 0x21CA859468A746B6AAA79474A37DAB49F1CA5A28C748BC7157E1B3345BB0F959 PUSH32 0x2106FEEA546224EA12EF7F39987A46C85C1BC3DC29BDBD7A92CD60ACB4D391CE PUSH32 0x13ABE3F5239915D39F7E13C2C24970B6DF8CF86CE00A22002BC15866E52B5A96 PUSH32 0xC817FD42D5F7A41215E3D07BA197216ADB4C3790705DA95EB63B982BFCAF75A PUSH2 0x66 JUMP JUMPDEST PUSH2 0x145E PUSH32 0x9D3DCA9173ED2FACEEA125157683D18924CADAD3F655A60B72F5864961F1455 PUSH32 0x558531A4E25470C6157794CA36D0E9647DBFCFE350D64838F5B1A8A2DE0D4BF PUSH32 0xF0E34A64B70A626E464D846674C4C8816C4FB267FE44FE6EA28678CB09490A4 PUSH32 0x5CCD6255C1E6F0C5CF1F0DF934194C62911D14D0321662A8F1A48999E34185B PUSH2 0x66 JUMP JUMPDEST PUSH2 0x14EA PUSH32 0x176563472456AAA746B694C60E1823611EF39039B2EDC7FF391E6F2293D2C404 PUSH32 0x1DAF345A58006B736499C583CB76C316D6F78ED6A6DFFC82111E11A63FE412DF PUSH32 0x2BF07216E2AFF0A223A487B1A7094E07E79E7BCC9798C648EE3347DD5329D34B PUSH32 0x328CBD54E8C0913493F866ED03D218BF23F92D68AAEC48617D4C722E5BD4335 PUSH2 0x66 JUMP JUMPDEST PUSH2 0x1576 PUSH32 0x2DEBFF156E276BB5742C3373F2635B48B8E923D301F372F8E550CFD4034212C7 PUSH32 0x14BCE3549CC3DB7428126B4C3A15AE0FF8148C89F13FB35D35734EB5D4AD0DEF PUSH32 0x226C9B1AF95BABCF17B2B1F57C7310179C1803DEC5AE8F0A1779ED36C817AE2A PUSH32 0x2EF1E0FAD9F08E87A3BB5E47D7E33538CA964D2B7D1083D4FB0225035BD3F8DB PUSH2 0x66 JUMP JUMPDEST PUSH2 0x1602 PUSH32 0xB61811A9210BE78B05974587486D58BDDC8F51BFDFEBBB87AFE8B7AA7D3199C PUSH32 0x3152169D4F3D06EC33A79BFAC91A02C99AA0200DB66D5AA7B835265F9C9C8F3 PUSH32 0xC225B7BCD04BF9C34B911262FDC9C1B91BF79A10C0184D89C317C53D7161C29 PUSH32 0x2D4083CF5A87F5B6FC2395B22E356B6441AFE1B6B29C47ADD7D0432D1D4760C7 PUSH2 0x66 JUMP JUMPDEST PUSH2 0x168D PUSH31 0x780AF2CA1CAD6465A2171250FDFC32D6FC241D3214177F3D553EF363182185 PUSH32 0x376B4FAE08CB03D3500AFEC1A1F56ACB8E0FDE75A2106D7002F59C5611D4DAA PUSH32 0x1A44BF0937C722D1376672B69F6C9655BA7EE386FDA1112C0757143D1BFA9146 PUSH32 0x203E000CAD298DAAF7EBA6A5C5921878B8AE48ACF7048F16046D637A533B6F78 PUSH2 0x66 JUMP JUMPDEST PUSH2 0x1718 PUSH32 0x222C01175718386F2E2E82EB122789E352E105A3B8FA852613BC534433EE428C PUSH31 0x544B8338791518B2C7645A50392798B21F75BB60E3596170067D00141CAC16 PUSH32 0x10DC6E9C006EA38B04B1E03B4BD9490C0D03F98929CA1D7FB56821FD19D3B6E8 PUSH32 0x10774D9AB80C25BDEB808BEDFD72A8D9B75DBE18D5221C87E9D857079BDC31D5 PUSH2 0x66 JUMP JUMPDEST PUSH2 0x17A4 PUSH32 0x4A533F236C422D1FF900A368949B0022C7A2AE092F308D82B1DCBBF51F5000D PUSH32 0x6041BDAC48205AC87ADB87C20A478A71C9950C12A80BC0A55A8E83EAAF04746 PUSH32 0x62752F86EEBE11A009C937E468C335B04554574C2990196508E01FA5860186B PUSH32 0x2840D045E9BC22B259CFB8811B1E0F45B77F7BDB7F7E2B46151A1430F608E3C5 PUSH2 0x66 JUMP JUMPDEST PUSH2 0x1830 PUSH32 0x14ABDEC8DB9C6DC970291EE638690209B65080781EF9FD13D84C7A726B5F1364 PUSH32 0xB0D219346B8574525B1A270E0B4CBA5D56C928E3E2C2BD0A1ECAED015AAF6AE PUSH32 0x11C2683AE91EB4DFBC13D6357E8599A9279D1648FF2C95D2F79905BB13920F1 PUSH32 0x13E31D7A67232FD811D6A955B3D4F25DFE066D1E7DC33DF04BDE50A2B2D05B2A PUSH2 0x66 JUMP JUMPDEST PUSH2 0x18BC PUSH32 0x2567A658A81FFB444F240088FA5524C69A9E53EEAB6B7F8C41C3479DCF8C644A PUSH32 0x16EB59494A9776CF57866214DBD1473F3F0738A325638D8BA36535E011D58259 PUSH32 0x278543721F96D1307B6943F9804E7FE56401DEB2EF99C4D12704882E7278B607 PUSH32 0x1A0B70B4B26FDC28FCD32AA3D266478801EB12202EF47CED988D0376610BE106 PUSH2 0x66 JUMP JUMPDEST PUSH2 0x1948 PUSH32 0x2DB50480A07BE0EB2C2E13ED6EF4074C0182D9B668B8E08FFE6769250042025 PUSH32 0x16BD7D22FF858E5E0882C2C999558D77E7673AD5F1915F9FEB679A8115F014CF PUSH32 0x15C091233E60EFE0D4BBFCE2B36415006A4F017F9A85388CE206B91F99F2C984 PUSH32 0x29AA1D7C151E9AD0A7AB39F1ABD9CF77AB78E0215A5715A6B882ADE840BB13D8 PUSH2 0x66 JUMP JUMPDEST PUSH2 0x19D4 PUSH32 0x1498A307E68900065F5E8276F62AEF1C37414B84494E1577AD1A6D64341B78EC PUSH32 0x184BEF721888187F645B6FEE3667F3C91DA214414D89BA5CD301F22B0DE8990 PUSH32 0x1DDA05EBC30170BC98CBF2A5EE3B50E8B5F70BC424D39FA4104D37F1CBCF7A42 PUSH32 0x5E4A220E6A3BC9F7B6806EC9D6CDBA186330EF2BF7ADB4C13BA866343B73119 PUSH2 0x66 JUMP JUMPDEST PUSH2 0x1A60 PUSH32 0xF53DAFD535A9F4473DC266B6FCCC6841BBD336963F254C152F89E785F729BBF PUSH32 0x2F77D77786D979B23BA4CE4A4C1B3BD0A41132CD467A86AB29B913B6CF3149D0 PUSH32 0x9D317CC670251943F6F5862A30D2EA9E83056CE4907BFBBCB1FF31CE5BB9650 PUSH32 0x25F40F82B31DACC4F4939800B9D2C3EACEF737B8FAB1F864FE33548AD46BD49D PUSH2 0x66 JUMP JUMPDEST PUSH2 0x1AEC PUSH32 0x24A6073F91ADDC33A49A1FA306DF008801C5EC569609034D2FC50F7F0F4D0056 PUSH32 0x1CE1580A3452ECF302878C8976B82BE96676DD114D1DC8D25527405762F83529 PUSH32 0x2A902C8980C17FAAE368D385D52D16BE41AF95C84EAEA3CF893E65D6CE4A8F62 PUSH32 0x25C1FD72E223045265C3A099E17526FA0E6976E1C00BAF16DE96DE85DEEF2FA2 PUSH2 0x66 JUMP JUMPDEST PUSH2 0x1B78 PUSH32 0x2754114281286546B75F09F115FC751B4778303D0405C1B4CC7DF0D8E9F63925 PUSH32 0x6342DA370CC0D8C49B77594F6B027C480615D50BE36243A99591BC9924ED6F5 PUSH32 0x23DFFAE3C423FA7A93468DBCCFB029855974BE4D0A7B29946796E5B6CD70F15D PUSH32 0x25E52DBD6124530D9FC27FE306D71D4583E07CA554B5D1577F256C68B0BE2B74 PUSH2 0x66 JUMP JUMPDEST PUSH2 0x1C04 PUSH32 0x17662F7456789739F81CD3974827A887D92A5E05BDF3FE6B9FBCCCA4524AAEBD PUSH32 0x13CCF689D67A3EC9F22CB7CD0AC3A327D377AC5CD0146F048DEBFD098D3EC7BE PUSH32 0x265FE062766D08FAB4C78D0D9EF3CABE366F3BE0A821061679B4B3D2D77D5F3E PUSH32 0x15C19E8534C5C1A8862C2BC1D119EDDEABF214153833D7BDB59EE197F8187CF5 PUSH2 0x66 JUMP JUMPDEST PUSH2 0x1C90 PUSH32 0x2DDB2E376F54D64A563840480DF993FEB4173203C2BD94AD0E602077AEF9A03E PUSH32 0x2BC07EA2BFAD68E8DC724F5FEF2B37C2D34F761935FFD3B739CEEC4668F37E88 PUSH32 0x18137478382AADBA441EB97FE27901989C06738165215319939EB17B01FA975C PUSH32 0x21B29C76329B31C8EF18631E515F7F2F82CA6A5CCA70CEE4E809FD624BE7AD5D PUSH2 0x66 JUMP JUMPDEST PUSH2 0x1D1C PUSH32 0x11FE5B18FBBEA1A86E06930CB89F7D4A26E186A65945E96574247FDDB720F8F5 PUSH32 0xB8442BFE9E4A1B4428673B6BD3EEA6F9F445697058F134AAE908D0279A29F0C PUSH32 0xD4DE47E1ABA34269D0C620904F01A56B33FC4B450C0DB50BB7F87734C9A1FE5 PUSH32 0x277EB50F2BAA706106B41CB24C602609E8A20F8D72F613708ADB25373596C3F7 PUSH2 0x66 JUMP JUMPDEST PUSH2 0x1DA8 PUSH32 0x30185C48B7B2F1D53D4120801B047D087493BCE64D4D24AEDCE2F4836BB84AD4 PUSH32 0x221B63D66F0B45F9D40C54053A28A06B1D0A4CE41D364797A1A7E0C96529F421 PUSH32 0xB2CA6A999FE6887E0704DAD58D03465A96BC9E37D1091F61BC9F9C62BBEB824 PUSH32 0x224026F6DFAF71E24D25D8F6D9F90021DF5B774DCAD4D883170E4AD89C33A0D6 PUSH2 0x66 JUMP JUMPDEST PUSH2 0x1E34 PUSH32 0x1444E8F592BDBFD8025D91AB4982DD425F51682D31472B05E81C43C0F9434B31 PUSH32 0x977545836866FA204CA1D853EC0909E3D140770C80AC67DC930C69748D5D4BC PUSH32 0x2716683B32C755FD1BF8235EA162B1F388E1E0090D06162E8E6DFBE4328F3E3B PUSH32 0x23F5D372A3F0E3CBA989E223056227D3533356F0FAA48F27F8267318632A61F0 PUSH2 0x66 JUMP JUMPDEST PUSH2 0x1EC0 PUSH32 0x1DB1DB8AA45283F31168FA66694CF2808D2189B87C8C8143D56C871907B39B87 PUSH32 0x174B54D9907D8F5C6AFD672A738F42737EC338F3A0964C629F7474DD44C5C8D7 PUSH32 0x22A5C2FA860D11FE34EE47A5CD9F869800F48F4FEBE29AD6DF69816FB1A914D2 PUSH32 0x26E04B65E9CA8270BEB74A1C5CB8FEE8BE3FFBFE583F7012A00F874E7718FBE3 PUSH2 0x66 JUMP JUMPDEST PUSH2 0x1F4C PUSH32 0x2B30D53ED1759BFB8503DA66C92CF4077ABE82795DC272B377DF57D77C875526 PUSH32 0x29C25A22FE2164604552AAEA377F448D587AB977FC8227787BD2DC0F36BCF41E PUSH32 0xB73F613993229F59F01C1CEC8760E9936EAD9EDC8F2814889330A2F2BADE457 PUSH32 0x1530BF0F46527E889030B8C7B7DFDE126F65FAF8CCE0AB66387341D813D1BFD1 PUSH2 0x66 JUMP JUMPDEST PUSH2 0x1FD8 PUSH32 0xA99B3E178DB2E2E432F5CD5BEF8FE4483BF5CBF70ED407C08AAE24B830AD725 PUSH32 0x1EC9DAEA860971ECDDA8ED4F346FA967AC9BC59278277393C68F09FA03B8B95F PUSH32 0x2520E18300AFDA3F61A40A0B8837293A55AD01071028D4841FFA9AC706364113 PUSH32 0x12F6D703B5702AAB7B7B7E69359D53A2756C08C85EDE7227CF5F0A2916787CD2 PUSH2 0x66 JUMP JUMPDEST PUSH2 0x2064 PUSH32 0x1049A6C65FF019F0D28770072798E8B7909432BD0C129813A9F179BA627F7D6A PUSH32 0x2737F8CE1D5A67B349590DDBFBD709ED9AF54A2A3F2719D33801C9C17BDD9C9E PUSH32 0x8C9C65A4F955E8952D571B191BB0ADB49BD8290963203B35D48AAB38F8FC3A3 PUSH32 0x7CDA9E63DB6E39F086B89B601C2BBE407EE0ABAC3C817A1317ABAD7C5778492 PUSH2 0x66 JUMP JUMPDEST PUSH2 0x20F0 PUSH32 0x265A5ECCD8B92975E33AD9F75BF3426D424A4C6A7794EE3F08C1D100378E545E PUSH32 0x2EC5F2F1928FE932E56C789B8F6BBCB3E8BE4057CBD8DBD18A1B352F5CEF42FF PUSH32 0x2FF2B6FD22DF49D2440B2EAEEEFA8C02A6F478CFCF11F1B2A4F7473483885D19 PUSH32 0x18B4FE968732C462C0EA5A9BEB27CECBDE8868944FDF64EE60A5122361DAEDDB PUSH2 0x66 JUMP JUMPDEST PUSH2 0x217C PUSH32 0x1A75666F6241F6825D01CC6DCB1622D4886EA583E87299E6AA2FC716FDB6CF5 PUSH32 0x2C30D5F33BB32C5C22B9979A605BF64D508B705221E6A686330C9625C2AFE0B8 PUSH32 0x94C97D8C194C42E88018004CBBF2BC5FDB51955D8B2D66B76DD98A2DBF60417 PUSH32 0x2405EAA4C0BDE1129D6242BB5ADA0E68778E656CFCB366BF20517DA1DFD4279C PUSH2 0x66 JUMP JUMPDEST PUSH2 0x2208 PUSH32 0x2CF4051E6CAB48301A8B2E3BCA6099D756BBDF485AFA1F549D395BBCBD806461 PUSH32 0x27AA8D3E25380C0B1B172D79C6F22EEE99231EF5DC69D8DC13A4B5095D028772 PUSH32 0x154ADE9CA36E268DFEB38461425BB0D8C31219D8FA0DFC75ECD21BF69AA0CC74 PUSH32 0xA3290E8398113EA4D12AC091E87BE7C6D359AB9A66979FCF47BF2E87D382FCB PUSH2 0x66 JUMP JUMPDEST PUSH2 0x2294 PUSH32 0xDC8A2146110C0B375432902999223D5AA1EF6E78E1E5EBCBC1D9BA41DC1C737 PUSH32 0x1B362E72A5F847F84D03FD291C3C471ED1C14A15B221680ACF11A3F02E46AA95 PUSH32 0x298BEB64F812D25D8B4D9620347AB02332DC4CEF113AE60D17A8D7A4C91F83BC PUSH32 0x301E70F729F3C94B1D3F517DDFF9F2015131FEAB8AFA5EEBB0843D7F84B23E71 PUSH2 0x66 JUMP JUMPDEST PUSH2 0x2320 PUSH32 0x1001CF512AC241D47EBE2239219BC6A173A8BBCB8A5B987B4EAC1F533315B6B PUSH32 0x1B5B2946F7C28975F0512FF8E6CA362F8826EDD7EA9C29F382BA8A2A0892FD5D PUSH32 0xA87391FB1CD8CDF6096B64A82F9E95F0FE46F143B702D74545BB314881098EE PUSH32 0xA48663B34CE5E1C05DC93092CB69778CB21729A72DDC03A08AFA1EB922FF279 PUSH2 0x66 JUMP JUMPDEST PUSH2 0x23AC PUSH32 0x2D9B10C2F2E7AC1AFDDCCFFD94A563028BF29B646D020830919F9D5CA1CEFE59 PUSH32 0x19D43EE0C6081C052C9C0DF6161EAAC1AEC356CF435888E79F27F22FF03FA25D PUSH32 0x23C0039A3FAB4AD3C2D7CC688164F39E761D5355C05444D99BE763A97793A9C4 PUSH32 0x2FD977C70F645DB4F704FA7D7693DA727AC093D3FB5F5FEBC72BEB17D8358A32 PUSH2 0x66 JUMP JUMPDEST PUSH2 0x2438 PUSH32 0xF97AE3033FFA01608AAFB26AE13CD393EE0E4EC041BA644A3D3AB546E98C9C8 PUSH32 0x19D2CC5CA549D1D40CEBCD37F3EA54F31161AC3993ACF3101D2C2BC30EAC1EB0 PUSH32 0xABC392FE85EDA855820592445094022811EE8676ED6F0C3044DFB54A7C10B35 PUSH32 0x2457CA6C2F2AA30EC47E4AFF5A66F5CE2799283E166FC81CDAE2F2B9F83E4267 PUSH2 0x66 JUMP JUMPDEST PUSH2 0x24C4 PUSH32 0x2E47E15EA4A47FF1A6A853AAF3A644CA38D5B085AC1042FDC4A705A7CE089F4D PUSH32 0xA1BB075AA37FF0CFE6C8531E55E1770EABA808C8FDB6DBF46F8CAB58D9EF1AF PUSH32 0x240FAF28F11499B916F085F73BC4F22EEF8344E576F8AD3D1827820366D5E07B PUSH32 0x16DBC78FD28B7FB8260E404CF1D427A7FA15537EA4E168E88A166496E88CFECA PUSH2 0x66 JUMP JUMPDEST PUSH2 0x2550 PUSH32 0x242ACD3EB3A2F72BAF7C7076DD165ADF89F9339C7B971921D9E70863451DD8D1 PUSH32 0x89CB1B032238F5E4914788E3E3C7EAD4FC368020B3ED38221DEAB1051C37702 PUSH32 0x18B42D7FFDD2EA4FAF235902F057A2740CACCCD027233001ED10F96538F0916F PUSH32 0x166E5BF073378348860CA4A9C09D39E1673AB059935F4DF35FB14528375772B6 PUSH2 0x66 JUMP JUMPDEST PUSH2 0x25DC PUSH32 0x529898DC0649907E1D4D5E284B8D1075198C55CAD66E8A9BF40F92938E2E961 PUSH32 0x1E8E40AC853B7D42F00F2E383982D024F098B9F8FD455953A2FD380C4DF7F6B2 PUSH32 0x17340E71D96F466D61F3058CE092C67D2891FB2BB318613F780C275FE1116C6B PUSH32 0x174FBB104A4EE302BF47F2BD82FCE896EAC9A068283F326474AF860457245C3B PUSH2 0x66 JUMP JUMPDEST PUSH2 0x2667 PUSH31 0xCCF13E0CB6F9D81D52951BEA990BD5B6C07C5D98E66FF71DB6E74D5B87D158 PUSH32 0x292643E3BA2026AFFCB8C5279313BD51A733C93353E9D9C79CB723136526508E PUSH32 0x12C7553698C4BF6F3CEB250AE00C58C2A9F9291EFBDE4C8421BEF44741752EC6 PUSH32 0x2162754DB0BAA030BF7DE5BB797364DCE8C77AA017EE1D7BF65F21C4D4E5DF8F PUSH2 0x66 JUMP JUMPDEST PUSH2 0x26F3 PUSH32 0x1B8FD9FF39714E075DF124F887BF40B383143374FD2080BA0C0A6B6E8FA5B3E8 PUSH32 0xF356841B3F556FCE5DBE4680457691C2919E2AF53008184D03EE1195D72449E PUSH32 0x14C61C836D55D3DF742BDF11C60EFA186778E3DE0F024C0F13FE53F8D8764E1F PUSH32 0x185D1E20E23B0917DD654128CF2F3AAAB6723873CB30FC22B0F86C15AB645B4B PUSH2 0x66 JUMP JUMPDEST PUSH2 0x277F PUSH32 0x29A3110463A5AAE76C3D152875981D0C1DAF2DCD65519EF5CA8929851DA8C008 PUSH32 0x5D797F1AB3647237C14F9D1DF032BC9FF9FE1A0ECD377972CE5FD5A0C014604 PUSH32 0x2E6C5E898F5547770E5462AD932FCDD2373FC43820CA2B16B0861421E79155C8 PUSH32 0xE86A8C2009C140CA3F873924E2AAA14FC3C8AE04E9DF0B3E9103418796F6024 PUSH2 0x66 JUMP JUMPDEST PUSH2 0x280B PUSH32 0x1E6AAC1C6D3DD3157956257D3D234EF18C91E82589A78169FBB4A8770977DC2F PUSH32 0x1C793EF0DCC51123654FF26D8D863FEEAE29E8C572ECA912D80C8AE36E40FE9B PUSH32 0x1ED0FB06699BA249B2A30621C05EB12CA29CB91AA082C8BFCCE9C522889B47DC PUSH32 0x2974DA7BC074322273C3A4B91C05354CDC71640A8BBD1F864B732F8163883314 PUSH2 0x66 JUMP JUMPDEST PUSH2 0x2896 PUSH32 0xB0D7E69C651910BBEF3E68D417E9FA0FBD57F596C8F29831EFF8C0174CDB06D PUSH31 0x6E5979DA7E7EF53A825AA6FDDC3ABFC76F200B3740B8B232EF481F5D06297B PUSH32 0x191033D6D85CEAA6FC7A9A23A6FD9996642D772045ECE51335D49306728AF96C PUSH32 0x1A20ADA7576234EEE6273DD6FA98B25ED037748080A47D948FCDA33256FB6BF5 PUSH2 0x66 JUMP JUMPDEST PUSH2 0x2922 PUSH32 0x136DF457C80588DD687FB2F3BE18691705B87EC5A4CFDC168D31084256B67DC PUSH32 0x16AF29695157ABA9B8BBE3AFEB245FEEE5A929D9F928B9B81DE6DADC78C32AAE PUSH32 0x12C1EA892CC31E0D9AF8B796D9645872F7F77442D62FD4C8085B2F150F72472A PUSH32 0x25CAF5B0C1B93BC516435EC084E2ECD44AC46DBBB033C5112C4B20A25C9CDF9D PUSH2 0x66 JUMP JUMPDEST PUSH2 0x29AE PUSH32 0x13F9B9A41274129479C5E6138C6C8EE36A670E6BC68C7A49642B645807BFC824 PUSH32 0x11AEEB527DC8CE44B4D14AADDCA3CFE2F77A1E40FC6DA97C249830DE1EDFDE54 PUSH32 0x3D62FBF82FD1D4313F8E650F587EC06816C28B700BDC50F7E232BD9B5CA9B76 PUSH32 0x1639A28C5B4C81166AEA984FBA6E71479E07B1EFBC74434DB95A285060E7B089 PUSH2 0x66 JUMP JUMPDEST PUSH2 0x2A3A PUSH32 0x2CF0A09A55CA93AF8ABD068F06A7287FB08B193B608582A27379CE35DA915DEC PUSH32 0x2BEDB66E1AD5A1D571E16E2953F48731F66463C2EB54A245444D1C0A3A25707E PUSH32 0x1B39A00CBC81E427DE4BDEC58FEBE8D8B5971752067A612B39FC46A68C5D4DB4 PUSH32 0xE4772FA3D75179DC8484CD26C7C1F635DDEEED7A939440C506CAE8B7EBCD15B PUSH2 0x2DC JUMP JUMPDEST PUSH2 0x2AC6 PUSH32 0x1AA9D3FE4C644910F76B92B3E13B30D500DAE5354E79508C3C49C8AA99E0258B PUSH32 0x2D933FF19217A5545013B12873452BEBCC5F9969033F15EC642FB464BD607368 PUSH32 0x65610C6F4F92491F423D3071EB83539F7C0D49C1387062E630D7FD283DC3394 PUSH32 0x2D1BD78FA90E77AA88830CABFEF2F8D27D1A512050BA7DB0753C8FB863EFB387 PUSH2 0x2DC JUMP JUMPDEST PUSH2 0x2B51 PUSH31 0xB4567186BC3F7C62A7B56ACF4F76207A1F43C2D30D0FE4A627DCDD9BD79078 PUSH32 0xC7C382443C6AA787C8718D86747C7F74693AE25B1E55DF13F7C3C1DD735DB0F PUSH32 0x2B7D524C5172CBBB15DB4E00668A8C449F67A2605D9EC03802E3FA136AD0B8FB PUSH32 0x27EF04869E482B1C748638C59111C6B27095FA773E1ACA078CEA1F1C8450BDD PUSH2 0x2DC JUMP JUMPDEST PUSH32 0x1E41FC29B825454FE6D61737FE08B47FB07FE739E4C1E61D0337490883DB4FD5 PUSH1 0x0 MLOAD ADD PUSH32 0x12507CD556B7BBCC72EE6DAFC616584421E1AF872D8C0E89002AE8D3BA0653B6 PUSH1 0x20 MLOAD ADD PUSH32 0x13D437083553006BCEF312E5E6F52A5D97EB36617EF36FE4D77D3E97F71CB5DB PUSH1 0x80 MLOAD ADD PUSH32 0x163EC73251F85443687222487DDA9A65467D90B22F0B38664686077C6A4486D5 PUSH1 0xA0 MLOAD ADD PUSH1 0x0 DUP1 MLOAD PUSH1 0x20 PUSH2 0x2F3B DUP4 CODECOPY DUP2 MLOAD SWAP2 MSTORE DUP5 DUP6 MULMOD SWAP5 POP PUSH1 0x0 DUP1 MLOAD PUSH1 0x20 PUSH2 0x2F3B DUP4 CODECOPY DUP2 MLOAD SWAP2 MSTORE DUP5 PUSH1 0x0 DUP1 MLOAD PUSH1 0x20 PUSH2 0x2F3B DUP4 CODECOPY DUP2 MLOAD SWAP2 MSTORE DUP8 DUP9 MULMOD MULMOD SWAP4 POP PUSH1 0x0 DUP1 MLOAD PUSH1 0x20 PUSH2 0x2F3B DUP4 CODECOPY DUP2 MLOAD SWAP2 MSTORE DUP4 DUP5 MULMOD SWAP5 POP PUSH1 0x0 DUP1 MLOAD PUSH1 0x20 PUSH2 0x2F3B DUP4 CODECOPY DUP2 MLOAD SWAP2 MSTORE DUP4 PUSH1 0x0 DUP1 MLOAD PUSH1 0x20 PUSH2 0x2F3B DUP4 CODECOPY DUP2 MLOAD SWAP2 MSTORE DUP8 DUP9 MULMOD MULMOD SWAP3 POP PUSH1 0x0 DUP1 MLOAD PUSH1 0x20 PUSH2 0x2F3B DUP4 CODECOPY DUP2 MLOAD SWAP2 MSTORE DUP3 DUP4 MULMOD SWAP5 POP PUSH1 0x0 DUP1 MLOAD PUSH1 0x20 PUSH2 0x2F3B DUP4 CODECOPY DUP2 MLOAD SWAP2 MSTORE DUP3 PUSH1 0x0 DUP1 MLOAD PUSH1 0x20 PUSH2 0x2F3B DUP4 CODECOPY DUP2 MLOAD SWAP2 MSTORE DUP8 DUP9 MULMOD MULMOD SWAP2 POP PUSH1 0x0 DUP1 MLOAD PUSH1 0x20 PUSH2 0x2F3B DUP4 CODECOPY DUP2 MLOAD SWAP2 MSTORE DUP2 DUP3 MULMOD SWAP5 POP PUSH1 0x0 DUP1 MLOAD PUSH1 0x20 PUSH2 0x2F3B DUP4 CODECOPY DUP2 MLOAD SWAP2 MSTORE DUP2 PUSH1 0x0 DUP1 MLOAD PUSH1 0x20 PUSH2 0x2F3B DUP4 CODECOPY DUP2 MLOAD SWAP2 MSTORE DUP8 DUP9 MULMOD MULMOD SWAP1 POP PUSH1 0x0 DUP1 MLOAD PUSH1 0x20 PUSH2 0x2F3B DUP4 CODECOPY DUP2 MLOAD SWAP2 MSTORE DUP1 PUSH1 0x0 DUP1 MLOAD PUSH1 0x20 PUSH2 0x2F3B DUP4 CODECOPY DUP2 MLOAD SWAP2 MSTORE PUSH1 0x0 DUP1 MLOAD PUSH1 0x20 PUSH2 0x2E5B DUP4 CODECOPY DUP2 MLOAD SWAP2 MSTORE DUP5 MULMOD PUSH1 0x0 DUP1 MLOAD PUSH1 0x20 PUSH2 0x2F3B DUP4 CODECOPY DUP2 MLOAD SWAP2 MSTORE PUSH1 0x0 DUP1 MLOAD PUSH1 0x20 PUSH2 0x2FFB DUP4 CODECOPY DUP2 MLOAD SWAP2 MSTORE DUP7 MULMOD PUSH1 0x0 DUP1 MLOAD PUSH1 0x20 PUSH2 0x2F3B DUP4 CODECOPY DUP2 MLOAD SWAP2 MSTORE PUSH1 0x0 DUP1 MLOAD PUSH1 0x20 PUSH2 0x2FDB DUP4 CODECOPY DUP2 MLOAD SWAP2 MSTORE DUP9 MULMOD PUSH1 0x0 DUP1 MLOAD PUSH1 0x20 PUSH2 0x2F3B DUP4 CODECOPY DUP2 MLOAD SWAP2 MSTORE PUSH1 0x0 DUP1 MLOAD PUSH1 0x20 PUSH2 0x2E3B DUP4 CODECOPY DUP2 MLOAD SWAP2 MSTORE DUP11 MULMOD ADD ADD ADD MOD MOD PUSH1 0x0 MSTORE PUSH1 0x20 PUSH1 0x0 RETURN JUMPDEST PUSH4 0x4E487B71 PUSH1 0xE0 SHL PUSH1 0x0 MSTORE PUSH1 0x41 PUSH1 0x4 MSTORE PUSH1 0x24 PUSH1 0x0 REVERT JUMPDEST PUSH1 0x0 PUSH1 0x60 DUP3 DUP5 SUB SLT ISZERO PUSH2 0x2D8F JUMPI PUSH1 0x0 DUP1 REVERT JUMPDEST DUP3 PUSH1 0x1F DUP4 ADD SLT PUSH2 0x2D9E JUMPI PUSH1 0x0 DUP1 REVERT JUMPDEST PUSH1 0x40 MLOAD PUSH1 0x60 DUP2 ADD PUSH1 0x1 PUSH1 0x1 PUSH1 0x40 SHL SUB DUP2 GT DUP3 DUP3 LT OR ISZERO PUSH2 0x2DC0 JUMPI PUSH2 0x2DC0 PUSH2 0x2D67 JUMP JUMPDEST PUSH1 0x40 MSTORE DUP1 PUSH1 0x60 DUP5 ADD DUP6 DUP2 GT ISZERO PUSH2 0x2DD5 JUMPI PUSH1 0x0 DUP1 REVERT JUMPDEST DUP5 JUMPDEST DUP2 DUP2 LT ISZERO PUSH2 0x2DEF JUMPI DUP1 CALLDATALOAD DUP4 MSTORE PUSH1 0x20 SWAP3 DUP4 ADD SWAP3 ADD PUSH2 0x2DD7 JUMP JUMPDEST POP SWAP2 SWAP6 SWAP5 POP POP POP POP POP JUMP INVALID 0x2E XOR 0xC8 JUMPI 0xD KECCAK256 0xBF TSTORE 0xF8 STOP PUSH20 0x9A53DA75D906ECE318CD224AB6B3A2BE979E2D7E 0xAB 0xD PUSH21 0x5FD00DD167FB86772133640F02CE945004A7BC2C59 0xE8 PUSH26 0xF725C5D84F0AF236D13393EF85CC48A351DD786DD7A1DE5E399 TIMESTAMP 0x29 PUSH2 0x27FD DUP8 SWAP5 PUSH19 0x23AE5108AD1D359D245F286C12D50D663BAE73 EXTCODEHASH SWAP8 DUP11 CREATE DUP13 0xDB 0xD6 ADDRESS OR 0xC5 PUSH28 0x3A75646FF382C103F3E6FAB791F16628168E4B14DBAEB657035EE3DA PUSH12 0x2CA83F0C2491E0B403EB2381 SIGNEXTEND 0xF8 0x28 PUSH24 0xFC19BFF7EEFEAE3FAF4BB8104C32BA4CD701596A15623D01 SELFBALANCE PUSH15 0x2070679E798782EF592A52CA9CEF82 0xD BLOBHASH PUSH27 0xD2EECBAA7E42F366B3E521C4ED42083ABFF5E10051F078E2827D09 0x2E BYTE 0xE8 ADDMOD 0xB4 0xDD RETURNDATACOPY ISZERO 0xCC 0xC3 PUSH17 0x6F38CE4157B6770E00C15FC3A1D5733DD8 CALLDATALOAD 0xEA 0xE0 DUP3 RETURNDATACOPY CALLDATACOPY PUSH32 0x8BA4A8B627627CC2BB661C25D20FB52A1A5AD71BBBECD8A97DC49CFDBAE303AD 0x24 0xD5 0xC4 PUSH21 0x1EAB8B7568A9FF8253A1EB6F30644E72E131A029B8 POP GASLIMIT 0xB6 DUP2 DUP2 PC TSTORE 0x28 CALLER 0xE8 BASEFEE PUSH26 0xB9709143E1F593F00000012A75A171563B807DB525BE259699AB 0x28 INVALID SWAP12 0xC7 0xFB 0x1F PUSH17 0x943FF049BC970E841A0C2F545E578202C9 PUSH20 0x2488540E41F783B68FF0613FD79375F8BA8B3D30 SWAP6 DUP15 PUSH23 0x770FA86F0F27E4D3DD7F3367CE86F684F1F2E4386D3E5B SWAP16 CODESIZE STATICCALL 0x28 EXTCODECOPY PUSH11 0xA723B608014FCD5EB0BE6D JUMPDEST 0xEE 0xAF 0xC4 SWAP5 BLOCKHASH CALLVALUE 0xCF ORIGIN SHR MOD DUP15 0xF9 ADDRESS CALL SIGNEXTEND 0xE2 KECCAK256 PUSH31 0xD58D2A34CDD6277686494F7644BBC4A9B194E10724EB967F1DC58718E59E3C 0xED 0xC8 0x21 0xB2 0xA7 0xAE NOT MUL RETURNDATASIZE 0xB6 DUP8 DUP5 0xE3 CREATE 0xCC SIGNEXTEND DUP6 PUSH2 0x8826 0xA9 0xB3 POP MLOAD 0x29 0xC1 PUSH5 0x79973B0A84 LOG4 MSTORE SWAP15 PUSH7 0xB09C62A2646970 PUSH7 0x735822122061C1 CREATE2 0x2D ISZERO 0x2D LOG1 ADD 0xB4 LOG3 0xBB SHL CALLER JUMPDEST LOG4 PUSH16 0xDB8F2850D98338F4B60B3DA57B2ECA16 PUSH5 0x736F6C6343 STOP ADDMOD SHR STOP CALLER "},"methodIdentifiers":{"hash(uint256[3])":"20cf0a37"}}}}}