{"src/Verifier.sol":{"Groth16Verifier":{"abi":[{"inputs":[{"internalType":"uint256[2]","name":"_pA","type":"uint256[2]"},{"internalType":"uint256[2][2]","name":"_pB","type":"uint256[2][2]"},{"internalType":"uint256[2]","name":"_pC","type":"uint256[2]"},{"internalType":"uint256[5]","name":"_pubSignals","type":"uint256[5]"}],"name":"verifyProof","outputs":[{"internalType":"bool","name":"","type":"bool"}],"stateMutability":"view","type":"function"}],"evm":{"bytecode":{"linkReferences":{},"object":"6080604052348015600f57600080fd5b506106cf8061001f6000396000f3fe608060405234801561001057600080fd5b506004361061002b5760003560e01c806334baeab914610030575b600080fd5b61004361003e366004610612565b610057565b604051901515815260200160405180910390f35b6000610596565b7f30644e72e131a029b85045b68181585d2833e84879b9709143e1f593f0000001811061008f576000805260206000f35b50565b600060405183815284602082015285604082015260408160608360076107d05a03fa9150816100c5576000805260206000f35b825160408201526020830151606082015260408360808360066107d05a03fa915050806100f6576000805260206000f35b5050505050565b7f2e793d4550dd71e85936f4a318c219098d15c0e16487f6f80402239b82dc6f2885527f0d3bdeff0067611417b24af863bf21d567311e911de4a9d329187f22ec4d5a1260208601526000608086018661019a87357f23a5571bfb6944e71ca2dd8b03ec8d8d2c3e69909dc235b3628be780a51153377f1b7aded3421bbed3e33dbef7c6391003dd0ee54f9d0795b01ff9aadd7fc03e1384610092565b6101ea60208801357f17f39bc2724c5a36f181c1ffe437f5abe368acd772eda3c14ff1b48d9d2ec4f87f067d589f9f82f765eb779d2ee8d5313c6e55d439cfbbe6af2bd99e024835a8dd84610092565b61023a60408801357f14efb2f499f226d7cc051c13967cf8630dfd8e7c93a7d5451a2e87b42d90bca87f197f134c9549ab733da8753ee726d8a533375a511ca404ff71bb4733b112e05684610092565b61028a60608801357f303d0d6b9acca9f5dd38fe08768bc53b75a4966f052cd201e87b11593e46df9a7f0542d6ac658cb6ac751867cdab971e72c569167ca3c9554051f65b581920539184610092565b6102da60808801357f275f4f3de6bc5b62308e2eaa42119c9677752e3825b3a9045d79d6fd41c17e1a7f0182654d5a0d9bfa34aee2b7f1cce935ba4d227d7cc0671f411dce3035a2a5ba84610092565b508235815260008051602061067a833981519152602084013560008051602061067a83398151915203066020820152833560408201526020840135606082015260408401356080820152606084013560a08201527f0ea38025e7a4e5dbdcb979c6827b249a862d7e5777029c3478417a94b72842dd60c08201527f16788c1440478a40e9e3441f4867f7eea29193105e2a9a0fb1439a7bd8db4c4760e08201527f225d3d8155d9cd648e7e7aac2a854f723b8ec7210fde9886e0b134d727c0d1b66101008201527f219a70ecfa8647c860358f0dd7ee07c850daf4885e24f939791fa7898685e4536101208201527f2103bac4a1a44aca01d980b854bafcd095dec694a4f41fd45b88080df3c353ed6101408201527f085b7cd62d3561878785f5f558379a45b31d1d5a2546e94e843c8c2b0fb568b5610160820152600087015161018082015260206000018701516101a08201527f198e9393920d483a7260bfb731fb5d25f1aa493335a9e71297e485b7aef312c26101c08201527f1800deef121f1e76426a00665e5c4479674322d4f75edadd46debd5cd992f6ed6101e08201527f090689d0585ff075ec9e99ad690c3395bc4b313370b38ef355acdadcd122975b6102008201527f12c85ea5db8c6deb4aab71808dcb408fe3d1e7690c43d37b4ce6cc0166fa7daa610220820152843561024082015260208501356102608201527f200211e9d3a0cf2566ae8f899a7e22df74bfde31fd5f1a9c526207ae10d7c72b6102808201527f174e3dcc5d22e9c7792e98909d36e9e0d768f5187322f13f064eff7df49f61cd6102a08201527f25909968804b0a47df51a22dfc3d74ea5977839af094b9c3f6c6269fd8b339eb6102c08201527f243c764fe03429f00ebfea7e246605af46bce9a60fff240ca0bcbfeed919ec776102e08201526020816103008360086107d05a03fa9051169695505050505050565b60405161038081016040526105ae600084013561005e565b6105bb602084013561005e565b6105c8604084013561005e565b6105d5606084013561005e565b6105e2608084013561005e565b6105ef818486888a6100fd565b90508060005260206000f35b806040810183101561060c57600080fd5b92915050565b6000806000806101a0858703121561062957600080fd5b61063386866105fb565b935060c085018681111561064657600080fd5b60408601935061065687826105fb565b925050856101a08601111561066a57600080fd5b5091949093509091610100019056fe30644e72e131a029b85045b68181585d97816a916871ca8d3c208c16d87cfd47a264697066735822122067ea30ed05ac4b9c06cdce844faa4a316a5ee6c1e705ab6aaf575e3312508ff664736f6c634300081c0033","opcodes":"PUSH1 0x80 PUSH1 0x40 MSTORE CALLVALUE DUP1 ISZERO PUSH1 0xF JUMPI PUSH1 0x0 DUP1 REVERT JUMPDEST POP PUSH2 0x6CF DUP1 PUSH2 0x1F PUSH1 0x0 CODECOPY PUSH1 0x0 RETURN INVALID PUSH1 0x80 PUSH1 0x40 MSTORE CALLVALUE DUP1 ISZERO PUSH2 0x10 JUMPI PUSH1 0x0 DUP1 REVERT JUMPDEST POP PUSH1 0x4 CALLDATASIZE LT PUSH2 0x2B JUMPI PUSH1 0x0 CALLDATALOAD PUSH1 0xE0 SHR DUP1 PUSH4 0x34BAEAB9 EQ PUSH2 0x30 JUMPI JUMPDEST PUSH1 0x0 DUP1 REVERT JUMPDEST PUSH2 0x43 PUSH2 0x3E CALLDATASIZE PUSH1 0x4 PUSH2 0x612 JUMP JUMPDEST PUSH2 0x57 JUMP JUMPDEST PUSH1 0x40 MLOAD SWAP1 ISZERO ISZERO DUP2 MSTORE PUSH1 0x20 ADD PUSH1 0x40 MLOAD DUP1 SWAP2 SUB SWAP1 RETURN JUMPDEST PUSH1 0x0 PUSH2 0x596 JUMP JUMPDEST PUSH32 0x30644E72E131A029B85045B68181585D2833E84879B9709143E1F593F0000001 DUP2 LT PUSH2 0x8F JUMPI PUSH1 0x0 DUP1 MSTORE PUSH1 0x20 PUSH1 0x0 RETURN JUMPDEST POP JUMP JUMPDEST PUSH1 0x0 PUSH1 0x40 MLOAD DUP4 DUP2 MSTORE DUP5 PUSH1 0x20 DUP3 ADD MSTORE DUP6 PUSH1 0x40 DUP3 ADD MSTORE PUSH1 0x40 DUP2 PUSH1 0x60 DUP4 PUSH1 0x7 PUSH2 0x7D0 GAS SUB STATICCALL SWAP2 POP DUP2 PUSH2 0xC5 JUMPI PUSH1 0x0 DUP1 MSTORE PUSH1 0x20 PUSH1 0x0 RETURN JUMPDEST DUP3 MLOAD PUSH1 0x40 DUP3 ADD MSTORE PUSH1 0x20 DUP4 ADD MLOAD PUSH1 0x60 DUP3 ADD MSTORE PUSH1 0x40 DUP4 PUSH1 0x80 DUP4 PUSH1 0x6 PUSH2 0x7D0 GAS SUB STATICCALL SWAP2 POP POP DUP1 PUSH2 0xF6 JUMPI PUSH1 0x0 DUP1 MSTORE PUSH1 0x20 PUSH1 0x0 RETURN JUMPDEST POP POP POP POP POP JUMP JUMPDEST PUSH32 0x2E793D4550DD71E85936F4A318C219098D15C0E16487F6F80402239B82DC6F28 DUP6 MSTORE PUSH32 0xD3BDEFF0067611417B24AF863BF21D567311E911DE4A9D329187F22EC4D5A12 PUSH1 0x20 DUP7 ADD MSTORE PUSH1 0x0 PUSH1 0x80 DUP7 ADD DUP7 PUSH2 0x19A DUP8 CALLDATALOAD PUSH32 0x23A5571BFB6944E71CA2DD8B03EC8D8D2C3E69909DC235B3628BE780A5115337 PUSH32 0x1B7ADED3421BBED3E33DBEF7C6391003DD0EE54F9D0795B01FF9AADD7FC03E13 DUP5 PUSH2 0x92 JUMP JUMPDEST PUSH2 0x1EA PUSH1 0x20 DUP9 ADD CALLDATALOAD PUSH32 0x17F39BC2724C5A36F181C1FFE437F5ABE368ACD772EDA3C14FF1B48D9D2EC4F8 PUSH32 0x67D589F9F82F765EB779D2EE8D5313C6E55D439CFBBE6AF2BD99E024835A8DD DUP5 PUSH2 0x92 JUMP JUMPDEST PUSH2 0x23A PUSH1 0x40 DUP9 ADD CALLDATALOAD PUSH32 0x14EFB2F499F226D7CC051C13967CF8630DFD8E7C93A7D5451A2E87B42D90BCA8 PUSH32 0x197F134C9549AB733DA8753EE726D8A533375A511CA404FF71BB4733B112E056 DUP5 PUSH2 0x92 JUMP JUMPDEST PUSH2 0x28A PUSH1 0x60 DUP9 ADD CALLDATALOAD PUSH32 0x303D0D6B9ACCA9F5DD38FE08768BC53B75A4966F052CD201E87B11593E46DF9A PUSH32 0x542D6AC658CB6AC751867CDAB971E72C569167CA3C9554051F65B5819205391 DUP5 PUSH2 0x92 JUMP JUMPDEST PUSH2 0x2DA PUSH1 0x80 DUP9 ADD CALLDATALOAD PUSH32 0x275F4F3DE6BC5B62308E2EAA42119C9677752E3825B3A9045D79D6FD41C17E1A PUSH32 0x182654D5A0D9BFA34AEE2B7F1CCE935BA4D227D7CC0671F411DCE3035A2A5BA DUP5 PUSH2 0x92 JUMP JUMPDEST POP DUP3 CALLDATALOAD DUP2 MSTORE PUSH1 0x0 DUP1 MLOAD PUSH1 0x20 PUSH2 0x67A DUP4 CODECOPY DUP2 MLOAD SWAP2 MSTORE PUSH1 0x20 DUP5 ADD CALLDATALOAD PUSH1 0x0 DUP1 MLOAD PUSH1 0x20 PUSH2 0x67A DUP4 CODECOPY DUP2 MLOAD SWAP2 MSTORE SUB MOD PUSH1 0x20 DUP3 ADD MSTORE DUP4 CALLDATALOAD PUSH1 0x40 DUP3 ADD MSTORE PUSH1 0x20 DUP5 ADD CALLDATALOAD PUSH1 0x60 DUP3 ADD MSTORE PUSH1 0x40 DUP5 ADD CALLDATALOAD PUSH1 0x80 DUP3 ADD MSTORE PUSH1 0x60 DUP5 ADD CALLDATALOAD PUSH1 0xA0 DUP3 ADD MSTORE PUSH32 0xEA38025E7A4E5DBDCB979C6827B249A862D7E5777029C3478417A94B72842DD PUSH1 0xC0 DUP3 ADD MSTORE PUSH32 0x16788C1440478A40E9E3441F4867F7EEA29193105E2A9A0FB1439A7BD8DB4C47 PUSH1 0xE0 DUP3 ADD MSTORE PUSH32 0x225D3D8155D9CD648E7E7AAC2A854F723B8EC7210FDE9886E0B134D727C0D1B6 PUSH2 0x100 DUP3 ADD MSTORE PUSH32 0x219A70ECFA8647C860358F0DD7EE07C850DAF4885E24F939791FA7898685E453 PUSH2 0x120 DUP3 ADD MSTORE PUSH32 0x2103BAC4A1A44ACA01D980B854BAFCD095DEC694A4F41FD45B88080DF3C353ED PUSH2 0x140 DUP3 ADD MSTORE PUSH32 0x85B7CD62D3561878785F5F558379A45B31D1D5A2546E94E843C8C2B0FB568B5 PUSH2 0x160 DUP3 ADD MSTORE PUSH1 0x0 DUP8 ADD MLOAD PUSH2 0x180 DUP3 ADD MSTORE PUSH1 0x20 PUSH1 0x0 ADD DUP8 ADD MLOAD PUSH2 0x1A0 DUP3 ADD MSTORE PUSH32 0x198E9393920D483A7260BFB731FB5D25F1AA493335A9E71297E485B7AEF312C2 PUSH2 0x1C0 DUP3 ADD MSTORE PUSH32 0x1800DEEF121F1E76426A00665E5C4479674322D4F75EDADD46DEBD5CD992F6ED PUSH2 0x1E0 DUP3 ADD MSTORE PUSH32 0x90689D0585FF075EC9E99AD690C3395BC4B313370B38EF355ACDADCD122975B PUSH2 0x200 DUP3 ADD MSTORE PUSH32 0x12C85EA5DB8C6DEB4AAB71808DCB408FE3D1E7690C43D37B4CE6CC0166FA7DAA PUSH2 0x220 DUP3 ADD MSTORE DUP5 CALLDATALOAD PUSH2 0x240 DUP3 ADD MSTORE PUSH1 0x20 DUP6 ADD CALLDATALOAD PUSH2 0x260 DUP3 ADD MSTORE PUSH32 0x200211E9D3A0CF2566AE8F899A7E22DF74BFDE31FD5F1A9C526207AE10D7C72B PUSH2 0x280 DUP3 ADD MSTORE PUSH32 0x174E3DCC5D22E9C7792E98909D36E9E0D768F5187322F13F064EFF7DF49F61CD PUSH2 0x2A0 DUP3 ADD MSTORE PUSH32 0x25909968804B0A47DF51A22DFC3D74EA5977839AF094B9C3F6C6269FD8B339EB PUSH2 0x2C0 DUP3 ADD MSTORE PUSH32 0x243C764FE03429F00EBFEA7E246605AF46BCE9A60FFF240CA0BCBFEED919EC77 PUSH2 0x2E0 DUP3 ADD MSTORE PUSH1 0x20 DUP2 PUSH2 0x300 DUP4 PUSH1 0x8 PUSH2 0x7D0 GAS SUB STATICCALL SWAP1 MLOAD AND SWAP7 SWAP6 POP POP POP POP POP POP JUMP JUMPDEST PUSH1 0x40 MLOAD PUSH2 0x380 DUP2 ADD PUSH1 0x40 MSTORE PUSH2 0x5AE PUSH1 0x0 DUP5 ADD CALLDATALOAD PUSH2 0x5E JUMP JUMPDEST PUSH2 0x5BB PUSH1 0x20 DUP5 ADD CALLDATALOAD PUSH2 0x5E JUMP JUMPDEST PUSH2 0x5C8 PUSH1 0x40 DUP5 ADD CALLDATALOAD PUSH2 0x5E JUMP JUMPDEST PUSH2 0x5D5 PUSH1 0x60 DUP5 ADD CALLDATALOAD PUSH2 0x5E JUMP JUMPDEST PUSH2 0x5E2 PUSH1 0x80 DUP5 ADD CALLDATALOAD PUSH2 0x5E JUMP JUMPDEST PUSH2 0x5EF DUP2 DUP5 DUP7 DUP9 DUP11 PUSH2 0xFD JUMP JUMPDEST SWAP1 POP DUP1 PUSH1 0x0 MSTORE PUSH1 0x20 PUSH1 0x0 RETURN JUMPDEST DUP1 PUSH1 0x40 DUP2 ADD DUP4 LT ISZERO PUSH2 0x60C JUMPI PUSH1 0x0 DUP1 REVERT JUMPDEST SWAP3 SWAP2 POP POP JUMP JUMPDEST PUSH1 0x0 DUP1 PUSH1 0x0 DUP1 PUSH2 0x1A0 DUP6 DUP8 SUB SLT ISZERO PUSH2 0x629 JUMPI PUSH1 0x0 DUP1 REVERT JUMPDEST PUSH2 0x633 DUP7 DUP7 PUSH2 0x5FB JUMP JUMPDEST SWAP4 POP PUSH1 0xC0 DUP6 ADD DUP7 DUP2 GT ISZERO PUSH2 0x646 JUMPI PUSH1 0x0 DUP1 REVERT JUMPDEST PUSH1 0x40 DUP7 ADD SWAP4 POP PUSH2 0x656 DUP8 DUP3 PUSH2 0x5FB JUMP JUMPDEST SWAP3 POP POP DUP6 PUSH2 0x1A0 DUP7 ADD GT ISZERO PUSH2 0x66A JUMPI PUSH1 0x0 DUP1 REVERT JUMPDEST POP SWAP2 SWAP5 SWAP1 SWAP4 POP SWAP1 SWAP2 PUSH2 0x100 ADD SWAP1 JUMP INVALID ADDRESS PUSH5 0x4E72E131A0 0x29 0xB8 POP GASLIMIT 0xB6 DUP2 DUP2 PC TSTORE SWAP8 DUP2 PUSH11 0x916871CA8D3C208C16D87C REVERT SELFBALANCE LOG2 PUSH5 0x6970667358 0x22 SLT KECCAK256 PUSH8 0xEA30ED05AC4B9C06 0xCD 0xCE DUP5 0x4F 0xAA BLOBBASEFEE BALANCE PUSH11 0x5EE6C1E705AB6AAF575E33 SLT POP DUP16 0xF6 PUSH5 0x736F6C6343 STOP ADDMOD SHR STOP CALLER "},"methodIdentifiers":{"verifyProof(uint256[2],uint256[2][2],uint256[2],uint256[5])":"34baeab9"}}}}}