{
  "_format": "hh-sol-artifact-1",
  "contractName": "Groth16Verifier",
  "sourceName": "src/Verifier.sol",
  "abi": [
    {
      "inputs": [
        {
          "internalType": "uint256[2]",
          "name": "_pA",
          "type": "uint256[2]"
        },
        {
          "internalType": "uint256[2][2]",
          "name": "_pB",
          "type": "uint256[2][2]"
        },
        {
          "internalType": "uint256[2]",
          "name": "_pC",
          "type": "uint256[2]"
        },
        {
          "internalType": "uint256[929]",
          "name": "_pubSignals",
          "type": "uint256[929]"
        }
      ],
      "name": "verifyProof",
      "outputs": [
        {
          "internalType": "bool",
          "name": "",
          "type": "bool"
        }
      ],
      "stateMutability": "view",
      "type": "function"
    }
  ],
  "bytecode": "0x6080604052348015600f57600080fd5b5062016c2680620000216000396000f3fe60806040523480156200001157600080fd5b50600436106200002e5760003560e01c80636a712fb01462000033575b600080fd5b6200004a6200004436600462016b62565b6200005e565b604051901515815260200160405180910390f35b60006201311c565b7f30644e72e131a029b85045b68181585d2833e84879b9709143e1f593f0000001811062000098576000805260206000f35b50565b600060405183815284602082015285604082015260408160608360076107d05a03fa915081620000cf576000805260206000f35b825160408201526020830151606082015260408360808360066107d05a03fa9150508062000101576000805260206000f35b5050505050565b7f0c2b5e9a5317647dc082baf1738cb762ee8de4190e1b2d92f3ee71add87dd16885527f10eb3e652017b01be108f1f101f8e10615be47dbb1837079a58e0bee58cb1104602086015260006080860186620001a787357f12ad2d03ba4181d9bcc6368f83b523e2b54bae115ad16ab125d998ead3fef2087f2d50d7262e26b78d256740bbc3a076f8ed73d299d82ec43dcb1afed1aadded85846200009b565b620001f960208801357f15f5a7138352c4d55074b49c64c0e0d7f11d20090313b7307dc89214e32865717f039608fdda1a597a43d20de05c3f494a6db413588e41f5c2d63fb828db227756846200009b565b6200024b60408801357f21b60ef8a9c7cfe8a1db1cbfa9859484ae50093677a28a38be47416d6225338f7f1cfeab81a677e92f38f124cc16ae7a92f963872e86367134bc8b166d7c4ce148846200009b565b6200029d60608801357f10034dd5c584b149da2264edcb695da89716a537ccf703e0e9be20fdd1b4777c7f182ef19182c95ee39977c8ca274855f7326984871a907a9b7e08ed87431487c2846200009b565b620002ef60808801357f1846fc538f47bb4447d46a02d3d54a82b27df2efae5aa4be2745b881bada6e367f07ec913c461425f9fa89560c41a6f0caeb3ca335a7143edc8a9593989e63fbd9846200009b565b6200034160a08801357f12a6be8aca098c4d69f0eba53360949706ac857fa8d4dba4fedd0eb04f8235db7f0e61419dd67c88da0b0efaac5dbb9d89a86939f324381707277bb7b8b4623bf0846200009b565b6200039360c08801357f26792a8d1ee1011c982d5adf0f413a6fa0548a933e4244bb2ad3fde6c03ae43f7f02f9c3fcec470b6f55c1e66c39629812f52f0c2f4f89a5f149b899586b5b1719846200009b565b620003e560e08801357f2306276c5d7a75bd61e46f571e435c80f63775fad2ae3a7d32d3a1ce954051a07f16a3bf37d07f08e39d7a86603216f59fdade267d21cff388029f760e250bafc9846200009b565b620004386101008801357f0add92e7017baa2de7ca2ba8beb00d329a6fced6b602b74cb8e0581674a52a647f2feab7bf482f0403c41bdc0dea5747e9b1e511e889f2f9288b2bdba1f1871a23846200009b565b6200048b6101208801357f0143ae5c8a7ef9d612f77b567e3024fa790a4f8d62195961757fd481bd0e554c7f2c20ef454c0617beed02ff7a285da66c4c6c18235fc8857eabc5caa3a4078881846200009b565b620004de6101408801357f126fd27a20b148b7af3334bec927dc37281566dced55f1c2a77ff15d68d5b4517f22d24748d4afe088f8311e705cb9020359eb19178eddfdeb23ed1e2d92ad2ca9846200009b565b620005306101608801357f184e23e8de1892bbef1f956d9eb04a619f49f607ce99ce5622e895133562b8e77ef5d2011d43c1a4f617ed5cc48b2c4b2e6090a2e213ee17beeac8071f206275846200009b565b620005836101808801357f25ba0fb318d2f18f4840ac72cf0dc65de7ceb2c8c886d0ce6c9cc1c5e659459f7f12a3cf1379cc2e1ab6f9933997379c04cfbedaa8e1a88a5c4ffd00ddcb595228846200009b565b620005d66101a08801357f180af35d0cb5ce6580632fc5c745bbfc3c8b96bed7eb80667877e1cb45dc54db7f15919b4d9297f943162ed6d7d0d865312a6455e01c68447324430b6cb24445bc846200009b565b620006296101c08801357f22a5321242ccdc3834d25204939ec55d54b61c5ff366086318548d0bf4c55ce87f0342fc9497bbd173601a484df39dd3b94f6771c55f686f632535a15274e33a07846200009b565b6200067c6101e08801357f1c4490de0e9219223726b52b60cbddbc52611c745488ce861cb06fde8d82e8f97f2284c2761e34c003301dae453bc92eb4c9326c6fc55574190b3d4ba3d56c61e9846200009b565b620006cf6102008801357f21233d9ae97af27592c13a8369929baef5e94f58d40210e6dbd6f2d448bff7b07f13ba5a9bae4aa3c4a4aa23a9244c3f1cbaa0749209afabbd3623e6d1b61ea9a3846200009b565b620007226102208801357f2c7769c61e55dc5dc570ef11595e3770066edfb095ea32d6523e760c498025b37f17d7add33723a321ece3cb40a01e26ac5ac36d0fb5697d4352fe9062b4cd4bdf846200009b565b620007756102408801357f0c84abeeca7cfadac2080da6552f6c78dceaf5b9e34345251ced10f3dcf6a2757f24e16c47f6aa796bc258824a412563a32903919e856eaf7f19cf5907e0e3437e846200009b565b620007c86102608801357f1ad8a77d18b6951f6fe9e534a37eb4729afe7ce1051b5a7f91abefb8df0e5a827f01c5659b18e22b2ca309c421cd772b2f1df896e74ddf2b57f1e335ffc2cdaba0846200009b565b6200081b6102808801357f2fecf87ffef01b8ca8aa70045756d22275c414ead60408fcc9d8be0f78e733627f08eb9c6c17fce952046b0ccdb9942fcd3df8f3633793d98e0ce4ebafc4ce13e3846200009b565b6200086e6102a08801357f03eec25568aea2bad8b39e0415b6320b8112836e1a499fc430b15d91103664537f0ef8062ed78013ac0b5d90bfa5f9611f476513facd21f3d683fcc319c6fb9870846200009b565b620008c16102c08801357f1accab43f68a8fecdc2076e6ab15f7431d89ba5ba5d641e6a50c211f5a3a3db67f270a242e2145bbfbb4634b380a566706d0fddabe3f97427b4de1743975a860a1846200009b565b620009146102e08801357f187b613e57b7f0d80fe50a564657875bb78e7df879535bf1949cc8645367fcaa7f0e8f2c05cf0669fe5e7565598e87ddc38ac331e5d97e0203b1975ccff8f867f3846200009b565b620009676103008801357f047d88cafd2987a748bd9108ad70c051d1afd5cadbf102a54ce3efa641a0d1d67f0f2825118e34f732a7471cf9400adf769345d48227aaa83d8014e8bf3f9a696e846200009b565b620009ba6103208801357f29ecd6e776a85284bff4c99e3159ca4250860b8d57637838b800a0d0c22febf57f2fda9df6ceb1ff4f07b9e816425ead00c47f26c29238029d6f80ee7e6ab3f7c6846200009b565b62000a0d6103408801357f18169f869b321e9b89ad68e3c400401f805835e8d4b0503b979a4940e3a712237f2e90547b8d537a9edfa319e167733188c3864728264fc42155c0dd7f2d1b571f846200009b565b62000a606103608801357f235d0d598d0bfbea9e46154ac9802b38e88812f506fd954b013dacb298e380007f04bb0495d61178ec6f721470529c6f3f74d4b0e499db2c9563dd500a6a97f419846200009b565b62000ab36103808801357f2f506fd21824bc3e0b8c51a3d235c7d15f22b548625a7c57a483cb39d02158417f19cdc6a5f748654d13cf68fdba7a9f22ff19b5609fe13a813916e31103327659846200009b565b62000b066103a08801357f09f23578ff7d7c982743f8bec6ee705e10d836154d184e0c8fd53252af2e833b7f067bb48d6b656c8525937e1de766e817174d382b6a9dc979f081d2034a322ad7846200009b565b62000b596103c08801357f0de4a8c5c5d4b3b700b1314bf50b43effcfb36eec9292d2b5f80f42fbabad88e7f08b252e2de717b428e778453cdbaff29f8d34a11057e51834d07379998cce82b846200009b565b62000bac6103e08801357f1527af8331f5af604af4f9f878e5cdf6d7eb719602dd68029ecbb17bce291fcd7f265acd337d954d1609b86b4dd045fc0a6d1873fd344a32184cf381b3b617893d846200009b565b62000bff6104008801357f057200b4731a0c401bfc28503ebe221afebdb81ad42d85a5170eaeff4cc77dd17f01997db046edc8b0b9eec1a833646e362523a520ef3d0a4797ad5b2293cd6201846200009b565b62000c526104208801357f187e115fd3ee14a0e0d2fd0a382270e98bf001d0b28bc8da20146b6ae99178977f1450fe2cffdb22a161601d6bf0e556ad2200f2bb24b3fd724ec18dc17bf6c535846200009b565b62000ca56104408801357f0b1ce20cbd5cd376085401de22a9afcba8a0ed9e0cdea5cc273fc9d291215e8f7f20392c8b790e621e7bf6252e86262915e91cbd1626bbdd3ff611871489228bf4846200009b565b62000cf86104608801357f102fe9d4c18676149ec0c28b989dd21067243b9fdcc1c4e99d1520177aa3efd77f2004582c1ddc19a47e67bcd7102bee89ec399403ce1fcb109744490cb50d1663846200009b565b62000d4b6104808801357f01b48ed717251babdc2170c2c6272877322a6bb24bc2fe974d12a5997666485b7f0d2bafe6b38773c9dc58ca82f74e0660c8ad1e082dee98c9bbe2ca02246612e1846200009b565b62000d9e6104a08801357f2399a024071924751a58f5d5fc21fe71c72993e90a1836ee898aa318829eba797f2f935ac7ce8a580f0e65954251e536ae8cc54dddc436862ef9d7a73aac9d7224846200009b565b62000df16104c08801357f2cbfab3133ac8c757a9c76ce6490d9dbd305427cd6b9155030f2870c2e5495487f29555c38140996e6932f7e9b80768b18cec1d9769513907c51056537e719dfce846200009b565b62000e446104e08801357f0ec1f11a5b5707920af2eb2ef46b20201a74d181eef886e5fc9d8b88bcdb0b5c7f0a1c24c0ffc8877b0f216cc36d3f278294bf6b7541af28f524920a4f6264586c846200009b565b62000e976105008801357f2988a09cd61cb5909c0011b77768da4a01c94d7428bc8fc091d5f06dfd5983d87f2daa7087f0f44e4761af86673edd127274718e8cec71dc7dac27716cd656cc45846200009b565b62000eea6105208801357f262f5498686f88349707593e15940e73b7db64ecc01aab76bd38d997024792417f1625bd4c3f121887ee09ac5ff3ced3905be867749375ac88e6b226dd10954e99846200009b565b62000f3d6105408801357f1730e739d1588b529f2a475874ea1cac5d2cfb50b8396217c0e991ae2b882ea37f085c40432bc93c5a73b185d6d7c0f964aabecb487d4067e8291a98da076ad80f846200009b565b62000f906105608801357f22cee4787160cd809ce996209ff3db2b7cd6ddb505f2a68a2fd15fab7b1f60947f247703b663d4285132778094d04bc42e837b47d852f86d4e135addcb7ce224d2846200009b565b62000fe36105808801357f2ee1d3f240add88f6dd63c7fe7bce319a1f14cd51b4bcf202b830b4527c71f057f1adb723ec7bf2599c2f4be8c8ae3a402d8e86a367f6df495040ca7b1ce177570846200009b565b620010366105a08801357f229e52e8ebae48f7c55d83311d2e50bf8cb673e2df5b3c9f8de111621f160e327f15f7f6c9e3a1bbd20e9686b568c20170a7917895e6ad46c9e5b862586db6a24d846200009b565b620010896105c08801357f13ac20f63856a0d95953eea02788c7fca6da29d214a7b8b18196d62a3fb5faa47f02f8e93d71222e105a3f4392f2c8940cfbbed4558e2e6fd5087ccc7d1ec21a95846200009b565b620010dc6105e08801357f19882f200bff3100958859018063e72fa40509c1c4a6ad12be942d08810030117f191ae05d3c9199885b5255714e14c66ead96cc20b56c89513afa8ee10682c148846200009b565b6200112f6106008801357f1320f7f5b84ad33319ad1fce8f7a9ec94e7cae3887445983f6d73ebd396a5b0c7f11212da99e0473da756d251ec63cb64523387cb8219d50b4c9867b4e2983f559846200009b565b620011826106208801357f081124981dd0d53cca8454ca29257eeb09275dd8accfa55c746aa30e0055d8d97f249c1b989c597ddd6563487d85da325cbd69c32f4c513efbb35e9513316eadb2846200009b565b620011d56106408801357f1480c1aa48781d4736c9479ed99d49f8035c6142ad1ea110084426d0d0992d467f117f8d65c3f216c3904fa8052a05ac05ed0febe8115082eaf27ef805c87cf07b846200009b565b620012286106608801357f2fbc8f9b5a73d16e4d16b6268e5242b3b9e08d68c97ce3aae88fd5ccdd27bc027f305c6f1bd758567ab46a1720bc13de2d06c8c779bb25e74ebf7e3b26fc199097846200009b565b6200127b6106808801357f2b1b176f4369667ece12e637746ee623544ee398e1b00d9c919d182ce3a4a23b7f1bec77a8609b9a94e3518f1ed4eca4e2a33be5d9685e63a0890be73c595c68bc846200009b565b620012cd6106a08801357f2abb86b3a026821be3ff96c9ae3c19d78b94a70e74eb131f4dd5444de1c451527e4118a976f2112c2dff54a8e58ea2aaf23b1f9a3950c5b205112575a86d5ab0846200009b565b620013206106c08801357f216effc8855be19bc1980083b01d13f8cb69db505aa5d8ac8c0a4252554e94257f29b21ad2f922c617321ac694839577bff845f8bddb1db54ae153f327a599b894846200009b565b620013736106e08801357f27034d01c4f29c92c34953caf0ffb98c5d2104e92528dab3bf7f66c95036ff897f2f051a79fcdd9fa42c0e2fc4f97f0fc840014849fe352fdcc71b466148ceab26846200009b565b620013c66107008801357f218715f26ba4cffe9aa08a92e2116660008b70f87354c03de217f7e755f883e97f0e3daded203752eb2944b7ac0c38a7790491e1f939866481b91ee2e9402d9887846200009b565b620014196107208801357f0320161f787df8fee2e153c512b6e10562b093c5c8a04b5fbb9e8fdab71a857b7f0beca4f6fe4a6d12457985749babdcc7e0bfd03920f04d7ae8a1091e3dcaeb3a846200009b565b6200146c6107408801357f1fca822f43e06ef68128b817012b18789773bcd8dd833f5494a3a8518645d3647f06e0edd797f17c4faae5c5ecdea08672220fd6539c8c15402a61f08d17b8a76e846200009b565b620014bf6107608801357f1ce01a3918916d028978e7bdd67e57aa55bee0075b984f565ad4e9978e9b30367f19e1a9743b6688c1926f6ebe6f8b0eb73e6b7de16f42558c152a096b930c2358846200009b565b620015126107808801357f2c38058d5c6b7f194db987f5789caac0a51bfb828750d52483fa6c2525ee2b5d7f2cf635736157b6870e58c0aea8d94bbc2749cf3bfaf6cae28aade7d85a201dc9846200009b565b620015656107a08801357f0df6c07c09e29333510ce458e4410bb89759b5bc2919375c1b59c8ae9755d27b7f1933ec139496c0d9387d33d0e1abafe86fc61246baf96b0b58914384d036040b846200009b565b620015b86107c08801357f188be34ec0035b15c5cc44daa55106e213500aa194c5eba52407a9970705bf1c7f245ca8a599ef752101c227c951ee204590d3b452130189d3fa3794f0b641a1c5846200009b565b6200160b6107e08801357f25481de4169e6c3efbee3efed9e204d4995cf9f28115270d2e023aa6ba8ce6dc7f10d09fb79bdc02e97d8ee5d57884ccd7407f6558e7ab60858836c6b261be10f4846200009b565b6200165e6108008801357f27668c54f324ce0858faf4fa3ccc4254b5790f65a6d801b76f6dda3c5ebba6677f27f075c8b2e29e3f0a1b14af6b94cee93f3b9f37fb121b4adde509f9a04bb86e846200009b565b620016b16108208801357f1f0ed6ba45eae630c82372a12925cf7c00d6f3f77676782dad48c3f7a334ddad7f2a294903d343d7fe219e24d7fda4d89f9c6a21402752f23f4497dcfdb1ca4114846200009b565b620017046108408801357f2f2edccb3e182e3e497c948d468c429db0bd19f1cfaffc94edc05cb5d2fc79267f27ac8c9633c986d328eea9bdd2305db9e012cf85c9d3437ed4a06addbfd70349846200009b565b620017566108608801357f151f028cf4f335ceb5e60ca8a6d3dc3fc5950837431a7bf7eecca92369e80cee7e270ff2bf6f9a61f31194022b8ad4dec2766c86818c43d59921d96b0dd884b3846200009b565b620017a96108808801357f2ca710285facdac3743991cee5d7752a9c43395221b6939df081e2802f4328347f0846eb4e00b170058f29424e1db92955b7fe6ad42991853a1891f41de34dd4f4846200009b565b620017fc6108a08801357f03af8b30144bc31b680f60db3437be0bfb31cb8920345ca78659be86269f14737f1b7b6c5a9a20ffb5cb9ca8d1b2b1008dcfaa60ccba7ffba7959f7004b9b188d7846200009b565b6200184f6108c08801357f2b0ec9daa8d35f19c32806e92d46fed73f56f7082ef7801f7763c05360898ea27f13637449a49a192f734a7abecb1891700292f941cf4be60a452c68c5cdc698d4846200009b565b620018a26108e08801357f291562d970ac5ec7a7b2cf45a604530a637398c0f3ef60e2da4e6d055da1fb917f2a2ab3b09c51d851c51af3d389966d1ce9846f117d8a8319fa9229acbb124c61846200009b565b620018f56109008801357f0554556c09ce4a474493846a9dc541c99c34e7c8cce6e7054493c047ca8424737f1d37ba47acb670911fd1ffc989c27f9bb0af05d8f98a34e07696922eb1e40096846200009b565b620019486109208801357f160d6f3860e5f779b2f8c8b99c2ea83d2b2b602798a766b62ce782b933bf1ffa7f276a5bacc03fd7ab1c256428f24799b6ee5714bbf34d93322b5751a70365ab5d846200009b565b6200199b6109408801357f10e6d130c7baafe60f7990c94615339d5487502816dee125420dde53fb466fb27f0f72335ec68471f5fffa0aa8c422ac3ec14dc2771dd8c001825d38c7089f74ad846200009b565b620019ee6109608801357f2941ce3154c4769a9aeb58a8cdd406678160be53111a66fec0dcfdd294c213a27f0711a713e5f7a41d4936518ae8f98c3ea54919c1ae06629dd95cdd8112077b43846200009b565b62001a416109808801357f2ac4771be0f02f26e0e3978b5f2fb277dd4b9c12fdf7c0bebe92d0e4770316c67f257c44dacee23beeba1f90d0be05c61d0521319c81e15db219e3798f218a815b846200009b565b62001a946109a08801357f258110de213a2d0491615373cbe3d11af21908057b91bb98c8dcd085ef7ed10a7f2b115b6d4268a59d7a4cf2c46635020bc8ebe732e8d8580600a565079ea03a51846200009b565b62001ae76109c08801357f27e54f6717348cc08a7ea84e443fa5cdbd03a755e26441e56b2d3437432448ed7f059163b79c6f8ad86eceb4524d2b86ac9b7abc4e4e3e6c1cc2f6836bc867c43e846200009b565b62001b3a6109e08801357f0a3e34dd911e5d215fb661660b4d8d70ae035b5f7e875072fb30e46a7c33e5497f1cb0ab775b0115cc8c7755c567c319beebbc79ed0b2eb62e757d450208ebbd38846200009b565b62001b8d610a008801357f2d0bfb04def9f63994378ebf6566039fe8a08d86a1899c3f3f949b44178eecf87f261133ff648e779a15efd36fa28e0d272146f469c4ab3221c3ba7f934a8cdb75846200009b565b62001be0610a208801357f2b1a405e6f009fe9193592d3040b165e081fe070a966800f5f4fbbff428d5dbe7f093c0d935e17dd13470a9cee05235195b2aef472c6f278358584bea72b27cb27846200009b565b62001c33610a408801357f236e4534a65859348696ec78b0ce0c42d939b02d9deb4c3bbb8d81b517fcfd017f0b5c18b494b6a6a9c23bea0158f9c10eb7385883ef6f0d953805cb4a40f86eca846200009b565b62001c86610a608801357f2ea852194911a6ffe05d63a58c146b1c35e4a302f6c50a18281e40782309de6b7f16e752f7d17579d77b2e48067e765e32b334ef1ba181b7a1b9298f2a6d85e545846200009b565b62001cd9610a808801357f2da97ca474ff6b97a0924ef27d3c163064057fffec8ae7f3a87bc0137c1e058a7f1139b4f13b15fb178bac7ea0784d45c013486ca6480e0a2f950115bf8da30a95846200009b565b62001d2c610aa08801357f0133ee4fe8e3c162fa9ca63055be2b3ec4c940d08badde008a1576a0ae60c0c47f032af150cbb13836ae3240b4a0bbbaea8d494ea4bf3fc4a932c2fa8137557bc5846200009b565b62001d7f610ac08801357f15b0ef4e240544223aaf47a8e55e5ff569b099b2fcf665901cf71550606bfcf87f1bb3249f3c37d7527b6261451cdec202ea7289c08bfa5b042f3170cbfc648ee1846200009b565b62001dd2610ae08801357f0f5b53adcf2a2e85830e0e34261612cbe8f6b18a67c3cee7eb625080cf5dbf027f0f93f47372a4f9a4fd4c2aaa5750105e8e77b911a19e9accb1d33eac5187ce60846200009b565b62001e25610b008801357f24259b65ebcf2767e868f924bc2807449442de00e963296e8badfddd086daf3a7f1e28b5ced1ffc357c5415261efd36951f6f99ce101cd0492f2083ba35a6e440f846200009b565b62001e78610b208801357f1bdfee95f004b2c5a7deb682aaef16259c1f93341014406771c261651291414d7f25bf270f1c9829f13bc4b88c94d901a5c7a5e1addc3d7c7a7e0c9ec38e86436f846200009b565b62001ecb610b408801357f08b7c53c9288bcc169b814e897ed25967620601daf829e334eac1292e84e37ff7f2fc0a247cbe24d9fba9f06390034ed7048e47a15ea3efd38a020c90f44f69408846200009b565b62001f1e610b608801357f13b3dc95b5bcf8e745fdfc18aa951b18b1cd54c7c8c19f7044446e568431620e7f033cbe4322a9328794d805c5f4e7b6fb4449a5de897caa824da47068cbfbf8a3846200009b565b62001f71610b808801357f104a23697e1e31a674bbe2d30f5ac6a334927dfa837e0a843e6b57e758010f2b7f1c594561d05afb7410bd49b3a3ccaf566a645074d4e0e176bcbb1d609d383b94846200009b565b62001fc4610ba08801357f23aecc7b13d741301d35392604baaf5419664603d3d0a19016af3ebc6ba7434f7f2ba0760dda1fc19b040cf3ab3e3ddad4d7526413d89ebe48021d86efde1b5b61846200009b565b62002017610bc08801357f10abcf5204f746a6cf8811a0ea94c355399e96ee6bb8d9a0d1503e423db0e3a47f0912eccb2b5d5c799f0f260aa8848260a75dd47b70ebe78c7ea112a8da954e5d846200009b565b6200206a610be08801357f03b598b680e8371f289ecd59e5225759baf0b24cf4866f2c062212acb3d87dd27f249c62b9e0bc23d9abdb7ed0d87513d540a5f5c592ce4e01996202c0b34e8804846200009b565b620020bd610c008801357f03b6e45cbf368b88c36318f208ba70a8bc82e9b56c3f7d2c82d65d0f1f1caab77f065ccc3b534c5f2ecb365c8ee01395579e261a5e826e2a9b894cdd79d82c264b846200009b565b62002110610c208801357f236736f1ab308c1ef60b64ca39eaaac47159a1e15ba21e9c7aa3fdbc9d5d39467f1ff9b704efa1a76f8d03607e482a2bc35da741189887e02c159533c2cc682add846200009b565b62002163610c408801357f12380e51516bf55c74bc4acf6fe47135feb442ef41076397829c9ae66cdf9a157f0ec77c90575faba64ac57c3a62ca0c874bc8d059ad044a5d2fc64a84ad646ca3846200009b565b620021b6610c608801357f0e2492b7a76a78e2bbae1e625c986e3f6880c8fcc712bcae607b2e8d703508ae7f1eadc467ecd2ff11d050d34c66675d7cd6d41feff023f138c29b3cc54d897aed846200009b565b62002209610c808801357f086ead2bc1e334bfe0f42e464c4fc8fcada5e64b54f5cb05cf1bda2026f9431f7f2a594e6989ae62ae198e470275cede6a328abc5dde5e6ec0c0a64f2415506e87846200009b565b6200225c610ca08801357f096c8077e9bd55bf2393f3f5f65e4fcb9cc1f8ff18a0d9f0c617f6d1afc098857f2b7258ca275cab5b8847c5abd73a99bcad07a809ab237138a20709bb72a6cb2b846200009b565b620022af610cc08801357f0798ad07d724340784be73c9aef288079438665fbacfe0af3cecbcf8c2b7b9927f22875d97499824ee57f4250d0b7392759198cc6227fc0eaa60c9303df450ecb3846200009b565b62002302610ce08801357f0a33d3a57ac94d9a79ec9fe51226fac2d691b04262a962687e1ef16f26b2ceaf7f0a08ae732ddc6ce3e5963394b1f1ff8625bf5fcdb7da670ba811c42cf2f14d09846200009b565b62002355610d008801357f06e328131bb9069caa30116875b5dd8e5c3812fa129e571e5a43f1f6acd715db7f0699d8ef7c1d04e5a9d798c24660185410335613a437f45f2773152b00e90c6d846200009b565b620023a8610d208801357f2b1ddafe2b09c7572987d14783b174f5f42281659ba63bb07f7d6811b46206057f1ebac9c255329b9342837608fcdb6f4f2baa2b055028bc2bbf88f6c07a0c288a846200009b565b620023fb610d408801357f16e7f9797cd497d1eda3fa887f7c6434db49c42701e9de8239c763cd4cd22b137f11bcee4cc0a1098781257f0fb668673b30c5c916ead7c4beabd55c32222337e1846200009b565b6200244e610d608801357f1a0807ea672c02a8f7fce4be0cd499bda5fb8f09dff8e8b637d30c9ed47b35d77f250cf5a2111be36857b68ff15798ee3960ddfa4016743242c31051d697796722846200009b565b620024a1610d808801357f18e97360676fcd8711609ad0d3d84112d83fb43955707e9cf7c46c4447c9dfd97f19a097dc1559772fe0b7a97f1a2604c59f3621d73e5131094530439d68b41d1b846200009b565b620024f4610da08801357f2fd230df9bc7e6e9568a6d0abc244a2ce588013d40928386e9e40324f43b890a7f04e4f305b1971fd8768ff7fd661abeef6d7baafa4d39862081b63457548996df846200009b565b62002547610dc08801357f281f097467f13557230ac42a94ead537f78e6965819afed3180a5c4374dd69027f2f857e8e2f2c003a1de2276a2ee1ed69b23b597e1127c24882b418d8c6f33916846200009b565b6200259a610de08801357f2606522893fe92247502254b0f2d4b9f7a07cb5cea2696b85b3dc43922be97db7f079e200aeddcf48decbe81fc29cf1bdc8e76d25ce9d14be5d1ab249ac241403f846200009b565b620025ed610e008801357f2ec8c6cfd4ec27c9ad5ce25c36aec312c0332746a6c4848b03cc42c8272078507f1a13817b8451888105c4a7fdc04d140adf06af1de27c066ec37d7069bdc927b0846200009b565b62002640610e208801357f10272ecf37bc1b99c73cc115b2594ca917cc675a42077d50d37944d9069e54cd7f13288683be585a9c3676158e897c774d8af1ab9f2d3cb3cd0e5daead4a482cc4846200009b565b62002693610e408801357f0fe6cdf1685346ab6f5047d78052b8098423c66a9c4789186688e54049fbeb717f193d3d3b4cc3229919a348d77dc585dafd36624a9153b582a29e5bd7e154a4ab846200009b565b620026e6610e608801357f2751fe84398b6389a42d2afb8fca0f5192ede1986807bf0431a1e797322564f97f206faa147dad2b862a387f967f8166f632cfa9094d3af1ebff8bd2aecb522f10846200009b565b62002739610e808801357f036a0f23b6ffb13b12b2c1acbef800f78d200e519a45cf1943910f87360f8dae7f013062fb33d1f30001b58a2aa15ab8255e575b6425af5cc374b52e0108cab45b846200009b565b6200278c610ea08801357f07f56665db04da597c93ce75c2ec4ab6b9859ca793b5a2b6d663f85f797d533e7f11dbd4b2c315e438e2b627d7730d703b185a5f6f411f8ab59f54327bbcd15710846200009b565b620027df610ec08801357f08f7f415377715babb42ba1d6eccb144246f745d6d1267102d5722e9a2f68b757f174175ff8bbff275910223c4d7c9002206f45548fd52c1e679292d1a76e33e69846200009b565b62002832610ee08801357f128a8901d8c8d78ded515f68857439acc6e1cd42ba8abb285caff5f59a1c79527f2c8521f444a1f36c066f0edff473b6bb2f1ba61037c0ebc05ff018f93bc0f737846200009b565b62002885610f008801357f0f3b5d87c583f89514f07e837151bc9a7ab00ba649162f6a1722b3483776eb5d7f2016dcf11b8e4fc54a6912aaf07c5d8f3353be8360b2ade794143a86b1edb43b846200009b565b620028d8610f208801357f14d558316976e2f967a341a65e728e57047f3c4ff3dcb5e30c08b91482b17e407f0f14475724f16526adfd3ecb1728849db6deabffe703eab5cc7ec54066715a6d846200009b565b6200292b610f408801357f1b107df3502e69622116044f544d3d43b07da0431edd65dab47abeb760eb33087f04a0710c50b861c1361b4b32f4b8e32d3888132743a4d8ab16ec3ca5f5569024846200009b565b6200297e610f608801357f125539fec1920e1f1caf30d606c3bf574fa904c73c9900154294d944321a80947f2950cc1cfc61b3d88f1330c58df572f38498026c5eee725113c7f24c47d27ec0846200009b565b620029d1610f808801357f08221910d5f65c829895537a76d908e2ced759227f7ae7c7da73c3fc7ebab7857f29cc87426e83fb39cadedbf8d7ed718408260b1cfa4adef9e6f95ffa7d699137846200009b565b62002a24610fa08801357f2bbb8a7dd225b01f37f0e1f542cee28f72d59c89cc35f0f5e0edd4ca42a57fbc7f11e728220686853aa153bfdce893f594586532385b1fbb000811c1dc3633b512846200009b565b62002a77610fc08801357f0e776b45074de142583c8179b211d4ef3672ddef98256e9cea6998a5dbd1b8877f1b2e73ecf06c977d687710f5c4d845eae99ca476bcd4402d2961a19772f09d87846200009b565b62002aca610fe08801357f305d8037634cc267ce6fff85a0f8f7b66c1b12a5ea29d50ee4d49b0da767c5907f037d7951c91ebcd3455c3c414e53df04a07fdacb750e1ce5f16a2662849a8e54846200009b565b62002b1d6110008801357f2d96d4502d12afef82bb253a996976ec449fb2d9f8a462ff21484dab105143ff7f1d14f31ab1d9c0428b90325284da74edd6a82333e551f2971738c36245f314a4846200009b565b62002b706110208801357f27314c415af03299faec304ecd996c8b76d783b77218e1b5cdb606eb5431454d7f26c616e60fba99a719b81282579bf345c1c1bc42fd693fd7b3d61ce36a464ac9846200009b565b62002bc36110408801357f1c1bb5ef42f3ba67f605cf7d2145e2f59f11722155902cd007f948f4ea14b6b37f085535699fdc2dd0993600db10279fc1e6aa27a444f3b7f47ca313a0dcb5f0b5846200009b565b62002c166110608801357f01426711a77e72cfd624d2183bda6008d64c2e5f993a2d59975afed2f70274a27f168cab41798d6c84c62f36d96ab45dc2ff8b059a075919759fb9776875cc1058846200009b565b62002c696110808801357f26962a26ecb0aed8fddf9ff53cb75b2551485bbd3a70c597c01bc520c0f98d7c7f25fe1c7e226b4274ebedf95f34e8bc4294cc83cc4c85a04d7db2fa540e5d5564846200009b565b62002cbc6110a08801357f1f3ae4024d6b3c89579e6237d9c7d4ac5c00aef589884dc672a933b73f3fadfa7f2fdac5a76bf1ec0edde3dde9dc5e9619f0c5316b3b9dddf668bea7d379c5e309846200009b565b62002d0f6110c08801357f1551532a6abb3d89692fc2ab3b6a190b40c424b0d5d6017d0945f1efba57b1d77f2ddd4399ffd3e0e2a82e074478292f689c8db8ca63c67b07dfc424a61397f67d846200009b565b62002d626110e08801357f12961a1981315645a55a3612442809538a26a3d76adcb50181eea29a9551162c7f0a3d9a45527e9a96e81f9ebd2c237467f5165bade760808f88758b35c403c248846200009b565b62002db56111008801357f134ce7ceb16ed1324a640c2c73b34fe4e7f95527e593b1ee3386173848b724e87f063377ac32b76549f0cb16aab1f9e18fb5190c896c64f5a8fe5f945ec26ca5f5846200009b565b62002e086111208801357f1e5ea27973fe54ff0fb1dd21235f009e83027224e17e8b0602bfae5cfd25b1a37f067fb475627afc36863707d15d7c4addf6a2ca7b5e0e29983a9dfc63742df1a8846200009b565b62002e5b6111408801357f034caa464913051b8c6442f2916fd51319a07ca41dc7cb29ecc0c5d6b27a30617f1614b0f106c5c51c44f586a1dba06fc22653b725329e027f6366ed549a0a1113846200009b565b62002eae6111608801357f1de3ed1575c2d83ad3f39bb3efaf93c5493b41c4661f5fb169b891e7ed86018d7f1835559318d1877157dccd05ec6050592a4f537a5efb3ae28826e60b9d4c8753846200009b565b62002f016111808801357f151b5be7eebf79f86e3b4b738c0fdbfca43e563fb1eb0b79635017cfa3436ff07f2ac61625ebd07afcb7b57ec3303f7ba8e8c380fb3d2053dcac0764e3dbcbcecb846200009b565b62002f546111a08801357f29b6348e8d1b5e8f0552b4c4cf68032a0709254782f281dbfcfd43154cc216797f1424628ae936c17647108626cd469c014ec113619aaa935051437286afe13a8d846200009b565b62002fa76111c08801357f299849624ea682dd85b1c06cb568b33898251b5b609d15fb37e5a97274d437e57f049a1bc2fbbcc36e4ae9ee4a8dcbb688787ee93941c5a384d7079a2089639e84846200009b565b62002ffa6111e08801357f06475efd78ae63f86c4c8790ba3bb1965635447f5e6db7dab4f55455bf9929ec7f305b267bf856d8b3aa65688fb702f96c06ff67366cb6ba6942e502fc83aa5cba846200009b565b6200304d6112008801357f1fb8ee5f2212f35529af3defc0ffa8986e8a324645de6c22eb8a559089a4fc0f7f1c995897ad055cac8938db68384b9bb40e38b8571e71ad352ffbe0eac94e0b98846200009b565b620030a06112208801357f1c6404c525b82c9964d388272fe058b068bb8f2365b6163fa7ec63f01c3393197f0537e9df2b1ae27d64f23129bb8c6de0ec4dadae5bfcfc2ac2ba5e4e615b77e6846200009b565b620030f36112408801357f0b232139e2060ea428f4117a419ab69143d4ad344cee9147198bbaa350dad5a47f2492af46543191796a3cb276d8f00604ddbcadcffd8eba1e1fa597ca58d165f9846200009b565b620031466112608801357f244b8d1253d5636e8ead34a1ff546dd1b2c29497d0bdeba6215434b8a2ca45127f245b5f56313f3aacc6203cc6b491712ffac793bf2ca5508cbec7726b408cb921846200009b565b620031996112808801357f031c01f3ca0585d9a71831396cecc0ebd05be25372ab0ffea373393071f5190f7f0707497c993d424f986aed7680370c3c49c8e8758478bca2b4f58c58a39c579a846200009b565b620031ec6112a08801357f3031cb3fb633fdebb008c7db15bdd903e01219beeea5acb6b60b5f723a4713757f2ff987ceca5918edaec2a081bc498dd7ea0efb3997b670df8ea76675ec754166846200009b565b6200323f6112c08801357f25c55f3594329879f61a3b010ddca8479816f41585d5ff89dab8758b30492f047f0679a90dd2fc214e6845037ca679ee9d072163eb8860d6f1489844ef28b4bda3846200009b565b620032926112e08801357f0c2ace1cbbd1c2342c67a4d7b406b5028cd1a8c5f34510336c7000017dd51bf67f0453efcc4fd2016879b4491c0b40dbec1b37627077009e8011aa788c641ea079846200009b565b620032e56113008801357f106ff306f8e1796ff7817c379e1ed78ad67b54bcfb2364a1c1872c8feb5b1bcd7f2a2e60efe35638d5bbef413318bbbfc38a32e2304870a2f49ce97da5ae4dc9c5846200009b565b620033386113208801357f11b08ac6ef17dfff4bf1a7424dc02423ce55792b18405596508ce6a42deaecb67f046449f42c4ef5a607f114007260e4ee2e70868831b1508b5d6d50231725a6f3846200009b565b6200338b6113408801357f183102796714940d00fc25cdaae45413eae115da347e6ab63364ccd5f7c4e0897f1e954179d5760261912d19fe88ac01ea51b4a8656493a12db7d07f63eae3c192846200009b565b620033de6113608801357f24e27e95219ed32805f174962d31e268568a23c7084a32800f7c87d14d6d79c17f0f8f4284be171bad765a3757fcbb23bba56ec2de8a29cb94d29d36d8ab888aea846200009b565b620034316113808801357f1308f5008efc8b46500a169e8b2900027e6fa2dc506e861d316d537841e8b5ae7f0bee226cac9dfac16167edab546c8170c6a81279d77df296364fcdd9a8ec778f846200009b565b620034846113a08801357f25fce088849865e777fb0810aed80cfae823541649e7991b31202efa75aebf937f15ebc230bfb78c8dd5ebeaf48253ff2177865caabab60d6c93126b533ef88586846200009b565b620034d66113c08801357f04619257953861ecffc5e6eab4e3661cf8fabb50c18b7c8cda6e202b42ed83777e8b5b8aca0b49d5e4ac2b6dff37ff785d46f0115ac1e567afd4d2fc400d5752846200009b565b620035296113e08801357f24d9c8dea0b1fa0b2f2472a409d651010baedae6411ac32015eb4cfb1923e3be7f1ce88cf6ce64ad69983b551eed18cc15940f210aa8cbce6b0576f520d17f659b846200009b565b6200357c6114008801357f09cc94d7c8a3f532c4109460579df4a4d40a7161d1dc5dea6a9e3846636101437f1f0645ae914315e4cbfdad7fe7e598ea63482f815de0757e54a0bbcfa029c75d846200009b565b620035cf6114208801357f1332da683fa4457fb951dcf7194bc46dac45c8771c53613c95176b1bcdf5e16e7f0de66a9eae6aba8dd6358e5221f6a12f2ff36a1d3497eb590d2f4323f262c5d8846200009b565b620036226114408801357f21935fbf000fe58257db17e269ce8fcebaa0228f205b0bce001596a3f91186947f185a56e7faa9e5566e844c6986bdf4cbb30d69dc442ac190d26f38b3d849f43f846200009b565b620036746114608801357ea161c43f5a7d925b09c3dc5a4142aa14effe8739c9edddff1d8d10823fbba67f09b3d5ebe0d011a939d148fe3c5b4e69a7b882d2f800daff75426111572e07aa846200009b565b620036c76114808801357f0697453d209c0271f9dc03ad1029b105fd60fa33d6f5b2c0310180cdca19617d7f2431c2f029860914a98ae376d8802b993bcea20a60f6086819d65cd32bb954f9846200009b565b6200371a6114a08801357f139dc4b2d387becf6b7fdd8efc54773aaa265ad99426cf1e629d6afde78d4c147f2817f2b2eefad320d5e6f16c5580d9fe324624ce6161e8e2c4a276e51f021795846200009b565b6200376d6114c08801357f0102aca649cc76a821e3fe24047aaf6c1fe762a2d414fa49ac36492c029a65577f027dc4f0e1c0f736bff5de303e0fd36aaa69be325a9a0a0da4f345f8529a784a846200009b565b620037c06114e08801357f26f373fad30fed9e92dd10061835bc9529aaa7fe3de0c7b39b4c1c3534e2d92c7f239e065db43b48a13fbe1a59ece04e65965f4ab3e1bbf2c20a3d61cc706049de846200009b565b620038136115008801357f18371d9d8a4b9a40a13c1aef56297063bf2b17af434bb477370e7ec22b800a747f1d48c2f196145133382c279a04d8f28f3aae0b629add571282e69b524f987371846200009b565b620038666115208801357f0acbf21c15fc24779f3d0e99ab386c8c6e160b867ea79846f6c00aec1d3a37247f27077af5eebf6edf348545f9158479bb2f9bfe81e1cb0a3139bd60fd81398b7d846200009b565b620038b96115408801357f241524520c175dd208e25a5d4f9dffcd7c540529775a0884111cb4249c29cde97f0a5c96727a51cd1ed9756e7a04f53424e4361a1ec06e4e2806df2b9091815aed846200009b565b6200390c6115608801357f1f44ea03aab05963417f37569e604a782c7ecb00ff8136a3a4a2f10f94ad17347f0768c2f7a67c2a493dcf525fe1e2f231f431de6f29a5c344b75ea9cd59936d6d846200009b565b6200395f6115808801357f2fe4f8e325c74fb4017a267b52b90562fc340e36c19d8561c19cfbf2aceb0d997f280b5fd88e2d29c49b0afb14f40f8b45b8ab372de9e267d9c52093c359af28e4846200009b565b620039b26115a08801357f1c1a2dee7e8187a983b9e31bd0f8df17c72b32ae37f8673c261d141ad01ee9847f22a2704360646fe8209f9f698cf5cff89f620430678c4986b6e5735d56d0cdc5846200009b565b62003a056115c08801357f1bc56d68da94b273994b93a2963f2204a1c8fd0b10382253d1968bf10b26c2c37f15d7049536debabd1fde4f6bd20a6c06b23f6943032f85a150ca7bfa4acefda6846200009b565b62003a586115e08801357f01b314c3c8dcc5ae472b093e5090c0a2dfd8ec9006be5a98dadf5afb912892b37f22e62fab141ca3ca158fa2229dbf2382948320b313081ecffadad554924a44dd846200009b565b62003aab6116008801357f144bfe4a55affcb7e16b274d361fc23b25e4311d789acbadfc8a0b7256fc4ddf7f293fba8a673885c9c60036af37748532957da090171ee6e885374061cb556573846200009b565b62003afe6116208801357f033aaf059b01f8c36864d880ba932b895ddacd3c9d45f87d911222baf76729e27f26a7a2d98024a12d27db174886f8b97b5c8ae3ce16b423056bb2bca63f13723b846200009b565b62003b516116408801357f0d7be5a889294cbb12636d0b639103e1b4e9b06a019c40e16cd2d000eb86491d7f169489b681436c61c53cb69f0be2d0bb03363f7ce0e91b2a04e480e406355860846200009b565b62003ba46116608801357f1afa2338fc85e99c3b03f8fc15ec08fb399adbe2c12d0879b1d2d5ec856309387f04bad07ff45663d9f5f017eae997d8fcab4718645158b3a8ca31d304287bc572846200009b565b62003bf76116808801357f2ca3af683203cd9094667d2e5a39cf5fed33ab140e8edb5400f020a0565e32827f0e398005d2b3d9270ce9f7c5782b30f7789c118acc2e1beb98e60dfeb65f934c846200009b565b62003c4a6116a08801357f1bab0a2209a0a2912c2d39508acd19e5d3c100b3d913fe1d06523ec32d6db98c7f0f2dd88b0ad731d22f60f192d3fbbea4ac3f8c5a8c4e4e83f262695eb8cd50ed846200009b565b62003c9d6116c08801357f0b4c34c77a15ce9357771c0be814dc6ba5c5df191c8e745301ab0b402439d74e7f0616c4bd4213df3f9baf4727b16898aed33fb5086a86e4117b3e2940ef51b978846200009b565b62003cf06116e08801357f1e666f7dbce5a427aa97ff62262bb1dbd4b1930b0ddc5a38c5349512d1d7b03a7f19051ca561fed75070c2c484168a895068a61d8d7882fe2aa20a3114708aed67846200009b565b62003d436117008801357f0504efd938085a055e443884091603358fba5590aa85851c7d0d193c0c6cb54a7f08e96188a8b6f7d830297280e34a25653f342a0b43815b172fb7dc428b8a0f28846200009b565b62003d966117208801357f2623e9665819b1d8b306f4d477e71489f26d4df4b549408a8453d8de34daf9127f05938ccfb97d3cf4bef0377aa861d365c0da4ef5f3e676cd2b66e2d8447f004d846200009b565b62003de96117408801357f28bf013db8de027b0da6ff6566e25a20fb39be7f562cf44d5b63a78bc873c2167f0867bef80a394d2199884781f0816aced340ab20b8775a2abdcffd50430139a1846200009b565b62003e3c6117608801357f0fedbaa0d2a4220a26c366ced1cce64c0a31bf244d03c6286dab0dde656b43a47f1dcaf5b18684e68372a5c62a2633e828fed75ae0845cad587f029217f0e8a929846200009b565b62003e8f6117808801357f168b66efb59f7afaebdc0cb58e8f9da1d52fa5f4cbd1d39a95fb8696c1bad8657f1fe659a757bcd783e7bb48429fd439eb9d29b8926cc04c7b30bb99737190a38e846200009b565b62003ee26117a08801357f2bcb05da2cab72091f9b1040afdf8f4db9784f009155c2cc769c11239dfca6317f13f7ecfffe6eca94a6270c3031c077c5317b50609f1381ae90bff6c2d663f236846200009b565b62003f356117c08801357f14c6d615ca9c4366c7323a3a6ce63840cdb9b63f2d58f060214af78ab945d7197f0c4bd65927e0fb7fb82e525d0e1636d2e5489acf226898f8d03d6ef722e78bde846200009b565b62003f886117e08801357f1c9e6f71cc79a4b168fd2f9d7aaeba9c755df228275f7dda85d9e6a0cc82f3e67f1d1de48f99d7c6b20e8d67e8f5cfec7b12f618421f2c81abf82ad2933ae0e33b846200009b565b62003fda6118008801357ebae1367cc676b64cdc1f2091eda13081aa4ca5f89e0e063312e32a7b47dc1f7f218ca2095a9fe507dbfc80a3038393558259a06ee8b96d4bcfed965fbe0c9a51846200009b565b6200402d6118208801357f0f2a12cc359cfbf8598c0178d04691c82d7f27696b5e6abbb598579924c95dd67f1ec8a5e08b9bd2970b68359dc28f841cd8a645983a6afa929e5426647bf05207846200009b565b620040806118408801357f29ef49515bb7fd283d79b0168ffcbd291da25ce28cdb6824037fd670bbf1a95f7f2b99fb840d1738c705c90748c5eda7ba8fb646cd4c3fb4537c6adfa9532fbe24846200009b565b620040d36118608801357f26ed4d41cc2f3570b1354ff7bdab663cd8e89797fd913a1bae559d5e64ced52a7f0eeb1b21a9889d540557f3c9c6fba99371b754358c8680688c499eae1f66bfa6846200009b565b620041266118808801357f188644c4e33196e8afd209c8511f27b112c30f40dd7156c9ff4771ef8618c5687f0e42382877b28fe52a2ec33da87477879fd693e5f0996417b4a8b2be78db1571846200009b565b620041796118a08801357f25d67b1efdc2002a5072f7506638cc8580def04fb51b858e6daf9e3c433a96c67f1ee22bba4022e05afae63bd74a700dbe08f7376d84e2bd201807a38b4c350058846200009b565b620041cc6118c08801357f1db817533c24b0643b16073f834c049e5ca655237e6cde3ec963a50e23836ebc7f1bd56ca966445d60c592d43329d6f89f56ed02758908ab7449737071ca444656846200009b565b6200421f6118e08801357f0380f7b8e067d8afd5cc427403cb62700d5feb2ade42e0df3827c354c22487ee7f0e2f34626c049d650f7cdaabc6a1d3524a1a3d67b464b1663db6cfb6059e8f15846200009b565b620042726119008801357f0249f346bbede3327328435c8b2af0873ebfb178fa712f3ef0488d08b45d83cd7f208c02d8bde311bbe230ab9b5e198cf0ebfec26b30941c9f99fd943e6063aa04846200009b565b620042c56119208801357f1534cf0984104db088e81d25f1b36acfd6b60747adf81715f66d270c4aec2e647f0f8d73ccc1335f3a8fc90dbb810dbf61b1ef0f32b0fe2dc2654d2aeb28cb889f846200009b565b620043186119408801357f105cac6a1318a034de1f302e930c0229f7799a42db7b0934dec4ac7ec4c931d57f08cd8d703e231ab1dc27e39e77b07b3dff0b5b89ecd3314593975ed588d43401846200009b565b6200436b6119608801357f055e5d93facff31c1d183f50e8459c819c8d5496b56cb0fdf956381a67c6826e7f1ee10e5fffff8db66177408240cf8fa0b740d34b64bd6750261ccadc5e8079cb846200009b565b620043be6119808801357f3013b5b04c0e89d9d0868957d1523ecb3ed98f20d3de2f2ac9fce05ca2b6b8e87f224d05f732d4eaab2095555f9dc882b574203c9cf2968f0bf54b5e0ca1e0422e846200009b565b620044116119a08801357f14ba97b0ee0c24cc19bb16cc7d0e2a3c0fb0dfedbf571182e93e15d88e7307587f1a306feda531af91cdf405116ad786f3449d9167584b8284b13a7b93900e3962846200009b565b620044646119c08801357f2cf9f54dadd0369686af1a101c69ffedcc1ed157b1e172b7df3e213c534015fb7f15c7adb9794bc318aad83759228a27e949d265a06c27313b7a9f8e9ab0276d8e846200009b565b620044b76119e08801357f063f05d0692141425c18df43d00e2ab6e3a28e861ceb0a1d6773b936d05a56397f252fb91712ff129928d29c3e00635654e585a35d78f53b33ec3d70daaa4e0111846200009b565b6200450a611a008801357f2b2d98104799319cc0ef58f04791c844b8d0638de26669041955a4218dff6c277f056b9d6e34fc3d34f25603ab0ea1ea279230a22cdcbbd5b42bee81e167ece52f846200009b565b6200455d611a208801357f2df0c8210ed0ee01d1f67cdcac2e44eb98bc7a2c7488d4d3932b7a931f2a85ac7f0329a7f2678ed4975e024f633076a9861b9554cf0bffef03e7157a9a3711bda6846200009b565b620045b0611a408801357f0d545382cd38a423b2025c02be850c9a2117bd1a2a8c7340e42b0b8e43a4abf57f10faea1baf701040b5258ba50f224dd29db4e375179a9303310fd96417d79ba6846200009b565b62004603611a608801357f265b552ee5214814210781ec3832c7eeeb67f003d7192e74deb6a98677e0c8b57f0f1542e5dbefb6dd1b94cc622aa3c9747e0afbb16882a5ffc16fe856a8234f0b846200009b565b62004656611a808801357f1238ffc47616398defc071284eb3da891d1169ddb43028d68d93cb0bdc4d0d617f1e29d41c78f51c394b7bcb34330ece359bf7ffc989f480856b7ac0ba06eebbc8846200009b565b620046a9611aa08801357f2f60d8e143586ed71ab9d707000391edab7a08c773c340ae1fb8d3cd8787f13b7f0edefdf0fcfa500b15d54bc8050d505e9ff48c5526811c2a4e6f918e795494f0846200009b565b620046fc611ac08801357f0826266ccfd2fe3f9b65a3d83889f74d1f4f073eef3baf0a2d856d9c129853b07f181bd7d0857ff3cf8afe322c6a7fbf71a168fc17c0d375524c89da758ae416bb846200009b565b6200474f611ae08801357f20c1f5be0f0c20d864ef23b05e7b4c1d42d297c22cd6954ada515058562d2e137f17e8a99a4cc022bf677df16399d24c0e43b3ff7687908637b4d0159ee3353256846200009b565b620047a2611b008801357f1c5667e215b2b723dbc66cf8fd320719823a3840ed88623a67afdc3bd4d091ba7f164e337da383b029dae201abff70cd9eade2fbf5c23740ad4f78ab92eeca5fd2846200009b565b620047f5611b208801357f269c8332067b45088018e2f5a301bf54cab504efbcdcd571149a747858dcd9d17f2b59f29ba58c41ac4875d4234389705dca474847bed8eab4925f037067dc25df846200009b565b62004848611b408801357f1a03119ba006fd8e50d504f5867a9cfbff5c3868b26b3b48a7373d8be8174c4c7f1b5bd5fcdb98cd66fa03f4efee0c014a5330948e02074ed6e22942ed7c8256f7846200009b565b6200489b611b608801357f2818202bea85457c5b83ef25f50df13b7feeceb06a0a7db283883dfb5d9fe4487f0b94f07f09067458319f0147b6de4fb62cb98c601c43ef21855fb644c4a10e26846200009b565b620048ee611b808801357f2720008967f3cca9d8a40d5be05c16e520ba48048f795c0753cd0287b0fe65be7f1190c1fd75659b10b4f8a5a988f3c6924083d8dbd6ace49b7faaf0e186e54364846200009b565b62004941611ba08801357f254f0d7857cc29761178342a99addcdf9befb3dc1ac11bbf876beffc9df961ed7f1257ed8c55404ff178b5165ccc808dd0e1b1d170b5c9dbd345c49a67950dbb1a846200009b565b62004994611bc08801357f26348f491ae0b6508a54b75479b167b493705366c2b10e614e04cb86f2c8ff3d7f012dc8c6825a8362e8597373fef43bf5cd12b27bcb12f44203f51f648507e73a846200009b565b620049e7611be08801357f188b53dc7e183e1369e9a7d4b5f04face39e038dc80c426711f2eb7fa1d8425b7f0ea3efe87152d6dce53dc8ee0a8b8bf29f84fbfc9af7d6b5ae27d5439755a3d9846200009b565b62004a3a611c008801357f291ee23388bd5d325eb9d662db1bcaaa3ee293478ccba7caf5f98465185d774c7f1f46dd7a94bc2f11901e664ff63124d93d22bea7d63d1593299b69fbb03988b2846200009b565b62004a8d611c208801357f24786dc5d903473163e4c7a9e7997b408805146e87d51aad652191804c7e17067f0fe9ca6d3df011ee0f5341399dfbd82145324300d7ce4b7238816115ccbed078846200009b565b62004ae0611c408801357f1b315804732c7d6e6edeed7729014a6654e24cb5a428fe6a3378f6d0a704c7c17f1bd523e5afcb63a713e6af26be65adf0344b4c2a2065c55d725c798526ddfa32846200009b565b62004b33611c608801357f265f8245183defc92a0e163ee5f663ab3a884186f94f66422ce166f4d867c2317f1e561ef3fab37c4fe4e80a7c2e926e8540b42aae2f64d20eb8d603e07d957d17846200009b565b62004b86611c808801357f290a234a58017cdd5bfb0b21b158abfcfc9e770c95ee7d817709d765d5409c957f2da63ba726ff87239606fe54d030387d4617ca80fd2ca3536a951790ef9978ac846200009b565b62004bd9611ca08801357f0a42df6fb6c14671d681a3a38d620283e66d086ac2d8eba8b437709ca9a4d0b57f1ba0e5ad5eae55339ca6e5b44f25b1c0467593abf1d543c794194e7aebb65e3a846200009b565b62004c2c611cc08801357f20bf600ceaa8b905b41c86cf27ef9240284792316225822d8e444ff451832e787f2a34b9481730fa3b03b89492f2ee338ef74ed67428fe9037035a2a0d39849575846200009b565b62004c7f611ce08801357f0263892de5d8476bf371349d318168ab85450cc5b674c457e5da5f352fd5a9ef7f1f8a16db281dae21bd044a4188aa3023d50345aacdb785e7bac83c370041a2e5846200009b565b62004cd2611d008801357f2f17dd66da970794c7748fdc07c3370eef03d262ceffa9751770ef896bb51b9d7f2386add7c42afd84fbba948e0cd0e07f19d00e5a58e0e6c667f52cae53854968846200009b565b62004d25611d208801357f160c99106764dfcceca7d2c4e3677615201b35262e6e9fc41faffd5e8368d37b7f0d194cd3642fba0489fa1a22cf3c218c53e3de6c1fff50e79c9389623752d342846200009b565b62004d78611d408801357f17f9f29f399e1bce0e7cae3568e3f5a92cecac830b7d57f31f6d9d576432f5387f267fcd5c9927fda0bd648c9e01a89e787203bdf567f166403c045ea3a981e156846200009b565b62004dcb611d608801357f15af990bec5aeb3b400e9ed5df8518e0d99a09db7120c3013366da69750a62a07f293e9b187936af96af5c8afd0510b09c3353109aad457e1453490f392c1a9a59846200009b565b62004e1e611d808801357f2b20288f04ba9d99e1b20e81fd85ff3fbe90a1f8fb09baf20899fbf36118444f7f270a1d11372ac15d622c795cb3f7ee67b17b91b02deadccddfa953c99d92e04e846200009b565b62004e71611da08801357f1ec69000311fb36ee2d6d47778694c6b8d9888fa7871cacaf7ac996760e19abe7f238ca44a6b29a2d094d9f37956e2880b818eaf8d4562c9da20ea438c0b8ffeb8846200009b565b62004ec3611dc08801357e2bce1d2b5b9a556c63cbf5cd39b09f67161488501a00cc7d110acc84093b677f22cb61436019698c0f5d89ed65335081178be9b26f7fe69bae234c7803756a15846200009b565b62004f16611de08801357f2e933fa27409617aa28ff244c84964592925a96cd015064589ed25935995e4517f2fcdd96fcb77c688534d8a20410171aa25d82eb1d0b3b03c2686cc436768f3c2846200009b565b62004f69611e008801357f194c9c37413ae4f8e66f42d9d44c27c67e6eea2fb8d165e426ec91927738243f7f0ea33233eae0842cde6f8083419b390de0fa9ecf3b7437d40f89e6aa351f150d846200009b565b62004fbc611e208801357f1985e9be47bf48a49f551615c787b596a9e65fd7eca7ddbeb83fc5cd71f869b37f2f49aa5d409304a10088431ee0c8fc8c78949e69db06a28ee83ac9572373fe58846200009b565b6200500f611e408801357f10f8cb0524711cf7a882cd730f5b4dcdd76d7665f4225f3527a2c6a2e9dce4ae7f20ba9ae78b2f566d6b64ac6baa3c97521c34df61214a7dcd3d965e2f6045ed3c846200009b565b62005062611e608801357f26deace7d2c01584426ba33546ce4800169fd515e0729bcb1e43add0b2d5063a7f09a749ba4325ec0128d9786acbf440ea6da0f44f826db8db5293540abd6ade5c846200009b565b620050b5611e808801357f0ff04f7efced72a156418d7de6d3b933b41776364943b2fc2a5f027e112d81487f206aa414fa8b42dc30d91c7a820e9dd8ec1b957098f0f36bf0c2b905fc49a3f1846200009b565b62005108611ea08801357f18891c4ceaadda5ab63765947ae2cf25ed2e0bff9fb4471915b9670b1e7ee9137f22b6988fed50f89f2fd9f218001f0d56ff41d6f522c355c815d027270d54fada846200009b565b6200515b611ec08801357f286d5925ea0a5f02d78df26a075c38469337115ad72327e5399558763fea8eed7f1568b99fa0b0ff240d9a97d21f866c37b485476472b2c0392b6d955b04b6c543846200009b565b620051ae611ee08801357f06ae911a54cd457ec315725d13d37c60d535f71d5b7e54c9460053dcca74e3777f10167b3d95280975a837ebcb96d6ae6b7b8e8bc6755c1dbf58fe58e159d294f7846200009b565b62005201611f008801357f19e0f9fd637a408a8a6870c7aed322041c7c50885e692293057e0e0e9e16a0517f0df2335154ed8184afc3145932cca765d4953e3baa7a477608d26f8c9991d4fe846200009b565b62005254611f208801357f16a42ccf2f933bfe3a72a41d7e8160344385286c903616afd128614f290b43c67f0c9ae51b72579ddacc9c36ead0ee81eff427db74b719907b90d7d1d95e78bc5b846200009b565b620052a7611f408801357f2c8aaba441b9328da7495b6ff281fe07586fe1cea218deaff80f7b17ee5a15c17f165590322f88cee202407cb8a25ba436dfcaf17b9ff92011798ae6ef8899772c846200009b565b620052fa611f608801357f1cece809547987fbd2a2354c07f1416589a8cb9a1070679c51fa7ffeb240ec127f1bec4f02c78851c730d2ed3c774857150f12ed7f474d8852c038f970c4bf7925846200009b565b6200534d611f808801357f2f05857f69277ac6243949aaf82c50f230c3396c69273594786b71d00bb8e5da7f2d61e1d55d71114d9b9e373d6c9c5abdff8ea450173e32f6040b1ce21edc7e71846200009b565b620053a0611fa08801357f3062b7788b732fe79121518195acfbc1e849dd8808c134baba76ae8d897279b37f088a52ff7a62ef8d85b9b4bdd9bf9771a97c63558f306e69f824b084751dca99846200009b565b620053f3611fc08801357f10df9bbe531f898b5a1625a6c86a7f8f441c4b33017da71eb9c90be0aa7c21a77f250ce6e52ba3e00492a8cb2268e74761b57c1bd63fefa385c0722bc4d7a1142b846200009b565b62005446611fe08801357f1c73fcd37f005bf661ba25fae810034d11672d6d66273d9d00e973d6464ada3f7f1f987b1fe526eaf2c390d6f39fc550ccce23892bccb1205fac9b9a2611eea7fc846200009b565b620054996120008801357f13f3db71cb19c6beceb088fa2fb82447f7f7c7f3edd51be39b9b2657b2bc733a7f0d9c0b9979b570cbdf3a2f292cbed46f39a842dc7b64a1b9d86557ce9c2d74df846200009b565b620054ec6120208801357f1bf35f9ccb5f505f7a82ccbca9d8b8d2b996d8775e6bb7f3781d67e226fcdfe07f06c9cd6724e9fb86cb8f7c57a6c198469d685f032430c1c6d135d41f3f9d7263846200009b565b6200553f6120408801357f120b5511c3c2695028dc21e6078adf1992ceda20db528184a99b071d004f6fa97f28daaa5aa5662e5fcfd125a8625b7137f29d5aec9240c52f7d35af8fe11fa34d846200009b565b620055926120608801357f067cd4a6500cd78d70686c05b8052ffb0175d71a7f68d50b0e77c49cd668e18d7f2ebb9a3003a916cdb38bd1136baf53fe38b7da80c10bcca943d98ae36b94c164846200009b565b620055e46120808801357e63b952b49afa49c86830499c8607a03eae181a7bb71afc2af22dda26c1dfa57f26177ef5487e29012d77c5aae1add8f2926f5888d18f0656b7ff5519a94d74ae846200009b565b620056376120a08801357f2d70cccbf8329d40ded62244b0736f3ff855f4f913ac35bcdfb845e8b90aa28f7f2075b0652675ac1fb71a6da8f8df4718979a07d0a5ca2e505ccb498955d49c38846200009b565b6200568a6120c08801357f019e6e06593d75fb38bfd963648552374359cc7972fd9ec18cad35a7cb36adbc7f29a6d1ccfbe54aa4785509b7248e6fb41dfd96ce4e72620e507470e1810cdcc3846200009b565b620056dd6120e08801357f1e7c15edd6f44d850d8fe2e865178c2128a4f557ef6a42253207f08536cc14aa7f20baa06ba74a5dc6a9faf42b07a65cfc95b48463ecd4d0280ea2f2cb94d45d50846200009b565b620057306121008801357f08171763233f7b567dd441a82f03b9d601d25a664af0a60eff35ac045196194a7f26bf1ef3f47dbef7dd8d1cdad3afd04636ad05874a9143ca778fe39e2d6ba831846200009b565b620057836121208801357f03bf7d2550e0868972420f65d2ac75d930c01b7a3d58e355c9c033b8fa686ab57f1f5dd5433159aaabfd42c97991fb8fd16333df03903ff50c7ad94822a90b5fd6846200009b565b620057d66121408801357f203a0213c79d388a49b3a3f1f84192296cbec15083fb80af134fddb68109bbce7f1f306f8063c51a338d3caf24825740d8f9db5b7cdf19368753dde23a288cd982846200009b565b620058296121608801357f05b929ee828f4d6cd1c71b1ad8c92a7099400b6442bd117f4ef786936be07ed37f0b53e2e8e3b0f0a4d7836cdef878310b6801d8f7c6de63a759ab5e3e52a68e27846200009b565b6200587c6121808801357f0ecf5931065cdaebe8c042064be6b886411a857e28622f5ec6fd4afa01af7eaf7f104d4d8453216f8e78a6d74ac3893a681a193b7936ea4b849e33b2d1e22674d4846200009b565b620058cf6121a08801357f1b94bdfccd175de97a1e314b532996f1a0deb140c095173ce6a05a55c07d4e477f19b439569b4787e406829bb8d2a25ef020eccea8773f7a512dc0592ae4345374846200009b565b620059226121c08801357f1f507aa6a0328735b907ace29cdf84371d5d468c797ccc183886f26fd3ab33657f04c8c569b4194eef97ccc58ce5731867dc305f66dcddfa0e93237ae82fa0e282846200009b565b620059756121e08801357f296898d7da2bf6f7f1b626799349787c327d88f3fba05eb087c4dfe49b68ad1c7f20ed56452b82e8292e6dc79cd636f38d2a6b98af6b5b0d402ef8df5ecda28271846200009b565b620059c86122008801357f0cfccc38d9ea40cba09d05ae010ca01b51270b339636ad56e8b076ccf5033f517f16888c38026beeb0f93aa0786f5c8e0c5353ec6a01e83cf515d6005b0465b17e846200009b565b62005a1b6122208801357f08c1ac3c4b70fd110a7ea002355e7050bf1b0df1d6f3dc0815146c50a909ca147f144d023cc86bbe8b0dc013c4eaf97fe58fc0d5472fda9994b1f73c985f1d6ff0846200009b565b62005a6e6122408801357f285b84dd9f3ab34a237d88eb4feb3a04911b637b9bed31f797ea611bd8e3a82e7f1adbc80f5a9848ffb188d1415976e825686f8409c97c6c05677440ebdfd7a270846200009b565b62005ac16122608801357f208663b3da25d104058a58888768aa2489cb1df51d9558b8438b38adbaa526e47f29896a883421919963fe0e11229059109529f84468b874c796b2f5836c34894f846200009b565b62005b146122808801357f24c253c60cc905e175147aeb58891a446a193aca2a1021f72c9a4cd0b1765a087f178a9fa788e0c5ae7e2d019c8035b9e5599eddf831a6e70c7a529cbad5f131e8846200009b565b62005b666122a08801357eb190e25023f4742f8d99a913deb960a4c33b3ca416ffeccbac7bb7449fc1857f243173694bcd70c8065d3b6c7dc33912783ce4eb6f1d2b6caeee936762569921846200009b565b62005bb96122c08801357f2814b57391b11c254472e768996e75b11ac75b219091f8f4bc85facae1f5e8027f1bb7aaf4fefd565d3a4e4c4ebe783fdde572dccd2a54bf23cb4f785ba0b9a695846200009b565b62005c0c6122e08801357f011c899060e67dbd4d5a8fbd531712f346ed6a27783cdde7b0df04c50a2a10b37f28b04dd21a340abf33b9e6c0a01ef49ae240cff71d3698f23c544cd292623307846200009b565b62005c5f6123008801357f159d8e5aac094d63da71ee2eeac0b9bf06aef0e751e49b587d63db94c27055ba7f1782293e9265afd6cf9e6e01d0d39592e6e71b9449ccb8790b4fdf7d311231eb846200009b565b62005cb26123208801357f0c6c90a069192800c51758647c049bdedc6a9821e62a3e88d33ca5f1dea2befb7f045e4255aae63183148462f7ed31b2fa0626b977ab20a2836abfd8d9492d0651846200009b565b62005d056123408801357f2bbd190f6737469208fa693c966c3486b0f43edb0ce1313f571e877fb92474d07f07f0bdfbb9cf012f24a5936a94dc37c60537a07474edeef3da06bcb432a6f0bb846200009b565b62005d576123608801357e9cf0cd4d740658eb4b8ea20b1c25fa1a876783a946be37dfce4590bf7c23187f2e58d78566abbbe7360eb69e0d83d3e8de7e70f41075ed0b3ee2e1c70768afd6846200009b565b62005daa6123808801357f2b8e8b3202a675f8058ccec6941bd5cd8bd8dd760b75f82dbf30bd9e72271a647f2ad3f1318f1920ca1dc8209ddbdf6eedab667e41bd1c44adf6a6cdb7006af434846200009b565b62005dfd6123a08801357f1629448a631b3776cc131fd02fc417de3c6457a3e49fc4ad0e89df2080059a007f02ca1bc41cb46e145f8c4dcc6510e884ef017015d8211111498a01e49013b296846200009b565b62005e506123c08801357f17063985fa7472b7cfa5ea10294ebeed3d4581268038450cd8f2da8d455a95f57f0631bfc9c1fddbaf16d00fdac67af4da6d6eb9a22d35a89d9c0b8f552efe65b7846200009b565b62005ea36123e08801357f172ca29e6172a775c4224f2151bce02ccef48dcf3c955574fe35779ed118fafd7f056b983d7771355981efc602f9ff2df0cc3418649cad251ca6bd4c768d86e2f2846200009b565b62005ef66124008801357f21b8fb6f5ee3f960307cbbb64abe48316466aae440164afffa445031cb9b7d747f073c438b8ddd1b0fc561d14b3ab27eafd77e68c47f83293cd565cfd802fa9623846200009b565b62005f496124208801357f223d4ff072d64dc6ea259a4c001de6eb92d02dc286928feace0ec120fc21ecd97f0bce72571e529506292ea69b0a8b2a09d51f30a09fd54cd1f7cb622ba89ee8ea846200009b565b62005f9c6124408801357f1922ec29b1040bfd1f1a3b146af62e7841257a0f9f037469f6eaadd7316d161d7f0615c777b1f753ed182855eff0486dc2f71ff5b2238750ee2be8b49720dc2300846200009b565b62005fef6124608801357f0f29c6c7a1cde8645c9d664e7d80c9e66dcde06b91b3af4f4eb9e4a5828cab267f1393840a9600f4ed230fe51ddf9c7d94d3dcde745b9a174a3c74ec8b5c9673e7846200009b565b620060426124808801357f107674c75fcf6a42babb592e0c539b1106c3d2792827f9266231eca0ceb232307f2c2e9fc9604b0b6454afc3263a680d308639c90a7f28294d8ae473a86e4cfee8846200009b565b620060956124a08801357f1fc765e64fd3f8593b7c90d72fe93144735a76144357f392f9aa5e4de561d0a37f25ba3d6a905536fa64472261f3b293d9bd711770e8effb45e8dc2bf42424e34a846200009b565b620060e86124c08801357f2cf69e32f2bb943569cd33b373750f54913e34d718def0d05a5df631a01575937f0db9022876513010e7bed9dfe2cd2ee3dbde6c2688dd306836cb72369021f83f846200009b565b6200613b6124e08801357f04ea3e9841fd31c0c874a2efe4d0549e4f7d904cee35e3557c4238c82923bb797f1b157b6b2522ae3c3880d83cd5ce2cf171a40770743db233419e0d66914b0e52846200009b565b6200618e6125008801357f2da6fde1ab3e0b0a2a6f7e68a8a7245c621a3987f792dd42a96179dec95e6c3d7f226b4168bd49f8660ceb87fa3051e84068ac540aa3c8a3fe7a988fbbd3cb007f846200009b565b620061e16125208801357f0885243783c50536b8bceb5368ce783878891f2121a4d4987448826968cd5b367f117714dc5e40b016d3624bc48bf3ddcb7746b94e03611af488d4e3fd47d8f38e846200009b565b620062346125408801357f1689749cc77055d7b3d7f50cc9d487f9db06e49bd99c720a041f43ac24af1bc77f04ea3e1e2a6ce94540e12f5bd833e6635f2081d16e5f21c4a9f54eeb97e919d7846200009b565b620062876125608801357f185450877aff10a2b10faa9310666ac8b3f22a006e9ae6252b7a6cc1050195427f1c812eb8e798bf80c3d247d6464103d97c8f5c9c9f75bbdb5a457a3b3657e6d6846200009b565b620062da6125808801357f2c965961f9832ddc29d0e899e7b7ec35b1210b3c522608350bcddc39599515d37f0fcab79d37b7450ba8391a1f0deb80acd8749a727cd3ecb5ba2218d680c57a0c846200009b565b6200632d6125a08801357f08f8b52f518db268cd9b9a2b842e4ced7101718adad41a8c2a24f70815d04d807f01059d98fcba75f90736b2808e9af0ec392d397fb8e502bc17b6ea24833708fa846200009b565b620063806125c08801357f2868817163b46be3ce37a20fd3c1c6d0f7a6319c349884f5b1a5b6d8fef859137f1c0664ad8c7f51ae06e42a31f115068c924daed4d13aa05551c5418020c1b67a846200009b565b620063d36125e08801357f0c5082561915a6772c0b363dacc65b0bcb2702dfae5ada256f07a1ede5d3b0f87f2d56fa596c0c9de5617beaf279115c7b6243ab9a27cd4fd8c3d1aa8e73a9288a846200009b565b620064266126008801357f0ff2f9f48ee3ad9b0c282218d43a224e651c436742041ba025f89457a674ed857f2c73208db71d0fdbb30e558f665b103845362ccad53d1e41a1b2c15ce8b75c8b846200009b565b620064796126208801357f0c5a6c54feec36a051e688c64edb73a2ff33f43218a9b71f64458187199dd86b7f0b06fcfe83f7643c78df3b2868710e3fa25602f45098511407fab01c5d422cd7846200009b565b620064cc6126408801357f0fd9cb56bdddde422744d12e42805ff929529eee56a8d5c540c5d0e0d1fdf2d47f221785b9a499e60f0b1008c9a50bcc1084b4e2e93360f4257ce6c2cbc3162862846200009b565b6200651f6126608801357f121f2e0c591357532f11674661093b40f9182a2ad016491bd5c13bfbfd7d1a907f0d062589ff84efd673b3a3d9814cb9685024bebcdeec4dd56c9348d6eb7f944b846200009b565b620065726126808801357f1b815542bacbb04131806826055cda3e6a48be0051cd14346609df73a205616b7f21c17d46e5515b6c71bf9838ef749f778a4a39cf4b04ad07ee5ab3bd902ba8f4846200009b565b620065c56126a08801357f0cdb4918cee95389653d2867bf20f33167ef2ac813b00292e1cb83ccb067df6a7f047ae81e3980f4f5c030206033389dd7609ec6df2004ed814264596f469f5277846200009b565b620066186126c08801357f018eadf4cff96b36269b3be775fa6079400f9bec9f8437ff6dbce7acd22778697f2a2adbf3dc7c78ca304688e580ebad84590f8a308848c271f16871d3475c6844846200009b565b6200666b6126e08801357f0264ba073744906c696bf233362531f60cca4fcf6e435e4600c069c1e70d8bc17f2c00a6752d889d0043f99fde170f26f2532d6d5552728bd7d684034669d8132f846200009b565b620066be6127008801357f02aa867a93ed145b6c1d58588a678800c58948e3cc3086acd03c401d61b73d5d7f1d0d0fd23de3eddd34d4ea765c26aabead25362c9c246ea2d0f5fc78289d9c15846200009b565b620067116127208801357f06351916cda56efa5f7a27c34c7ee7bf854d4078bfd910485915c64382cd4fbe7f2ee9095b7c56a99071911bf9a7b18785a64f74b82ee022b03582f0d42b292fc9846200009b565b620067646127408801357f19fa4bc5e4ea70dea049d459a6367f56d6dd214aa0386f796741680a3f54744f7f12bc76082f0427dde780ec2e4c3c4dec007fece74328d451fa0e131746ed1897846200009b565b620067b66127608801357f1de75529b5095e1aa5de30c101004976935f4a2d45ca2fb5602e8d01099e99a17ea8ce2fdb1f6fab8cf8e8a4aca437590ef7975064f36ba4806158ce84beee6d846200009b565b620068096127808801357f1d8246585edc57ab2d15489793e5ddf57b57b9a5205771450b873365937cb2137f0b0d980c01c1c8552cbc8a9596a14da5140aee62800d8b8c3ec848e3cf0a38cc846200009b565b6200685c6127a08801357f0e54f0271c9c091d72d37b1cea0e6bebcc569d2bf91c297edb70fdf0deea72557f1d991bc083ced8b5abadc14047c67adad5f212328f0ea5cbccbf77457b0b4805846200009b565b620068af6127c08801357f2fe2c12e4aa87ce54cf45df0b97f3026d24b5a293d6857c2e1200ef82e637ad67f0806273b51b8865c16b3f7827cc0cd80e6fc4a96aa580a0dbd4aa1c66a690ce9846200009b565b620069026127e08801357f05958fddfc04cd45939dcbedabe9c7d9d56dce5a62c934d783ce9610620ecb4c7f1e4f59e0b36a929a2d9d9811c9a6a75e2744af10b108dbd7a7730958bb0d12ba846200009b565b620069556128008801357f0e107cebe3cb6873d66e16b61f40ae3d82e2c15eb83ce5c66abfb66d5915dc447f1a908f4acb31725986de95a9f2a384ca38c3846a8ca80244a82f2af318e5f845846200009b565b620069a86128208801357f0c4e447bf0d3d2480c19e794fa1d9d69338968b4341b06b416c95267a1822eb07f1643d3c237b673c29fbc918a64f48faf133e37c9e284f1c3a3f44a9b3f857a94846200009b565b620069fb6128408801357f0f46d62e60e3b3e5ac8f2518ed97d988d9b80a4ed7a77143aab8ba6c45c200b57f1c7605bc708f64985052b71485f514eb2a9f100a5ffbd0c216d5d8f4b5ddae11846200009b565b62006a4e6128608801357f30570879d421d4ecb5979ffc709f9710d597a1b2260863a1530de28b59b3487c7f0fa7343295d6e703de076c801bceb28be7229f30e7f7afb888ea010c4407fc5c846200009b565b62006aa16128808801357f30540cdd32af4b4c7e2a24ed51899de9bcc8a8501581559bccc75804099be8d67f09444be0c3a7d6f66b59f17ac19c94e97d839214e81bdca1f96c3cf7404568f4846200009b565b62006af46128a08801357f2a9abc2ebbd64566cdea022ce9d5f83d681b895dc3f82d1f5ece9e13882a57087f28ccdd7fed1fff28d894633e8fc7e51b0a9dc72ca70231611935b8eb23cc5dcf846200009b565b62006b476128c08801357f0365b313059b5e5d32cf0764efab9419fbedb68fd76c635bcd7953f4a48640577f06622e614f554c2b644946188af94517308fc6e384a4209190223ea13ae62231846200009b565b62006b9a6128e08801357f1179af35e6016351bf1160f5f431cc6921e8fcbadb7698e54538b0e71e0eb4627f164fef3a9e336f19e7690dad776b139c99ff4b9a6a79e0ddf4efe47b24e24a79846200009b565b62006bed6129008801357f2a08c0c3ef307f1d8a8a49ef82b41d0272b896ea729a81dacb293cdc532505ed7f30083f00a05474ab04f932a56355f8586ca73ef9a9be1e7d624798925aa9fe2e846200009b565b62006c406129208801357f130bd87fcf166a1691a1184a2032dbbe97c6a4b5f45e1d592374f5ee23a2d7bb7f2c1ae59076828743bd164b3161e1a60fba8d3309baf3dafdfce329af9a867d8a846200009b565b62006c936129408801357f04b94a36b187a58d9928c2e33d12d96c22d89bf9739ad3d4fbb7a33f67d7b2d57f17381720962c930c73c72d3c7ff4cce8262f584676d3e5347df82f28390ead9b846200009b565b62006ce66129608801357f1684c69aff715a3f8c8f34601ac885fa87524ba155be1eeec73fc738ed7da20c7f166892ebdd04f7fc69ebd6c671332622bc4e50d90554e7e3950a78e99d10a94b846200009b565b62006d396129808801357f01b240d3b6f9f92ea3a554dff732a942e671fdabd595b6e1ac06ecf705af1e857f3012ccfefd17c0a5f308294a9276fc84ac9194dc993b8c25814e2e6cb15abb5d846200009b565b62006d8c6129a08801357f23b34de3d8f4610aecadc772bc7980ad6ef0c396580fd6b6c0eb3b98b19697777f2b9726bd04ba606fb5167805b4281b3cf9d145b05caac9549a2d12194b679f7c846200009b565b62006ddf6129c08801357f1cb08a84735f423076d487cc12d445cdb32845c9fb0ca6c149767b00824e4a697f2e43e8f0521fe01594567194e7b03b8078a911033bfffbb158136678f19a4783846200009b565b62006e326129e08801357f2bbc2fc40e4fc2dadbf7f4f7883de62c00fb954e21296c43477fb2c8a8f05b207f137a0e1c22f08fc6d21b3f8f89994e1a018aac4bd002242095f7d79df40ff58a846200009b565b62006e85612a008801357f091abf763352c5e0dacbc4ed2725c87406aa8b204a186edb984509ed1f8744d07f2dae55fe624cd5469ca66b3ef641dc652a3a6046ef3fdbf823682a06acacaafd846200009b565b62006ed8612a208801357f160ac2bf92dc4ab4b3e5ab80a0579c7dd3af241d11fab4cdbf0c611756f9f8627f1d95ac6535ac4f3a2caadd92acfd44af4929563fce3ca2f165476a46644e1f51846200009b565b62006f2b612a408801357f13c088fd746960ec1d9a1b0eec6256cdd1ce25feaa493f4b06cf1915ef8332f17f1599f72e8b40fb4d4f98c45b70ac736f767767ce56c056120dff783cc3c05df4846200009b565b62006f7e612a608801357f1d58983a3ed87ec262ce376e522edbd6dfac81b9573aafd544026035bc0e66387f08cb67943b30489d43df4732a45a26dda0afd684f05e1a101b36e1ffd663d548846200009b565b62006fd1612a808801357f0eeef0db2644df4de89c5da35d398f2e5cf75858959f4cf0c01e1b712a3a427e7f09392a146d921fcc6f62405c34b7bbb40c5fd7d095e75c26e6dfd6225d30ffce846200009b565b62007024612aa08801357f1d5c656fb2fa2a374a09cc18c15adb81b3bf5a9c488a72601f9116a49ddc8bd67f0b7b87fce4bde90b3a62f448772a142bee3105f85fabd3d359b5df62ff765cb0846200009b565b62007077612ac08801357f039392b7fea36de8d755be4cc9cd7082e554076966e9a28bc99faf97c2e271d47f11b907b1ecd1f27a770ad6a9746892c9284d5735c2a6b61374b91c9fc057c938846200009b565b620070ca612ae08801357f03cdb4e98b3f2910a4ec7c4389de1637453ae94814c713e7c2f0d26ef26476877f08897097abb4ac14f58699aed4b6e33858fc88eb9d67765e58b2d9bd30c462fe846200009b565b6200711d612b008801357f2d59e4f718cee626f54965ec6a2fb76858572422f345f124878db81dd83275ec7f1e6f306581f42e558db4fd9155f97eeaaeae916860fab41f1598f3e8b162756e846200009b565b6200716f612b208801357f11ca5a88a446faf739ab79885c66d122ba7b606c85117dfd0e39dacd2caa13307e0ff0d961307deb003083c64db182770d503418ffd1fd84d20c2a42eccab710846200009b565b620071c2612b408801357f02d0659997081b555dfe9e7564c194586f0aa2159a8758104ed49abe35f652657f1fc216e6d2e35eb67a27cdea40534acd088f45b7d2cb0692e86fd2b48d2a6faf846200009b565b62007215612b608801357f06f34cac2488178b16caef7a8f8a5f134cd02c9829e74e37f293c303f54afd587f0695e1684716b8da34ffe78e78e5660e9947e0110f6001a57e09744ff8062cfc846200009b565b62007268612b808801357f0d9f89b3aba8aa084ca91f7e609cfc31d206bcc4911c7f6910c08b936c7424327f234d78f28c87409e3fdb4ebdd0bc6dfe94c3f023c6e0c2c54b664cfcd1e1ae15846200009b565b620072bb612ba08801357f272618b8ab83bdd7205fcd03f1172be78f77778ebadbb2a918101a28438a286b7f2f413f8962243e9b7661cdb631bcb7ac0964b65db394c907fc2e5d4b64da7905846200009b565b6200730e612bc08801357f0e318e6ad03815d153413fd053960ded100cd896a317f4b9956199badc88453e7f2744755eb73fe33dbe51ac618757e4184d37038aa56540295aa144ee1109f71b846200009b565b62007361612be08801357f1a751c96c832496be51c07bec94aab597bdc589af6482c24f22295f7667173427f2156d69fe0b6eb8b255f813130f198cef32ebdbade7504728c7f3439c616dab2846200009b565b620073b4612c008801357f1e537fea1368bb6c5c6178ab46499cdd4b5a1bd1ee7d79ab372d5e0fb449d1627f1c601e8ea985ca3fc719f352b8d8fa7f64587b81ce2ff88aeb448825d264bc58846200009b565b62007407612c208801357f123d596a64b2a50250ac9e4b18b4e612bfa9369ed514ce2a73597fb4c7b6608a7f07ada8f60dc6c29acdc0ce941aed28cbb5247105e8a7a391dcc8be54f3f9e3a1846200009b565b6200745a612c408801357f1d79b2b92a8f69924104445831e66a47db963ff96832ea895f24c2b1f9e3d9a57f1af43e517c12385e16514d8ee7f54427d11aff7352bf30f31e360a4e1f1c4786846200009b565b620074ad612c608801357f25985dbbf7f77b57ed6a6bf514b3635228ebe8a2371021ffe6c0ccda9e7d1b2c7f0c8b25b802256e731eb49fc24be9e8115a37c80f7629b55047330d9e9eb9017c846200009b565b62007500612c808801357f2163a7517b9b78cf14ede83ec4293ec5d079e88bd3d7905d87759281abf9529f7f0af155ae8085ade6f8504a6d683508ec1d10aabe35d53ef7ced77a4708d85551846200009b565b62007553612ca08801357f115723510b3f3ead3e24bdfe0af6aa17e1a00ff75d51f544e6d4a693dc59768d7f23eedf2821814fee90e43f60f1e73939d57061ce0074e1c695a31ea1e170787c846200009b565b620075a6612cc08801357f1bc1eb5de7734aeb3456a4eca92dedc4efc01aa7c5dcea0a2bf2dda8a481a4747f03f6d46641ab83c08e4725505ffbbd17136ae09bef74d239e72b477f97c30385846200009b565b620075f9612ce08801357f177596b2c922542953ca83769151dbf8c2838da7b82e5d13c27962a0de809ebb7f2c07ec9696c54ee729774c73b0b5363ff8d88864c686b175c62ba63d2afbe71f846200009b565b6200764c612d008801357f22e709112b7ba4162152be575f939c0e08a215798482f8bb5328436187f4cfd57f2cbe38ab2fcfa2dd4f1db1d0a36e0277f488d642bde5aff1b4c5211866cd433d846200009b565b6200769f612d208801357f09adce3ab2070877edbb4e978ecb0b1d165d4e875b0f2f5663088f0a7c2698fc7f1400e5425743ffb63053665821903814c73c541c6577e051002c042cfb0c54d7846200009b565b620076f2612d408801357f095b4fdf9355d0fa0b48df3d16e76f6e3167ed0b6a2b5712c76fed5c965eaab77f19cd6909721b1c19949ca762266662181771348db70a995ee3b5b60ca469b1bd846200009b565b62007745612d608801357f0197c7ca480c33ad6cc9e91315fefdac6cfd6d80fd659e9c5634997bb71d9cb07f303a5e50b78132e3622ea76b1706ad9ed754739958a0e5d6e9d76a27500c8147846200009b565b62007797612d808801357f26396075a3478f41feb42197e3f15e3ecb971a678801e29fd57f37f853d6803b7e193e4252ff2d40aec30f54cef5481ccaf86b42e972a495689dbd74d0329507846200009b565b620077ea612da08801357f217e93e2b47d3ee015d603775cf15c8a47b0a912a032d056a4aa80ab86f0e7d07f0b0f085970d43b3a7e169f16b6dc284bd06922e4cd6f5a12900b2479a4df3b9a846200009b565b6200783d612dc08801357f2b424b7a25b206019dbc480a34da19b24f337ebba4dc6f17d1f21cd8a475cc847f06a2837b75a872eb85d3d0ce1e6691d9157f81e2f8071d066ffbd47948c54e07846200009b565b62007890612de08801357f2ca31c833621196ac78204caae773473a7e18a29731191469b99526f0a189f287f103bc324870ed9bfa19f8eae95484a9421c59fd1e2317c7424dd7edf338462ff846200009b565b620078e3612e008801357f300b874f2ef92e94eadfe63f041586868ba7d02e2ac5a9fdb0487b5cc137599e7f26b215b4297b7d414b3bce0eb19e41fd6524dd95b59798b45a5f3acd03f018d4846200009b565b62007936612e208801357f1bcee3c3cfc7fdca4ca84955eb0174fe3843f42e0ec503af2bcfa368f7538eb47f1f7e3a676712e423bdfc6bc5e3e0f70fa116e409e50efc07e03bd6a9fc28f37f846200009b565b62007989612e408801357f1c762d8de71c0f6b546eb50e083613877341d335e62b17ccd26bbd62f3fe32667f128747897e5012780f262636f476613dec94ef09c7519f5f5a4bca57bd305df3846200009b565b620079dc612e608801357f087acfa7145d729442ba1f3404e68251e1be5b95301478d9ced4ce6c34c9d6a77f1325eba271096bce1d004f0be00fdbcb472dc97807d6ebb2bfd24906b6cbe017846200009b565b62007a2f612e808801357f2e8285dd3d52e7e30f03c6547875bb044bc288d431b430121e6e6c978f8d6d707f1295839e0841cf3c44910a0352a0261e3a9e205ec32650c54ecc508f8094bafe846200009b565b62007a82612ea08801357f2ce9e729ea0192f5c1b9f6efec038b538adb91bed54c9ec4bd1311c26edd38047f02b27289368e2d2666bc16310185db202dcdea23c7b8e78c58ab94b9f04a7d40846200009b565b62007ad4612ec08801357f1cfc6ed787d5e0c0572989f82b82b6a2d7a0ab86bd40ddcab673e1afae9689b47e5d99fecd4828eea48c3ad0cb468d9b5fa834eab2f4cf53c8a1f088798930e2846200009b565b62007b26612ee08801357ecdd0751c1faa1bd741ba91d988ca6e1fbed3dc0ddab94f597bf39f178f85017f0c3e503c375636b24dbd18d5cc0dc7aa9544bbd084686434a956f4f03fc509aa846200009b565b62007b79612f008801357f1170cea1a565249396140152fbd5fde0fe82f96751681ef79cb59b4e3d3b72f77f18aa9cd359b5a207eff5aeea6964716398182d9e02ac0471855701260af24492846200009b565b62007bcc612f208801357f297af8e8f68beb5f61209270dbe1e33b91f44671f867e9994c711ff061c65fa37f0fd6d9f61efe9773d27c4796034f52c047e670d29237f06b3501b46144780bf0846200009b565b62007c1f612f408801357f11fbd4ccdc61c00720475a90758014ba64b47ff1d42be202d6f0d5dde339eba77f291efab842b42c3464545e3caf6f615d2a60b04d5425f4a0b285430b131e9675846200009b565b62007c72612f608801357f252e108a651c1e68c3ea3128bc7a4d0ca7a7dac6bb4936b51b9ed7f4957ae5a77f1c00f72b1ab930028525c7a1b92fdd25ef98a1a874d64a02e3339b91fcae1a9a846200009b565b62007cc5612f808801357f175fba23697ec295fd9194ca53b0aa352ecfefe21d8564481fa20efca98000e47f30627b3093943cfdedfcfb6f1e9d8dd2d252c6d69dc207f7555c80c483c11084846200009b565b62007d18612fa08801357f1ba1c5554654d79bce75b3e18887b7d8580b4e7d0a5325fc78965770f7b6b4757f2393612adb9267419e04546517c7856c0dfecaa695a8081fc18ca7308bfaa81f846200009b565b62007d6b612fc08801357f2f5a3e58a75dd061352b6cbf87d9c9380f28298bfaa9467faf692b51d18912637f2b1d2e603d758a3581bdeaac73fde59fbf0583455b6bb5fa20cd8ff2a193c311846200009b565b62007dbe612fe08801357f2f556d7f15abd1274c06baf6eeda5b5c3cf7e11ba2d0955d1d80bff875c99ed57f0ee63f96da946d171c2fea6d5c1247b5bec17dfb20406121491e93fa4cae1a1d846200009b565b62007e116130008801357f0fbd7468333588aa06d5ba8a494f196aafa3a4ea5082ed5270ae14e062a019847f2b84445b46ff24ebd475b5175086f31d60ee9bc0a6e35c15e0494b865f0db6ae846200009b565b62007e646130208801357f079fdb25c480cfcf97ab04fd17b33d6c67ee323093bd04f08111b95dd23adb577f2837c48b837bbfcc6f3296ff15a8bd843f87f87d94870205565c2f7cd96f94cd846200009b565b62007eb76130408801357f079678b32a5b91edfcdccf07bed7bb987cde6921008fe4e2f3ba37359f41edf07f258d0fdfb553eded5f82a8fc88b7b4916d89b293618109c8eea1f320d8f692f8846200009b565b62007f0a6130608801357f225e7da94941883af393459eb726b7a8a0049cc3b91da50a9f4ff054665151c97f0bf7f9f5887bb710516ffe421ea109f1dfeffe0c461f978127b6bce38ed692f8846200009b565b62007f5d6130808801357f1d2f3fa922742aa0c1ad510d790104e4b3e627034b3d777554e9ea37058da9167f084e8d04ceea4e02c8a36f9a2a5551f372de656425d3ff24c95a08884a4979c4846200009b565b62007fb06130a08801357f1020b2f628dc956a22fa6acd82f56c04b8f24e83000d04b3711966de6b7622887f02c74fd4086c9a46c3da48f93f3973e5fe62f9c032323330ada4f9da0410c0cb846200009b565b620080036130c08801357f246d9c38ff4903306f11fa89f7af37b8bf3698f70586efd0f12e8c6dfb801e687f0d5865ea3fc01f43460e70b5fa87b362c5fd2028cb19c09e32590cbb8490a439846200009b565b620080566130e08801357f0b3ff4f43686bfd30923d7e3ff36fe4e8d21b565565a9013b98b4c4e2995db617f13c744f0b8c89d85b0bfe9e4a30a2293efc367647cc2516ce3d3b658f8abb91b846200009b565b620080a96131008801357f03e9b820eb3d570834f17f315065a29fa5d78f58cdc6b0b0f2f36d0e40e940de7f1ffc8e19a0686f70e15636aa84b0b1a366b52f60c8159eed6ec98131a3950f7c846200009b565b620080fc6131208801357f1b0d494025cbaf0b075d97672900453a143da0573f341ca3d353954cec00ffcc7f2334fc79c5f001a162923bf09fdc6284a0a9850a3a09ebcfd39005a116a8ddca846200009b565b6200814f6131408801357f03fc08bbfab5419af638022e2e96691b93889efd40ddc648e1054dfb9b0f1dce7f227b23c603977994ed498827b46e46d4a77008827129f184982edd97da84119d846200009b565b620081a26131608801357f278779b659d6a3551762560be6d3c16a925c9c0ed57f784aedfffead59384b367f0fd80ddbe14a450939aba5f55354f72d07372c58f252348d56f498cf4345d9c7846200009b565b620081f56131808801357f2a5f240598cf4df7f8b1f1375bfab86d437f3cfe3e1d95aed623ce090143f3ea7f18b66627e622b653509f9002b56875f1204445c09a4044f5d0912186fb1a55d0846200009b565b620082486131a08801357f14f3ee9a7cf4d6ecae5010bbd39f546af1900a28e52e0e612d7c744a0759e1857f2006a84a4c3aca5f28c1257b76525ba9961ef7a9b1eecb7dfc3a67d32c988851846200009b565b6200829b6131c08801357f089814e292f9a206c6c30c7f8e3edf33279e347025735e4276149318f44c8f787f2babd324d2cb063d1a5e979b6d823e84c646a03bf2585a828a3d808095bd9cfa846200009b565b620082ee6131e08801357f04f7aed8423c669ee2989c44a311d728aeca6424106f6f2cb20b06afe6c70c9c7f10e27c1f066344a9c488099df60af5a3c3e5853722c221d9f3f29bcaa9c94368846200009b565b620083416132008801357f2e3b6a1c6b44c1f575869ac8b5b4a1b3e87faa1661b3b72a88d3ea33601ce01a7f2e380ad0db8c0a02d489e0a81215d05f971cc42bbfee6ed591e80003505c1d24846200009b565b620083936132208801357f118b21fd749fd7567367ed0b9c2e40069898fd87034fb00749b4eac0bd9ce8c67e5282b1a5c98fba06a69e27349699dc1c98809635a2bb4fc582145c5e720426846200009b565b620083e66132408801357f2af575c7566dbe955162b0df714d8f4b7413653433c4e3a7ea8760c68ae649d87f101484b1fc02a0de6e5a9e352f0d8bf92f43b68230205c4d2843872b95a728b5846200009b565b620084396132608801357f2aeb9c50547eaa0c54dba7a4b2e22527de557abca01bd56c6bb9de1460f805597f1cdb48d6f6651090765e964cdbe5f4ecbf41b94d57dc2f475d57fd7eb5a817c3846200009b565b6200848c6132808801357f29cc48cff005ed3a70fe85072db04f57b5e1d1f133464ee884e48a4ecd3b7cb67f14876f273b10894f534730ed822dabf0e0401e7403ab26743ccfbabadb4fb082846200009b565b620084df6132a08801357f04a4485a3c8d47fdd51131d905f1a15b240aaf05d405a728556281ea7d1f6f3e7f24941194342f2a934be35f95cbc7ef64d35103b059fe790663fef2ad3616a55c846200009b565b620085326132c08801357f26f947394a2e03db8cfe3779c3865bf50739ba93ac28e143b15465196d1c6b477f0d1eadc0f24ba9f55dadc650a141374d3630c699e99cab57b52a858e0fccedd4846200009b565b620085856132e08801357f1fc0d0db65b226ec859114af7212302f3404e8c1ba8cd5c965fb0f1dd105a86a7f0c537524ee068115be8d92596f7cfdc32cccb91fdd42bfb5ce53d7403a7909d5846200009b565b620085d86133008801357f1032ebe01fdaec923d58ffcdfc958dce48a56cf0e43ef2b006c9e56b9f97deaa7f247ba0cb97acf7b31eadbedc55bf913ced31daac78383c62078456f64c1fd22d846200009b565b6200862b6133208801357f14a43fe6ba72058e4b0568f3423da1341192754a5e6a7ba60bccec0d626f706c7f0ff5babf323a709351c20fad97dd33163fd098d9efdcf95d18ac4f19fbdf88a9846200009b565b6200867e6133408801357f0c2ba942e340575aa5f44592acab82dd322b9e37ec0d37e17193c5a6c43372ff7f04bc89191e8105c6eff18d004ba8a01a4b2718a55b0ee7a438b9d9fff7f77ee8846200009b565b620086d16133608801357f161cb09ddb71faea114ca6dc20d784dc881a85d752aaa1f36669a4eb0e8ac3697f1b5cd768baf031de62f16730a4c82fa6592890b15c341f872d308130eb7d26a6846200009b565b620087246133808801357f2ac493fa5cc9129191c6fbfabae3c02674e0efe14b3394db36703f8b284a3e8a7f12df58af46cbbd20c6648596013d394cb5ac8e9dfac54e556ac136b2a3ac5e00846200009b565b620087766133a08801357f07e54eab6b724e9b599551f88c9cea8960d0afd0debb7b1e395c868656f9bc3e7e11501c52861f0a83286cbdbbed958d71fda5b2016dae013455bb01d00800f4846200009b565b620087c96133c08801357f16072e697827be05d6bc7cbef1dec458b229eba83d75fa35f9f943a07601d7847f2b9b8ba7e68310464f54fff6fe6dd9f00781e4d7f4cc24c90c35b7e5fad675f1846200009b565b6200881c6133e08801357f24fb3c54790d248bf2491b410418f991ce1d267e77b64f4f782ddaafdde801137f28c6688e81a136be91ecf1b64fec9d37d46a03db78af86817e9cfed89d325bcf846200009b565b6200886f6134008801357f1b9609ce81f0b98817681cee76cced69cf01dd406878a191752ac4feffa36e6c7f0c96b2fa85621398b0f86891365e7d0acae9a73095ff3d7c6c11dd2a71c1649b846200009b565b620088c26134208801357f1ba02b3fc4f15fcf3959ac61f9ee041c5aba26aec2b4cbd24472ff5cf0ce38917f25d928873cd0bd8b6f817799c0c589434ca1106bc45dea872a2d47b26f28ce38846200009b565b620089156134408801357f0abbc16ab3b6ad99d4d8a0a3d4b4f536763f5832d5aa8a9be9a7fc7bbd8f88107f0ed1e4e55f650e1088e6261af8725fc5f08f937530a258893f471dec0d565363846200009b565b620089686134608801357f1c4375cd899501b426062eefe9dcf7092bcb9b3aed9883f86d90533737b89dd07f1d8c5379fcde4175aa14d4381b43776c2ff0a2e82a2680afea15093b310b210e846200009b565b620089bb6134808801357f02a0e9faa2797ed3ad14b8407bff100b9b93117f2fe2f20eb5e951c6e3d5a8087f1cf5836e351bb13dfe0449c0843b84ef60b00361a375ea1d52b52cf8f0d2fcf9846200009b565b62008a0e6134a08801357f17566c9328dceb083823636335228a5901655ee0cc449976ec060e2082e624867f16a5d8bb6c14be9fc4ff39d6a44d8f258b46ae60fa8945322b5b6f408d2f67a3846200009b565b62008a616134c08801357f0cedbd917fb2a9e62084820b7d4a24c341b5d8adf97332e1800e219d4b98db7f7f2b7712775f00d9d5c6e0519de3af59873771dcad0a4627d9339c90ba32a4fe00846200009b565b62008ab46134e08801357f1af262c48b22ac05a260510dffd5bb01c18cb0b4758ae9a2bb497235acbb53b77f244372c1cfe620e3874d21a62ae34c0089a3aba04cff9d30242ac8caa974a8a0846200009b565b62008b076135008801357f2459932027ace7893434860de59827bbcb7dad015dcc4c32de85a7726296fcf37f2ea6b6ecd688119ace3e30322655a3c91c50b82bf0b63e1a7457de0677231988846200009b565b62008b5a6135208801357f13a1469b337205339a4a794eda8fb0b1ef019b4e2fede259dcbab70c6760543c7f22abe24c6e2be43d2287b49cf913ae14dc398afe6359c3c6c8fe0ecc40137d00846200009b565b62008bad6135408801357f09d77dca56d2ad78bf349bbefc9a3e203eb32a7356ef1db74569ec990e9ef1b67f05d9e2d7cc033a22d0eda536822e09221359437c71dd982b258bbbab8ef28f23846200009b565b62008c006135608801357f0e82c19c8ca462ae268706b7b5b01a96670ceefc2937ed474e46473dd1b213e87f10778be3904dd45f2303c5ba1b2c0d00c3678bafc1ecf4ef0571315f8125e99a846200009b565b62008c536135808801357f07d9f154dd60a388c52a7b232a1c762a4927b4577d77401fb2f3f76599a861c17f1906cfa3200480c42773873b44d9dff3eb331cd4fefc057459e83c2b4752caef846200009b565b62008ca66135a08801357f1fcd631a39ea9c1ac7dd3680c0cda2e311b74edbb99911f28881ed5b9fef17d97f2feec22cd272982b2a7e29b8ffc3ce246a214f72ddba779a8b6752037dafe2a5846200009b565b62008cf96135c08801357f17ff3934f19d4bbfe744536b346f0c49fef8a2510f9a5b7483042a4c76192d3d7f26939192c4b1fbe7d9c7aeb1c1387beb4233b8ebde58c274fefc83701a4c9ae2846200009b565b62008d4c6135e08801357f04a335d2d1d9374d5eccd9cfbeda48a3628141b8dfc54fa60fe2378bc84c698d7f261873ef9e8fe8befa16048736fb8a1ef509eefa5588bfb1ce60b62d274b7f7a846200009b565b62008d9f6136008801357f100c46c5ea55bd1fe5f660c473090528f5bf0db4550260ad8f0356315a12cb137f234a84cfbf859581371112318f62f67d6d6c3e7dd08bc24791f6eb16b97acb2a846200009b565b62008df26136208801357f010730498700210ab501b86877714a5a5a5d8324cbcd51f38bf51e02379c7fbe7f0d0c0a2f091fe9a1e8698306949120797dfb38cb88e935497edc1f1d1c80c8bc846200009b565b62008e456136408801357f0e360a45683af570c9bda3f875c2f9a2ec3f5e39b00ddcaf0c40a8a52dbfeca77f02d8b9a979418dc08d8b18ae05a2690d5934a5b68d95ebf290df4b339215f367846200009b565b62008e986136608801357f0c211806d58b0acf17a3be5f424607e07e8d485a169fdbbf9081254680087cf07f2c6cd4fc29d295d6d133b184574d0c031d6868df337dd0fa5dec539b3d1b7486846200009b565b62008eeb6136808801357f160db4374b284e3de211bc13978b3c33ffd79453e5d4b8dfce8e64c2c266dad67f27c810668488482f642d3fca3525865312a105283cd9d65a95d5f6f550dd9aa9846200009b565b62008f3e6136a08801357f1a698e2f92bb4af47551366ddfec3c8428d5940d2d37766eb82352ee2d8df4547f0321855bcae72d4f1635de22e603a4b314d6618671ae00bbfcb5c0964d8d5ec9846200009b565b62008f916136c08801357f06257c7245c1265460737bd77875e633b5c8e0c8a1c7177d0cab3080b4b032ac7f0fd2bd61bee5ab0e24d402ddfb3198ffbc9198c662db80189f99972a65696c51846200009b565b62008fe46136e08801357f1452be887fbd4b1f6e0dbbd18411b169c563b3d5e4ef9226f47e63f93fd5aa187f2c7bb403abbdb6e589ae4598e2051c132c2c51bcd38637eca26275423f315fd8846200009b565b620090376137008801357f23644651f08cc35458d5c0e90030412dbb0bcfc8d83d35c8b027b6e2d53399577f03593804f189ab8d1124dc1e17961d7392c0cf4920ac282756d64e0bcb0ae2db846200009b565b6200908a6137208801357f28ec47a94635897b9c222d5ee94fe50ef492927ef0e7269403ec6fafbab6154e7f1467b149d19aee03ce2938fd6c188cfcc0efe41e5ff2db3e08ae59c24c0ed5eb846200009b565b620090dd6137408801357f06527ce3fc73ae166b6d4a2c4516710d29f2066e4134c1aad69bd33155f867b77f0c9f7235d5a96976df33deb3d3bf0c9614c79d33aa3db4245c7673e1b97c803f846200009b565b620091306137608801357f07b945a61fc0a94dbe187badfad6deb089ce18e61329f821c1a68698a75412ae7f1d8322946c2247ef571521d074f89a7bc06734661f0ca30822840632942579f5846200009b565b620091836137808801357f03ff91ed31445b2cc8826bca2adb3cc32b2a107ece4b339c52a958dc8679818d7f196fac6f1cf0a42660ee241bccdcc7e90bb11e86fa5cd07c25dfa2d29106eeb9846200009b565b620091d66137a08801357f088641d1c6205829bedaafef9ee77ab92fa9304f19cfaad9906dbdc98f1331317f0d6118f5b297d5f8f944f6ad891ff07890663eb4acd533b94ffcb7aac30c185e846200009b565b620092296137c08801357f08c58352189ae0a083c2e82928fea64b8ef38829503932a3f0fd5a419094602a7f103c0b0f53d230f000e82868bebef42df3d73a935f9e48672a9d589d425b4ea0846200009b565b6200927c6137e08801357f0292bc07f7365753e4bf6d7301cc5d760e2b66040cae2571f0cd18972ddfe6b57f1fde8960f887d37c3e6c5cc5114c3a2d4a02e2beda2adfa5decc726abc5a030c846200009b565b620092cf6138008801357f1bace7934063023d0f783b6343ee67b9c328067a856f19f1876e4d176c2752f67f23f74e6f241c5a6d641ffd45c1db1a41eb613f0beb70454a48fe2dd84f9977d6846200009b565b620093226138208801357f22b5167f481ef0065b1ce6198fa63b044310e68bda0eb85e038004a6c9bfbbfd7f12b889320eb69ad1a3c24e9f7605ed383ee2f2d017f6ca750c79fab679ab2b15846200009b565b620093756138408801357f0b3d1bd46f832b38546156b76baa5e3d8e3232d5a1d155b764e921d826476ff27f184f35fceb3b13579e164df7e0fe4b1b85279e48cfe962d7c3fcf13f448bafae846200009b565b620093c86138608801357f2891c66df42865654973e62766e3e17b55f5fae4b4a9e1278634d9288bcb5b4d7f1f911284ee7326ee3718b56f9102f7dfcc63ec02821692416058a4a86a6ccd99846200009b565b6200941b6138808801357f10a61f68d8469d5ce203d7b02f95f97578135e06ac78835d5bee0a403a05b3017f2e38ff1b61f807e533d09b9e626e7e1dff45670c2635f9c1231dc6442b3e0a7c846200009b565b6200946e6138a08801357f0a9f93bc5bcc5526b6e2be6df02251f76926dc3c2dc0abfa4a75968830d33e007f281f3feca04772f6b7098a5ab807c4f0d608ab0f02b13dcfcba6a739a6d965f8846200009b565b620094c16138c08801357f020b95f2e36b4f70a2a6b79b68ef4e8ec43eff2bfa0fda6ca645c2f482ef33747f24803e8ec05f4436f1ca98b08a45f29afb81f11b5075262d7eb53475799affba846200009b565b620095146138e08801357f1ce006533cf60b7f13d2bb659e2e0a95c289917836b40cbc7cba09da4febd1df7f19e3c0884f1263a6dbb5f80c6e56755dfff2e1557e10b72eef5e368ea18054f0846200009b565b620095676139008801357f0cc1d3320c177379b1426328a349705971cb7c375c626bd8394e3c6cbd7400517f0ee5e567f03c2e25cd4d8d9b36894b9651a3a1dcf683ef358c6d7abeee9600c0846200009b565b620095ba6139208801357f142ee76bf0378d16aee64c0afcd15d0c9f9f9bef966719465251ef73353921577f1cc67b1379c68acdc3eda8ae38de359f6d21928ce8e6adf7364a29282979c111846200009b565b6200960d6139408801357f2f26fd11c40198c5fe322d48efca53844ab37813d9d6a573402dbb21700993257f0aedb973d851548f1296e4c9c1b57b521b6f9ca83dbc4748a873e9bd4aa9cc69846200009b565b620096606139608801357f0b89c755361dec54e69ff301bb24081b722805fef2c591a53c86809d4ca430607f17766262841c7357763f046f4456b16cd9a1e0706810bf37042eddd2c619599d846200009b565b620096b36139808801357f01bfa35b07e26c552693eb6ed2e0258f90a7c05d4626348713906f593467324b7f28dd01eb3655830155d900d059f6b0bc5dcb236e98b867933ade5f50144245d2846200009b565b620097066139a08801357f1bb757bff8ffd2f2f44612c2b9dec9d004d3b1c995da8551e7ad1b12c52505687f1962c70208464ff0d512931b9cf39a7da68597e2efa69514cbe94282c7b94343846200009b565b620097596139c08801357f29d887eb2bebe7efc3d0f63f53d1157b4eb0270b4c13c0acb907e9b7367951587f2fd5583cfa295746afc8871f4b5b48907145b036ce679f039f34d674b1dc0b1d846200009b565b620097ac6139e08801357f117f0d25af09b425f2fb8b03dfee25b6e968b84ecb7d4389649bbc445906da467f0fb748695862c87602ca351cc2b5ce09abf159ff916797455b61bfa46c91cc71846200009b565b620097ff613a008801357f11207e9b1cd72055a0922be5e4a5130ffa2037ab754a9444fa305923f7397de17f01bd1b0362d45a5af76cf96f07e4faaaa5063081d6f8048c663e9c3c89914312846200009b565b62009852613a208801357f09a3d74d94010ce89cba7ec3314d8c5a8b52b92b7c8bcdca694b49d845c4680b7f0e2b776dd02ded5346dba210a33c2f986cb58cc4f2a07b60f3461318b72f7476846200009b565b620098a5613a408801357f237ba0d696874b8ddfa6cd95219bd765259164e8526a69312ddc2b5b3057af287f13336bcf4d65f11b1391b4351739b9cba0fce249d7e9324c83b18d7c24b2f0bb846200009b565b620098f8613a608801357f2a597d18927df926d8c835c65e2cb8ae61c726b9eaf4f58077a224e812c6d9947f2472c16cea08698f31acb14a35108f3bdefb438c3e9f694df726dbf56830e952846200009b565b6200994b613a808801357f23435d9ec8b86ba396320ad06eb953b8ba16c6551236517b04bea4b3435877917f3049f69f66795c6041f4188baaa5a0004b08ac98268ba2b0b47cc71b5168b6fa846200009b565b6200999e613aa08801357f22d27e8eea4b517b98f59651f1005f61617298c6e32d064039a6c6c551a9b0807f1f19394f74917aa6b70eda7d04f776011053c7a7a98341619cb23d9e63ab8ed3846200009b565b620099f1613ac08801357f149c739430721ef5f40e4fb9b6e42792eae2aaf7f406d819b4e0733598946a3d7f12b83fc75acd0aec53bac7942d237f79e8c789ac9e2c1ce7165e2636f3bbee76846200009b565b62009a44613ae08801357f213a266f20ab6f9640cc8e326eb3e39c8eee8bd478187521e4462222d826e95d7f20c301991019202adaa613a9221772a2339f1581b1b8305c8f90726568a47662846200009b565b62009a97613b008801357f027e8c0eca96423e7a34069a7dddbd03e529b8d3773889c8656beee11330da507f0141c1e9b6b76cee62f18ea7cdfebba09ce7153e0394a1e4f30af8e445df111b846200009b565b62009aea613b208801357f0f502a3e24bcfd5c404392936f22803127574415da2597d91d4ba5d19183751b7f18dc23ecb33cb3e49279fa6e1c7390560153016a0d8e2c30e6e1682d7f35a3ae846200009b565b62009b3d613b408801357f06f3fcfc52438686dd757fa6d019d51e147cef57ba39d55dd234be0b43b41e747f1294b2a6b8f63349211333374e355bf39b645e8ad64a8483a1640a5a5ef3c435846200009b565b62009b90613b608801357f1ca0e911aaf1be4fe566425fdc0bc6d334699d4e5b61240c4b28cfc4edc114e97f0993cdca4e1778278e75edcf7a02e24212d74a24c18460c73aa670b9b74d62ba846200009b565b62009be3613b808801357f2e9f07da8f31b3eaaa4fa5b1f20088696132ea8996f93505b2f4bdfff1200b887f2433dff2335523a6903557c0a8a369a0d9d040bfcb53ce2b98aed094ee0e3d83846200009b565b62009c36613ba08801357f127c36f6d7f047292d251d031cc0c4d17c57c92a5cf50ae7b5ea8a055cb101f17f27263baabd7aca875636194842857554d8e542e9582ea957220cd298344e8ac7846200009b565b62009c89613bc08801357f1c47133f73cd44738f65551dfcbdba8929d17ab38701fe5ef21caaa00db97d5a7f0d21319dba734706767826aeb4e6d1baac6eff40989e63863daccd7725d99821846200009b565b62009cdc613be08801357f2fe82efb8011be3b1d8477a4ffd5642a81bda5b74758b5f0e8e07b17160fa7677f1304a8d1880cea1104f2ab3f966e534ad30bfff31cdb78e0aa2fdf625c2e7110846200009b565b62009d2f613c008801357f2ab8e6d20ee1063275397bacd8c61ffccc298b19190938869238362f3e71d92b7f0110ae26a073ed9f8231e4d3f3f2bee89a1381787dda992e9f7fbdb39271186f846200009b565b62009d82613c208801357f1ad96bd79f53035f8682dd4cd8db4e8cfb3a1bc90bde538abc128e2aa5e898917f206f3b5c2563e5151ace077cb43da2f899588ebfbebe8476ff556755b7e0037e846200009b565b62009dd5613c408801357f0986ff230759fc646b82f45479abd248038d02e1b42498e6124c825ebfff37197f03773e240903e464f4adbc1b78db8a13bb7fd011ccf80b42e1e5b34d00774029846200009b565b62009e28613c608801357f14afa16d97fc8ee0c5567fc9253bea3876cfb76f4d4f4ad6b2a0c8580bc7eff27f235fe24470552986950bfe8b49ecb45a86bf12520c4fbd58fb2acbb8eea3bc21846200009b565b62009e7b613c808801357f156d1e849c9a8d078f3006d335bdc3594065685191a00b83a9dce86cf8e359537f2a0a26a30c0f68d467887743fae06824fec9c82ee2fcc66508b78110b68ce74e846200009b565b62009ece613ca08801357f29d2ef6f017cd9fc619503d980acb386d175f3d50dd5244609fec57182d99b6a7f076d80e7abe4f12b53864d12f1324b3b233e381f71c8db2594f82f703aa00886846200009b565b62009f21613cc08801357f0ee12de883b271d1cf83681d67c90dfa96a385bf6c9c7e9d8a067c49f74fc6ae7f0f48d9357ce57936320288bc7a1e2e33d918a7977a246225e38528408138ef85846200009b565b62009f74613ce08801357f2e60db38bb822e8a86f500dd80655509e8453ca6affa9091dc0e15c44f79d7e27f0b01ca0da838ca38afb6034c71644dc68f838026fa86a97372107a34c7f36a28846200009b565b62009fc7613d008801357f2c4bfc12eb9601aa9e1b5fec7c3894c0125b7eaed0b7d0efaf8938436be143a17f0104c814154ba91f97657212bf8001eb4b5fac1789565cdb16db84d1437e66f4846200009b565b6200a01a613d208801357f02d1807c31105966857d136bdcc5659b902d963f4d38f5d7202c59050ec4c2bd7f2bd40ebe01c702732703b4d5c266c9241e62c909e83a800bba0584d03e1e469e846200009b565b6200a06d613d408801357f1c3c63ed4ac794ea49d4556afba81bd5afc790319e03c40878d8ed7ca1091ea47f085435ee357e07e0cbf37cbe28856bc0f7515efd05adf48122722650cb40039d846200009b565b6200a0c0613d608801357f03760cc276275469ef9830b5da643ba9dc5a4d8ebda5ee41363a5e377fe6b8717f0e4d4131d1ffe192178c80fcaa5dbe372341382094a661e15f4dbc63e046686f846200009b565b6200a113613d808801357f045d9c74d1b711dae419544d592372a70618a3376e62b2bf5b8ab9935bcb38db7f01bbbd1de9fb82ab8df431e164430bb99a28b2c02752cf6fa34839ca04c26dea846200009b565b6200a165613da08801357ebec8384a6d9c01731e1928cba8d17a674ac6b53261ab9f71c30827e51710817f1df9b625b8d63d839fd69fb2c6288eec390575a8372eea2206b0b8891b1e193c846200009b565b6200a1b8613dc08801357f2a4962d1047eb0d8437ef7c7352b0b473ed6967fbd67aa180b82c701e4c383557f025009c67378de5d54b57ef51bd550ce8c702990d8760d87cc8ba68a27ac164c846200009b565b6200a20b613de08801357f18b3579f595a8c096d79f55fc1778374c4eff22c03130d0412fdf69c9d1f10a17f0a1b9339fca8c3bb166aac3c02a3d25eead062c6e0c5eea4315845bc595e99fb846200009b565b6200a25e613e008801357f2a1c6f736a6b8ebc6a2a165718d371a6ea00adccb44c7bedbc7143df09a463a47f2d4b13f37e4d5589914d1b35a374c5dda29d03b55cb72ba003962601be5684c5846200009b565b6200a2b1613e208801357f11ebf22d3fb10b441eda63e14ac0b4466ca1d83b48508aa2b063af524f5df70f7f0c349e36cf8140df2e3e3e56d4aa8f69dde03d10d7b8b956babd26690bd39429846200009b565b6200a304613e408801357f06ece19020828da53977c8881b0f22957d21480f8ce55fadc727088ca705c5397f2ee24ee04f493995d8bea4da80a30e36d6f5c0a6f85451a22b210bf8b10ea66b846200009b565b6200a357613e608801357f021d26890dd8372af5774dd641a82d502d50d6efd4b16452f3ef3dac93d3aae67f27a1eeac74b0432ffe82cb99a03669618e490e62f9e3f5fc05d3aa7d22efe27b846200009b565b6200a3aa613e808801357f04f3329a621982915b52dabbb9669d4062d42f4af4e43f2135a1704062e0c8497f0de59cc5ec1a7ba9579e6ea959d66ab5b4a7e375eea27013368ac518374e4ed4846200009b565b6200a3fd613ea08801357f052987a5df80b7140c09197e5a2f6aae47345c3d361fc33a4bf4580bf405f63c7f13c64e6fdcd3e7eab2e58db01240305a202e01c43ba9324d11aac5223c49a7d6846200009b565b6200a450613ec08801357f0394ac2938e91ca715a07f8b90dfb576ba5c2f9dcb198a2e8357724ba2faee577f0db19dc3d0a3fe27903934ac8df619f0602bce3bfee6dbccf8c0a72a9becd38a846200009b565b6200a4a3613ee08801357f1173baad46965c618589c2f3e6b4cb8ad523c765906224c928c03e0ca6fecfb07f23983bdb86cb2d2e805a3d292d31edd674c7cec0d5a53fc91e11dd04a1d9a79a846200009b565b6200a4f6613f008801357f021ef06e491eeec7688f8b0db1ad3a6f4a4881cd6650a47fb406aae9a80b83987f0c42ee2328cb0badeca075d0732cae80ab18dae1765f446e6dfe4430c7550f9c846200009b565b6200a549613f208801357f1b71d58753634b6ef32ef4a1e8b7015962ca8d43e82380e26b624a5b9a00e6ac7f07cc26112ae3fbd4f025aad05ef331e3ace77f8128c07a079f803bf3ab8dc92c846200009b565b6200a59c613f408801357f19f908dff4fd0d545cd83904eedb08fcaede797cdf99d129aad0fb7b39a6587e7f044208e6292259d9f7c48390b7ce8b8aa0b0a8abbb86001be7419c8aee34eadc846200009b565b6200a5ef613f608801357f1a9ccb8098d9e59df9032e5f1564b04b4a391673a45b14e24356b5ae0cdb80a77f1e795f74c455874b79e7bd203ed480b9d55931f7b393f1a48501fe955b62f954846200009b565b6200a641613f808801357e9973f03189cc3b4bfca31fcd3a8977a485840dd8d96e65868cde068a592dd07f14295cdfc60a77d0fd747eead82e4e8c6e16efe6404b7879fd4cda3f88274bc2846200009b565b6200a694613fa08801357f2f12f3bbd73dd670e247aa50b180c51778adc46b7eaccacf041fea30d43abdf87f0251e54247633f90f3a7f5fbeb31ae78eaad46a6178a71384480c557194b2316846200009b565b6200a6e7613fc08801357f12d48ff1ed650294057b58e09b09b3392727edb49f45d563e64ced2ab108ce3c7f04377cc5d19dbe5a744a1168bc7de4a55a0a391587554e6d9913824dea40e612846200009b565b6200a73a613fe08801357f018208cac84448069a39b51648bc4947abd3f93df1fc43605c10bcea5250681b7f1f590be3c1db92966f1655e995db39f41aef5ac66c9fa35c284df4bde15d3f81846200009b565b6200a78d6140008801357f0a2c27e7f309b8e374849b32951897f93abc0e10a8374b54fd8daec87f17b79c7f128f65a0f4052b16312a1cfec34738be6510ef8c8a9b79d6191bfd470baa2116846200009b565b6200a7e06140208801357f0b194d173ef6aac2069b22396db20d4bff9ac8b34dc4c23a553b267a2a1307dc7f044d6f3263b34579451d48c7c27ebe1f6178d383eb497a182fd26ba2b940e9ee846200009b565b6200a8336140408801357f03d7e62d557d44976775f53210eeacf08be1853a16c19fe373477bc252f490d87f2a0a195d9710eb12ccd1e675e5d6454784fbf19c52014d31a101e305a201e6d2846200009b565b6200a8866140608801357f181311bd8311031dd7d37260003c2dcf4bad26d947ce8d3e3015fcdd205adc817f273ea451949b58a3ea7b3442e6ac131383ec33fc9e4bbe056d0a9a5aad68d450846200009b565b6200a8d96140808801357f271880d7a8f916f40bc583763f57ad1f7edbc4b232d1f59317166a991ad041327f2d79b1914a4902aa5adecfd2d86151286d6a11362d14229bc6ca0bbfba44b73f846200009b565b6200a92c6140a08801357f0789ec52c3f8c1b720f7cb07c8a8460c14b9e04a64abad85d26bcdd2971fab807f145045c9888cd843111a6749a791ba31b81ceee699402a08607db4a5486ad056846200009b565b6200a97f6140c08801357f29f3cdc52e6c9a7b71c0be08c16fa8a7cb998e6c49f1b7f1b854c918f58795607f242078e9750c34f94e86743fcdcfb970ddabf787ab7572ac4524cb7d860dd7cd846200009b565b6200a9d26140e08801357f2dfbc1250898241ca681d9c6ffcd0d625eb81cc8a26b54acdac90af2a5858c877f226803100d131fdebbb170229fedd3b1d472693d1921542af4d8a1a7f2d31824846200009b565b6200aa256141008801357f1eebfb1bb5b9611d82526cf84fa2bfbd0c4f4d3c8f8129918413e53bea54cc4a7f2e8726111f1a29af238c3e8c5b1f43f188828f1c9a29ad04a723db020a00b2aa846200009b565b6200aa786141208801357f0b5e023ffbaa5051fa2342b970d19d2a1acda851e9578ab8d9552cd957657e9c7f2f4b0ea651343a2d8a12d5892b9177aab85f5cfd849837dc2cf5d4bcba1a2737846200009b565b6200aacb6141408801357f19c012199903d3fd1768218a255be7beb6d237b9a266eb8aa4d998e1a9a81ae27f1073d8bb000a7a744e61d7ac125a10e855186eb0c936a3b1debe3a3c6de82b52846200009b565b6200ab1e6141608801357f05a4f02da62fd3f64a17e39d56322f5a315d981c4d2d1b8d5b711f14593c2b1a7f0ced5f67b9557aa2b1767ecdf386364259795e07f463a41b31ccad91474b2dea846200009b565b6200ab716141808801357f0a62413b09654d347e35928968bd28d5210e2850bf0052fa1439c97bf9e414a27f10947c4607e218201eec994408abd52f124808610be2f2212b38e738b9b31a30846200009b565b6200abc46141a08801357f15ae23c42f62a2fa62d0b1aff81f5e60fc1b5f940351fa13136208c9a495679c7f0ea6f9eafd54971e7a3895a426a75a054dddc61671e9b8d47a30a60518e87a2c846200009b565b6200ac176141c08801357f21896a4119bb1263766ea2de150123ab235a4eb5532848e2c93d1b3be0d0fd927f0659a95f18de138b6a14bf318daca2c939a220fd9e610b324a9dd21d33b1237d846200009b565b6200ac6a6141e08801357f0bcc87d46bc1966d3025795b25fc8bfd85528805423f844acf79a81aebc7311f7f1df0e1195890a6435cd39f61ea00fae0e80d84eaf97ad4a1427aaa866a10375f846200009b565b6200acbd6142008801357f04f2c3444d6ea6a6ae66bf2833904700d2c00e58a38b7c7ffcadf3cc9280bd937f09b0ca43c1d651159bdd84fcf17f66112d591c8d8b92b10112350c197cd56f4c846200009b565b6200ad0f6142208801357e46bbf6e8a6786f07c6d3737e60614f815caa1ab134f4776b979486a50275bd7f2e2eb48ff3d5c1cef76dac7441991d948fc6f33b01277856be4855e2c7892cf4846200009b565b6200ad626142408801357f1f81ca48ecc3608695e612a1208ec1756d74538827c172580fd34fe6e2b8cd047f2acbc835fa1d6e4037568423f367a08c281919b0994cc876d5041e77d1ca71d8846200009b565b6200adb56142608801357f06311a762dc9c93503d9855249b54b9e6698bf6c5aeed93d77f575d27e60ef317f0d26ae13c464f46de8f51295cab9ed8f28f97650cb0d4348c416f37ef3aad780846200009b565b6200ae086142808801357f295e50b8a56bce58f2244606d87ff3f34a7ef63aaf4d76db137940b8003857357f2154a33ad4beaa77a5f15fe05bbc102cff524066c1083b9e586f9d8dc3325480846200009b565b6200ae5b6142a08801357f20f12c9d1104b64d94f30d94a6682081179176c56e885de958ccb5d29116640d7f01cb20a1b33f3e5bd48a98a2880d5c45363a1a8667a3141acf6ec2bdebdc5f62846200009b565b6200aeae6142c08801357f0cf752abfbd067067b5275d7c093b2f0c01d4281cafaa37a67fdb3e51d5b063d7f0510a7407424011dbff4a8adafca0eadf9f7fadc5bacde583e92f8a99638f3c2846200009b565b6200af016142e08801357f21c4afc739b7e6f7bb774fdafaef06baa43034d51696485450ac95211a85f48a7f0e6d83721d913ead3de573f8dc3ec0343daf400722bc48a0ca1565d2750a0283846200009b565b6200af546143008801357f26012dfc8c40274016b7d596fab93c4d07a3d2232d1071179f10d74b4aeb778a7f0a8350e24fcaa38c47c3db10566f7007bd941347d58a294c14163a76fa10e1a9846200009b565b6200afa76143208801357f1626ae1dacf1e154b641311d42063adf3279a9a1b8fbaa207a0a014fb28437717f1d79117a3a24f34516643745aee8786e3b98f742de2902d3baba241dd007e66d846200009b565b6200affa6143408801357f21384ccf0eb1451a2bb4a3906c2115889aa5029699181617ab64ca65abd85af67f0ff1cdff64c9e44d80c34acb8ed0399343421a73a5d683a65471530a85b3fdd3846200009b565b6200b04d6143608801357f04696d1d7947458ab33b9ab1c6f2511bdd7692b519f8ec7b25458ec4a02d0f057f2e466cd24fac6cfa15750921f92388eb91de52e5154962e411468ca0f747e902846200009b565b6200b09f6143808801357f20893fc941b76f5eb67926b62daf28220ead176e89dacc8ed0f16bffa5eff79c7e95c542124fce95fb361269d48e00bb2fcb4930ec3a0ddd3eb65f842666e875846200009b565b6200b0f26143a08801357f0132f69ef83b76f7fbe48fad63b2819e476c107e04c747a6d3e44529cc11644e7f246138c0b34d7b9dc38190d6813bc5a2b0a8812797622e4a6cbdbac4f3eab406846200009b565b6200b1456143c08801357f0c2258f4da744892a27d50add1cf461b81bda2541621c8cc5c2bdb7028d4a7b17f241622f7492e4cc0481c32dafcea9e81a8476d8600bc8ceba146d54b800da18b846200009b565b6200b1986143e08801357f11009cd21bd7f303ff4e06fd9b78e428026d0e8f83a70fa553fe36d7988622487f063bd78aa560dda871d206ec61d6d95b416cd7c4e80503cb97d4a7fe55bf5335846200009b565b6200b1eb6144008801357f0a33a28123ee1ab0cf83708b09ba8eb28ccd019be06fc75587e870d82ad27ec37f0e6ed5644a619daf68b7b0fb17b5d192836de5b29de8705563b5904cea1c629b846200009b565b6200b23e6144208801357f28de48e421aefa1f188c2121850a2703a1651b9ffd12c9bb78bd6477672fa3ed7f159d4a0fe8e77815fb2b1f491d2c95833a5eebf4db23e53852c4e5965297b9cb846200009b565b6200b2916144408801357f1be17fd2a214f220d2b6f9e6ebb00620a0bc52b775ac5f2c1dc86f1fd7b752bf7f215e26592757ff77ec20ff9774ca805c354d895e4f2827d9d278e350d87163b4846200009b565b6200b2e46144608801357f237490ed25f819812c988b6a8ec194255a44a4474b03ba024c69c0546a3ff2df7f19dcb63066f4aa1e6a3c659c1ead702d2e4293a1a617a388a90dfd7e43abe780846200009b565b6200b3376144808801357f259bc68d6405c779562133b70284eee9efd8498867946681739a9d682f3960537f1022498641ebe7e2e7747545461c6fd6a1d05f5cb0eae5eafa555b9b39b6072f846200009b565b6200b38a6144a08801357f2ed179986bd42747ed1f20c1aae819f5ada5b1cceca8153ad28aaf5d38f972677f1d17efa4d894a3f029aea326362646f224e257f70f4e448d2cadb33e0cf23993846200009b565b6200b3dd6144c08801357f3040de7ac9e1ac215a3a2bbea87576778bd8163c78922ca6bbe841a6f4c2bc957f2d21cc89d771c2d1634d9cfc2efd188f44b13c13e6383338ea90146741e1e84b846200009b565b6200b4306144e08801357f0b45b08f37b844f20246cf754e6208b0c05a81f213d7866153a7b98dd9e018f17f15341fbf29f1e4acef375a0ff6e5a5f4866da02bdcb15e47e710d37d34709d24846200009b565b6200b4836145008801357f1a9ed526bf3dbb8e8c033cedd15d12d868f425b7aa571c1c883a27b501322a9a7f04273e45f68bea09a73d9c51c2e5a1495fbb1ed552673839194df5cda8413465846200009b565b6200b4d66145208801357f0f910e7d85c4acf9b31a842cad74e401fd497415a96c6cd11e7cbb86c090f1da7f221c723afa55fc6035ef060bd5f21bf4865b5e6ed128aaeca98ecff7cc6e9a3d846200009b565b6200b5296145408801357f0136ae8cd42acd4a90a2b7a5fbd148937ddb7b77a4f8ce50f223556b24a2f7347f2c9332c5cc59c8feb9a8638960ad131f41f5afedd7725632d2b55ff614e79ee1846200009b565b6200b57c6145608801357f18af53e3945d7a5945cc31466af42cfb62a2a35a79ec185cb9d57160535f2e2a7f1b4aed66f0ddef08b2cc6009eba11748443cda83ec1efd0763e45fa3defec6fb846200009b565b6200b5cf6145808801357f1c125ec69e7b5b16868edbfc1f918ab277ceff90bcc07696f8ef201f4f29d0797f27ad70f37fab00c1c004d1b3d94aecdd76c9260842f8b9290e318f606d418832846200009b565b6200b6226145a08801357f277c52c41c95413f1f415d0c0e297bb264084412444d9d0ea87bf1f6d6dc1cb67f06538b9b1bc7096c8c3b75e88dce4ad6e83c43d2bd3d69d93058fd0712996445846200009b565b6200b6756145c08801357f267a1e70a496ee1b9715bf7db0ee27274b77a3f23a64e7a9530e7d3b6e0b69e17f2f27fa134c396a80ccc794ee3c89050b00d1fdabdf2a97143f239db76e266879846200009b565b6200b6c86145e08801357f0a583e44588d238f577b307f339e2d7dbd2e66d6bc03854c8874fc4f378ee0d47f0544d550b5e6aa161dd94ae10cf85f97258099494f16ce184b7e9b65662ab647846200009b565b6200b71b6146008801357f20de1a623dcb6fa7f28d0fcd320bae0af11006a440cbacfd17df2867a68808957f18c6d1c0061370fc5db64595af5785c40d49c84ae8dba548176f9958121c4c3b846200009b565b6200b76e6146208801357f146840690de60b851bb41c1bbb049d7f2fa40430ed79b1823091d61ad97390197f21ef931b6c92ac71bf432d5282e4d95ef8092f470e06fede2cb335837201bc9c846200009b565b6200b7c16146408801357f1cc3279b54041b1a500ba04b5482e114d2209f06b6e0c2117596c2bb6ec9efb17f189abbb837a27cada2c0341ce764da634177808d1bb370cfe63933ef65d89b10846200009b565b6200b8146146608801357f08f939d708707364700ef38f0b75e17d458817619db99c6ce203600477f5c51b7f26991d9aec780882775b254bd91f6219c79b6725cc597eaa808034fd7fcf93fe846200009b565b6200b8676146808801357f0288c5946ec8be1f7cb3842a0bb2393949d9eb1ff9227ab39f60091f29050a107f07cd9c241ed6a1e0eb94fcc99340d45865a3df05d93b9eee5d5e1af819cc4aa0846200009b565b6200b8ba6146a08801357f08df3bef5636aa5935bc21687f389c902f4156c04577b2eedb9ce968606da13d7f1b36509049d3cd87a297469c0a8bbee40a42f6181f3cf4973c46fa2980d203e9846200009b565b6200b90d6146c08801357f01e2c7be9aa16cb123158e21c0ddf7f4b51b74d0acd69ea431afad4f9b39568b7f19e419d3d851a2d79c758195a9331341b6b9156bed37238743e9089afeee3c31846200009b565b6200b9606146e08801357f262b782f9f14e0db7657b944209f4ecacdc18968e25bc6da4be4903b7563b9f27f1903d150bff72c5139aefbb1b187e44a09bafb467c7fdaa3d21648b9334128ff846200009b565b6200b9b36147008801357f2257e2bf794e86001f10968c31c4af09befd4e972187224dc46206529c606be97f2e932cd6afe3c5eb7bd1074a9898ab67d7697ea3f3581e1af9f2a71ea398ff61846200009b565b6200ba066147208801357f24e97654834583c7f77cc2abac2bf00f6ceeda4e623f680aec000f8f54d65f957f113f915433d7677e4eb7f9a7afdea203a559203dd85c53e4e029e54964a34a03846200009b565b6200ba596147408801357f224ec81be6aa401ceb5b1087250f910fc14a0b19e4bd28d2fbb7bb1a9f2b14837f152c528dcba35df4dc4ea0a3a5aa572ff2adf3444bec623b817761ce6bd61172846200009b565b6200baab6147608801357f0bd52354c315943e52db8e9da5bfb9ec6f1922e45f778f65e1e4db83799ee6867e6039edb856d6ca2aa34e97e58336f9df232c122a8a80b5d9560d9fe118080d846200009b565b6200bafe6147808801357f02ae3a5408cb8af70f510f17350b567adc65a1e2e4c3d6351ca56fc3d68098607f268a0b7e49b2c905bfc4f7390fdd0720691d40713f961abc04210aa711e66488846200009b565b6200bb516147a08801357f25b4ff5daa7412949f41f6406d2a34bb31bac58d4bc908157144b0f8118e8fd37f2320cab95d297f5f8c2fae8e81040743ab775dbf2b83698cfc9773b636c8d9ab846200009b565b6200bba46147c08801357f0c42ab3d5e5b43c32b00c51f193dee4181741e8f65e10b7160fa0d63157e92de7f14a5ac83ec8b00a252402e416731b968e16567ef331189a186c3e9f9aea39d94846200009b565b6200bbf76147e08801357f17baf67d5bf0f85c67302c843078adbd37fb4c91fef99fca68d464df377853cd7f0aa8e2c8286ca05bdf33855907498eb7afba49a491b69718f9ac7133c67e5d07846200009b565b6200bc4a6148008801357f207135cda872bc574a2a11d5c78b8b6d5cfa52825d9b62b73d995eb8e68ac19b7f26151840234a2e2d94006f3c19d1642c6cf08e593ccd057d417196c00d3741d4846200009b565b6200bc9d6148208801357f17182d848fae1ad0750f27e4e0c8ca00b8c7b8ab7d2c20168ab35f56242843367f0de35a044e405fa338701ed50fb6deb147da411ab0789cf6934efd337da23e9e846200009b565b6200bcf06148408801357f2c098cf4ea1f16f6f1c0b63ea9bf1998ec3e952bdbd090eff5dc88c9ad998be37f25fcae386ad0f1398d0328502237289a4a76b837cbfd5a36e2a850faf47f7657846200009b565b6200bd436148608801357f06c1635a6da660b4f148d51584e33e1aa5d988c54ee54749e5db6e149c996aac7f11d9fe813f1f8c16b574020e3cc3de424613503176d728feb74751327ea38d36846200009b565b6200bd966148808801357f117c3b05c050e791aa473beff2404f02a8660665a2f7c74d3bf1694b4319ee127f1df95023cd73b807a3465ebe5fe64c61980984baf37be0282a69be4ba1dc5500846200009b565b6200bde96148a08801357f05209a209c5ff7101bdc7844ee103e9adb9658007d5ce189156c0412efe442af7f1027244bf0aed0c1425f3924caaeaba9c9022aaf5142ab492d9f4d02a040a1e8846200009b565b6200be3c6148c08801357f2f0e0a259f57dd4a1dec9942fcd99cf62e355e12d728e73493945ba8dffdf12a7f18c3ddeb809627b0f39b0e99213da5ac31b7f829bcd99ffe60a48dae2918ca54846200009b565b6200be8f6148e08801357f0cd8a891d953f0531cb67d94f2b22213d1a88b4858f453bbddc3cb6ceb1f1b427f0875c6afdda4d132c1298a2a9f13d587ab7a8cb74992a4588eaa51d43807d706846200009b565b6200bee26149008801357f118939e803591f0f6d2dc06262faddf29ff35011248518c80bdd555bcf76eceb7f184157e62b027f3b252dc90c287793342bb7217c652fb076e1b62b055a4ec26e846200009b565b6200bf356149208801357f0914d22bef48f94fffad938a60741d526271a7f4060e7328483e5e183256503d7f2fc99e4b3ec436069503692be405e88bed1138aaf12ce064ab52da03a8dd2f4e846200009b565b6200bf886149408801357f1f9949838ad75ae55c9900643d3ed8c66bcbc20f2677d56b619812e81aca82f67f0d8bab2049e0cbb2e6b6e34a2a45d4f170614d7d333b15fa283a29a2638c2af4846200009b565b6200bfdb6149608801357f1f696abbaecccf30688e6c26009db9b14c7185aa4ccfa08d163aa2fbb3bd4bfd7f275b45ae8f25abbc83118c19951790f558d706d4c205c7dd8b3bc2dbae0b5a22846200009b565b6200c02e6149808801357f20d1e33c605aeac450391cee40e1b906d2916aba6575207f9e1a4e04c083049d7f0a151f929e4d301704aa67db0a03d4eaf6e957719d0e5dd40c4a7fc27c13cfd1846200009b565b6200c0816149a08801357f3010904dd247ca3a89bae484730080879aab0c8c6e31c60bbcd75b2ecc631e2b7f18d8cce5350c02db321d83d135051f570b597c16c60f93cd6b60aa59e50fc0e1846200009b565b6200c0d46149c08801357f22b27c2daba3c2d85be9ecb3fe47ba6a7477aff60a1d63651641989eb1e47c1c7f13ffd15ec5d85bc62a34bda9fd8801b38b1f955f4abaf3a7fe121ca20588286f846200009b565b6200c1266149e08801357f2cffb21d5fad11f1c563885dfa8fab27036de0fc66b9eb329371e1c3eacd32d27e4e4a651137948db2440408c49ea8af9759985f137593b6494e988c025dbf6a846200009b565b6200c179614a008801357f1aeb969535730e247febbd59a1694a908698059742a0efa9b1716a8144af6dfb7f04c66ebc1410212a5a98bd53ad089aa220c8fc629bbc2c5d0b1681a8f425e315846200009b565b6200c1cc614a208801357f0c14bf3cfb665213bd222d02182a7910b2e5910bac2ab91bd99345f8eefd50157f0c0bf73edc247ef8d2a92ce4e6eba77a04b4928cca1e1e9d096f035600ba2451846200009b565b6200c21f614a408801357f09b96e659ffee3b92b0b756a89c5fe76e0a52a34f3488590a9df1c8fe56fe3cd7f06bc8f0f922e72a22bb581ca9ce47b81292bf9fa6f7acd37484793854a2b849c846200009b565b6200c272614a608801357f303a1021d116bb2e8270aa60833dd8da461dfc0cf09569c1b45b82a95ef09b5f7f0bc39afababfebef229023bfb50f233f8d8f690d7bdf5f402a84021ac464c721846200009b565b6200c2c5614a808801357f26f2d2082ac435d414ee94a92b5bd2d3513d76e339946d33f1aea4072a69a3627f0e808b7283400e1f1b4331ea46db6a5cdabf0c1d43b54e269b5e3a2386248ffe846200009b565b6200c318614aa08801357f1e5b4d65a679b760a30ecd2005ce5efd0efb7f5ece7756137e2138237e6657b87f085cb2401210036cb91971f77d187e83af0f970c35db270b85155b5251bbd727846200009b565b6200c36b614ac08801357f24bfcbc6960a12878650bec54db49adb71276bcc823d9043ec307f7fe5d913337f03b7c1b5b058c8874ccba4e20b8c852c2a421fd889fa4e0f01b97fe974fd7c02846200009b565b6200c3be614ae08801357f1db53519d4f5e22468d909cf93c5381a1029f1fcf4c05f54bf045d5b3d02d1ef7f0914ad240c278ebac4d542386bccad3725aa8849f2443662831408975de4f613846200009b565b6200c411614b008801357f0c564daa7db7182e30c4893b1238f22677a77dcc682ea9609cedba88d44815bd7f2cb676e2265f75fab4e1508a5b82c2b8d6e95a064d5fae2864f09740238c9aa1846200009b565b6200c464614b208801357f2a50aa85d28b4d1f7a0ecfacebca6e5f0cd5f4abf3f0ba486d70f8012568ec287f0a852e557b4be523bbe332a10b4c35536c9768e0ee6bdef3b52b2b1aca34fe23846200009b565b6200c4b7614b408801357f1b162b355466e665ad317fcc744fbfd93bddc350c6df1fa1b13d3bd7a147576b7f13b20bd13728e7131c29dcdc8e50dfa64f113842b89db0dae02e24e69320dd38846200009b565b6200c50a614b608801357f1f4f4722dcf246860824530068bc967896800bfc8c4b77ecbf6bb160a4ce3fb17f16a58c0c1a842c283db72732443518fd45b52e7bd038537708cc66ea2e233b90846200009b565b6200c55d614b808801357f292ba51ee52603d0d644048cb89082d72f031fff76c56bd8f8c74cc7d8ec9e5d7f14e253c21692230de67060a471f6185aeee6e27f034298d1002ef9d7370f5b2b846200009b565b6200c5b0614ba08801357f18c68051df31e99adcd74c30a6f8c82e581db0c39fcf967cd0e0c63390ebe2567f2634e2d2413d1129e927367bc525eaffa429a8dc9c652041f13ffd4014c3944d846200009b565b6200c603614bc08801357f11945b42a6e13231e9fecc8b4f7365c03b7bbd1a5bb51f94ba89984c21a2b49b7f10fa8d75df49f80289e077fc62e7cd5dee84f4214be1224b741f9e918243dff4846200009b565b6200c656614be08801357f23f0d031187fb3a4f20d649a453d3b19244a295a53019f47c8adb8a5f936579b7f0892345950e57836c786fa579706c4d02ddb0b6878d36fdd048ba0a6f7387702846200009b565b6200c6a9614c008801357f1fbf90fc7c6073862a9de5f84ca6e75f7870dd171c74895c95c0bb6647575fba7f23112e54f72a6523bdfe370d972aaa98c19f1dae3be113b9a4d19f19a1943bfe846200009b565b6200c6fc614c208801357f27a25284969a43a2679327e6f45c87e8328e0cfb4c2ea57cf7e0de42edb68fe07f0c695704b6b384bb2b52fd28fe917a124a91b465f1709afe4571e4c2931fc286846200009b565b6200c74f614c408801357f0f009aa55347c2308135e588f9dc90d12219c89f17bdaaf98249f3d5882fa6867f1b01f89e88878eccc9519cdc917698f6ba693fbba68ef394b2ce877c54b7ef19846200009b565b6200c7a2614c608801357f05a56abf076ba05f8371f4eee3d7a512bbd56b9857429407d70e46ffee39a8007f08cb6c480aaa2981e9be566eaeb3c9c3f1b5d997d1eae26b0d47aac8bd3e8381846200009b565b6200c7f5614c808801357f1d954ed86089a91cef2275426c2c6939680ab62021a99f85e3910e23fba9c3707f1d1a07324ad9ace6936f9e36c805ed248d4f64bb51516300155ea7e16dcd1a1f846200009b565b6200c848614ca08801357f060bdabcc7d2c2a7a5c6edc24cd407bb75b66f7bae2a4c13701660322b0a09737f267303088163d836293c1cf39c68d2f07dfaffd00494d66ee55a91c2fbae8c3f846200009b565b6200c89b614cc08801357f29880c1b11b49a57f891b7b4631e864bbd8f69cf1c502a69b4b379998dc774907f2b97749616d085f254491f4aaab73f0348b401898e970192e9c2cb806b9d39c9846200009b565b6200c8ed614ce08801357f0605060287f5958ebdc8cb4ca4ebe4af6aa3eb57df8f762251298f351157cbd47ee0379aabc471a93f8c15248012ed03e5a1ad9421f30b2ea8a7719aac466dfd846200009b565b6200c940614d008801357f0b589febc9ef30cc118ac70816761f88317124a0b4d979b9d74ca1791dd600597f14a04269a9d02852bfd28768c664844d9143b5cea5331098b1c1805c64118216846200009b565b6200c993614d208801357f08491d68646ae50d10e36e35d91bce4543ef15334453178acfe8d485dca2b55e7f123a963b508fe2b20e42fc1dcf4b7e3206870077d22a267cb1631508ce1a042f846200009b565b6200c9e6614d408801357f2768c8c905fec090ab954ab123e20b9f73b2ff9eb518b292d3a6f355d3b945157f300fc36aa6bb80a4af7797f918a07c433000fd7679455d5998af82e2bd0b566c846200009b565b6200ca39614d608801357f243c5c35ab1a6a9d97a0e328e3e81e5602371eb88f039cfd2c57f964a2e1de5c7f0fb030d744c8da2f2c83d52ab783022de5ec5985243d1bce42806731a9951d6c846200009b565b6200ca8c614d808801357f0407fbf31ccc6acf08d0ec4a0b13accdade280d421adcb384d649bb1305471c17f1296e60daec01a811f0e04bde664958d4f2bf07863d36872f893ec864f372b14846200009b565b6200cadf614da08801357f172392280823f579fd36294d874c866a12318d9a46f2be2f1cdf318de308b6167f176c209ac771caa5af2ac2a1125fa43a59ee381f9dac6f5dc529b7f70e87cb74846200009b565b6200cb32614dc08801357f243b9092b6969f98d4f373a1f52e071cced1fce817b1aa4a3da8f4098629610b7f2f162fab38db0a79cbace7febb4208d1aead18ec4ce1a4db2452f06915d4fbb4846200009b565b6200cb85614de08801357f0cbbf4e0aa69335edefe6f82dfb1c02e1eb009d58c6cfba07dc1216900be32477f1d0c180cd986248934747a2e723aaebf3917419a0827ed951f88b4f0713a93c5846200009b565b6200cbd8614e008801357f15d9d741f1bd34171273ad42aa9f25d408d556c8c0c8c821f17df29225366c377f2fa59ad4bcfde3acc424275c063f795c3f72c70b1e06659b6610e91076d14bed846200009b565b6200cc2b614e208801357f1cb9b879bd87fe5c522a62c26e99eaeb34e68cd00cbcae6d5ca8720545969b1b7f194eab6c83b9dd8d30d54b44edbb9a98993b366fc23d7e7ba9a715a6dbec49ce846200009b565b6200cc7e614e408801357f079e8d19bd21c18fa4393821e6fb200c608cfcfe64c8a10a0bacc36d22d21d9f7f180501c830b316b9c9ec1949d8313859a86e05b6a425b68e3e20671b1bc6b203846200009b565b6200ccd1614e608801357f22837caef7e27138e0d50f9a9c0bf00f6121cddabe6e66d53fcea909cd926b727f0e977cfbd68303e829e4980e02d6315784c61aaf03e45fa8634494900dc1cbe9846200009b565b6200cd24614e808801357f17a85f1d60e6d26be3d14ca95faba277b4924d1895d5a9af20a8b71a7344b29f7f232ee8ef136bb306e2877021c4aff841931c38c4aa9d66b9d8bcff61918bbc1b846200009b565b6200cd77614ea08801357f2ecff57962f2e2d3a0a003026eabb6a6b2ee8051ee30017b77cde21ef9424c747f12e8cc39adad20dbed1bcd4f60ebb1cef027f4a37d7de5c91e541478460a0147846200009b565b6200cdca614ec08801357f0ba3c776f612a98908e919d42fc1a51076b9890f24cf65a6e6fface30c56ff1b7f212a86d127f579c7e0c584756d4ede0a17f37d26e36ec76c0ca5a612d76a24bd846200009b565b6200ce1d614ee08801357f1508351f05d9b508fa36a14d1dbcc381347a2289558e374a67f1943b11e97d437f1a1d26fccf84ae8e4e86a72678ffdb69cb28b1a35c09d5e512bec9cebfb0815e846200009b565b6200ce70614f008801357f0c441608b453cc6bc63696c3f2a4dfb950183eac2302f23f76fc5bca4e6dd1fb7f03575e11a1881b7fcdfb77ff8f76346288460d679b380f8194d1c682c4e43385846200009b565b6200cec3614f208801357f1ecd62590f1d2c15d5d1fb7626acf9a3c1c929d7e0b6db5853a0ae3a3a846b567f21081a883f7b7671a0cb8306d6b342c4eb785f8fb9ae3b60fbe24775ab33421b846200009b565b6200cf16614f408801357f1a7e05307fad3902326b80e94197cdf6d360f1aad79d0efa59b091c93ed507ab7f1bbbb5a7f76bd814fb466726f14654cd0bc57902e3ce6c46b274c6c91d329b01846200009b565b6200cf69614f608801357f1ce1a593a212c53bcdb99a5b62908cd11eb78f87f43e1c89ef24a465dd87168c7f28b3850904aaaa11e3e30f8371b4869159983a80fb6b0bc56fb1f7bd4e43eb77846200009b565b6200cfbc614f808801357f0f35d917f754c387ab4c00ece4192f39a3e9422f22be3ed696c8839d5eaf485f7f2351e5b5a8fbd51544702438157cf89bce2349dac1e6668fe2150a8e86226ab2846200009b565b6200d00f614fa08801357f2cee296a3a27f87d25aeac789d31b7eb04c83b5852eff8e5a89010f874f6289e7f068ed61a0b81f129b7e284948b67785efb77af5b299de09cc7fae16228e0fb22846200009b565b6200d062614fc08801357f1a45678331f0fe819d141e3c0270745f12c7d19c7b0932c2392c14a81b84bd987f0b43cfffcf13f3c3b42ae3bddbde73c3f9de2a7c196bc098639422bf4cd9ae00846200009b565b6200d0b5614fe08801357f07621837fb318d6bcd572d3187a04f5e4b38eec0710ccd274e9b5edb708efce47f2da6797eb037c605ec1350d6c5c35b10060cf07508f5e403fad9efea3092542a846200009b565b6200d1086150008801357f28f94f1e4a2ab65859cd2bce0ab21b740cc611c7f6b6b5cc06b093165c01582d7f2960f5b0f9183c92fa5e2a772224a160ff72a7e22f5c8b3bb4568893d1bc6734846200009b565b6200d15b6150208801357f2896c85730ba8da878fb1042d9a1fcfff62d3181fe4122e55fb7c49f3e415f7f7f0aeaf265a7617f1ebe977f28047162d68ddf8fc6a6f9f0ff703aceebdf97a1d7846200009b565b6200d1ae6150408801357f150554ed1195fed8f8286f82677234c0b2396fe0ac2c87cf5f2ab5b7060c78587f22c0380a415119e4149b573c56ef338d59fe9d73be8adbcbfbbf380782fb7626846200009b565b6200d2016150608801357f0aea48b980984a3202349d93ce6ea4b113c78fddf922b5ea2ddb88e7ebbf42227f159c500bf5d110eed52d79aac14d831d8648ceccf745527d1816d50ff9b15b45846200009b565b6200d2546150808801357f257614a9f359dd70304830abb6b2e6d370a7a1ca1890ccb60a8c6eef15bb51627f265d81e1a9b326d178c567f5539273cee04a34e5cb1bbfd5c0c227bdbd1fcb30846200009b565b6200d2a76150a08801357f2e80ecca748621f3639c32ad3e6908604f06fb256fc60dc4880de4b226f69e8a7f07a4b08b8a4c6d3741fd7da8e79227582d277adfd9b1b0c041bbc67ba2064cbc846200009b565b6200d2fa6150c08801357f101e911f6e8b9ea76ad80e8527134469ff0b891027db825d2f082e4eca4a85657f1f9d82c646a501c4a445a72459de522c8f0a684a6d96a8ee7cdd81a92c9e293b846200009b565b6200d34d6150e08801357f1f9b5636667c93068782ffd12953e0f2621fc11601ef2a751c2be4d9989d351a7f0c6d291c8d4ecac1a1f96d121493ea7ed36cab23575b559058a6b0b8e9ca8ebb846200009b565b6200d3a06151008801357f229fd451327e214c63322c7f7cc78b4e246b6f6a255c0bfbc7d7b01ff731369b7f0e1b742f2de1defdd37d04be6c0201c05049bc789822a008b9e264a44dcd3c03846200009b565b6200d3f36151208801357f1544137162e6b5a9825e0e8be22cb7c2173991fd5862e83136e177b59c175f3e7f2a8557c4fd7f5b1eb3839b80c9cd1c64b6daf80688ab1492d48a14671f497684846200009b565b6200d4466151408801357f04f35d06a59281107362b11ece4fdaa16f8cb073fd98696efb49a86bbdf1032e7f2865f20c86900df30e13455f40b9dbbe164fea4b3f097aa63b6f72febcf24a85846200009b565b6200d4996151608801357f19f6505b29e99cd2b82107486137998d6fe8c109c49993cf87bddb822547ae357f20eb7ef47447fe1f9fd6db4b14f4ac1be78876993fdb7f87bbad235127568fb9846200009b565b6200d4ec6151808801357f18f6546e67f224bbe2cb457336943c642edc34dc23813034aa9c937885d3d82e7f06ce47a9342d9e34281f4a3ff4d80479c3c1778e1cb50493cda12f97f4c68bb4846200009b565b6200d53f6151a08801357f11acf1104b58c699e674412cf729d6f9288633dd3036da7e95f90c9261c9f6f87f0fb1386e08fdbfbdb8032b8416eecfdd9e04c186327de963bf2900dea3fa95db846200009b565b6200d5916151c08801357e36f8bc578a24145c5b52a2c4c872de59ca6d62658b9106e0fe06274c61e10a7f173eb226e767e4a5139154632f7830e83fbe91b3aa31323b80249b30afd2f99b846200009b565b6200d5e46151e08801357f2bbb322e46d8674c246f33c0ccafcbb2ae51bc0602b8d1dbcce068483039e09a7f0c461f146e54a1a0f1ef7fef2e2dfc639dc0c1ed479fe31da0349058d336bbdb846200009b565b6200d6376152008801357f2f5a0322a0f3cea6be26511723056bff03ed94275c4d2c0f50157738756544477f2809227919fb83a87451f5bc283f58677f129ddaf6356172e7ea7e57bcb21d1d846200009b565b6200d68a6152208801357f0e86076091cc02dd3f4140c28393fd9c9bf3c39e78bc02a31570200f0e7cc2a67f047e2dfd7f9ca9ac9a2b8b76b402488c971f881b465ace3aea180c94e9f0942f846200009b565b6200d6dd6152408801357f036e93a1a68ab1fcb9e2c9791c7a64a0c46d0368eab9080c330567a521420a3c7f19219f5bf188f4c8e6a0826a6c72644ba88aeb11ba3e0ed0c22be1e41e71fd1b846200009b565b6200d7306152608801357f0e921010494d60b9777edf7bdd0fe3196a54cb848c1f82d2a8856962f99bd46a7f26b4f6bc95c3deb8fcf434ceb41d4ee3b3e9dd444955ec340311c1c331de2008846200009b565b6200d7836152808801357f176859e354d0400ddfacae54682fa1ad49df938553ab0f1d6083d513c5831a007f061e2e48a3ea120bce51db4853881f9dda202f87b1c0aaac104b479b676db761846200009b565b6200d7d56152a08801357f186ad136a3d83946b1cb38ada9a1efe725ab2eee5eb51d948b00b0aae04ee73e7eee044180d189d6c2611a7b656607a5027fd6b5070dbfdd4c6d263e0b50d0ac846200009b565b6200d8286152c08801357f27b1232c82797b2d23b914d7858a4dff0c22268e1e365263550f1910e09c67d77f2c8f0f3ee1bca32e5b32dda6c6d62284a845284262d4e15c212ae6abcf71bb56846200009b565b6200d87b6152e08801357f17daf5c249bdde91c78923b70ddf455f691aedd947016c84c49ca27aac0ed5bc7f301ae07302586c69e173ba06e31f67c4fb6c38f83cb01900ee75564c909ab685846200009b565b6200d8ce6153008801357f2b6031cffb3ea9f6303bc78ffa0ee2bd4a455f0d7732e77cb7fe273e11e44d5b7f0d7721a8079be3bae22247786508b8c952b2446e23fee9f0f237c08394936741846200009b565b6200d9216153208801357f0562220b131739031d357366cfb728a59f3090c682e2f99763931453a940f8e87f02fcc25edd4b2c1e1e84061d1bc2a0313bd366ccd9639276c947de6df21cf567846200009b565b6200d9746153408801357f1dec057259c2b94b806d0a911a61666fe7494a0273d296c1e987edf5b6e027d67f2f38bfe850cab3fee2463b9043cc4b4af00a9a857eec9431c3705c84098bc186846200009b565b6200d9c76153608801357f2d6eb0ba90be00084868f6afd95a08c49716692ebbcf6d049d03a15e850b260d7f2a58f90db8ce61ca358d99bd987f504543f154407468bd097b1bab4abca86825846200009b565b6200da1a6153808801357f0c41092f390b71cd8e59d92844596f7583a89fc4758ff52de7decd6f0417cc917f061e2e2994fef497d06dd9272b5c94917220e1bc09909a88c590b1f22c116649846200009b565b6200da6d6153a08801357f09504c5cd047ad3380dbc64c45216ef23db004bfac518352e56a362f2a9fc4ed7f27248bc2873b6f2762763d69852c8a510611ea8fda3862839da8890453bc3377846200009b565b6200dac06153c08801357f197f320f34bae3d6b3599cc0dd9475980f4b0f01c18017913a81ec8fb12483017f176cd3bb36c2f43b91018a34b29d2aa1ae5ba0d13f4a4bc4e0d1661d82f7d7bb846200009b565b6200db136153e08801357f12705e5c19f77617432e86932e4eb0c0f3242d7605c52d124a39ba36419f47197f18a70ae3384f2a444c014412c2d24157933f8c0f0eddcc3978d67f0430357bb1846200009b565b6200db666154008801357f0ecd02c40e1e0a03e8dd96a45a96c2c05dfb0b86df5905237fd8d3696c4f0f277f06d05174d58fc6c2d73c7877a827161c99ab69bacd38947a9f56b856a1100a99846200009b565b6200dbb96154208801357f1372097c0d2380409ccd680e384ed3095ab0f8680d42bdce1602be1bb9e25d3d7f2d33d6b875295053ac7e641f0d3f8584c446ebc970b04a89074cb3c7d73a053f846200009b565b6200dc0c6154408801357f2c21b8f5a0861d853bee8fba189d87468f6199cb2a69c60cf389e44e713f5bf97f19bd0caff313087efb0b552371ad240b9ba1cd7e5acecbb14a3545a2539708b8846200009b565b6200dc5f6154608801357f25bdee3b84636bd13ac5a6a6c4788b296ae7af52ea927f9d5c7d829edf72f31e7f2465696e2c85b7f39fa85c1b5fcc36e18a574594b38af80bd6bf143196b4c49c846200009b565b6200dcb26154808801357f2a288960c5e488ef84b18cf812cdccb6973df1593727ceeb40ebb1ad116fd3377f03805c6430a89955fcc70297316801f75f0de299e8a920249fcac59919ea33fd846200009b565b6200dd056154a08801357f0f0068b978899dda42b0e32648683dfe3e74fb404c017df2c21d4669d4615fd07f222e2dd4fed26b3fcba4b526a0e46a0e638a33319dacacb1a0f60c6be0cfd4dc846200009b565b6200dd586154c08801357f0abf745e881e946d6fab6ad0a1ee4e9c0ce5c2787c633f86d464ee58ede8589c7f10d00c020047ad072b545dea71ad915d939ad9fd62d4dd670d11bdf17ae2bb4f846200009b565b6200ddab6154e08801357f1d6253a1eb89160f2ced3f9aa633085bd18b33fcc5c7cbb83af6f37cdfb9b9877f072f180a0ca351b1a4c44f0864e9c17b520aaee97ac58acb92d06dd173317e2c846200009b565b6200ddfe6155008801357f2c9df4d3877a9092672b5e91fabfec1e6b2b42aee4fa8ba62494526ffa736e2e7f2dedf2d6700ef9349a17582061ea6d930372d673f492f0be9166cc2456859be4846200009b565b6200de516155208801357f2edfe2eb606f84f4f68bca89518554d9ef469db971f0348e01c2cdc45b1248477f2e9bf7b8dd68affea15421e3c82de0121b2326017351ab655e35fb1ad4308ca6846200009b565b6200dea46155408801357f01d47a0f21faaed2175025ab1e325b334510ef10c067e26bd27577d6deeb1b017f1b305b7e6e5f547360795b97cf088bceafc5d7233109e4425c03fd34f6092daa846200009b565b6200def76155608801357f2cc9f738a5c048810b7943113ea30dc38cb670cf891da7a7e4efd33ab4bdafd47f02a079abecb9b77e4452759e25b163539fa0ee1884dfeea97632b7e7a6d962fd846200009b565b6200df4a6155808801357f2482835ea4cbdc4c36aa210f3b22356668f01c099b9f731581d029b410e15fa87f2a0d1bfe5d31b31676c30ac0200d591ab543c3106d6808ec01b9c240c617613e846200009b565b6200df9d6155a08801357f2d3d7be01a812387fe0b46423a9737c1550522c0c73c0ac6509df3934284763f7f149daa531a6ed5a932d239f15d1381621582ec03dcc99671b2ad2db5d9c59e3a846200009b565b6200dff06155c08801357f0992190755bca892095232bbb11682b16e4bdab7fd48ef7f1e4b02984d211f0c7f04f74abfc314155d8d58ed79bb170caec60125caf8403424dbd06a3df070e214846200009b565b6200e0436155e08801357f0a6ff5ed6610a0774b1d153b548e878e6ab61a9280122c4b9234acd15236ef497f177cdbd415fb74ab0d5e3948a6efc3763dd4607a9aae36efb10c490fba0fe76b846200009b565b6200e0966156008801357f1eae063e37105006dd14e7d143080187a9c01d489d2a210ab2c5f60f74d5d7e77f0d3bdf807a93c69f0789cbf75ebf496565daf6417749b73166fd23bfc572da8a846200009b565b6200e0e96156208801357f0467a527fa9c7461063e27a08d66d92c9628ab01b3eb3a65bf1d353ceb699e9e7f1540b4a19ebb222525ccb1fabb6182f10b956953095cf29738543f1e733366e5846200009b565b6200e13c6156408801357f15584bfc14cc1c0ab2a7778e7e23c9114a18fd6cb913532bb870a1383b9b3f377f1505ea0753f0ba794533ccfcd1bd336e4603884599e11c5209ce85941334b436846200009b565b6200e18f6156608801357f1063a924786ecaff0e38ed4493c0e97b9900d60e71f99e52c4347cbb55b04b7d7f2f0277f85daab3d8134c716437a5c895f1fb973848bed5ec284f504b1209361e846200009b565b6200e1e26156808801357f2d43cd82b90e3dafdb0c1d2079e4eb88d80eff89c24b6934f8b9e47afe134d9d7f292f45392b090ed469580708ea42e109afcb8f6e286735a1273206cab1fb6f16846200009b565b6200e2346156a08801357f144bd3320d9db51141b815734d01a9c6000eb9710391154b4d1a15d40e1c214b7e48bfd88ddbf7161e78cc4548344bd326ca78e2814fadd06d344387fdb2bfe6846200009b565b6200e2876156c08801357f11b9237a42fec7d4b8712cfa8c069b417738935bd7262f0c36f61a437abe20c97f229cfea375cfb7288351e48e6ef549e826dafd5f4d8a2b98db7eff0a582fccea846200009b565b6200e2da6156e08801357f0686f7e074f6a2227720c12193583eca534ba2b373b8f40dd4df129515099b1f7f2d3aeef5dc57f31016dbb32e4cf75231430bbb647f7cd781a7925d4cbd921cce846200009b565b6200e32d6157008801357f0572ee7f05b7fb4e4e1ab0707869640cd112c3743019e79d63f74bd15fb0322d7f26e744e37b0b70d4cf5100b260fe515dad9a1979f5c2a2b3cc4bc2593579f9b8846200009b565b6200e3806157208801357f14c19e9d44bd4df57044afb72e2df331c814782ed7df0b5936ac1dc1a399f3187f1d7e72293789ba497f372cec6ad8ab44a6007ffe14093d49649f609569c3f8bb846200009b565b6200e3d36157408801357f100807adf88bd9334e05184450e34e400a73c665b38be56781b512acf41cc17e7f2c1ffe172636109d11b26eedf0e533bef8f24bb97deacb1edf7ac54f39c5d1b8846200009b565b6200e4266157608801357f08063a7de6b620d5a1d893317be2b66a046ea4100137538eab19e54f04a9b9cb7f0764fa312d0dfb91ba9fa287097e0bbd7b0648b6a8b8403dfadf0ca6447ce79a846200009b565b6200e4796157808801357f04fb95064a3e59766405a5d1701daf582e44435eb722145d39af156b4be4d32e7f2f90b9e1b7a08cf1a8d4e3d48587a57397edcea01a2f3780806be35e4c87eb20846200009b565b6200e4cc6157a08801357f2585e9d2f400f8b6a74c24bc55c695f58c292c1eca1999349ecaa93f6919ae647f01ce0c93e521645a2ce74a1f4b8bbcff537dfe1effc390ca8679ac887247a410846200009b565b6200e51f6157c08801357f150a0bde2d23001a295c76c1dce4ed869bc95539e81acc6fd1d26b76f136305e7f196be1574bb205705601d129c95cfc601a89cab2e66b1063cf1ad8fe4dbf2232846200009b565b6200e5726157e08801357f215dc6acf31a134cb8f0b0a1a3ce8737547e10d63f53c387e840fca2cbb6f0e37f0c25046c1630e75824c22230ffb3f2b534e65d918f406e5bb0b194031ffc496d846200009b565b6200e5c56158008801357f06ea2b28ead3159ceca81fb5411d937a5c935af0e9fb40624257f7fefe4d60cb7f2572516380f7949179f7046134b6fd8a695d17f706e868c9ba154512f29b21ef846200009b565b6200e6186158208801357f265466193cbc9414bace5aab74ee2ef3a10339286bd4de58d65dae6fdec0b3577f0b8d8e4a1eb68f899ea4ce763304ff29afe4d8da90c4f368e792ff673f5d24c6846200009b565b6200e66b6158408801357f1607d9c0ba344c0a4aebfaa8acce4247001163e7962f94b4a5c4d49010b664147f145091a413d1080537a7be3511f9d656a6877664f115abf6bf1bc8cd9ce52902846200009b565b6200e6be6158608801357f1b3501e30486d6982bd07ae73970e7017ff0abc022647b5b26f679835206fb7d7f12834d78302df6888eaa06cd9a86e93e34711c90f62311bea838c7c4a07f7cc3846200009b565b6200e7116158808801357f091aab8b2690aefbd5079e7c9f4d3665617fe3a38fb7d34f19a3ed0ddb66af677f1daf04feb51204a6bcba6751dd1dc40f044d1b37a5820eb18316d83f4227278b846200009b565b6200e7636158a08801357e31850bab20fd5abde3a4e03fa521211cb39a4e8f57688910632d0db46a6fff7f2147704cc4a69f30e2c3118aaccf50aae94cd9870944f1be59f3fc208fb8b1fe846200009b565b6200e7b66158c08801357f122d0a1faa6c3133e0eec918f6b0e89173337956b9ef49a449850af7d6f9263d7f28387cdd5f49c756d80e8c3ccb71a0f21f2b0875b4a2b370660faa1311d04579846200009b565b6200e8096158e08801357f07072b81eefca3e0eaa36db3342c26322e0626228d71907c63c1846c1d8043df7f25ffc08370f5d8ad9e465c0946a6a3e68b5bae66d759bbc3979bf540fc62419f846200009b565b6200e85c6159008801357f031d30247fd1428c230acb33b42cbd5903dedcdbf9d0a7bd1a52ec6294b1406b7f06f6b0da894d957a4163ad313a92590e19d121deb36a5ba47f3ed017dabd2e93846200009b565b6200e8af6159208801357f056db2f7af04bbd6fd3e1a3673436a1c0fc6e34141484f24234bed75754673bf7f25702492ddfa8ceed092f3bdf38a2bad6a53f85dcfe6ca0e564fcde04123588b846200009b565b6200e9026159408801357f0b562e5aae4ce0699b0dab9ca44d501a040c8edbaacf7e6766ced5b43226cb867f22a15af122e3721d2a9f7024ae80cc06aa545c1687f9a139831789febe05bcd2846200009b565b6200e9556159608801357f0e081f5a948f0b2051c3778f711b6ce10d39923907115b18179aa10d3d9f37577f2628ce73714e41c7dfc455b7fbda5c72f38e13819346e7204b274d5c76d80c7c846200009b565b6200e9a86159808801357f2b31516aa8a6c29d67ce829100b0b28ba5bb09feba672f2b559d776c3825f5a77f2bc4e57b3400304557fb54c41f0bc1c212c565df39b7fbe507c88b53e577d8dc846200009b565b6200e9fb6159a08801357f13092252804524e6a4b6ec6e9ca09832715b3b6f935528bcfe70c7592f68c3237f2ad87001a5fa9570b17015b98d2b422354f92232865f2e6e9e3f5c29dbbea90f846200009b565b6200ea4e6159c08801357f16184d4c34345cf7e1382d34ab3d6f6673dac5b10b8efe136921a6ae350a69a17f1596b7a2a378e088c47d63a5d5a422056e721680cae666f1e140c9c5db910b5a846200009b565b6200eaa16159e08801357f156640260e51d811dc80e1bd4011c438e65ed59726e8f234b2fa3a31b92f2f2c7f176a31afcae3d97bb233a4a1e376b948f913242dcffced961a5da8afcc80acad846200009b565b6200eaf4615a008801357f2777c2aa0514c679342d0794553c280f5065612d5a5ef516489fb2df78521ab37f27ca7d3e7ab594f91d6dd13bc0193983c8ecb61a5d4222b74bcb1b01e694129f846200009b565b6200eb47615a208801357f1de98047c39c458b8b3fd788ca046d9a88823bb18f9ee1dfbfe0f129890796917f1b462c42eef54fa68ad0d34b1c3331c9661101eeae3db02610bfa544cb9a6abd846200009b565b6200eb9a615a408801357f2210f33e91e9cc824e64b3637bb517f08758cd2831060d14c415d7bddf13020b7f2318dba0d974b40583e68e9cc96c980461619c0bb7637adb6f1706877e6ae52c846200009b565b6200ebed615a608801357f0a9e07512491a652238eca83ae828f0760bc7b07b987456332018cd47e60dbff7f16ecaf68027d2a959c90cb112c4e71bc07ac72c2001edcf7e3fbf5cd52fd6711846200009b565b6200ec40615a808801357f28ca49c842e3b330c1458332c2193fc0987bcd912c6a1d25942034b8176710617f14241502c2b2c0295bf6a8a6b867ffc8130f93067de02dbc5a7026db6be360d1846200009b565b6200ec93615aa08801357f20ae66b27f2a65489de00635a1c7b1b5ae02128326b0e29a7f6b784dfc6a1de37f17103c195d0992aaae769b5d56dcc814bab07cbefcc0e56fa2bd99a96bcd61a2846200009b565b6200ece6615ac08801357f2fef9b3da60e579badeaf2308ae4ec77deb5e5a1fe56e94033bef095661511387f222906cd51fce1bdbfafb221a69beb567d9dd3b5669c09c82cfb9ad2b58ccc84846200009b565b6200ed39615ae08801357f23fa8f6041bc0f4dfdb1aa8e8e8eb52282cd5915d742fbdd04ef8108fca4d3ba7f028b13d05422ea6cfaff28422f96c6d3378076bbff63a5a81f93a3cd4bf616cb846200009b565b6200ed8c615b008801357f05cc98481cfd5d75710fe48c79ca2a1d9460084d655f6318692227cd8371464e7f095bac59496d3690b88e64c402498f6df6fca611107366158db63e09ce1c0db8846200009b565b6200eddf615b208801357f17896fbd5cb9e1eaecbde78351034362afe60b2907e59dd7135970dbdb329eb87f2a0b392396c0d1d586877e6aee64c3e6c129bcc4e95791b72b43203dadc1beac846200009b565b6200ee32615b408801357f04e65cd0a154600b834e0c23f1da4539b7648e64cbbe58d7e81be7c339d2db027f2a21c6844e1187cf4ea23550e797f757ef8848be5a6a1145fcd30e429fcc8cfa846200009b565b6200ee85615b608801357f0d5eec7e930557eff59bd9fa12532867d98323f1dff3246667cbef392528749a7f25b2dec0bbd0b4dbbb836a4ddea46882d3b1c9e14026be703fa423c96618d1a8846200009b565b6200eed8615b808801357f278502d909f64f1163a52da0607e1c09114fef6460320c91386ec2c211020fa57f18465feb52d5df26b4c8f3f1dd86472d1148b8176a7f5451bee746b5f936c759846200009b565b6200ef2b615ba08801357f11ccedf253069552f6aaf06eb261e4406c52d31c51b76102ad238796c01952457f05b1474f8379e21f671a9c20620ec0f947dac6054f67c40fed0fcfee828d0f73846200009b565b6200ef7e615bc08801357f2e505b5486a40daa5ce4e207567a3ea7f3e7735df37bc8fb225f0ae11388d6287f210c5c5acf51eb472196de27958c702ed28baac78d23f0a9f5c08b613cced20f846200009b565b6200efd1615be08801357f2d54379361f1aee6742136f5b4d9dd3a7a2432fc0bcb6023f49d81e131a323ce7f22e3328b99997fb91a9ba4103f38d29d225482836180979a9c638c902824dea2846200009b565b6200f024615c008801357f1e396454673fe6bc140bc43dd80b9ce0ac94cbae49398504b70bc4b73fba60f57f1ca647527059390c2e73fc36de7d1eb511f6ad9b1683371481e546708ee3e0ae846200009b565b6200f077615c208801357f100de92bef34eab80430635685c74ce93169a8a623c32d296c03386de2618dbd7f21dbb479c94fc1e09c14594d1a58b5c7860b762f5b7ebbd6560bb6d585e04b5d846200009b565b6200f0ca615c408801357f07278ed84cf7fb7411c826420906c2107fffcb3b719b3b85f110f85de66a729a7f225eb18a49749c0f1c442d5b74e5d484e933d28168963859bde985ec34df30e2846200009b565b6200f11d615c608801357f08e13fb15dd2c7f7823303a2d4049568ddc69cbcc93f9500a602b70f050cfcbe7f241349d1365974467fb5402f07b6d3bd43be8b85a3305c892ce313e0e6089474846200009b565b6200f170615c808801357f0227b2273dc964f4d59505a7a6030aaeb6bd47c56ed87ac3fb3628b9208558977f143eaebd4503daa6318e31e95a567c126b2b4178a57d2eaef7c1fb447fb61d26846200009b565b6200f1c3615ca08801357f21c2e45e98a8022c4d16f4646718b2d0af85af183a96ee895e8106a8521d9aec7f126a6e1ae3d0820ae5ededbef245c9765639abcfd5b06f0a4df9a51e80ea2698846200009b565b6200f216615cc08801357f164566ed748996f6ed7b9f07c2e5e66196781c9e19a7322945b08a1ac48994807f1544c74b2cba7096085adac88d28d6caa5005ad145f98a769732bb1710be1e0d846200009b565b6200f269615ce08801357f1952e75501da4a1a0d058e85d3f543a3dca6359d67e3eb318819d583de035bed7f229816c12713f1035ed1c57653bf5986cd6f4c9af025e4f40f2ef8ebd5ae5de8846200009b565b6200f2bc615d008801357f1430bb0b38f8938b30cdf61fa462ca46d3d30ef8bdb4546cfbbd1b4ab5d6d3567f03e0be2aea09be60b249a02a332c5f9a59ce164d9e0dba7931d43aee4d6e8a23846200009b565b6200f30f615d208801357f1455a6fdf8dd58faf20ebdc067985629ffd043e61220e501e280c988e0bf23e07f252a4b06360b99eb69fdf2c664cf854eab204b1172078799da4b6080a81e6272846200009b565b6200f362615d408801357f07c5544391c71d73835bc3f136080e1255239369905ec592c30c37ae459aa9647f0a438c6b1eb660f0176be677600ce1e2b203e836e177aa078f58b3a9ab7401df846200009b565b6200f3b5615d608801357f2d8aedac31d14ded00b4589f06c034f266660ed8d7f1c8b7cba09f20ba5dd8417f274b2dfc52d4152c5f064b57d60e5b17e317c8f0731d122f5f688267cce1897d846200009b565b6200f408615d808801357f2a003717af8c56d17c2dfd9111a1f03ac36fe06e85eb92d012f64c2b35ab420f7f1057bf68ebe76711345a61166054d4b60574fa56113b2b9199ebe71f011aa69b846200009b565b6200f45b615da08801357f1f3046b46e2c6375f5c80c0d0b95fbb21a21be3a4e931855bbe634e445bea15d7f2318b374c36aaf0e1195ea6b77730f8ddd4fc23da445f48c4bfaa1ae945e5e77846200009b565b6200f4ad615dc08801357f0babe91c6254afbd3aa03230a259ec95826098cd8c4db1527a40bf01bc8364677e3e5180c0faf6df349f24bd2d6f2fad13736debbdf2d51f28a98765ee5e7881846200009b565b6200f500615de08801357f26f783364d880902f27ac1baa2cfa3fb65c70f45702a7cb64ba3b13462de96c87f026a59902b5fd937785b6295d550d04ea2b6a0fa748c3e9a2f6e710831267b04846200009b565b6200f553615e008801357f1e72db81953eca563970576c123c1b4bdc00201f4af70c13854c8ef686443f327f23423dc19d76ef3bcfc1b11862df65a48dde577e4a88272b89b8f813ebffd445846200009b565b6200f5a6615e208801357f19da6e219b94b54810184f4b1dbb30bc47b5811d807b25b7e208d7aab71357387f1ca1d89e19ef57bc3e5adbf5677bd2674a7dfe1ec3ffb523805d3a209c3c23cc846200009b565b6200f5f9615e408801357f29f336e44a88bf4774388800e6e3ee3d0e3aec1924a28299866052cfab4b31997f27fbb132c00c0685f27e4971a9a85d740960d288fa104f65e31c97ab0c7c4158846200009b565b6200f64c615e608801357f2c850451cd66c234ded60e0802bed9ab1a985ba401a300853d857d94b736e09d7f038f72ee9d890e679dacab2d7dc570dfc3c018f04b6ba7fcad0c73a70d40f43d846200009b565b6200f69f615e808801357f240210ab595ec54c9d7d259d71bc5ce75b0ea9cd408f08854b0dd594952ff73a7f243284b1278d527959882d17ec9a05465f28d928d0ff220530479773ea4cf7a6846200009b565b6200f6f2615ea08801357f13b6dbcd9837ea3ed19def534312dee9dd3db14f7522822bf0047abb6ae5dc8e7f160aa127cb996be66dda2fad1f6f2f44c7af6b36287ffac2cd4342165717ed83846200009b565b6200f745615ec08801357f0fff97f68252649f0f85f5e53623c03944c659ce60974a8c4c35c4f3b74fd7787f22cc9b760257ecf1f51ba88344bbda5f90c1b669d4b51a4a3c0b8dec594f64fa846200009b565b6200f798615ee08801357f2efc8163326dd027e5add31a631df25edca3c5f4d35c065b6f0afb1d8bdfee5c7f0f1e1220d8fbfbb4168a44d5373910bb5e5082e7eaa8375622a9e0ec69d73a89846200009b565b6200f7eb615f008801357f1cfc1d9ac89994b34b53c61aaa9b411b86837f1693e770ca3d93b5b4c6f858257f144424db85ae6d792d7731da6944f72a97a69c6ed3cb3810328efe31a1fef438846200009b565b6200f83e615f208801357f0cbf243663739dc197e8c98f058d9468d30186f775c2fb71ba74d7ec57ccbece7f098676b6ba624760079caa5ce58ddd7320da3480a71f1d66fd17e6f63998b96d846200009b565b6200f891615f408801357f102dc611a9fb36b2f0538b61678ad94198bcebd88e1c8c2d444ca7df116f11867f13074f5d3b8971c6c755e785209d69d916d462c471c16459b82a3c5914fc4ba9846200009b565b6200f8e4615f608801357f20fa4f64ae758f32d152b5ba3b0649280e74fa7cfae6921fc4681b0677d159247f01328963bafd022e80966c53b633747ab78b22f07cd8f57f6a6ac470564b6555846200009b565b6200f937615f808801357f03889e0d9b48aa6ad6d861f19324057340ec7966170f678b79411f29bf5645f47f0ad8c5e37c3d1e66a4ca4730c435f8d5f60ed3a892628e063a5746e8e6b0f742846200009b565b6200f98a615fa08801357f160998e012a1d16dbf8cfb78bdb97b24fe63490cff119c0dfe0ea12e941e4dca7f138b6f052c29cbbe31e583d0736f04ebc0f38b8203c497e1a1bc97f92cb74022846200009b565b6200f9dd615fc08801357f1f93720f361fc75e734acb2f8caa3a4436ef0aac68595a5227c0d2c7ed094e7f7f2a65f2b4c436484cb83661a8b16f5b3fb17715b337b514106de215a95f6be849846200009b565b6200fa30615fe08801357f0e04412f2286d2e3c6379f29ce3d4dbc86c42b4a93496d51ac69a6356250c42d7f167d1a555a8e50b9aa920ae93d4d063ddd629135f3be311fb685405354d263c1846200009b565b6200fa836160008801357f218751421e74e370d8eac71c0962a4613a2c7a3adcc1b5093551dbd014c9d3ee7f2935a9fcbd369550c288c94d9a37b13253cbc8cd8f36a8e0fb66c8901690ed36846200009b565b6200fad66160208801357f0a4dac585656591da4264e124a0d9dd64e434d52b62797cf7053bcce8322a6e77f15e6f32e6c6a43f57ff505d6b89b62d6da03cb21284fed18711e799ae38cf4cb846200009b565b6200fb296160408801357f1d44cf1b9c1302308053f5e76267b2d3d400cc8b17c7299f7eea244ca22c0ea67f1737ab8e140be2c6f2f4006508cbf7d7d496d10cea1670b2b99d1724d25eedc4846200009b565b6200fb7c6160608801357f187ffd1c7a1cfca4298d0d9907ac3a3e1d3f86825583f0149185af516d511c597f260ca13b28d98ae88cc0e58ab61b615ea25cc2863ccc73efae167af800371f02846200009b565b6200fbcf6160808801357f0904d309e6d6105e9f196cc58d6a79a374585c3128595632c708d7817ca558d57f175526155f56f3cc6b1175222a9b0315e2c1fafc4e2808a4448e4677e05edac9846200009b565b6200fc226160a08801357f1e18c8b2e35fdd4648034b9d9b9d03a4c6dcda0bd0d1a5f6276f3ba42e01abd47f0d942b5a5ae7ec2e8cc52a742161a2d84e9454156f4aa4510157ff2a468d7130846200009b565b6200fc756160c08801357f0fecd1a51f36ed690cf811595274adeef6c443db354470e61c54ae1c585805f57f0c29d7d06cec27f0784a94183e01c2b7ef8c13cf1ae2efe64d229fb47242f775846200009b565b6200fcc86160e08801357f1a41851588159a85275b9541c38f018e0fb2407680d216dbdf950f1b6e09846c7f0131c134065e6a2c043e62128daa58082896892a3abee029605ab920dfc30327846200009b565b6200fd1b6161008801357f0e787ddef271e12593020b8fc58a25634ec5cef4badc9cc55f7f6b1b61f0fee77f2f6aa26b2576a1342f1382adbff3a0f0d09f5a0df137f16a5aa3dbebdd99371b846200009b565b6200fd6e6161208801357f0112f01b31939d9a93f3cd9510fc205cb82dbc4d9e892ed8c13357d9a54e47157f1017d07f8b06ccbf6f06c5bea947ace70f87a9f99570aadacfa9767f85659eb1846200009b565b6200fdc16161408801357f209251eae7184ead2ee4246bb124d8758d1f9a94b66fc6520892ff1d3aff800f7f0243235ec6fa7c59ee6b65f455b9948b9735c4914b20b020327d34c96219b863846200009b565b6200fe146161608801357f2d9c5e8b504548f24f1bdb489c809abff159842e786fb4e92c9dd1719390bdf67f0a648a0917c5009bbc30d316f90b4502a19118cb288ac2dcbd911ff0f20f9eb2846200009b565b6200fe676161808801357f04381fe3b33072fa549e663f42144a75ae88439c22df75bbc8666ea41402e5e37f10dc15f290a222fc612e7fcfa64c7146639190940f159a31f6b877b93d36b64b846200009b565b6200feba6161a08801357f2c3e21ac42cc0d4abbfe1a1bbda667620dc2dc57fdd5abadd5f6c65eea4760ca7f1200be02fd9d596707bbbf4f7fd331a7d7fdc24fdd0ef7816177e403a28a8d2b846200009b565b6200ff0d6161c08801357f1ab2203a2435ccfdc5c6463ffbaf9197e1d7ee793238b5f5e5a6161079f4745a7f0f72422dcd1eb81b797ca6714becc5a994f930264bdad5508111f92bc93feb6e846200009b565b6200ff606161e08801357f1af7734632ca5f6d1628aff8c83326f3539673211b4147359f66df1f1ac4be617f082a58138cb0a10d9757a7c30627668987e2e7273a8926219b670f9254da91cd846200009b565b6200ffb36162008801357f10416344981fe176d9c2b2f28c4994bd781c4300417314e24094ec1bdf3005187f07175a7eb22335456defc230eee22e193387c2dd7fccf04faff3207c73da474f846200009b565b620100066162208801357f2c744f6a7df91b930af8d6633c06f367347d093b921a6c2de541456604a35c9a7f0c6f02f3eddb46d68bb94a6d28aafc96c3f9d0fce49622c19fd0dda708882e05846200009b565b620100596162408801357f02f9a7be2f94a160cd5f520282e39c3299c5c4f16110c6c9a091b52585093fd97f1853c52a4a200cd16e5ae54e53803da3de04c4de91cfb8f553bdd420db79c4ce846200009b565b620100ac6162608801357f15b81bf16f7984d597e640edb0adaf654465502331bf02344f6a41132e39fe627f2a6f2b13a9474c670f32b35c088b381eb729f80c430578a297c5c12fc96fac36846200009b565b620100ff6162808801357f125f07d73692fbd3fd9639aa56d2c0a3fb1ccc09dca986a90f12f831db8ccda47f12a704729cece46d3e8b2a203dac6b8b8eb3996180c1f8ad6402ba4e783fa29b846200009b565b620101526162a08801357f0a70b793dd55a0bddac279e35bbe61da060a1dc23aba8a92a1afe832d150f9137f0f694fa552eb991032e9f1b591362cd9a15feaff7c1865be43b1544bde7cf5a9846200009b565b620101a56162c08801357f0b00082f84819cd710c8d70b44bc288eb032267d136469daa4f985c896c065277f303d50450c39c4f7adf795b3cb9608ec22bc63f178997a2a2c27dc5bae80225c846200009b565b620101f86162e08801357f20b1e483fc64c5e014839305629e9ee51fe234250d312322320335e12f2276fc7f065df0078e7a49868babdae182f21323f394baf88ce80e51065e9db54656a66a846200009b565b6201024b6163008801357f0cd083c77678e67e4fb200a6aa4fbd11cf5e763f2c84140cb72abc8e3a2b53017f1dd48b441f180767c6ffe032fcbfc56e6becbbeddbd8567ebaa3c6c3594804f1846200009b565b6201029e6163208801357f115b53f1dbe650353b50e0861fda20fbc60ead3aaced95aea22559525c9637fe7f1b4fb527044b4c13ad13a17c23763f60876aa5305926ad13db5b1210db58db9b846200009b565b620102f16163408801357f047cced64f33ecc215a930cd38c40af319081fd35d976c248f6a93c7738a1e9b7f0598488a78238133abb165d6e5b4888dfb9a6259d63b8e937bad9ed2aa94990f846200009b565b620103446163608801357f076e2b874823a6734797c66ec60663be28eb203bf303216ccd98f22ae103ea967f14052b5b62369583945861ede48cc391877e878f13940a4adf217468c6cec1ab846200009b565b620103976163808801357f2ba8b4a70f72cb197afe790610fdb2d08914bbb4838aabe409ca3002d96c0cb87f2896173b3db4b966b91a843fbdda52bbe6b955f949d1662c0207d4f3f6763fe6846200009b565b620103e96163a08801357f0813c280be8c9542dd32cd26beee8fd3fe3fad567d0a29563e21ce5bf410c7257e214d54acd86cb2b0e18ecd2466fa7783d001ad8c433aea36068ae4050aac17846200009b565b6201043c6163c08801357f0e4f1d57f20818f01effbeaaf2b2c190464d67e9194c4924bba650d4bf7fef487f04bea07d616463b56a1ba103c79ffa11ce4f9b3c7c7432c5a53ee9f83966262f846200009b565b6201048f6163e08801357f2d5169db852c0c5f9eceb31e6b75ae4c8814d72f8cc52dc047d9ac8a3a96e34b7f05b1e0d1255a3ecb4ae9603daabc189aeb640dbba87aaeb8c3d181df85a4daa0846200009b565b620104e26164008801357f2c274040c102220ac333e857796da7ad7922e76860ac73887262034a030d25e67f126bdea8f4e2e95289caa44f6cc89a417c55b379ca434478454454801ca4e6d9846200009b565b620105356164208801357f0901e6de08b3e39f3a4c6154a02b086c5b3d9e54b5e58fb7a34f690b916b4efa7f1aaaf22adcbe2c92e2f1f09a6a888a67341eab1c36009d61c5b7019b29dfaa43846200009b565b620105886164408801357f1f43f4c02810b04920155ac1c32006912e0297d6f18ec80eba32aa2e30a6e01d7f2814e8ad61745897460721bfae419a29fa785ce0a2ed1ea86ef51494b10a5621846200009b565b620105db6164608801357f2a46781a5fdfb5d43d2d88c2eb87e71f5b84b688b4ac849690d345b3226942d67f17ec87c8b93576584e64744ed8f74bd4ad272a892ec0da1ecdff09395711404e846200009b565b6201062e6164808801357f0791d52dc22e0af49e4179f8f515169991e62b39b66e2a78dfb4b62957f013bd7f201fb18a68991a03437c0d6d91eb43ea979d60a68c94daacf8baad827bdbf20f846200009b565b620106816164a08801357f1c91e1ee7b4004be1f6ad6aa62725acd5a84596d7faf7212bf26722c0c3815117f1af8eeee5fc29d45e89609a20ad1da27d2e53952a7a2b8e2bcd9c5eb962a2cf3846200009b565b620106d46164c08801357f2c28c9d51cbcd89b7d9d52ab33a7695ccb506d93c59283e3a500f56f676ce0827f22adc6faff38e6a7da3ae8d0061b730166cebaf6534518d5e6cf062683dd907b846200009b565b620107276164e08801357f2adaa5b291c7dfc0fc6c0ec068d4c96da4207b2cb0e244a4ae76c19be69ea6917f0f2863ba96c6bdf00659e103cc5f500ff59cc923b180ef223014deadd93803c7846200009b565b6201077a6165008801357f13ad5349208f5574718f5d0e124b691508582f4b5a295aea2d183756ce09e2fd7f1941af0e63c193d1c8bdf25ae9992fbae11720451954109d6d80929c1c5d35e0846200009b565b620107cd6165208801357f17bde124d22ec11bdfde8efe2c19f92a876b27200b24a1cbfa97ffedff80ba377f1285134c53731f22741a2340b35f8b66023d1a7c5e124b2bb6376586573de2de846200009b565b620108206165408801357f0d5071e768c4f1d77ba5ed94092f08f7202430b359e73a2d1adb8be1e235d75b7f01bd1b80d5328531ea050b0ad68bd2ba2f71117979b6ac0e80f3f00ed344acb7846200009b565b620108736165608801357f2f68ca432f1523a315ce6dd59f274bd8bee238db6214979649fb79a8781d00237f3020bba55a3c08b917f4e270e4b7f97e35889da7516b21e21c1b2447ff176dcf846200009b565b620108c66165808801357f2d9d4ec8198a7b5f1336f9f1ba6095408c4d0c22f23c87c52720b0d0b1e5b48a7f1fb6bcbe22dabc9311648d84fafb67f132576360ec973fc8d7e0243860510786846200009b565b620109196165a08801357f0d0013d71ef3e7214ac4770638ad78d175e39c6f85e58114b604bc0babfae1ae7f1ae8373fd69ca1b19b3f1d05704102c405a670d88f48b91803bca3d9c0fe29a4846200009b565b6201096c6165c08801357f12617968954b01360a49688471e7a428562003af512cb8a8c9e36fa606b62ab67f2bcc463d05fe5f2ce864ef758bc6d149beac7577bc978a422b7255740da113d6846200009b565b620109bf6165e08801357f10fc19934160e37e28a7c85ccac58f154f99ef058970506e1a4df8161d6034fa7f213512c29caaf079feb897251d7e7d7023326b81b857e27136e3597490f789ef846200009b565b62010a126166008801357f2174b810004e017ee1c99d09d291ada4e315609319fdffd2d76e394d28a6efae7f12304aff664de9b307ae16947e61226da7f3e1cac18df0b87eee211f42f6ba7f846200009b565b62010a656166208801357f0543ce8a69d4766c0ae05e02f8739b85bb57e8e074121fcecf2222de0474fd297f245443b1d5323ab699f66758b688757a2d67934e45398753e0b6fcb869876fe2846200009b565b62010ab86166408801357f235a47436b771ea72e9105fc9e5850705c02d14143d7b3d00694a08a446eb1337f279d6b3bfe50f4c9a5f356124f9afc52a1bea429b1250649aa7586db826040e5846200009b565b62010b0b6166608801357f1ce0020056f93a9ec140be3c24e704ce63801339ff1c5f431a27a4a63672988a7f14594ee9a162812af7db2f60edb32585b3b409fe912fdcb8c43703644438e3a5846200009b565b62010b5e6166808801357f23c95bf30ee9b5466494adf3eac40d0217676285d1bc44dec204df804817bd3c7f29c4cc70af6527ba1dcd977df27ba1e509906185118d93d116628a1163d4ee38846200009b565b62010bb16166a08801357f1602d81d01b0515d611b8f329ebbfe231e270a3879f32b7b9b48dfdc4f4075127f063b9ddc4a1cd79ec7b3eb57a39924236db4604b5f0345329704d4c69f36654f846200009b565b62010c046166c08801357f2c0f97207482d310d42df55dc75135c39667feadd64e72999e2555416b30dea57f02049d3c333f172e8965c07377646041015b64c0d31a72cf5fb121447df50077846200009b565b62010c576166e08801357f11ad48ec882fc1b552d851b28a5dec9eeb0b097aca0e59930110852398d6c3957f04d688f3ea6939dbc959afc47fcbacaee4d021838b86c6b786876e01e98c58ba846200009b565b62010caa6167008801357f12d69d96190400df7be0d2e7fef36a1ab7601a33b46f1ff8c9d018edabdfda497f2032c997e0600509e027122a5a124dccb9cf92c5179760e76ad5e2c35ecd8420846200009b565b62010cfd6167208801357f1bd84fbbd7a083d216b4c24a17e0e5b2a106764cbc895191f888df48a0f063667f07b5f3519457efa25a0db927eafdf3ebdeba6f6c9402f5e991d5e5da1433eac7846200009b565b62010d506167408801357f11861030d4d75a6da9f9f7bcd32c98d05bcef5a65482294c8f350a438899f6b77f17b038443c0ff17f2f85a556b7bb3a7cf256da860f08e5c939b3b9500c404f2e846200009b565b62010da36167608801357f0ac8831c1f6d635a86ad0de2847b66004adc388ab308747054585aed46b459427f293b9eff623d37f6cddb918e66be11e0857b56644f79e8f1b0217fe78ec54207846200009b565b62010df66167808801357f25035483347f8c46ae89a6c77de2b434cac879439080953ce3c0bee6fec8022e7f0eaf85131e5394e932313ee75cc5e48743b9a938256645e145583b4ac8d0ff7a846200009b565b62010e496167a08801357f16d7ca8dab999484e2f86bac2c2886df122d20c2b65bde0355af2df6f43fa56a7f0d35132e12884f45f6fa1c09e127e23dc0f34dc752276fc565be724506b500e1846200009b565b62010e9c6167c08801357f2b1c091b52b05ba8c8ec68637bd4a589f62cc1049cab6d7981a3490409be989c7f088d155e9245e9d76988b3630baa6430d414133da15306ae5d0158e03567ae2e846200009b565b62010eef6167e08801357f29c64c79e376eb7425c4bd5a163da3e60218e6c3176d3e38a41a78245ff3715b7f303df73d22720a32d0886182a728b50c903fe7959a05456df902a6c04b38a84d846200009b565b62010f426168008801357f0745d6251606b44b6fd7de79176ae48157b90e29530514d6528c96487e39ae527f027d63e6b68ac7d9e4a9dfa73b99b4fd7aedce1c30d6e02ef00915cda6daaf4f846200009b565b62010f956168208801357f1aeaefd86de543cd6885caf6d7faa9639569000c442e6bafc0ae9e33c04bc39f7f0c152c858fc2e42aa4d8ddeee12a5cd897523fbc0bc6fd21a5e769ccc895e9df846200009b565b62010fe86168408801357f1aadc18e9ac9646e471b6c219efd62a6f393dd438b797c78bc4630b25f77017b7f26d58f1caa565c7d0ba759d159fa4227ce6e27115072005caa1fe2a04ce0e694846200009b565b6201103b6168608801357f2ea798e03bd517eebcbf22d24acc5bd432f7896dac9e777456ee44190290308a7f1c5829844edeecaab0f23b88de2efd205532eebaebe5838aee8d466c80118441846200009b565b6201108e6168808801357f298c269f93b27c6be783dc17361b92ad1167610c113dca01bacebd21bcc4fe787f246750e3c0ceb3e3dd92f966d22d9f6da9ed20871d52e1c02143533f900d0746846200009b565b620110e16168a08801357f133d9c34f0a55e5fc45e04c083f0f2de3e358412db1c9cb0b5ea5489dc6724ca7f2c5053bd4ee3af9bc1cb6ed380fb1476d38539d7cccbb94cb3d21048f7073e86846200009b565b620111336168c08801357ec1e503bb0ea69999e429cf8665dcfbe6cb141b1e397452a109a8321c1233597f0aaf2e37b44f214852f5f40812f310d34a80d6461f5cc1cc8f92a6819cd7a83c846200009b565b620111866168e08801357f21dff46606bd51bdabb3047adc1a0e1fe7e201d3be593656e95f578c1702e5ec7f29f800ced8e6900a201dbd456fbb57f3683541952ce4e453ff4afd5e1961535a846200009b565b620111d96169008801357f0823230eda0e17981f4158b829c4b317f8b64f1e68471681884eaa11bc14ac7f7f03732f7b1c77af060c54ba082b994068e69187defd6d7d02616e8f16217abcfd846200009b565b6201122c6169208801357f0b09253b8bb682ac663343180a4dd42ec10e78dc722dc76f970f4ea4fbc1b54f7f0862466a3ff892b2405022b96706bafab348406c72d6f2c7155ab63dea839ded846200009b565b6201127f6169408801357f26b80d11e77448de163e4a8d5f5d11c489b5fd43effdd8b094a0cf3c9945c9937f0311f27ef6677fa29a4d4a029216b578908799c60aebf8722b6aa35dc52f0c30846200009b565b620112d26169608801357f01a1bb276b2ed53554b8d3af12185ca0d38e4833a4d904cc457a7c0c9901c2557f122c5cf5e72cce7ed705140a882e86938e2768041a776eeace48e8f7b002e1c7846200009b565b620113256169808801357f2f99067ff7258e2ae20e9be3deb7ebc8c719e7ae9ffd814e6f66c174dc9683e57f182447276f5ef2984513ba1ee458923f474f38a237ed106ccb7ae5ed8003e1e2846200009b565b620113786169a08801357f139fb0d4b0853809c02e024d81ef8a585e283cd2b20dc0c15c65e34b624d07bf7f2410609c1296fe4323774ea249d49636652498da5b79cebfbf1de47409fb73c0846200009b565b620113cb6169c08801357f2644bd8e98b3016a144ba36592eb92928066401e8ae0b247f740cc04f9c49a3f7f11963e548e3700ccf9d7888bb0c2ed73ccc38e411840b9aead53d68d904ba413846200009b565b6201141e6169e08801357f2e8fae684a9e2ec8c0ebf288f8bf5de571a6c94293d00c368a93ede989bfed817f1084e3054f5bfce90527faa701e0ec4cf60a518ee8a5c1f471cf7a065dc4f0a6846200009b565b62011471616a008801357f1a79420538d37d02924c0e82df7d28359bc8be3234a6b9905195ed31df6c910c7f0853035038530bb2c4e88f4e3249f22555380f429dbf81d2809e92b37cfd3895846200009b565b620114c4616a208801357f2d718f7621b04eab035d453a63bfadbc08cac6b0f206777fb1c25c599610249e7f2cabd0b04df73b855064e5acd52c348fab1651b5bf8c95406e2f9bb4fec49ea5846200009b565b62011517616a408801357f138225d15147afa7ca5c7b0eafa2f1c616ed71f757361bef6ac2b96ab3c92c197f25cbd260dea71d4eaad4b336ec76784732182cfbba6fea6eeb678e15e23146e0846200009b565b6201156a616a608801357f0797fb44a3c0663f09fe2a1cfc5a649245b9025a37dfb2c1b5adc15cc8008bb67f2e47fb4fd07b2c8a7be7f31b22b278352a72bde7ecb9fd3186a9b26ea89a2cf4846200009b565b620115bd616a808801357f25cbf97a42c1464989cbf353ce871fc1b001f8dcf1560be5da2510bd56b89b297f0e19f159980836d7d5149a4366f13e2f775edcd368d9681b8ec8554a40981abd846200009b565b62011610616aa08801357f280bd1ec8e124f1f08ae32a3c3bccb04079189d73db89243e3c523fbe677c1727f078c253c65cadac7b6ca3f3c0ffc928767198b7da7b903f36afe271ef52ea502846200009b565b62011663616ac08801357f2c83ad2e4e9684b91129afb727d418f9e767b35476796140291d09edadde35c37f2965bd352aeb42dce5c658fd116b86dc71df4a03ddd206758ee4e961d0ee0a86846200009b565b620116b6616ae08801357f15e2aaa652128ceb48a2c5e02017276251bbc55b463e57ea257f90311f9269477f2a9a9552f5659f3f76e78cec565bb89339035e584844297c7bd763822d152ea3846200009b565b62011709616b008801357f06725a6220c6558a5ce1aa89f3d509715be792c3146224a2497ee0551e98facc7f27888af93d4287333c41a298c7349f11f9b51039f268b25f7a651183c1b76820846200009b565b6201175c616b208801357f1630895917753ec7534891765f1cf60f4b8de63b012167d89d661d99025738807f2dbcc6eb5fb3cb9663bd5115ad9f6b27edc645ea605b681879a09522bed254ce846200009b565b620117af616b408801357f070244695982bc12d431c313d05958951a4849003ea57c9ab2f7f57fb3398e267f2707fe3feac0ba1633c655487c9fa32357e3241daca3b15066ea6cbf70d35e70846200009b565b62011802616b608801357f07cb856fedc33f0fd0b2aaad961e745320c550e5e48bb9fe31c9214959bc07fa7f288d9c495c58dff8f12d032287e4ae88b4196a30882d58058bb765592f014fde846200009b565b62011855616b808801357f01567816b384d6951816c8043f49098c944e701f37b4b3c613d2fba817f6a1c77f2602a62fcc5258c83b0337a8a87cabf3d6860b341636bac6e8b7aa9f99fe93df846200009b565b620118a8616ba08801357f2a300694cf69bbb2666c58e01831ddce6f1478b6ec29fcebe89ecbbead688e927f04c930c03c07a7584aa8bd7b14c5f59e3adb21b5a1399c36907ff131bf8986d0846200009b565b620118fb616bc08801357f29b84e3a9181c566a7650add3a1d8273ca76fede718a3814c37200af390d50077f295993f88ee38c04c73af47cfc961a171287d681b26933edc3e0996801412caf846200009b565b6201194e616be08801357f22d9ce21f77271fa29eb8c3c1c0b200b99b33f3795eeb597a16cf4d5706cf6c77f137fcad5de56a1f194e315f1e0b56a3ed615ce4e0c0bd74efcd70acae82deb2c846200009b565b620119a0616c008801357ebbdd893fffc9a110ffecfd81e64f8d3f72d585eff34e1fc04cbd693c40d8797f2d2321df0e112016be4a04cec9592ef45d79f0d27b29efe08fac22ed648666db846200009b565b620119f3616c208801357f121bbae0555c79f3131af03f7c4f214fd1e4d060108d3c192b0066d8d05e29187f26c48996106cf5a0356bef584866dbd4c18b17dc29199e914d27465f08ec4156846200009b565b62011a46616c408801357f0d738f6d9dcbe486cb4613715052ba94f74b8786206e5bf119c05cb5b170abe27f0ceeb15b2521a4b15e676518154d7daaade674aa08e05c3547d3cee606af435d846200009b565b62011a99616c608801357f21e6340f8a62b7f562c50a5c84f83164d96e808cb125b989f7d988d867f6f9357f1a1fe61d486ed527937711db2f247df950bd45d4af61f4fb6e13bf5099d3a7f7846200009b565b62011aec616c808801357f0659298be3ad048902585947dca9e421f2519dcca4beb648a2e429cc5e5f8bbf7f30068a37792fc78e7bad567bdc16cc76aa2c3ae871bbc10867a6a479d45601f9846200009b565b62011b3f616ca08801357f0667c59a34d931c070fc38e084bf2ea74989a98fbc7d39818ccf0ef4a41723bb7f1bd7975f5d092eea0607e3521fce4d43b65e56fe47b33c898dc9cdbe05b72efc846200009b565b62011b92616cc08801357f141e5d41b32115e247bc42453695eff7f3f837cd11333d288a7f4be74d05ee317f2cb6ccd24a9fc69b43de181b3cc67fe2188b650c881a62ceaefde8822aafe3b3846200009b565b62011be5616ce08801357f0f690549fb9fdd3e888e27f4e4d6619f43e6a0b246d85940981284f6fa917bc37f0961e150865921c0e58f4a160f33b4780e20b0d6dfd0a4e65770d273ab29db76846200009b565b62011c38616d008801357f13cbf2c3fd48f66bf3b280bdef66c7b3a4a44ebb72aa66120905618c8be49a217f2d06bf80ddefe20664c00a5c260abc3b8ad8ce097419536febeb7eb59a5bfad6846200009b565b62011c8b616d208801357f05af5d47b457471e1279d3395a8ab6bc9233a9141a025e4076c495689223067b7f0122abf7dc080833170c1a9851edec1a899000ccbdc7fd0234462d570ff93e52846200009b565b62011cde616d408801357f10d456e985463193430aa8600f919b7c502293008bdf74c14cd5a126edd0a6a07f119082f552df2b986ede5417b506b6851c3f7ab5329a95049e89ac32f0a8667a846200009b565b62011d31616d608801357f268cd720664383da64ae70b7f536db825b7f202653d9d54084e2b853953430ef7f079b7837cd9241c1a0f7f85a0db9984956dfe78a51642aedc11e72ed5580eb3d846200009b565b62011d84616d808801357f2003f23938d1a9b7310a0c04ea8b748fe3668d8e63a97dbc72ed43e7435dafa17f04e0754ce7d5762be8d724afd1c7413170eb05dc3d0969cf2a76df461b2e1d3e846200009b565b62011dd7616da08801357f1ba812cf00ca73cc3c3c5585f22f8d2d92c5fa289b113344a98d611409a9b13b7f09a597d6f5a6d0539e40b66cfc0c7b2251c0dd83079fe4cd590353cb838018cd846200009b565b62011e2a616dc08801357f2f2be1191791ecd084a958a66815a530a2b3cfd6f19ffd62a905fc139698b1bb7f083a9493a3bbd4194f9fe4c4b8ea14331a2e11f911747857c5f2bfbbc23cc38c846200009b565b62011e7d616de08801357f2afea4c4bd3f420b92086980f4a206c61efd164fea65502d7a59f44855caf4697f2d17b75e38bc2085f0998ed0a6550782d3468749cdacc087f71391eec93b8ced846200009b565b62011ed0616e008801357f2c001aa227943ec0dd85107fd638093ff316de60f7575e1154b434d131729f497f0d5a5db9a619af747781ada15f6112e79a70d690efcdd46ed5ee6c1b4ce3da32846200009b565b62011f23616e208801357f0efd312b99a2c834427a6e5fc732fc6c344554fc95aa1961944e1a8a145104e67f1fca16993ecf5cda879359818d3f072f05745040e0f9cfe74e2ae87d0e5d4ec8846200009b565b62011f76616e408801357f0bc2d3d18c61d2d445e5d19e380ae747f0c932785ac1d4b0457830f4e62a2c387f04608c1febf1d768e149db612b79e88b1bbd25391095e7ddef485203a322f6c8846200009b565b62011fc8616e608801357f1f75e703b61b9812ec9bf6ea31d7644009e5052311b8998e58dc41c96166a3417e4ddeed15465719932c0713b65be3b77a3cd000435b0162fa26ba522c1ce1cd846200009b565b6201201b616e808801357f230a55ac6d8e56d08d9060416a25805058af6756fa5353fa50d86688c0960c837f06f28498d0aec7cf5d88942afc14fbf24dce42bf3f78dc6eac7c7a5ab683295c846200009b565b6201206e616ea08801357f0a0da197b649fde4d832dd09e03e4c8a6fb53eb931c148af44f6f78e71978e8e7f27db4a98855f3178c2c5dc59250d62cf6e725663747a10ce28a28784d508448e846200009b565b620120c1616ec08801357f2e48775cab556503419d471f4eb18d272255f618c4f68cbfb5fd13dca4ab5fb57f0940e6629d5765665e5382ae21232e722d44efe2c9fd14320b63a3f790e74d08846200009b565b62012114616ee08801357f0cba87891dd5340a156ff31077f7a313aa9c2a5eaaed0deff105f98e5de759aa7f05c921972ef0b742d8ac6d2d97c4d416ac89e9d9a5baf9a816dd6ff1e88079bf846200009b565b62012167616f008801357f2303f66c3b5527f927964c76d2e1077dc67dd786c16b92a8eb5d818df632e54b7f097f8250b984d5345adad47037c2cce8bed3b330d89a6208bcc44f2ba9c3e803846200009b565b620121ba616f208801357f28d1c38c4e1e4828e1660c0fa3cbac0e7f2d52911ba12336b6951f1f99823f687f0fa2d337842c953ed4e4d9e674e45b0db051fedf9053c217ce08851c8ca9e403846200009b565b6201220d616f408801357f169c85de13f7a7de3cc677da977fb2306964b68f7f4e2d7780c1ecc64f0be8687f2a1853dfa31dcc1ba1fea7a642ffd81b3900c37622fe82a2acb8361ee96b53c3846200009b565b62012260616f608801357f28566ddb08d7ddbdb65559190457a5c3bff3161503bacec3cbb357b27f3b9a457f055702579d29cc14df83440dde10bcc94d67c8b3da275b8405706a596292b958846200009b565b620122b3616f808801357f24258c027d9ef7129f7b1db98389730cda57e6da661c3397fd05d90c0b0ec3897f0bdfcf34c310ad19cd7fd03d8a0a92d0932e87d6d23990d9a5108e591b0dff7f846200009b565b62012306616fa08801357f1eef40b020e211ea9c84823cf4b0bbd926af489557529b1639c7e53cc29cb7407f16c56f9bb70130901e7ab158915418b5fb83f16a351bfc1dc2745d25f9f0bab2846200009b565b62012359616fc08801357f125d4aaf530e44bb101c9836f493a6694db141adaffc7a67825235d3efa1612a7f19896f7d48e8f4a4171daa7e8bc2ead95787015bc2fb6923cd1f35a4f698cb10846200009b565b620123ac616fe08801357f11310207fa775ceed6147d1792549d22f9f30838d7da9863c215f6e2453a4b3a7f12897389e5415b97a6a390840582b02f09b94f2d591ac55ded4fe6ee7d1fd1c8846200009b565b620123ff6170008801357f2f79cda3c3370e47eaedad6365eb597076db9455ce716c815205bbdd867245367f18425d5fdfc5c46f899cce7bb5e875398a813dae032892d2698f2bf4c4e3508a846200009b565b620124526170208801357f1701cfa27368dc2ca8c39b187fc419760feec9da80e961c9bedeaf13bc9071647f23d4c1313ced4d237c72638ed3bca71dfd9b6eb2edfe70c3c05adf545153e16e846200009b565b620124a56170408801357f180e7d0c9b37045dae38f55b8c4c5b496dcbf0a638097a48a6e21b9a740723547f06d54ec93f3d8f764e4b4446f5f6e0661e831febbe4843644773d319b2209744846200009b565b620124f86170608801357f1423078cbfdf3f6031c6c52eed99e87af0b5eef9ccc07631922652aa5166626a7f02e0b29b406550253a003638fe6a367d60033779e8b0617d33929b4cb409db71846200009b565b6201254b6170808801357f2ad7997ff5cf6a2232525f3ff44bbe3973c9d90dbb64b1958da36bed6b67c8417f2e781482b49d23cf74c03f6342bf868789e815fdfe21671c0e714e7181c41828846200009b565b6201259e6170a08801357f25cbb58dac42af59bd89905007ba39710e8ab00e1a6e13161b53d7cdff8a9cc07f0e255828fae3782709757b9af5941d355bb0c595b1399bdb568f934c6c15a362846200009b565b620125f16170c08801357f2744049697280b3e0ad2e19ad8b503137c1a27b9de8517ca3f4b7fef3ff3062a7f08993246da0053ab4292dc489634f96a0e839caf5ffebc8a1df07173ec269529846200009b565b620126446170e08801357f13baf37e6501419bb48aa6346b08d2bd4319a5540fafec88ee4b51d9d7e9c8097f1abacbc33cb51481456a781b71c8d8603025ba7dbecc19cbd07ebab63d410741846200009b565b620126976171008801357f12ca32d045ea2aaa7c3b01f6d01bf022ab0b4b53506d20184ee974366eb7a3a17f052c194f0f0af711cbfb67c4eba9ac2049323f5ac93a4f675ea449ded3f0adf3846200009b565b620126ea6171208801357f20abdc2182a6d2cedb632ef82f152f7512bb79638e2d2b2543463ceb3b6b67ed7f10dde48dcb3510cee6bd41738ddeef4f9cdba0038370d130f365559662766593846200009b565b6201273d6171408801357f301c597a395f48b5d47ec04711bffb03ef3ff6297fe23414a1e1524f0a823aec7f019521de685668b69ce4a84ae5166a5d097c073b22256f4733d810a0aa4dda4a846200009b565b620127906171608801357f2fd8d66262af10ab2a07864a3a2d4465f0936da48dc9c9f68cd5b9b8ef0657297f18a9573dd751c05e55335b43d2be7c8c531913af790029e1b4891bb051038f4f846200009b565b620127e36171808801357f0878d8d71fc930ad5a56f71c580f4ef543561c75269c85023de63275f29dc08d7f0d1e4b7ac5c8a45a4d70a97ddf57b5bd3fa6d53bdf47c128c887fbe96b819031846200009b565b620128366171a08801357f1ecb84592b35b46d6a55bed4ec03305e5bf8a77e6afe84ef6c50374dc43d1c957f1cab3307d83cda2415b40c62d5e66c50e11a9950533fd27931c2d2c17297f577846200009b565b620128896171c08801357f2560b84c825a917be1d6e24c69c6e3cb15e2150ccbb92c54586e81d78c1eb2ab7f171f5cf26ae163976d9d2b2a0a3a103a45d327a40cb3d192130bbc3349af5bfc846200009b565b620128dc6171e08801357f015f3359ab4918c0f3c824c2144917d191e17d6204b4f0d61223323e528047b07f138baba57a78421e4f53fe450c6157e58642ace2b11a649ca4bedcbfb532bcf7846200009b565b6201292f6172008801357f2bfb7f5323745c4b205688f3c4815dcf197293afaa76db2754a0c812555616197f197c8d55e3b1734875af0be6cfae0815e61221c1be504f05e2540371a7b57f9e846200009b565b620129826172208801357f13a3aeff62418a7295bde13c1b00dac16b9dafb09945b6556971da12414d42137f2aab9c13472bdd110c25ff688f15b7deda8de8e631b347201f06b1d920887960846200009b565b620129d56172408801357f29d773099a92894ac7c5abb278617919ffbdff825c33dee379246e929789f5807f2bf12a4e743d6c688a10fc86b19faec7806ac27e3d54fb536c2eb92054e97743846200009b565b62012a286172608801357f20636abe2865cec5b9cc0b11474ca0c4a7183fc860d68c57e869ce824d57c3e97f198fda7b47600ee58634b5f362f06331baefbfff5381d27e77711821e0c4c780846200009b565b62012a7b6172808801357f0e11a80bf550b1c8334992b5db5eae0369b36db20c6ddd36446ee3e1246c09627f09c980e977e46e8c73b446bb933b029b9e8acaf9947f463b8727c850c2cc7e64846200009b565b62012ace6172a08801357f1293255c1012eb6d0f9b663b45c4bd5adb015dfce82732e36d3c6a7edff653717f2b5612ea3b73532c9b383c5a15857a01870f90b042b83bad7e5bf634ff9f0d4b846200009b565b62012b206172c08801357e053bd5e791513d46d3fb891606e8b65503fab35697ae7ba36d888ec99829527f1686674a71760b02bbac920bed5ef076afffc0c6d91b0322d38f198189c5972e846200009b565b62012b736172e08801357f0e761090e1bfe9d29a700a88a1163af7a724a0ee09100c6982c242e7a7a750db7f1f42c26e9d5ab7abd4c63043540ce1fea902a1e51d78e6e7946ee859ba2d961c846200009b565b62012bc66173008801357f10289dd6f556736ae3446de63489d174e209dc824fdc40559cb15a5788a19cb27f0f489485963d359b9ff3bc96d345185ef64c444368e3b0f8ea4f0ef58a94af0d846200009b565b62012c196173208801357f0d8c40f433803a2b01c5ca94096a34a8685ce50eb33ddab9fa75db2cdbb5f2c67f24ca454bc077332a30d333d0451c1d450282c1b6ec92a61d359ca4460441ea40846200009b565b62012c6c6173408801357f1b5cbc88d79d23ce9da51e8a60d5489c129c829377f3dc924739105837c479b87f024de121b71bc298469217b8eb8fff29a37fce13057115163f4d970fe4b9a52b846200009b565b62012cbf6173608801357f060594531d2d188473bdd1c1b60ed7ac6ba87aa47c32aef7b2d32499d83377d77f1401f21333de06ed301915e3691a553f597fd988a51cd9478507acbf82360650846200009b565b62012d126173808801357f1fcbe7a540f3849b6a04a4290ea1f3a9dd1164b78d7a930a34cf4cabd6faeb057f29f0a77031f4d0885b3eecb46dd379980154d5f241495e9c720364f83c519b25846200009b565b62012d656173a08801357f1be56fc2f3fec41944c340e6896df0e6c0ca8a6be91ecb86a3c4b96ea1051f5f7f20e7e42bfaf425e75e12b0f9867577ba9f9ef31532f95b385a908316416fb091846200009b565b62012db86173c08801357f1ab736c8482ae27eb2899fdfe0758fde6a08e779b0dc6e05282bba76212ff7867f1bb62f369c32e5ce0a1e6bc5fd1f685610c2548034ffaf3a469149a449c2ce26846200009b565b62012e0b6173e08801357f0a1c9171d892e7e7cc08637a0f20b8a8b97b9643b8682045fbca71a8d127fe8b7f2ffc0f58436325c9c23f75597a6320c45c3d1318a2383890b66d4d5d7fda1c66846200009b565b62012e5e6174008801357f1d7f9ead6f74d310017adaab31cba57fcc495ccdf1dff2c5347f3438e76b60857f0590e9e8a65fc39c5a6cf5654f8c7556a3a64607cb93b1622daad96abd5ace79846200009b565b508235815260008051602062016bd1833981519152602084013560008051602062016bd183398151915203066020820152833560408201526020840135606082015260408401356080820152606084013560a08201527f2b66dcfc577a7dd2d657dd0d537d99afb08e6d0840525f891facc2fadb4b7f7460c08201527f05e0b08157bbba7b315a7bc9a7450c019c620bb411669ebab93bcfc03a78084c60e08201527f2ec6be87ef24b3193dfa7f95a04afc8edc07e39618c4e0d1a94d1e50517ab8536101008201527f2e61f3ec73f9156816a4824ddbdb3a98389627356c97f4e5b44e4ed1566cecf76101208201527f0ac508a05d9af154cdb682025fc8c308796701d94403ca47f412d5dec3760e2e6101408201527f1ec5d57e54cc01068b370962e13e3d955cc872499893a7ee9e3d65b64c05e819610160820152600087015161018082015260206000018701516101a08201527f198e9393920d483a7260bfb731fb5d25f1aa493335a9e71297e485b7aef312c26101c08201527f1800deef121f1e76426a00665e5c4479674322d4f75edadd46debd5cd992f6ed6101e08201527f090689d0585ff075ec9e99ad690c3395bc4b313370b38ef355acdadcd122975b6102008201527f12c85ea5db8c6deb4aab71808dcb408fe3d1e7690c43d37b4ce6cc0166fa7daa610220820152843561024082015260208501356102608201527f2f07cd5329c2bc2996694027df1961ed1406a9ae82d38de2db765f400a0645386102808201527f30223d9d879d76346f2de0edac875d5672a0eac43e949ca51e3dc520396322a06102a08201527f2788fe0ebf2c51f53a512c567c4ec3135e9c5b5e237b0e2638fd1fe720c55d206102c08201527f244bb99e92949d5e21b54bd7fc7c1dcb9361d177b90ae07ee88678cf459210c66102e08201526020816103008360086107d05a03fa9051169695505050505050565b604051610380810160405262013136600084013562000066565b62013145602084013562000066565b62013154604084013562000066565b62013163606084013562000066565b62013172608084013562000066565b6201318160a084013562000066565b6201319060c084013562000066565b6201319f60e084013562000066565b620131af61010084013562000066565b620131bf61012084013562000066565b620131cf61014084013562000066565b620131df61016084013562000066565b620131ef61018084013562000066565b620131ff6101a084013562000066565b6201320f6101c084013562000066565b6201321f6101e084013562000066565b6201322f61020084013562000066565b6201323f61022084013562000066565b6201324f61024084013562000066565b6201325f61026084013562000066565b6201326f61028084013562000066565b6201327f6102a084013562000066565b6201328f6102c084013562000066565b6201329f6102e084013562000066565b620132af61030084013562000066565b620132bf61032084013562000066565b620132cf61034084013562000066565b620132df61036084013562000066565b620132ef61038084013562000066565b620132ff6103a084013562000066565b6201330f6103c084013562000066565b6201331f6103e084013562000066565b6201332f61040084013562000066565b6201333f61042084013562000066565b6201334f61044084013562000066565b6201335f61046084013562000066565b6201336f61048084013562000066565b6201337f6104a084013562000066565b6201338f6104c084013562000066565b6201339f6104e084013562000066565b620133af61050084013562000066565b620133bf61052084013562000066565b620133cf61054084013562000066565b620133df61056084013562000066565b620133ef61058084013562000066565b620133ff6105a084013562000066565b6201340f6105c084013562000066565b6201341f6105e084013562000066565b6201342f61060084013562000066565b6201343f61062084013562000066565b6201344f61064084013562000066565b6201345f61066084013562000066565b6201346f61068084013562000066565b6201347f6106a084013562000066565b6201348f6106c084013562000066565b6201349f6106e084013562000066565b620134af61070084013562000066565b620134bf61072084013562000066565b620134cf61074084013562000066565b620134df61076084013562000066565b620134ef61078084013562000066565b620134ff6107a084013562000066565b6201350f6107c084013562000066565b6201351f6107e084013562000066565b6201352f61080084013562000066565b6201353f61082084013562000066565b6201354f61084084013562000066565b6201355f61086084013562000066565b6201356f61088084013562000066565b6201357f6108a084013562000066565b6201358f6108c084013562000066565b6201359f6108e084013562000066565b620135af61090084013562000066565b620135bf61092084013562000066565b620135cf61094084013562000066565b620135df61096084013562000066565b620135ef61098084013562000066565b620135ff6109a084013562000066565b6201360f6109c084013562000066565b6201361f6109e084013562000066565b6201362f610a0084013562000066565b6201363f610a2084013562000066565b6201364f610a4084013562000066565b6201365f610a6084013562000066565b6201366f610a8084013562000066565b6201367f610aa084013562000066565b6201368f610ac084013562000066565b6201369f610ae084013562000066565b620136af610b0084013562000066565b620136bf610b2084013562000066565b620136cf610b4084013562000066565b620136df610b6084013562000066565b620136ef610b8084013562000066565b620136ff610ba084013562000066565b6201370f610bc084013562000066565b6201371f610be084013562000066565b6201372f610c0084013562000066565b6201373f610c2084013562000066565b6201374f610c4084013562000066565b6201375f610c6084013562000066565b6201376f610c8084013562000066565b6201377f610ca084013562000066565b6201378f610cc084013562000066565b6201379f610ce084013562000066565b620137af610d0084013562000066565b620137bf610d2084013562000066565b620137cf610d4084013562000066565b620137df610d6084013562000066565b620137ef610d8084013562000066565b620137ff610da084013562000066565b6201380f610dc084013562000066565b6201381f610de084013562000066565b6201382f610e0084013562000066565b6201383f610e2084013562000066565b6201384f610e4084013562000066565b6201385f610e6084013562000066565b6201386f610e8084013562000066565b6201387f610ea084013562000066565b6201388f610ec084013562000066565b6201389f610ee084013562000066565b620138af610f0084013562000066565b620138bf610f2084013562000066565b620138cf610f4084013562000066565b620138df610f6084013562000066565b620138ef610f8084013562000066565b620138ff610fa084013562000066565b6201390f610fc084013562000066565b6201391f610fe084013562000066565b6201392f61100084013562000066565b6201393f61102084013562000066565b6201394f61104084013562000066565b6201395f61106084013562000066565b6201396f61108084013562000066565b6201397f6110a084013562000066565b6201398f6110c084013562000066565b6201399f6110e084013562000066565b620139af61110084013562000066565b620139bf61112084013562000066565b620139cf61114084013562000066565b620139df61116084013562000066565b620139ef61118084013562000066565b620139ff6111a084013562000066565b62013a0f6111c084013562000066565b62013a1f6111e084013562000066565b62013a2f61120084013562000066565b62013a3f61122084013562000066565b62013a4f61124084013562000066565b62013a5f61126084013562000066565b62013a6f61128084013562000066565b62013a7f6112a084013562000066565b62013a8f6112c084013562000066565b62013a9f6112e084013562000066565b62013aaf61130084013562000066565b62013abf61132084013562000066565b62013acf61134084013562000066565b62013adf61136084013562000066565b62013aef61138084013562000066565b62013aff6113a084013562000066565b62013b0f6113c084013562000066565b62013b1f6113e084013562000066565b62013b2f61140084013562000066565b62013b3f61142084013562000066565b62013b4f61144084013562000066565b62013b5f61146084013562000066565b62013b6f61148084013562000066565b62013b7f6114a084013562000066565b62013b8f6114c084013562000066565b62013b9f6114e084013562000066565b62013baf61150084013562000066565b62013bbf61152084013562000066565b62013bcf61154084013562000066565b62013bdf61156084013562000066565b62013bef61158084013562000066565b62013bff6115a084013562000066565b62013c0f6115c084013562000066565b62013c1f6115e084013562000066565b62013c2f61160084013562000066565b62013c3f61162084013562000066565b62013c4f61164084013562000066565b62013c5f61166084013562000066565b62013c6f61168084013562000066565b62013c7f6116a084013562000066565b62013c8f6116c084013562000066565b62013c9f6116e084013562000066565b62013caf61170084013562000066565b62013cbf61172084013562000066565b62013ccf61174084013562000066565b62013cdf61176084013562000066565b62013cef61178084013562000066565b62013cff6117a084013562000066565b62013d0f6117c084013562000066565b62013d1f6117e084013562000066565b62013d2f61180084013562000066565b62013d3f61182084013562000066565b62013d4f61184084013562000066565b62013d5f61186084013562000066565b62013d6f61188084013562000066565b62013d7f6118a084013562000066565b62013d8f6118c084013562000066565b62013d9f6118e084013562000066565b62013daf61190084013562000066565b62013dbf61192084013562000066565b62013dcf61194084013562000066565b62013ddf61196084013562000066565b62013def61198084013562000066565b62013dff6119a084013562000066565b62013e0f6119c084013562000066565b62013e1f6119e084013562000066565b62013e2f611a0084013562000066565b62013e3f611a2084013562000066565b62013e4f611a4084013562000066565b62013e5f611a6084013562000066565b62013e6f611a8084013562000066565b62013e7f611aa084013562000066565b62013e8f611ac084013562000066565b62013e9f611ae084013562000066565b62013eaf611b0084013562000066565b62013ebf611b2084013562000066565b62013ecf611b4084013562000066565b62013edf611b6084013562000066565b62013eef611b8084013562000066565b62013eff611ba084013562000066565b62013f0f611bc084013562000066565b62013f1f611be084013562000066565b62013f2f611c0084013562000066565b62013f3f611c2084013562000066565b62013f4f611c4084013562000066565b62013f5f611c6084013562000066565b62013f6f611c8084013562000066565b62013f7f611ca084013562000066565b62013f8f611cc084013562000066565b62013f9f611ce084013562000066565b62013faf611d0084013562000066565b62013fbf611d2084013562000066565b62013fcf611d4084013562000066565b62013fdf611d6084013562000066565b62013fef611d8084013562000066565b62013fff611da084013562000066565b6201400f611dc084013562000066565b6201401f611de084013562000066565b6201402f611e0084013562000066565b6201403f611e2084013562000066565b6201404f611e4084013562000066565b6201405f611e6084013562000066565b6201406f611e8084013562000066565b6201407f611ea084013562000066565b6201408f611ec084013562000066565b6201409f611ee084013562000066565b620140af611f0084013562000066565b620140bf611f2084013562000066565b620140cf611f4084013562000066565b620140df611f6084013562000066565b620140ef611f8084013562000066565b620140ff611fa084013562000066565b6201410f611fc084013562000066565b6201411f611fe084013562000066565b6201412f61200084013562000066565b6201413f61202084013562000066565b6201414f61204084013562000066565b6201415f61206084013562000066565b6201416f61208084013562000066565b6201417f6120a084013562000066565b6201418f6120c084013562000066565b6201419f6120e084013562000066565b620141af61210084013562000066565b620141bf61212084013562000066565b620141cf61214084013562000066565b620141df61216084013562000066565b620141ef61218084013562000066565b620141ff6121a084013562000066565b6201420f6121c084013562000066565b6201421f6121e084013562000066565b6201422f61220084013562000066565b6201423f61222084013562000066565b6201424f61224084013562000066565b6201425f61226084013562000066565b6201426f61228084013562000066565b6201427f6122a084013562000066565b6201428f6122c084013562000066565b6201429f6122e084013562000066565b620142af61230084013562000066565b620142bf61232084013562000066565b620142cf61234084013562000066565b620142df61236084013562000066565b620142ef61238084013562000066565b620142ff6123a084013562000066565b6201430f6123c084013562000066565b6201431f6123e084013562000066565b6201432f61240084013562000066565b6201433f61242084013562000066565b6201434f61244084013562000066565b6201435f61246084013562000066565b6201436f61248084013562000066565b6201437f6124a084013562000066565b6201438f6124c084013562000066565b6201439f6124e084013562000066565b620143af61250084013562000066565b620143bf61252084013562000066565b620143cf61254084013562000066565b620143df61256084013562000066565b620143ef61258084013562000066565b620143ff6125a084013562000066565b6201440f6125c084013562000066565b6201441f6125e084013562000066565b6201442f61260084013562000066565b6201443f61262084013562000066565b6201444f61264084013562000066565b6201445f61266084013562000066565b6201446f61268084013562000066565b6201447f6126a084013562000066565b6201448f6126c084013562000066565b6201449f6126e084013562000066565b620144af61270084013562000066565b620144bf61272084013562000066565b620144cf61274084013562000066565b620144df61276084013562000066565b620144ef61278084013562000066565b620144ff6127a084013562000066565b6201450f6127c084013562000066565b6201451f6127e084013562000066565b6201452f61280084013562000066565b6201453f61282084013562000066565b6201454f61284084013562000066565b6201455f61286084013562000066565b6201456f61288084013562000066565b6201457f6128a084013562000066565b6201458f6128c084013562000066565b6201459f6128e084013562000066565b620145af61290084013562000066565b620145bf61292084013562000066565b620145cf61294084013562000066565b620145df61296084013562000066565b620145ef61298084013562000066565b620145ff6129a084013562000066565b6201460f6129c084013562000066565b6201461f6129e084013562000066565b6201462f612a0084013562000066565b6201463f612a2084013562000066565b6201464f612a4084013562000066565b6201465f612a6084013562000066565b6201466f612a8084013562000066565b6201467f612aa084013562000066565b6201468f612ac084013562000066565b6201469f612ae084013562000066565b620146af612b0084013562000066565b620146bf612b2084013562000066565b620146cf612b4084013562000066565b620146df612b6084013562000066565b620146ef612b8084013562000066565b620146ff612ba084013562000066565b6201470f612bc084013562000066565b6201471f612be084013562000066565b6201472f612c0084013562000066565b6201473f612c2084013562000066565b6201474f612c4084013562000066565b6201475f612c6084013562000066565b6201476f612c8084013562000066565b6201477f612ca084013562000066565b6201478f612cc084013562000066565b6201479f612ce084013562000066565b620147af612d0084013562000066565b620147bf612d2084013562000066565b620147cf612d4084013562000066565b620147df612d6084013562000066565b620147ef612d8084013562000066565b620147ff612da084013562000066565b6201480f612dc084013562000066565b6201481f612de084013562000066565b6201482f612e0084013562000066565b6201483f612e2084013562000066565b6201484f612e4084013562000066565b6201485f612e6084013562000066565b6201486f612e8084013562000066565b6201487f612ea084013562000066565b6201488f612ec084013562000066565b6201489f612ee084013562000066565b620148af612f0084013562000066565b620148bf612f2084013562000066565b620148cf612f4084013562000066565b620148df612f6084013562000066565b620148ef612f8084013562000066565b620148ff612fa084013562000066565b6201490f612fc084013562000066565b6201491f612fe084013562000066565b6201492f61300084013562000066565b6201493f61302084013562000066565b6201494f61304084013562000066565b6201495f61306084013562000066565b6201496f61308084013562000066565b6201497f6130a084013562000066565b6201498f6130c084013562000066565b6201499f6130e084013562000066565b620149af61310084013562000066565b620149bf61312084013562000066565b620149cf61314084013562000066565b620149df61316084013562000066565b620149ef61318084013562000066565b620149ff6131a084013562000066565b62014a0f6131c084013562000066565b62014a1f6131e084013562000066565b62014a2f61320084013562000066565b62014a3f61322084013562000066565b62014a4f61324084013562000066565b62014a5f61326084013562000066565b62014a6f61328084013562000066565b62014a7f6132a084013562000066565b62014a8f6132c084013562000066565b62014a9f6132e084013562000066565b62014aaf61330084013562000066565b62014abf61332084013562000066565b62014acf61334084013562000066565b62014adf61336084013562000066565b62014aef61338084013562000066565b62014aff6133a084013562000066565b62014b0f6133c084013562000066565b62014b1f6133e084013562000066565b62014b2f61340084013562000066565b62014b3f61342084013562000066565b62014b4f61344084013562000066565b62014b5f61346084013562000066565b62014b6f61348084013562000066565b62014b7f6134a084013562000066565b62014b8f6134c084013562000066565b62014b9f6134e084013562000066565b62014baf61350084013562000066565b62014bbf61352084013562000066565b62014bcf61354084013562000066565b62014bdf61356084013562000066565b62014bef61358084013562000066565b62014bff6135a084013562000066565b62014c0f6135c084013562000066565b62014c1f6135e084013562000066565b62014c2f61360084013562000066565b62014c3f61362084013562000066565b62014c4f61364084013562000066565b62014c5f61366084013562000066565b62014c6f61368084013562000066565b62014c7f6136a084013562000066565b62014c8f6136c084013562000066565b62014c9f6136e084013562000066565b62014caf61370084013562000066565b62014cbf61372084013562000066565b62014ccf61374084013562000066565b62014cdf61376084013562000066565b62014cef61378084013562000066565b62014cff6137a084013562000066565b62014d0f6137c084013562000066565b62014d1f6137e084013562000066565b62014d2f61380084013562000066565b62014d3f61382084013562000066565b62014d4f61384084013562000066565b62014d5f61386084013562000066565b62014d6f61388084013562000066565b62014d7f6138a084013562000066565b62014d8f6138c084013562000066565b62014d9f6138e084013562000066565b62014daf61390084013562000066565b62014dbf61392084013562000066565b62014dcf61394084013562000066565b62014ddf61396084013562000066565b62014def61398084013562000066565b62014dff6139a084013562000066565b62014e0f6139c084013562000066565b62014e1f6139e084013562000066565b62014e2f613a0084013562000066565b62014e3f613a2084013562000066565b62014e4f613a4084013562000066565b62014e5f613a6084013562000066565b62014e6f613a8084013562000066565b62014e7f613aa084013562000066565b62014e8f613ac084013562000066565b62014e9f613ae084013562000066565b62014eaf613b0084013562000066565b62014ebf613b2084013562000066565b62014ecf613b4084013562000066565b62014edf613b6084013562000066565b62014eef613b8084013562000066565b62014eff613ba084013562000066565b62014f0f613bc084013562000066565b62014f1f613be084013562000066565b62014f2f613c0084013562000066565b62014f3f613c2084013562000066565b62014f4f613c4084013562000066565b62014f5f613c6084013562000066565b62014f6f613c8084013562000066565b62014f7f613ca084013562000066565b62014f8f613cc084013562000066565b62014f9f613ce084013562000066565b62014faf613d0084013562000066565b62014fbf613d2084013562000066565b62014fcf613d4084013562000066565b62014fdf613d6084013562000066565b62014fef613d8084013562000066565b62014fff613da084013562000066565b6201500f613dc084013562000066565b6201501f613de084013562000066565b6201502f613e0084013562000066565b6201503f613e2084013562000066565b6201504f613e4084013562000066565b6201505f613e6084013562000066565b6201506f613e8084013562000066565b6201507f613ea084013562000066565b6201508f613ec084013562000066565b6201509f613ee084013562000066565b620150af613f0084013562000066565b620150bf613f2084013562000066565b620150cf613f4084013562000066565b620150df613f6084013562000066565b620150ef613f8084013562000066565b620150ff613fa084013562000066565b6201510f613fc084013562000066565b6201511f613fe084013562000066565b6201512f61400084013562000066565b6201513f61402084013562000066565b6201514f61404084013562000066565b6201515f61406084013562000066565b6201516f61408084013562000066565b6201517f6140a084013562000066565b6201518f6140c084013562000066565b6201519f6140e084013562000066565b620151af61410084013562000066565b620151bf61412084013562000066565b620151cf61414084013562000066565b620151df61416084013562000066565b620151ef61418084013562000066565b620151ff6141a084013562000066565b6201520f6141c084013562000066565b6201521f6141e084013562000066565b6201522f61420084013562000066565b6201523f61422084013562000066565b6201524f61424084013562000066565b6201525f61426084013562000066565b6201526f61428084013562000066565b6201527f6142a084013562000066565b6201528f6142c084013562000066565b6201529f6142e084013562000066565b620152af61430084013562000066565b620152bf61432084013562000066565b620152cf61434084013562000066565b620152df61436084013562000066565b620152ef61438084013562000066565b620152ff6143a084013562000066565b6201530f6143c084013562000066565b6201531f6143e084013562000066565b6201532f61440084013562000066565b6201533f61442084013562000066565b6201534f61444084013562000066565b6201535f61446084013562000066565b6201536f61448084013562000066565b6201537f6144a084013562000066565b6201538f6144c084013562000066565b6201539f6144e084013562000066565b620153af61450084013562000066565b620153bf61452084013562000066565b620153cf61454084013562000066565b620153df61456084013562000066565b620153ef61458084013562000066565b620153ff6145a084013562000066565b6201540f6145c084013562000066565b6201541f6145e084013562000066565b6201542f61460084013562000066565b6201543f61462084013562000066565b6201544f61464084013562000066565b6201545f61466084013562000066565b6201546f61468084013562000066565b6201547f6146a084013562000066565b6201548f6146c084013562000066565b6201549f6146e084013562000066565b620154af61470084013562000066565b620154bf61472084013562000066565b620154cf61474084013562000066565b620154df61476084013562000066565b620154ef61478084013562000066565b620154ff6147a084013562000066565b6201550f6147c084013562000066565b6201551f6147e084013562000066565b6201552f61480084013562000066565b6201553f61482084013562000066565b6201554f61484084013562000066565b6201555f61486084013562000066565b6201556f61488084013562000066565b6201557f6148a084013562000066565b6201558f6148c084013562000066565b6201559f6148e084013562000066565b620155af61490084013562000066565b620155bf61492084013562000066565b620155cf61494084013562000066565b620155df61496084013562000066565b620155ef61498084013562000066565b620155ff6149a084013562000066565b6201560f6149c084013562000066565b6201561f6149e084013562000066565b6201562f614a0084013562000066565b6201563f614a2084013562000066565b6201564f614a4084013562000066565b6201565f614a6084013562000066565b6201566f614a8084013562000066565b6201567f614aa084013562000066565b6201568f614ac084013562000066565b6201569f614ae084013562000066565b620156af614b0084013562000066565b620156bf614b2084013562000066565b620156cf614b4084013562000066565b620156df614b6084013562000066565b620156ef614b8084013562000066565b620156ff614ba084013562000066565b6201570f614bc084013562000066565b6201571f614be084013562000066565b6201572f614c0084013562000066565b6201573f614c2084013562000066565b6201574f614c4084013562000066565b6201575f614c6084013562000066565b6201576f614c8084013562000066565b6201577f614ca084013562000066565b6201578f614cc084013562000066565b6201579f614ce084013562000066565b620157af614d0084013562000066565b620157bf614d2084013562000066565b620157cf614d4084013562000066565b620157df614d6084013562000066565b620157ef614d8084013562000066565b620157ff614da084013562000066565b6201580f614dc084013562000066565b6201581f614de084013562000066565b6201582f614e0084013562000066565b6201583f614e2084013562000066565b6201584f614e4084013562000066565b6201585f614e6084013562000066565b6201586f614e8084013562000066565b6201587f614ea084013562000066565b6201588f614ec084013562000066565b6201589f614ee084013562000066565b620158af614f0084013562000066565b620158bf614f2084013562000066565b620158cf614f4084013562000066565b620158df614f6084013562000066565b620158ef614f8084013562000066565b620158ff614fa084013562000066565b6201590f614fc084013562000066565b6201591f614fe084013562000066565b6201592f61500084013562000066565b6201593f61502084013562000066565b6201594f61504084013562000066565b6201595f61506084013562000066565b6201596f61508084013562000066565b6201597f6150a084013562000066565b6201598f6150c084013562000066565b6201599f6150e084013562000066565b620159af61510084013562000066565b620159bf61512084013562000066565b620159cf61514084013562000066565b620159df61516084013562000066565b620159ef61518084013562000066565b620159ff6151a084013562000066565b62015a0f6151c084013562000066565b62015a1f6151e084013562000066565b62015a2f61520084013562000066565b62015a3f61522084013562000066565b62015a4f61524084013562000066565b62015a5f61526084013562000066565b62015a6f61528084013562000066565b62015a7f6152a084013562000066565b62015a8f6152c084013562000066565b62015a9f6152e084013562000066565b62015aaf61530084013562000066565b62015abf61532084013562000066565b62015acf61534084013562000066565b62015adf61536084013562000066565b62015aef61538084013562000066565b62015aff6153a084013562000066565b62015b0f6153c084013562000066565b62015b1f6153e084013562000066565b62015b2f61540084013562000066565b62015b3f61542084013562000066565b62015b4f61544084013562000066565b62015b5f61546084013562000066565b62015b6f61548084013562000066565b62015b7f6154a084013562000066565b62015b8f6154c084013562000066565b62015b9f6154e084013562000066565b62015baf61550084013562000066565b62015bbf61552084013562000066565b62015bcf61554084013562000066565b62015bdf61556084013562000066565b62015bef61558084013562000066565b62015bff6155a084013562000066565b62015c0f6155c084013562000066565b62015c1f6155e084013562000066565b62015c2f61560084013562000066565b62015c3f61562084013562000066565b62015c4f61564084013562000066565b62015c5f61566084013562000066565b62015c6f61568084013562000066565b62015c7f6156a084013562000066565b62015c8f6156c084013562000066565b62015c9f6156e084013562000066565b62015caf61570084013562000066565b62015cbf61572084013562000066565b62015ccf61574084013562000066565b62015cdf61576084013562000066565b62015cef61578084013562000066565b62015cff6157a084013562000066565b62015d0f6157c084013562000066565b62015d1f6157e084013562000066565b62015d2f61580084013562000066565b62015d3f61582084013562000066565b62015d4f61584084013562000066565b62015d5f61586084013562000066565b62015d6f61588084013562000066565b62015d7f6158a084013562000066565b62015d8f6158c084013562000066565b62015d9f6158e084013562000066565b62015daf61590084013562000066565b62015dbf61592084013562000066565b62015dcf61594084013562000066565b62015ddf61596084013562000066565b62015def61598084013562000066565b62015dff6159a084013562000066565b62015e0f6159c084013562000066565b62015e1f6159e084013562000066565b62015e2f615a0084013562000066565b62015e3f615a2084013562000066565b62015e4f615a4084013562000066565b62015e5f615a6084013562000066565b62015e6f615a8084013562000066565b62015e7f615aa084013562000066565b62015e8f615ac084013562000066565b62015e9f615ae084013562000066565b62015eaf615b0084013562000066565b62015ebf615b2084013562000066565b62015ecf615b4084013562000066565b62015edf615b6084013562000066565b62015eef615b8084013562000066565b62015eff615ba084013562000066565b62015f0f615bc084013562000066565b62015f1f615be084013562000066565b62015f2f615c0084013562000066565b62015f3f615c2084013562000066565b62015f4f615c4084013562000066565b62015f5f615c6084013562000066565b62015f6f615c8084013562000066565b62015f7f615ca084013562000066565b62015f8f615cc084013562000066565b62015f9f615ce084013562000066565b62015faf615d0084013562000066565b62015fbf615d2084013562000066565b62015fcf615d4084013562000066565b62015fdf615d6084013562000066565b62015fef615d8084013562000066565b62015fff615da084013562000066565b6201600f615dc084013562000066565b6201601f615de084013562000066565b6201602f615e0084013562000066565b6201603f615e2084013562000066565b6201604f615e4084013562000066565b6201605f615e6084013562000066565b6201606f615e8084013562000066565b6201607f615ea084013562000066565b6201608f615ec084013562000066565b6201609f615ee084013562000066565b620160af615f0084013562000066565b620160bf615f2084013562000066565b620160cf615f4084013562000066565b620160df615f6084013562000066565b620160ef615f8084013562000066565b620160ff615fa084013562000066565b6201610f615fc084013562000066565b6201611f615fe084013562000066565b6201612f61600084013562000066565b6201613f61602084013562000066565b6201614f61604084013562000066565b6201615f61606084013562000066565b6201616f61608084013562000066565b6201617f6160a084013562000066565b6201618f6160c084013562000066565b6201619f6160e084013562000066565b620161af61610084013562000066565b620161bf61612084013562000066565b620161cf61614084013562000066565b620161df61616084013562000066565b620161ef61618084013562000066565b620161ff6161a084013562000066565b6201620f6161c084013562000066565b6201621f6161e084013562000066565b6201622f61620084013562000066565b6201623f61622084013562000066565b6201624f61624084013562000066565b6201625f61626084013562000066565b6201626f61628084013562000066565b6201627f6162a084013562000066565b6201628f6162c084013562000066565b6201629f6162e084013562000066565b620162af61630084013562000066565b620162bf61632084013562000066565b620162cf61634084013562000066565b620162df61636084013562000066565b620162ef61638084013562000066565b620162ff6163a084013562000066565b6201630f6163c084013562000066565b6201631f6163e084013562000066565b6201632f61640084013562000066565b6201633f61642084013562000066565b6201634f61644084013562000066565b6201635f61646084013562000066565b6201636f61648084013562000066565b6201637f6164a084013562000066565b6201638f6164c084013562000066565b6201639f6164e084013562000066565b620163af61650084013562000066565b620163bf61652084013562000066565b620163cf61654084013562000066565b620163df61656084013562000066565b620163ef61658084013562000066565b620163ff6165a084013562000066565b6201640f6165c084013562000066565b6201641f6165e084013562000066565b6201642f61660084013562000066565b6201643f61662084013562000066565b6201644f61664084013562000066565b6201645f61666084013562000066565b6201646f61668084013562000066565b6201647f6166a084013562000066565b6201648f6166c084013562000066565b6201649f6166e084013562000066565b620164af61670084013562000066565b620164bf61672084013562000066565b620164cf61674084013562000066565b620164df61676084013562000066565b620164ef61678084013562000066565b620164ff6167a084013562000066565b6201650f6167c084013562000066565b6201651f6167e084013562000066565b6201652f61680084013562000066565b6201653f61682084013562000066565b6201654f61684084013562000066565b6201655f61686084013562000066565b6201656f61688084013562000066565b6201657f6168a084013562000066565b6201658f6168c084013562000066565b6201659f6168e084013562000066565b620165af61690084013562000066565b620165bf61692084013562000066565b620165cf61694084013562000066565b620165df61696084013562000066565b620165ef61698084013562000066565b620165ff6169a084013562000066565b6201660f6169c084013562000066565b6201661f6169e084013562000066565b6201662f616a0084013562000066565b6201663f616a2084013562000066565b6201664f616a4084013562000066565b6201665f616a6084013562000066565b6201666f616a8084013562000066565b6201667f616aa084013562000066565b6201668f616ac084013562000066565b6201669f616ae084013562000066565b620166af616b0084013562000066565b620166bf616b2084013562000066565b620166cf616b4084013562000066565b620166df616b6084013562000066565b620166ef616b8084013562000066565b620166ff616ba084013562000066565b6201670f616bc084013562000066565b6201671f616be084013562000066565b6201672f616c0084013562000066565b6201673f616c2084013562000066565b6201674f616c4084013562000066565b6201675f616c6084013562000066565b6201676f616c8084013562000066565b6201677f616ca084013562000066565b6201678f616cc084013562000066565b6201679f616ce084013562000066565b620167af616d0084013562000066565b620167bf616d2084013562000066565b620167cf616d4084013562000066565b620167df616d6084013562000066565b620167ef616d8084013562000066565b620167ff616da084013562000066565b6201680f616dc084013562000066565b6201681f616de084013562000066565b6201682f616e0084013562000066565b6201683f616e2084013562000066565b6201684f616e4084013562000066565b6201685f616e6084013562000066565b6201686f616e8084013562000066565b6201687f616ea084013562000066565b6201688f616ec084013562000066565b6201689f616ee084013562000066565b620168af616f0084013562000066565b620168bf616f2084013562000066565b620168cf616f4084013562000066565b620168df616f6084013562000066565b620168ef616f8084013562000066565b620168ff616fa084013562000066565b6201690f616fc084013562000066565b6201691f616fe084013562000066565b6201692f61700084013562000066565b6201693f61702084013562000066565b6201694f61704084013562000066565b6201695f61706084013562000066565b6201696f61708084013562000066565b6201697f6170a084013562000066565b6201698f6170c084013562000066565b6201699f6170e084013562000066565b620169af61710084013562000066565b620169bf61712084013562000066565b620169cf61714084013562000066565b620169df61716084013562000066565b620169ef61718084013562000066565b620169ff6171a084013562000066565b62016a0f6171c084013562000066565b62016a1f6171e084013562000066565b62016a2f61720084013562000066565b62016a3f61722084013562000066565b62016a4f61724084013562000066565b62016a5f61726084013562000066565b62016a6f61728084013562000066565b62016a7f6172a084013562000066565b62016a8f6172c084013562000066565b62016a9f6172e084013562000066565b62016aaf61730084013562000066565b62016abf61732084013562000066565b62016acf61734084013562000066565b62016adf61736084013562000066565b62016aef61738084013562000066565b62016aff6173a084013562000066565b62016b0f6173c084013562000066565b62016b1f6173e084013562000066565b62016b2f61740084013562000066565b62016b3e818486888a62000108565b90508060005260206000f35b806040810183101562016b5c57600080fd5b92915050565b600080600080617520858703121562016b7a57600080fd5b62016b86868662016b4a565b935060c085018681111562016b9a57600080fd5b60408601935062016bac878262016b4a565b925050856175208601111562016bc157600080fd5b5091949093509091610100019056fe30644e72e131a029b85045b68181585d97816a916871ca8d3c208c16d87cfd47a26469706673582212205f16c7f4410b4274a441c70481dc105f08b44ae33931ec969a0b9b5713b1e45764736f6c634300081c0033",
  "linkReferences": {},
  "deployedLinkReferences": {}
}