{
  "_format": "hh-sol-artifact-1",
  "contractName": "Groth16Verifier",
  "sourceName": "src/Verifier.sol",
  "abi": [
    {
      "inputs": [
        {
          "internalType": "uint256[2]",
          "name": "_pA",
          "type": "uint256[2]"
        },
        {
          "internalType": "uint256[2][2]",
          "name": "_pB",
          "type": "uint256[2][2]"
        },
        {
          "internalType": "uint256[2]",
          "name": "_pC",
          "type": "uint256[2]"
        },
        {
          "internalType": "uint256[5]",
          "name": "_pubSignals",
          "type": "uint256[5]"
        }
      ],
      "name": "verifyProof",
      "outputs": [
        {
          "internalType": "bool",
          "name": "",
          "type": "bool"
        }
      ],
      "stateMutability": "view",
      "type": "function"
    }
  ],
  "bytecode": "0x6080604052348015600f57600080fd5b506106cf8061001f6000396000f3fe608060405234801561001057600080fd5b506004361061002b5760003560e01c806334baeab914610030575b600080fd5b61004361003e366004610612565b610057565b604051901515815260200160405180910390f35b6000610596565b7f30644e72e131a029b85045b68181585d2833e84879b9709143e1f593f0000001811061008f576000805260206000f35b50565b600060405183815284602082015285604082015260408160608360076107d05a03fa9150816100c5576000805260206000f35b825160408201526020830151606082015260408360808360066107d05a03fa915050806100f6576000805260206000f35b5050505050565b7f2e793d4550dd71e85936f4a318c219098d15c0e16487f6f80402239b82dc6f2885527f0d3bdeff0067611417b24af863bf21d567311e911de4a9d329187f22ec4d5a1260208601526000608086018661019a87357f23a5571bfb6944e71ca2dd8b03ec8d8d2c3e69909dc235b3628be780a51153377f1b7aded3421bbed3e33dbef7c6391003dd0ee54f9d0795b01ff9aadd7fc03e1384610092565b6101ea60208801357f17f39bc2724c5a36f181c1ffe437f5abe368acd772eda3c14ff1b48d9d2ec4f87f067d589f9f82f765eb779d2ee8d5313c6e55d439cfbbe6af2bd99e024835a8dd84610092565b61023a60408801357f14efb2f499f226d7cc051c13967cf8630dfd8e7c93a7d5451a2e87b42d90bca87f197f134c9549ab733da8753ee726d8a533375a511ca404ff71bb4733b112e05684610092565b61028a60608801357f303d0d6b9acca9f5dd38fe08768bc53b75a4966f052cd201e87b11593e46df9a7f0542d6ac658cb6ac751867cdab971e72c569167ca3c9554051f65b581920539184610092565b6102da60808801357f275f4f3de6bc5b62308e2eaa42119c9677752e3825b3a9045d79d6fd41c17e1a7f0182654d5a0d9bfa34aee2b7f1cce935ba4d227d7cc0671f411dce3035a2a5ba84610092565b508235815260008051602061067a833981519152602084013560008051602061067a83398151915203066020820152833560408201526020840135606082015260408401356080820152606084013560a08201527f0ea38025e7a4e5dbdcb979c6827b249a862d7e5777029c3478417a94b72842dd60c08201527f16788c1440478a40e9e3441f4867f7eea29193105e2a9a0fb1439a7bd8db4c4760e08201527f225d3d8155d9cd648e7e7aac2a854f723b8ec7210fde9886e0b134d727c0d1b66101008201527f219a70ecfa8647c860358f0dd7ee07c850daf4885e24f939791fa7898685e4536101208201527f2103bac4a1a44aca01d980b854bafcd095dec694a4f41fd45b88080df3c353ed6101408201527f085b7cd62d3561878785f5f558379a45b31d1d5a2546e94e843c8c2b0fb568b5610160820152600087015161018082015260206000018701516101a08201527f198e9393920d483a7260bfb731fb5d25f1aa493335a9e71297e485b7aef312c26101c08201527f1800deef121f1e76426a00665e5c4479674322d4f75edadd46debd5cd992f6ed6101e08201527f090689d0585ff075ec9e99ad690c3395bc4b313370b38ef355acdadcd122975b6102008201527f12c85ea5db8c6deb4aab71808dcb408fe3d1e7690c43d37b4ce6cc0166fa7daa610220820152843561024082015260208501356102608201527f200211e9d3a0cf2566ae8f899a7e22df74bfde31fd5f1a9c526207ae10d7c72b6102808201527f174e3dcc5d22e9c7792e98909d36e9e0d768f5187322f13f064eff7df49f61cd6102a08201527f25909968804b0a47df51a22dfc3d74ea5977839af094b9c3f6c6269fd8b339eb6102c08201527f243c764fe03429f00ebfea7e246605af46bce9a60fff240ca0bcbfeed919ec776102e08201526020816103008360086107d05a03fa9051169695505050505050565b60405161038081016040526105ae600084013561005e565b6105bb602084013561005e565b6105c8604084013561005e565b6105d5606084013561005e565b6105e2608084013561005e565b6105ef818486888a6100fd565b90508060005260206000f35b806040810183101561060c57600080fd5b92915050565b6000806000806101a0858703121561062957600080fd5b61063386866105fb565b935060c085018681111561064657600080fd5b60408601935061065687826105fb565b925050856101a08601111561066a57600080fd5b5091949093509091610100019056fe30644e72e131a029b85045b68181585d97816a916871ca8d3c208c16d87cfd47a264697066735822122067ea30ed05ac4b9c06cdce844faa4a316a5ee6c1e705ab6aaf575e3312508ff664736f6c634300081c0033",
  "linkReferences": {},
  "deployedLinkReferences": {}
}